{"contracts/NFTMarketplace.sol":{"NFTMarketplace":{"abi":[{"inputs":[],"stateMutability":"nonpayable","type":"constructor"},{"anonymous":false,"inputs":[{"indexed":true,"internalType":"address","name":"owner","type":"address"},{"indexed":true,"internalType":"address","name":"approved","type":"address"},{"indexed":true,"internalType":"uint256","name":"tokenId","type":"uint256"}],"name":"Approval","type":"event"},{"anonymous":false,"inputs":[{"indexed":true,"internalType":"address","name":"owner","type":"address"},{"indexed":true,"internalType":"address","name":"operator","type":"address"},{"indexed":false,"internalType":"bool","name":"approved","type":"bool"}],"name":"ApprovalForAll","type":"event"},{"anonymous":false,"inputs":[{"indexed":false,"internalType":"uint256","name":"_fromTokenId","type":"uint256"},{"indexed":false,"internalType":"uint256","name":"_toTokenId","type":"uint256"}],"name":"BatchMetadataUpdate","type":"event"},{"anonymous":false,"inputs":[{"indexed":true,"internalType":"uint256","name":"tokenId","type":"uint256"},{"indexed":false,"internalType":"address","name":"seller","type":"address"},{"indexed":false,"internalType":"address","name":"owner","type":"address"},{"indexed":false,"internalType":"uint256","name":"price","type":"uint256"},{"indexed":false,"internalType":"bool","name":"sold","type":"bool"}],"name":"MarketItemCreated","type":"event"},{"anonymous":false,"inputs":[{"indexed":false,"internalType":"uint256","name":"_tokenId","type":"uint256"}],"name":"MetadataUpdate","type":"event"},{"anonymous":false,"inputs":[{"indexed":true,"internalType":"uint256","name":"tokenId","type":"uint256"},{"indexed":true,"internalType":"address","name":"creator","type":"address"},{"indexed":false,"internalType":"string","name":"metadataURI","type":"string"},{"indexed":false,"internalType":"uint256","name":"timestamp","type":"uint256"}],"name":"ProvenanceRecorded","type":"event"},{"anonymous":false,"inputs":[{"indexed":true,"internalType":"uint256","name":"tokenId","type":"uint256"},{"indexed":true,"internalType":"address","name":"seller","type":"address"},{"indexed":false,"internalType":"uint256","name":"price","type":"uint256"},{"indexed":false,"internalType":"uint256","name":"timestamp","type":"uint256"}],"name":"TokenResold","type":"event"},{"anonymous":false,"inputs":[{"indexed":true,"internalType":"uint256","name":"tokenId","type":"uint256"},{"indexed":true,"internalType":"address","name":"from","type":"address"},{"indexed":true,"internalType":"address","name":"to","type":"address"},{"indexed":false,"internalType":"uint256","name":"price","type":"uint256"},{"indexed":false,"internalType":"uint256","name":"timestamp","type":"uint256"}],"name":"TokenSold","type":"event"},{"anonymous":false,"inputs":[{"indexed":true,"internalType":"address","name":"from","type":"address"},{"indexed":true,"internalType":"address","name":"to","type":"address"},{"indexed":true,"internalType":"uint256","name":"tokenId","type":"uint256"}],"name":"Transfer","type":"event"},{"inputs":[{"internalType":"address","name":"to","type":"address"},{"internalType":"uint256","name":"tokenId","type":"uint256"}],"name":"approve","outputs":[],"stateMutability":"nonpayable","type":"function"},{"inputs":[{"internalType":"address","name":"owner","type":"address"}],"name":"balanceOf","outputs":[{"internalType":"uint256","name":"","type":"uint256"}],"stateMutability":"view","type":"function"},{"inputs":[{"internalType":"uint256","name":"tokenId","type":"uint256"}],"name":"createMarketSale","outputs":[],"stateMutability":"payable","type":"function"},{"inputs":[{"internalType":"string","name":"tokenURI","type":"string"},{"internalType":"uint256","name":"price","type":"uint256"},{"internalType":"string","name":"mediaType","type":"string"}],"name":"createToken","outputs":[{"internalType":"uint256","name":"","type":"uint256"}],"stateMutability":"payable","type":"function"},{"inputs":[],"name":"fetchItemsListed","outputs":[{"components":[{"internalType":"uint256","name":"tokenId","type":"uint256"},{"internalType":"address payable","name":"seller","type":"address"},{"internalType":"address payable","name":"owner","type":"address"},{"internalType":"uint256","name":"price","type":"uint256"},{"internalType":"bool","name":"sold","type":"bool"}],"internalType":"struct NFTMarketplace.MarketItem[]","name":"","type":"tuple[]"}],"stateMutability":"view","type":"function"},{"inputs":[{"internalType":"address","name":"targetAddress","type":"address"}],"name":"fetchListedNFTs","outputs":[{"components":[{"internalType":"uint256","name":"tokenId","type":"uint256"},{"internalType":"address payable","name":"seller","type":"address"},{"internalType":"address payable","name":"owner","type":"address"},{"internalType":"uint256","name":"price","type":"uint256"},{"internalType":"bool","name":"sold","type":"bool"}],"internalType":"struct NFTMarketplace.MarketItem[]","name":"","type":"tuple[]"}],"stateMutability":"view","type":"function"},{"inputs":[],"name":"fetchMarketItems","outputs":[{"components":[{"internalType":"uint256","name":"tokenId","type":"uint256"},{"internalType":"address payable","name":"seller","type":"address"},{"internalType":"address payable","name":"owner","type":"address"},{"internalType":"uint256","name":"price","type":"uint256"},{"internalType":"bool","name":"sold","type":"bool"}],"internalType":"struct NFTMarketplace.MarketItem[]","name":"","type":"tuple[]"}],"stateMutability":"view","type":"function"},{"inputs":[],"name":"fetchMyNFTs","outputs":[{"components":[{"internalType":"uint256","name":"tokenId","type":"uint256"},{"internalType":"address payable","name":"seller","type":"address"},{"internalType":"address payable","name":"owner","type":"address"},{"internalType":"uint256","name":"price","type":"uint256"},{"internalType":"bool","name":"sold","type":"bool"}],"internalType":"struct NFTMarketplace.MarketItem[]","name":"","type":"tuple[]"}],"stateMutability":"view","type":"function"},{"inputs":[{"internalType":"uint256","name":"tokenId","type":"uint256"}],"name":"fetchNFTByTokenId","outputs":[{"components":[{"internalType":"uint256","name":"tokenId","type":"uint256"},{"internalType":"address payable","name":"seller","type":"address"},{"internalType":"address payable","name":"owner","type":"address"},{"internalType":"uint256","name":"price","type":"uint256"},{"internalType":"bool","name":"sold","type":"bool"}],"internalType":"struct NFTMarketplace.MarketItem","name":"","type":"tuple"}],"stateMutability":"view","type":"function"},{"inputs":[{"internalType":"string","name":"mediaType","type":"string"}],"name":"fetchNFTsByMediaType","outputs":[{"components":[{"internalType":"uint256","name":"tokenId","type":"uint256"},{"internalType":"address payable","name":"seller","type":"address"},{"internalType":"address payable","name":"owner","type":"address"},{"internalType":"uint256","name":"price","type":"uint256"},{"internalType":"bool","name":"sold","type":"bool"}],"internalType":"struct NFTMarketplace.MarketItem[]","name":"","type":"tuple[]"}],"stateMutability":"view","type":"function"},{"inputs":[{"internalType":"address","name":"targetAddress","type":"address"}],"name":"fetchOwnedNFTs","outputs":[{"components":[{"internalType":"uint256","name":"tokenId","type":"uint256"},{"internalType":"address payable","name":"seller","type":"address"},{"internalType":"address payable","name":"owner","type":"address"},{"internalType":"uint256","name":"price","type":"uint256"},{"internalType":"bool","name":"sold","type":"bool"}],"internalType":"struct NFTMarketplace.MarketItem[]","name":"","type":"tuple[]"}],"stateMutability":"view","type":"function"},{"inputs":[{"internalType":"uint256","name":"tokenId","type":"uint256"}],"name":"getApproved","outputs":[{"internalType":"address","name":"","type":"address"}],"stateMutability":"view","type":"function"},{"inputs":[],"name":"getAvailableMediaTypes","outputs":[{"internalType":"string[]","name":"","type":"string[]"}],"stateMutability":"view","type":"function"},{"inputs":[{"internalType":"uint256","name":"tokenId","type":"uint256"}],"name":"getCurrentTokenOwner","outputs":[{"internalType":"address","name":"","type":"address"}],"stateMutability":"view","type":"function"},{"inputs":[],"name":"getListingPrice","outputs":[{"internalType":"uint256","name":"","type":"uint256"}],"stateMutability":"view","type":"function"},{"inputs":[{"internalType":"uint256","name":"tokenId","type":"uint256"}],"name":"getTokenMediaType","outputs":[{"internalType":"string","name":"","type":"string"}],"stateMutability":"view","type":"function"},{"inputs":[{"internalType":"uint256","name":"tokenId","type":"uint256"}],"name":"getTokenOwnerCount","outputs":[{"internalType":"uint256","name":"","type":"uint256"}],"stateMutability":"view","type":"function"},{"inputs":[{"internalType":"uint256","name":"tokenId","type":"uint256"}],"name":"getTokenOwnershipHistory","outputs":[{"internalType":"address[]","name":"","type":"address[]"}],"stateMutability":"view","type":"function"},{"inputs":[{"internalType":"uint256","name":"tokenId","type":"uint256"}],"name":"getTokenProvenance","outputs":[{"components":[{"internalType":"address","name":"creator","type":"address"},{"internalType":"uint256","name":"creationTime","type":"uint256"},{"internalType":"string","name":"metadataURI","type":"string"},{"internalType":"bool","name":"verified","type":"bool"}],"internalType":"struct NFTMarketplace.Provenance","name":"","type":"tuple"}],"stateMutability":"view","type":"function"},{"inputs":[{"internalType":"uint256","name":"tokenId","type":"uint256"}],"name":"getTokenTransactionCount","outputs":[{"internalType":"uint256","name":"","type":"uint256"}],"stateMutability":"view","type":"function"},{"inputs":[{"internalType":"uint256","name":"tokenId","type":"uint256"}],"name":"getTokenTransactionHistory","outputs":[{"components":[{"internalType":"address","name":"from","type":"address"},{"internalType":"address","name":"to","type":"address"},{"internalType":"uint256","name":"price","type":"uint256"},{"internalType":"uint256","name":"timestamp","type":"uint256"},{"internalType":"enum NFTMarketplace.TransactionType","name":"transactionType","type":"uint8"}],"internalType":"struct NFTMarketplace.TransactionHistory[]","name":"","type":"tuple[]"}],"stateMutability":"view","type":"function"},{"inputs":[{"internalType":"address","name":"creator","type":"address"}],"name":"getTokensCreatedBy","outputs":[{"internalType":"uint256[]","name":"","type":"uint256[]"}],"stateMutability":"view","type":"function"},{"inputs":[{"internalType":"address","name":"owner","type":"address"},{"internalType":"address","name":"operator","type":"address"}],"name":"isApprovedForAll","outputs":[{"internalType":"bool","name":"","type":"bool"}],"stateMutability":"view","type":"function"},{"inputs":[{"internalType":"uint256","name":"tokenId","type":"uint256"}],"name":"isOriginalToken","outputs":[{"internalType":"bool","name":"","type":"bool"}],"stateMutability":"view","type":"function"},{"inputs":[],"name":"name","outputs":[{"internalType":"string","name":"","type":"string"}],"stateMutability":"view","type":"function"},{"inputs":[{"internalType":"uint256","name":"tokenId","type":"uint256"}],"name":"ownerOf","outputs":[{"internalType":"address","name":"","type":"address"}],"stateMutability":"view","type":"function"},{"inputs":[{"internalType":"uint256","name":"tokenId","type":"uint256"},{"internalType":"uint256","name":"price","type":"uint256"}],"name":"resellToken","outputs":[],"stateMutability":"payable","type":"function"},{"inputs":[{"internalType":"address","name":"from","type":"address"},{"internalType":"address","name":"to","type":"address"},{"internalType":"uint256","name":"tokenId","type":"uint256"}],"name":"safeTransferFrom","outputs":[],"stateMutability":"nonpayable","type":"function"},{"inputs":[{"internalType":"address","name":"from","type":"address"},{"internalType":"address","name":"to","type":"address"},{"internalType":"uint256","name":"tokenId","type":"uint256"},{"internalType":"bytes","name":"data","type":"bytes"}],"name":"safeTransferFrom","outputs":[],"stateMutability":"nonpayable","type":"function"},{"inputs":[{"internalType":"address","name":"operator","type":"address"},{"internalType":"bool","name":"approved","type":"bool"}],"name":"setApprovalForAll","outputs":[],"stateMutability":"nonpayable","type":"function"},{"inputs":[{"internalType":"bytes4","name":"interfaceId","type":"bytes4"}],"name":"supportsInterface","outputs":[{"internalType":"bool","name":"","type":"bool"}],"stateMutability":"view","type":"function"},{"inputs":[],"name":"symbol","outputs":[{"internalType":"string","name":"","type":"string"}],"stateMutability":"view","type":"function"},{"inputs":[{"internalType":"uint256","name":"tokenId","type":"uint256"}],"name":"tokenURI","outputs":[{"internalType":"string","name":"","type":"string"}],"stateMutability":"view","type":"function"},{"inputs":[{"internalType":"address","name":"from","type":"address"},{"internalType":"address","name":"to","type":"address"},{"internalType":"uint256","name":"tokenId","type":"uint256"}],"name":"transferFrom","outputs":[],"stateMutability":"nonpayable","type":"function"},{"inputs":[{"internalType":"uint256","name":"_listingPrice","type":"uint256"}],"name":"updateListingPrice","outputs":[],"stateMutability":"payable","type":"function"}],"evm":{"bytecode":{"linkReferences":{},"object":"60803462000334576001600160401b0390604090808201838111828210176200031e578252601081526020926f4d657461766572736520546f6b656e7360801b848301528251838101818110838211176200031e57845260048152631351551560e21b858201528251908282116200031e5760008054926001958685811c9516801562000313575b89861014620002ff578190601f95868111620002ac575b508990868311600114620002485784926200023c575b5050600019600383901b1c191690861b1781555b8151938411620002285784548581811c911680156200021d575b888210146200020957838111620001c1575b50869284116001146200015b578394959650926200014f575b5050600019600383901b1c191690821b1781555b60075566038d7ea4c68000600a55600b80546001600160a01b031916331790555161355190816200033a8239f35b0151905038806200010d565b9190601f1984169685845280842093905b888210620001a957505083859697106200018f575b505050811b01815562000121565b015160001960f88460031b161c1916905538808062000181565b8087859682949686015181550195019301906200016c565b8582528782208480870160051c8201928a8810620001ff575b0160051c019086905b828110620001f3575050620000f4565b838155018690620001e3565b92508192620001da565b634e487b7160e01b82526022600452602482fd5b90607f1690620000e2565b634e487b7160e01b81526041600452602490fd5b015190503880620000b4565b8480528a85208994509190601f198416865b8d8282106200029557505084116200027b575b505050811b018155620000c8565b015160001960f88460031b161c191690553880806200026d565b8385015186558c979095019493840193016200025a565b9091508380528984208680850160051c8201928c8610620002f5575b918a91869594930160051c01915b828110620002e65750506200009e565b8681558594508a9101620002d6565b92508192620002c8565b634e487b7160e01b83526022600452602483fd5b94607f169462000087565b634e487b7160e01b600052604160045260246000fd5b600080fdfe608080604052600436101561001357600080fd5b60003560e01c90816301ffc9a7146129545750806306566f421461291457806306fdde0314612869578063081812fc1461284b578063095ea7b3146126d15780630f08efe014612618578063121490a6146125c957806312e85585146125ab578063202e3740146124b5578063213cc53014612466578063226523dd146122e557806323b872dd146122bc57806342842e0e1461229457806345f8fa8014612190578063607307b61461208b5780636352211e1461205b57806370a0823114611fc4578063821af93c14611f5f578063899a058414611e2a57806395d89b4114611d47578063a22cb46514611c6c578063ae677aa314611b75578063b424651914611b12578063b88d4fde14611ab1578063be9af536146115a9578063c4a4d903146114a4578063c6c9b5b114610b67578063c87b56dd14610af5578063cb301f7f14610a0b578063cc55ae69146108a1578063cebefca5146106fc578063ddc0f312146105c4578063e219fc75146102db578063e985e9c5146102855763edb6770f146101a057600080fd5b3461028057602080600319360112610280576004356000818152600260205260409020546101dd906001600160a01b03161515612bfd565b612bfd565b600052600f8152604060002060405190818382549182815201908192600052846000209060005b8682821061026357868661021a82880383612b6c565b604051928392818401908285525180915260408401929160005b82811061024357505050500390f35b83516001600160a01b031685528695509381019392810192600101610234565b83546001600160a01b031685529093019260019283019201610204565b600080fd5b346102805760403660031901126102805761029e612a21565b6102a6612a37565b9060018060a01b03809116600052600560205260406000209116600052602052602060ff604060002054166040519015158152f35b6040366003190112610280576004356024908135916102f86132a0565b61030182612f2d565b6001600160a01b0390339082160361056d57600a54340361051c57610327841515613019565b82600052602091600c83526040600020600481019060ff1991828154169055866003820155600260018201916001600160601b0360a01b92338482541617905501308282541617905560095480156104d8576000190160095561038986612f98565b336000526014855261039f866040600020612fbb565b6103a9863361335f565b85600052600d8552604060002093604051916103c483612b00565b33835286830130815260408401918a83526060850193428552608086019860028a52805490600160401b8210156104c357600182018082558210156104ae57918091600498979695949360005260058d60002091020196511682875416178655600186019251169082541617905551600283015551600382015501925191600483101561049a575060ff90835416911617905561046282303361313c565b60405192835242908301527fd6088ca62b31f4b677670aa9482babf70665e6c8a746e78e6bfda34689ae90d960403393a36001600755005b634e487b7160e01b60009081526021600452fd5b89634e487b7160e01b60005260326004526000fd5b89634e487b7160e01b60005260416004526000fd5b60405162461bcd60e51b815260048101879052601b818601527f436f756e7465723a2064656372656d656e74206f766572666c6f7700000000006044820152606490fd5b60405162461bcd60e51b8152602060048201528083018390527f5072696365206d75737420626520657175616c20746f206c697374696e6720706044820152637269636560e01b6064820152608490fd5b60405162461bcd60e51b815260206004820152602a818401527f4f6e6c79206974656d206f776e65722063616e20706572666f726d20746869736044820152691037b832b930ba34b7b760b11b6064820152608490fd5b3461028057602080600319360112610280576105de612a21565b6008546001600160a01b03918216916000919060015b828111156106c2575061061f61060984612d5d565b936106176040519586612b6c565b808552612d5d565b8386019490601f190136863760009160015b8481111561067c57878688604051928392818401908285525180915260408401929160005b82811061066557505050500390f35b835185528695509381019392810192600101610656565b80600052600e8852828260406000205416146106a1575b61069c90613065565b610631565b926106ba81856106b461069c948a612e6b565b52613065565b939050610693565b80600052600e8652848260406000205416146106e7575b6106e290613065565b6105f4565b926106f46106e291613065565b9390506106d9565b3461028057602080600319360112610280576004356001600160401b0381116102805781610731610744923690600401612bdf565b81604051938285809451938492016129d9565b81016011815203019020604051808284829454938481520190600052846000209260005b8682821061088b578461077d81860382612b6c565b6000805b82518110156107ca576107948184612e6b565b51600052600c845260ff60046040600020015416156107b6575b600101610781565b906107c2600191613065565b9190506107ae565b506107d490612d9f565b916000805b8351811015610879576107ec8185612e6b565b51600052600c8352604060002060ff6004820154161580610812575b50506001016107d9565b92610871916001939460036040519261082a84612b00565b80548452868060a01b038088830154168a8601526002820154166040850152015460608301521560808201526108608289612e6b565b5261086b8188612e6b565b50613065565b919086610808565b604051806108878782612a4d565b0390f35b8554845260019586019587955093019201610768565b3461028057602080600319360112610280576004356000818152600260205260409020546108d9906001600160a01b03161515612bfd565b600052600d815260406000209081546108f181612d5d565b906108ff6040519283612b6c565b808252600093845282842083830194855b8382106109a65760408051878152865181890181905289928201908960005b82811061093c5784840385f35b909192855160018060a01b038082511683528482015116848301526040810151604083015260608082015190830152608080910151906004821015610990578201529482019460a00192919060010161092f565b634e487b7160e01b600052602160045260246000fd5b6040516109b281612b00565b83546001600160a01b03908116825260018501541687820152600284015460408201526003840154606082015260048085015460ff16908110156109905760019282899260806005950152815201930191019091610910565b34610280576020806003193601126102805760043560006060604051610a3081612b1b565b82815282858201528160408201520152610a626101d882600052600260205260018060a01b0360406000205416151590565b600052600e815260406000209060405190610a7c82612b1b565b82546001600160a01b03908116835260018401548284019081529093610ae89160ff6003610aac60028501612c7a565b936040880194855201541693606086019415158552604051968796828852511690860152516040850152516080606085015260a08401906129fc565b9051151560808301520390f35b3461028057602036600319011261028057600435600081815260026020526040902054610b2c906001600160a01b03161515612ee1565b6000526006602052610887610b446040600020612c7a565b6000604051610b5281612b36565b526040519182916020835260208301906129fc565b6060366003190112610280576004356001600160401b03811161028057610b92903690600401612bdf565b6044356001600160401b03811161028057610bb1903690600401612bdf565b90610bba6132a0565b610bc76024351515613019565b6001600854019182600855331561146057600083815260026020526040902054610bfd906001600160a01b031615155b15613313565b600083815260026020526040902054610c20906001600160a01b03161515610bf7565b3360005260036020526040600020600181540190558260005260026020526040600020336001600160601b0360a01b825416179055823360007fddf252ad1be2c89b69c2b068fc378daa952ba7f163c4a11628f55a4df523b3ef8180a46000838152600260205260409020546001600160a01b03161561140457826000526006602052604060002082516001600160401b03811161119d57610cc28254612c40565b601f81116113c0575b50806020601f82116001146113595760009161134e575b508160011b916000199060031b1c19161790555b7ff8e1a15aba9398e019f0b49df1a4fde98ee17ae345cb5f6b5e2c27f5033e8ce76020604051858152a182600052601060205260406000208151906001600160401b03821161119d578491610d4b8254612c40565b601f81116112fc575b506020601f82116001146112885793610d9d9282602093610dac9760009161127d575b508160011b916000199060031b1c191617905581604051938285809451938492016129d9565b81016011815203019020612fbb565b604051610db881612b1b565b3381526020810190428252604081018381526001606083015284600052600e60205260406000209260018060a01b038351166001600160601b0360a01b855416178455516001840155518051906001600160401b03821161119d57610e206002850154612c40565b601f8111611236575b50602090601f83116001146111be579282600393606093610e7b97966000926111b3575b50508160011b9160001990861b1c19161760028501555b0151151591019060ff801983541691151516179055565b817f6832c4a8240aec284b577356b6cecff5af48c14e65c3cfe48759bfde75f9b144610eb2604051936040855260408501906129fc565b924260208201528033940390a380600052600f602052610ed6336040600020612fde565b80600052600d602052604060002060405190610ef182612b00565b600082523360208301526000604083015242606083015260006080830152805490600160401b82101561119d5760018201808255821015611187576080916004916000526005602060002091020160018060a01b038451166001600160601b0360a01b8254161781556001810160018060a01b036020860151166001600160601b0360a01b82541617905560408401516002820155606084015160038201550191015160048110156109905760ff8019835416911617905560243515611142576001600160a01b03610fc282612f2d565b1633036110ed5760209061106d604051610fdb81612b00565b8281526004848201338152604083013081526060840190602435825260808501926000845287600052600c8952604060002095518655600186019060018060a01b039051166001600160601b0360a01b825416179055600285019060018060a01b039051166001600160601b0360a01b82541617905551600384015551151591019060ff801983541691151516179055565b61107681612f98565b336000526014825261108c816040600020612fbb565b611096813361335f565b6110a181303361313c565b807fb640004f1d14576d0c209e240cad0410e0d8c0c33a09375861fbadae2588a98d60806040513381523086820152602435604082015260006060820152a26001600755604051908152f35b60405162461bcd60e51b815260206004820152602760248201527f4f6e6c7920746f6b656e206f776e65722063616e20637265617465206d61726b6044820152666574206974656d60c81b6064820152608490fd5b60405162461bcd60e51b815260206004820152601c60248201527f5072696365206d757374206265206174206c65617374203120776569000000006044820152606490fd5b634e487b7160e01b600052603260045260246000fd5b634e487b7160e01b600052604160045260246000fd5b015190508980610e4d565b906002850160005260206000209160005b601f198516811061121e575083606093610e7b979693600193600397601f19811610611206575b505050811b016002850155610e64565b015160001983881b60f8161c191690558980806111f6565b919260206001819286850151815501940192016111cf565b600285016000526020600020601f840160051c810160208510611276575b601f830160051c8201811061126a575050610e29565b60008155600101611254565b5080611254565b90508301518a610d77565b8260005260206000209060005b601f19841681106112e1575092600183610dac9793610d9d96602096601f198116106112c8575b5050811b019055610731565b85015160001960f88460031b161c191690558a806112bc565b86820151835588955060019092019160209182019101611295565b90918093506000526020600020601f830160051c810160208410611347575b9087949392915b601f830160051c82018110611338575050610d54565b60008155889550600101611322565b508061131b565b905084015186610ce2565b91508260005260206000206000925b601f19831684106113a8576001935082601f1981161061138f575b5050811b019055610cf6565b86015160001960f88460031b161c191690558680611383565b86810151825560209384019360019092019101611368565b826000526020600020601f830160051c8101602084106113fd575b601f830160051c820181106113f1575050610ccb565b600081556001016113db565b50806113db565b60405162461bcd60e51b815260206004820152602e60248201527f45524337323155524953746f726167653a2055524920736574206f66206e6f6e60448201526d32bc34b9ba32b73a103a37b5b2b760911b6064820152608490fd5b606460405162461bcd60e51b815260206004820152602060248201527f4552433732313a206d696e7420746f20746865207a65726f20616464726573736044820152fd5b3461028057602080600319360112610280576001600160a01b0390816114c8612a21565b1660005260138152604060002090604051808383829554938481520190600052836000209260005b858282106115935750505061150792500383612b6c565b6115118251612d9f565b9260005b8351811015610879578061152b60019286612e6b565b51600052600c8452604060002060ff60046040519261154984612b00565b805484528686820154168885015286600282015416604085015260038101546060850152015416151560808201526115818288612e6b565b5261158c8187612e6b565b5001611515565b85548452600195860195889550930192016114f0565b6020366003190112610280576115bd6132a0565b6004356000908152600c6020526040902060038101546001909101546001600160a01b031634829003611a47576001600160a01b036115fd600435612f2d565b1630036119ef57600435600052600c60205260ff600460406000200154166119aa5780331461195b57600435600052600c6020526004604060002060028101336001600160601b0360a01b82541617905501600160ff1982541617905560016009540160095560005b6012908154808210156119535761167c82612def565b60043591549060031b1c1461169657506001915001611666565b6000199181830191821161191e576116c06116b36116d993612def565b90549060031b1c91612def565b90919082549060031b91821b91600019901b1916179055565b8154801561193d5701906117006116ef83612def565b8154906000199060031b1b19169055565b555b80600052601460205260406000209060005b825480821015611934576117288285612e26565b60043591549060031b1c146117405750600101611714565b91929091600019810190811161191e57611777926116c06117646117729385612e26565b90549060031b1c9184612e26565b6132f6565b3360005260136020526117906004356040600020612fbb565b600435600052600f6020526117a9336040600020612fde565b600435600052600d6020526040600020604051906117c682612b00565b82825233602083015283604083015242606083015260016080830152805490600160401b82101561119d5760018201808255821015611187576080916004916000526005602060002091020160018060a01b038451166001600160601b0360a01b8254161781556001810160018060a01b036020860151166001600160601b0360a01b82541617905560408401516002820155606084015160038201550191015160048110156109905760ff80198354169116179055611889600435333061313c565b600080808060018060a01b03600b5416600a5490828215611915575bf115611900576000341561190c575b600080808093853491f1156119005760405191825242602083015233917fa831d161ab34fd077c450edfeeac91cd8cc4e1d8a3b07930cf05bf9c0a23d83e604060043592a46001600755005b6040513d6000823e3d90fd5b506108fc6118b4565b506108fc6118a5565b634e487b7160e01b600052601160045260246000fd5b50509050611777565b634e487b7160e01b600052603160045260246000fd5b505050611702565b60405162461bcd60e51b815260206004820152602160248201527f53656c6c65722063616e6e6f7420627579207468656972206f776e20746f6b656044820152603760f91b6064820152608490fd5b60405162461bcd60e51b815260206004820152601960248201527f54686973206974656d20697320616c726561647920736f6c64000000000000006044820152606490fd5b60405162461bcd60e51b815260206004820152602a60248201527f4d61726b6574706c616365206d75737420626520746865206f776e6572206f66604482015269103a3432903a37b5b2b760b11b6064820152608490fd5b608460405162461bcd60e51b815260206004820152604060248201527f506c65617365207375626d6974207468652061736b696e67207072696365206960448201527f6e206f7264657220746f20636f6d706c657465207468652070757263686173656064820152fd5b3461028057608036600319011261028057611aca612a21565b611ad2612a37565b606435916001600160401b038311610280573660238401121561028057611b06611b10933690602481600401359101612ba8565b9160443591612f50565b005b3461028057602036600319011261028057600435600081815260026020526040902054611b49906001600160a01b03161515612bfd565b6000526010602052610887611b616040600020612c7a565b6040519182916020835260208301906129fc565b602036600319011261028057600b546001600160a01b031633819003611c01573303611ba357600435600a55005b60405162461bcd60e51b815260206004820152603060248201527f4f6e6c79206d61726b6574706c616365206f776e65722063616e20757064617460448201526f32903634b9ba34b73390383934b1b29760811b6064820152608490fd5b60405162461bcd60e51b815260206004820152603a60248201527f6f6e6c79206f776e6572206f6620746865206d61726b6574706c61636520636160448201527f6e206368616e676520746865206c697374696e672070726963650000000000006064820152608490fd5b3461028057604036600319011261028057611c85612a21565b6024359081151590818303610280576001600160a01b031691338314611d0257611cd49033600052600560205260406000208460005260205260406000209060ff801983541691151516179055565b6040519081527f17307eab39ab6107e8899845ad3d59bd9653f200f220920489ca2b5937696c3160203392a3005b60405162461bcd60e51b815260206004820152601960248201527f4552433732313a20617070726f766520746f2063616c6c6572000000000000006044820152606490fd5b3461028057600036600319011261028057604051600060018260015492611d6d84612c40565b9283835260209485600182169182600014611e0a575050600114611dad575b50611d9992500383612b6c565b6108876040519282849384528301906129fc565b84915060016000527fb10e2d527612073b26eecdfd717e6a320cf44b4afac2b0732d9fcbe2b7fa0cf6906000915b858310611df2575050611d99935082010185611d8c565b80548389018501528794508693909201918101611ddb565b60ff191685820152611d9995151560051b8501019250879150611d8c9050565b3461028057600036600319011261028057604051611e4781612b1b565b600381526020908160005b606080821015611e6a57828285010152018290611e52565b505050604051611e7981612b51565b6005815264696d61676560d81b83820152611e9382612e3e565b52611e9d81612e3e565b50604051611eaa81612b51565b6005815264766964656f60d81b83820152611ec482612e4b565b52611ece81612e4b565b50604051611edb81612b51565b6005815264617564696f60d81b83820152611ef582612e5b565b52611eff81612e5b565b506040519082820192808352815180945260408301938160408260051b8601019301916000955b828710611f335785850386f35b909192938280611f4f600193603f198a820301865288516129fc565b9601920196019592919092611f26565b34610280576020366003190112610280576020600435611f976101d882600052600260205260018060a01b0360406000205416151590565b6000818152600e835260409020546001600160a01b0390811691611fba90612f2d565b1614604051908152f35b34610280576020366003190112610280576001600160a01b03611fe5612a21565b1680156120045760005260036020526020604060002054604051908152f35b60405162461bcd60e51b815260206004820152602960248201527f4552433732313a2061646472657373207a65726f206973206e6f7420612076616044820152683634b21037bbb732b960b91b6064820152608490fd5b34610280576020366003190112610280576020612079600435612f2d565b6040516001600160a01b039091168152f35b3461028057602080600319360112610280576001600160a01b0390816120af612a21565b1660005260148152604060002090604051808383829554938481520190600052836000209260005b8582821061217a575050506120ee92500383612b6c565b6120f88251612d9f565b9260005b8351811015610879578061211260019286612e6b565b51600052600c8452604060002060ff60046040519261213084612b00565b805484528686820154168885015286600282015416604085015260038101546060850152015416151560808201526121688288612e6b565b526121738187612e6b565b50016120fc565b85548452600195860195889550930192016120d7565b3461028057600036600319011261028057336000526020601481526040600020604051808284829454938481520190600052846000209260005b8682821061227e57846121df81860382612b6c565b6121e98151612d9f565b9160005b8251811015612270578061220360019285612e6b565b51600052600c8352604060002060ff60046040519261222184612b00565b80548452858060a01b03808783015416888601526002820154166040850152600381015460608501520154161515608082015261225e8287612e6b565b526122698186612e6b565b50016121ed565b604051806108878682612a4d565b85548452600195860195879550930192016121ca565b3461028057611b106122a536612acb565b90604051926122b384612b36565b60008452612f50565b3461028057611b106122cd36612acb565b916122e06122db8433613074565b612e7f565b61313c565b3461028057602036600319011261028057600435612301612d74565b50600081815260026020526040902054612325906001600160a01b03161515612bfd565b600080601254905b81811061243c575b505061234082612f2d565b6001600160a01b0391908115612430575b50156123eb5760a091600052600c60205260ff600460406000206040519361237885612b00565b81548552806001830154166020860152600282015416604085015260038101546060850152015416151560808201526123e960405180926080809180518452602081015160018060a01b03809116602086015260408201511660408501526060810151606085015201511515910152565bf35b60405162461bcd60e51b815260206004820152601760248201527f546f6b656e206973206e6f742061636365737369626c650000000000000000006044820152606490fd5b82163314905083612351565b8361244682612def565b90549060031b1c1461245a5760010161232d565b50505060018280612335565b346102805760203660031901126102805760043560008181526002602052604090205461249d906001600160a01b03161515612bfd565b600052600d6020526020604060002054604051908152f35b3461028057600036600319011261028057336000526020601381526040600020604051808284829454938481520190600052846000209260005b86828210612595578461250481860382612b6c565b61250e8151612d9f565b9160005b8251811015612270578061252860019285612e6b565b51600052600c8352604060002060ff60046040519261254684612b00565b80548452858060a01b0380878301541688860152600282015416604085015260038101546060850152015416151560808201526125838287612e6b565b5261258e8186612e6b565b5001612512565b85548452600195860195879550930192016124ef565b34610280576000366003190112610280576020600a54604051908152f35b3461028057602036600319011261028057600435600081815260026020526040902054612600906001600160a01b03161515612bfd565b600052600f6020526020604060002054604051908152f35b346102805760003660031901126102805760125461263581612d9f565b9060005b81811061264e57604051806108878582612a4d565b8061265a600192612def565b9054600391821b1c60005260ff6004602092600c84526040600020906040519461268386612b00565b82548652878060a01b03908189850154169087015260028301541660408601528101546060850152015416151560808201526126bf8286612e6b565b526126ca8185612e6b565b5001612639565b34610280576040366003190112610280576126ea612a21565b602435906001600160a01b03808061270185612f2d565b169216918083146127fc578033149081156127d7575b501561276c57600083815260046020526040902080546001600160a01b0319168317905561274483612f2d565b167f8c5be1e5ebec7d5bd14f71427d1e84f3dd0314c0f7b2291e5b200ac8c7c3b925600080a4005b60405162461bcd60e51b815260206004820152603d60248201527f4552433732313a20617070726f76652063616c6c6572206973206e6f7420746f60448201527f6b656e206f776e6572206f7220617070726f76656420666f7220616c6c0000006064820152608490fd5b9050600052600560205260406000203360005260205260ff6040600020541684612717565b60405162461bcd60e51b815260206004820152602160248201527f4552433732313a20617070726f76616c20746f2063757272656e74206f776e656044820152603960f91b6064820152608490fd5b34610280576020366003190112610280576020612079600435612d1f565b346102805760003660031901126102805760405160008054908261288c83612c40565b9182825260209360019085600182169182600014611e0a5750506001146128ba5750611d9992500383612b6c565b6000808052859250907f290decd9548b62a8d60345a988386fc84ba6bc95484008f6362f93160ef3e5635b8583106128fc575050611d99935082010185611d8c565b805483890185015287945086939092019181016128e5565b3461028057602036600319011261028057602061207960043561294f6101d882600052600260205260018060a01b0360406000205416151590565b612f2d565b34610280576020366003190112610280576004359063ffffffff60e01b821680920361028057602091632483248360e11b8114908115612996575b5015158152f35b6380ac58cd60e01b8114915081156129c8575b81156129b7575b508361298f565b6301ffc9a760e01b149050836129b0565b635b5e139f60e01b811491506129a9565b60005b8381106129ec5750506000910152565b81810151838201526020016129dc565b90602091612a15815180928185528580860191016129d9565b601f01601f1916010190565b600435906001600160a01b038216820361028057565b602435906001600160a01b038216820361028057565b602090602060408183019282815285518094520193019160005b828110612a75575050505090565b909192938260a082612abf60019489516080809180518452602081015160018060a01b03809116602086015260408201511660408501526060810151606085015201511515910152565b01950193929101612a67565b6060906003190112610280576001600160a01b0390600435828116810361028057916024359081168103610280579060443590565b60a081019081106001600160401b0382111761119d57604052565b608081019081106001600160401b0382111761119d57604052565b602081019081106001600160401b0382111761119d57604052565b604081019081106001600160401b0382111761119d57604052565b90601f801991011681019081106001600160401b0382111761119d57604052565b6001600160401b03811161119d57601f01601f191660200190565b929192612bb482612b8d565b91612bc26040519384612b6c565b829481845281830111610280578281602093846000960137010152565b9080601f8301121561028057816020612bfa93359101612ba8565b90565b15612c0457565b60405162461bcd60e51b8152602060048201526014602482015273151bdad95b88191bd95cc81b9bdd08195e1a5cdd60621b6044820152606490fd5b90600182811c92168015612c70575b6020831014612c5a57565b634e487b7160e01b600052602260045260246000fd5b91607f1691612c4f565b90604051918260008254612c8d81612c40565b90818452602094600191600181169081600014612cfd5750600114612cbe575b505050612cbc92500383612b6c565b565b600090815285812095935091905b818310612ce5575050612cbc9350820101388080612cad565b85548884018501529485019487945091830191612ccc565b92505050612cbc94925060ff191682840152151560051b820101388080612cad565b600081815260026020526040902054612d42906001600160a01b03161515612ee1565b6000908152600460205260409020546001600160a01b031690565b6001600160401b03811161119d5760051b60200190565b60405190612d8182612b00565b60006080838281528260208201528260408201528260608201520152565b90612da982612d5d565b612db66040519182612b6c565b8281528092612dc7601f1991612d5d565b019060005b828110612dd857505050565b602090612de3612d74565b82828501015201612dcc565b6012548110156111875760126000527fbb8a6a4669ba250d26cd7a459eca9d215f8307e33aebe50379bc5a3617ec34440190600090565b80548210156111875760005260206000200190600090565b8051156111875760200190565b8051600110156111875760400190565b8051600210156111875760600190565b80518210156111875760209160051b010190565b15612e8657565b60405162461bcd60e51b815260206004820152602d60248201527f4552433732313a2063616c6c6572206973206e6f7420746f6b656e206f776e6560448201526c1c881bdc88185c1c1c9bdd9959609a1b6064820152608490fd5b15612ee857565b60405162461bcd60e51b815260206004820152601860248201527f4552433732313a20696e76616c696420746f6b656e20494400000000000000006044820152606490fd5b6000908152600260205260409020546001600160a01b0316612bfa811515612ee1565b90612f74939291612f646122db8433613074565b612f6f83838361313c565b6133f8565b15612f7b57565b60405162461bcd60e51b815280612f946004820161324d565b0390fd5b60125490600160401b82101561119d576116c0826001612cbc9401601255612def565b90815491600160401b83101561119d57826116c0916001612cbc95018155612e26565b8054600160401b81101561119d57612ffb91600182018155612e26565b60018060a09493941b038084549260031b9316831b921b1916179055565b1561302057565b60405162461bcd60e51b815260206004820152601c60248201527f5072696365206d7573742062652067726561746572207468616e2030000000006044820152606490fd5b600019811461191e5760010190565b906001600160a01b03808061308884612f2d565b169316918383149384156130bb575b5083156130a5575b50505090565b6130b191929350612d1f565b161438808061309f565b909350600052600560205260406000208260005260205260ff604060002054169238613097565b156130e957565b60405162461bcd60e51b815260206004820152602560248201527f4552433732313a207472616e736665722066726f6d20696e636f72726563742060448201526437bbb732b960d91b6064820152608490fd5b906131649161314a84612f2d565b6001600160a01b03939184169284929091831684146130e2565b169182156131fc57816131819161317a86612f2d565b16146130e2565b7fddf252ad1be2c89b69c2b068fc378daa952ba7f163c4a11628f55a4df523b3ef60008481526004602052604081206001600160601b0360a01b9081815416905583825260036020526040822060001981540190558482526040822060018154019055858252600260205284604083209182541617905580a4565b60405162461bcd60e51b8152602060048201526024808201527f4552433732313a207472616e7366657220746f20746865207a65726f206164646044820152637265737360e01b6064820152608490fd5b60809060208152603260208201527f4552433732313a207472616e7366657220746f206e6f6e20455243373231526560408201527131b2b4bb32b91034b6b83632b6b2b73a32b960711b60608201520190565b6002600754146132b1576002600755565b60405162461bcd60e51b815260206004820152601f60248201527f5265656e7472616e637947756172643a207265656e7472616e742063616c6c006044820152606490fd5b8054801561193d5760001901906133106116ef8383612e26565b55565b1561331a57565b60405162461bcd60e51b815260206004820152601c60248201527f4552433732313a20746f6b656e20616c7265616479206d696e746564000000006044820152606490fd5b6001600160a01b031660009081526013602052604081209091825b8254808210156133f15782906133908386612e26565b929054600393841b1c146133a857505060010161337a565b91939490925060001982019182116133dd5750916116c0611772926133d18695612cbc97612e26565b9054911b1c9184612e26565b634e487b7160e01b81526011600452602490fd5b5050505050565b9293919290803b156135115761344c9460018060a01b039460405192839187630a85bd0160e11b9687855233600486015216602484015260448301526080606483015281806020998a9560848301906129fc565b03916000988991165af18491816134cd575b506134bc575050503d6000146134b4573d61347881612b8d565b906134866040519283612b6c565b81528091833d92013e5b805191826134b15760405162461bcd60e51b815280612f946004820161324d565b01fd5b506060613490565b6001600160e01b0319161492509050565b9091508581813d831161350a575b6134e58183612b6c565b8101031261350657516001600160e01b03198116810361350657903861345e565b8480fd5b503d6134db565b505091505060019056fea26469706673582212205d06a1e0d492656b76bc02761e01ae616c35536c7932d49315b1f9ec767ad5c764736f6c63430008180033","opcodes":"PUSH1 0x80 CALLVALUE PUSH3 0x334 JUMPI PUSH1 0x1 PUSH1 0x1 PUSH1 0x40 SHL SUB SWAP1 PUSH1 0x40 SWAP1 DUP1 DUP3 ADD DUP4 DUP2 GT DUP3 DUP3 LT OR PUSH3 0x31E JUMPI DUP3 MSTORE PUSH1 0x10 DUP2 MSTORE PUSH1 0x20 SWAP3 PUSH16 0x4D657461766572736520546F6B656E73 PUSH1 0x80 SHL DUP5 DUP4 ADD MSTORE DUP3 MLOAD DUP4 DUP2 ADD DUP2 DUP2 LT DUP4 DUP3 GT OR PUSH3 0x31E JUMPI DUP5 MSTORE PUSH1 0x4 DUP2 MSTORE PUSH4 0x13515515 PUSH1 0xE2 SHL DUP6 DUP3 ADD MSTORE DUP3 MLOAD SWAP1 DUP3 DUP3 GT PUSH3 0x31E JUMPI PUSH1 0x0 DUP1 SLOAD SWAP3 PUSH1 0x1 SWAP6 DUP7 DUP6 DUP2 SHR SWAP6 AND DUP1 ISZERO PUSH3 0x313 JUMPI JUMPDEST DUP10 DUP7 LT EQ PUSH3 0x2FF JUMPI DUP2 SWAP1 PUSH1 0x1F SWAP6 DUP7 DUP2 GT PUSH3 0x2AC JUMPI JUMPDEST POP DUP10 SWAP1 DUP7 DUP4 GT PUSH1 0x1 EQ PUSH3 0x248 JUMPI DUP5 SWAP3 PUSH3 0x23C JUMPI JUMPDEST POP POP PUSH1 0x0 NOT PUSH1 0x3 DUP4 SWAP1 SHL SHR NOT AND SWAP1 DUP7 SHL OR DUP2 SSTORE JUMPDEST DUP2 MLOAD SWAP4 DUP5 GT PUSH3 0x228 JUMPI DUP5 SLOAD DUP6 DUP2 DUP2 SHR SWAP2 AND DUP1 ISZERO PUSH3 0x21D JUMPI JUMPDEST DUP9 DUP3 LT EQ PUSH3 0x209 JUMPI DUP4 DUP2 GT PUSH3 0x1C1 JUMPI JUMPDEST POP DUP7 SWAP3 DUP5 GT PUSH1 0x1 EQ PUSH3 0x15B JUMPI DUP4 SWAP5 SWAP6 SWAP7 POP SWAP3 PUSH3 0x14F JUMPI JUMPDEST POP POP PUSH1 0x0 NOT PUSH1 0x3 DUP4 SWAP1 SHL SHR NOT AND SWAP1 DUP3 SHL OR DUP2 SSTORE JUMPDEST PUSH1 0x7 SSTORE PUSH7 0x38D7EA4C68000 PUSH1 0xA SSTORE PUSH1 0xB DUP1 SLOAD PUSH1 0x1 PUSH1 0x1 PUSH1 0xA0 SHL SUB NOT AND CALLER OR SWAP1 SSTORE MLOAD PUSH2 0x3551 SWAP1 DUP2 PUSH3 0x33A DUP3 CODECOPY RETURN JUMPDEST ADD MLOAD SWAP1 POP CODESIZE DUP1 PUSH3 0x10D JUMP JUMPDEST SWAP2 SWAP1 PUSH1 0x1F NOT DUP5 AND SWAP7 DUP6 DUP5 MSTORE DUP1 DUP5 KECCAK256 SWAP4 SWAP1 JUMPDEST DUP9 DUP3 LT PUSH3 0x1A9 JUMPI POP POP DUP4 DUP6 SWAP7 SWAP8 LT PUSH3 0x18F JUMPI JUMPDEST POP POP POP DUP2 SHL ADD DUP2 SSTORE PUSH3 0x121 JUMP JUMPDEST ADD MLOAD PUSH1 0x0 NOT PUSH1 0xF8 DUP5 PUSH1 0x3 SHL AND SHR NOT AND SWAP1 SSTORE CODESIZE DUP1 DUP1 PUSH3 0x181 JUMP JUMPDEST DUP1 DUP8 DUP6 SWAP7 DUP3 SWAP5 SWAP7 DUP7 ADD MLOAD DUP2 SSTORE ADD SWAP6 ADD SWAP4 ADD SWAP1 PUSH3 0x16C JUMP JUMPDEST DUP6 DUP3 MSTORE DUP8 DUP3 KECCAK256 DUP5 DUP1 DUP8 ADD PUSH1 0x5 SHR DUP3 ADD SWAP3 DUP11 DUP9 LT PUSH3 0x1FF JUMPI JUMPDEST ADD PUSH1 0x5 SHR ADD SWAP1 DUP7 SWAP1 JUMPDEST DUP3 DUP2 LT PUSH3 0x1F3 JUMPI POP POP PUSH3 0xF4 JUMP JUMPDEST DUP4 DUP2 SSTORE ADD DUP7 SWAP1 PUSH3 0x1E3 JUMP JUMPDEST SWAP3 POP DUP2 SWAP3 PUSH3 0x1DA JUMP JUMPDEST PUSH4 0x4E487B71 PUSH1 0xE0 SHL DUP3 MSTORE PUSH1 0x22 PUSH1 0x4 MSTORE PUSH1 0x24 DUP3 REVERT JUMPDEST SWAP1 PUSH1 0x7F AND SWAP1 PUSH3 0xE2 JUMP JUMPDEST PUSH4 0x4E487B71 PUSH1 0xE0 SHL DUP2 MSTORE PUSH1 0x41 PUSH1 0x4 MSTORE PUSH1 0x24 SWAP1 REVERT JUMPDEST ADD MLOAD SWAP1 POP CODESIZE DUP1 PUSH3 0xB4 JUMP JUMPDEST DUP5 DUP1 MSTORE DUP11 DUP6 KECCAK256 DUP10 SWAP5 POP SWAP2 SWAP1 PUSH1 0x1F NOT DUP5 AND DUP7 JUMPDEST DUP14 DUP3 DUP3 LT PUSH3 0x295 JUMPI POP POP DUP5 GT PUSH3 0x27B JUMPI JUMPDEST POP POP POP DUP2 SHL ADD DUP2 SSTORE PUSH3 0xC8 JUMP JUMPDEST ADD MLOAD PUSH1 0x0 NOT PUSH1 0xF8 DUP5 PUSH1 0x3 SHL AND SHR NOT AND SWAP1 SSTORE CODESIZE DUP1 DUP1 PUSH3 0x26D JUMP JUMPDEST DUP4 DUP6 ADD MLOAD DUP7 SSTORE DUP13 SWAP8 SWAP1 SWAP6 ADD SWAP5 SWAP4 DUP5 ADD SWAP4 ADD PUSH3 0x25A JUMP JUMPDEST SWAP1 SWAP2 POP DUP4 DUP1 MSTORE DUP10 DUP5 KECCAK256 DUP7 DUP1 DUP6 ADD PUSH1 0x5 SHR DUP3 ADD SWAP3 DUP13 DUP7 LT PUSH3 0x2F5 JUMPI JUMPDEST SWAP2 DUP11 SWAP2 DUP7 SWAP6 SWAP5 SWAP4 ADD PUSH1 0x5 SHR ADD SWAP2 JUMPDEST DUP3 DUP2 LT PUSH3 0x2E6 JUMPI POP POP PUSH3 0x9E JUMP JUMPDEST DUP7 DUP2 SSTORE DUP6 SWAP5 POP DUP11 SWAP2 ADD PUSH3 0x2D6 JUMP JUMPDEST SWAP3 POP DUP2 SWAP3 PUSH3 0x2C8 JUMP JUMPDEST PUSH4 0x4E487B71 PUSH1 0xE0 SHL DUP4 MSTORE PUSH1 0x22 PUSH1 0x4 MSTORE PUSH1 0x24 DUP4 REVERT JUMPDEST SWAP5 PUSH1 0x7F AND SWAP5 PUSH3 0x87 JUMP JUMPDEST PUSH4 0x4E487B71 PUSH1 0xE0 SHL PUSH1 0x0 MSTORE PUSH1 0x41 PUSH1 0x4 MSTORE PUSH1 0x24 PUSH1 0x0 REVERT JUMPDEST PUSH1 0x0 DUP1 REVERT INVALID PUSH1 0x80 DUP1 PUSH1 0x40 MSTORE PUSH1 0x4 CALLDATASIZE LT ISZERO PUSH2 0x13 JUMPI PUSH1 0x0 DUP1 REVERT JUMPDEST PUSH1 0x0 CALLDATALOAD PUSH1 0xE0 SHR SWAP1 DUP2 PUSH4 0x1FFC9A7 EQ PUSH2 0x2954 JUMPI POP DUP1 PUSH4 0x6566F42 EQ PUSH2 0x2914 JUMPI DUP1 PUSH4 0x6FDDE03 EQ PUSH2 0x2869 JUMPI DUP1 PUSH4 0x81812FC EQ PUSH2 0x284B JUMPI DUP1 PUSH4 0x95EA7B3 EQ PUSH2 0x26D1 JUMPI DUP1 PUSH4 0xF08EFE0 EQ PUSH2 0x2618 JUMPI DUP1 PUSH4 0x121490A6 EQ PUSH2 0x25C9 JUMPI DUP1 PUSH4 0x12E85585 EQ PUSH2 0x25AB JUMPI DUP1 PUSH4 0x202E3740 EQ PUSH2 0x24B5 JUMPI DUP1 PUSH4 0x213CC530 EQ PUSH2 0x2466 JUMPI DUP1 PUSH4 0x226523DD EQ PUSH2 0x22E5 JUMPI DUP1 PUSH4 0x23B872DD EQ PUSH2 0x22BC JUMPI DUP1 PUSH4 0x42842E0E EQ PUSH2 0x2294 JUMPI DUP1 PUSH4 0x45F8FA80 EQ PUSH2 0x2190 JUMPI DUP1 PUSH4 0x607307B6 EQ PUSH2 0x208B JUMPI DUP1 PUSH4 0x6352211E EQ PUSH2 0x205B JUMPI DUP1 PUSH4 0x70A08231 EQ PUSH2 0x1FC4 JUMPI DUP1 PUSH4 0x821AF93C EQ PUSH2 0x1F5F JUMPI DUP1 PUSH4 0x899A0584 EQ PUSH2 0x1E2A JUMPI DUP1 PUSH4 0x95D89B41 EQ PUSH2 0x1D47 JUMPI DUP1 PUSH4 0xA22CB465 EQ PUSH2 0x1C6C JUMPI DUP1 PUSH4 0xAE677AA3 EQ PUSH2 0x1B75 JUMPI DUP1 PUSH4 0xB4246519 EQ PUSH2 0x1B12 JUMPI DUP1 PUSH4 0xB88D4FDE EQ PUSH2 0x1AB1 JUMPI DUP1 PUSH4 0xBE9AF536 EQ PUSH2 0x15A9 JUMPI DUP1 PUSH4 0xC4A4D903 EQ PUSH2 0x14A4 JUMPI DUP1 PUSH4 0xC6C9B5B1 EQ PUSH2 0xB67 JUMPI DUP1 PUSH4 0xC87B56DD EQ PUSH2 0xAF5 JUMPI DUP1 PUSH4 0xCB301F7F EQ PUSH2 0xA0B JUMPI DUP1 PUSH4 0xCC55AE69 EQ PUSH2 0x8A1 JUMPI DUP1 PUSH4 0xCEBEFCA5 EQ PUSH2 0x6FC JUMPI DUP1 PUSH4 0xDDC0F312 EQ PUSH2 0x5C4 JUMPI DUP1 PUSH4 0xE219FC75 EQ PUSH2 0x2DB JUMPI DUP1 PUSH4 0xE985E9C5 EQ PUSH2 0x285 JUMPI PUSH4 0xEDB6770F EQ PUSH2 0x1A0 JUMPI PUSH1 0x0 DUP1 REVERT JUMPDEST CALLVALUE PUSH2 0x280 JUMPI PUSH1 0x20 DUP1 PUSH1 0x3 NOT CALLDATASIZE ADD SLT PUSH2 0x280 JUMPI PUSH1 0x4 CALLDATALOAD PUSH1 0x0 DUP2 DUP2 MSTORE PUSH1 0x2 PUSH1 0x20 MSTORE PUSH1 0x40 SWAP1 KECCAK256 SLOAD PUSH2 0x1DD SWAP1 PUSH1 0x1 PUSH1 0x1 PUSH1 0xA0 SHL SUB AND ISZERO ISZERO PUSH2 0x2BFD JUMP JUMPDEST PUSH2 0x2BFD JUMP JUMPDEST PUSH1 0x0 MSTORE PUSH1 0xF DUP2 MSTORE PUSH1 0x40 PUSH1 0x0 KECCAK256 PUSH1 0x40 MLOAD SWAP1 DUP2 DUP4 DUP3 SLOAD SWAP2 DUP3 DUP2 MSTORE ADD SWAP1 DUP2 SWAP3 PUSH1 0x0 MSTORE DUP5 PUSH1 0x0 KECCAK256 SWAP1 PUSH1 0x0 JUMPDEST DUP7 DUP3 DUP3 LT PUSH2 0x263 JUMPI DUP7 DUP7 PUSH2 0x21A DUP3 DUP9 SUB DUP4 PUSH2 0x2B6C JUMP JUMPDEST PUSH1 0x40 MLOAD SWAP3 DUP4 SWAP3 DUP2 DUP5 ADD SWAP1 DUP3 DUP6 MSTORE MLOAD DUP1 SWAP2 MSTORE PUSH1 0x40 DUP5 ADD SWAP3 SWAP2 PUSH1 0x0 JUMPDEST DUP3 DUP2 LT PUSH2 0x243 JUMPI POP POP POP POP SUB SWAP1 RETURN JUMPDEST DUP4 MLOAD PUSH1 0x1 PUSH1 0x1 PUSH1 0xA0 SHL SUB AND DUP6 MSTORE DUP7 SWAP6 POP SWAP4 DUP2 ADD SWAP4 SWAP3 DUP2 ADD SWAP3 PUSH1 0x1 ADD PUSH2 0x234 JUMP JUMPDEST DUP4 SLOAD PUSH1 0x1 PUSH1 0x1 PUSH1 0xA0 SHL SUB AND DUP6 MSTORE SWAP1 SWAP4 ADD SWAP3 PUSH1 0x1 SWAP3 DUP4 ADD SWAP3 ADD PUSH2 0x204 JUMP JUMPDEST PUSH1 0x0 DUP1 REVERT JUMPDEST CALLVALUE PUSH2 0x280 JUMPI PUSH1 0x40 CALLDATASIZE PUSH1 0x3 NOT ADD SLT PUSH2 0x280 JUMPI PUSH2 0x29E PUSH2 0x2A21 JUMP JUMPDEST PUSH2 0x2A6 PUSH2 0x2A37 JUMP JUMPDEST SWAP1 PUSH1 0x1 DUP1 PUSH1 0xA0 SHL SUB DUP1 SWAP2 AND PUSH1 0x0 MSTORE PUSH1 0x5 PUSH1 0x20 MSTORE PUSH1 0x40 PUSH1 0x0 KECCAK256 SWAP2 AND PUSH1 0x0 MSTORE PUSH1 0x20 MSTORE PUSH1 0x20 PUSH1 0xFF PUSH1 0x40 PUSH1 0x0 KECCAK256 SLOAD AND PUSH1 0x40 MLOAD SWAP1 ISZERO ISZERO DUP2 MSTORE RETURN JUMPDEST PUSH1 0x40 CALLDATASIZE PUSH1 0x3 NOT ADD SLT PUSH2 0x280 JUMPI PUSH1 0x4 CALLDATALOAD PUSH1 0x24 SWAP1 DUP2 CALLDATALOAD SWAP2 PUSH2 0x2F8 PUSH2 0x32A0 JUMP JUMPDEST PUSH2 0x301 DUP3 PUSH2 0x2F2D JUMP JUMPDEST PUSH1 0x1 PUSH1 0x1 PUSH1 0xA0 SHL SUB SWAP1 CALLER SWAP1 DUP3 AND SUB PUSH2 0x56D JUMPI PUSH1 0xA SLOAD CALLVALUE SUB PUSH2 0x51C JUMPI PUSH2 0x327 DUP5 ISZERO ISZERO PUSH2 0x3019 JUMP JUMPDEST DUP3 PUSH1 0x0 MSTORE PUSH1 0x20 SWAP2 PUSH1 0xC DUP4 MSTORE PUSH1 0x40 PUSH1 0x0 KECCAK256 PUSH1 0x4 DUP2 ADD SWAP1 PUSH1 0xFF NOT SWAP2 DUP3 DUP2 SLOAD AND SWAP1 SSTORE DUP7 PUSH1 0x3 DUP3 ADD SSTORE PUSH1 0x2 PUSH1 0x1 DUP3 ADD SWAP2 PUSH1 0x1 PUSH1 0x1 PUSH1 0x60 SHL SUB PUSH1 0xA0 SHL SWAP3 CALLER DUP5 DUP3 SLOAD AND OR SWAP1 SSTORE ADD ADDRESS DUP3 DUP3 SLOAD AND OR SWAP1 SSTORE PUSH1 0x9 SLOAD DUP1 ISZERO PUSH2 0x4D8 JUMPI PUSH1 0x0 NOT ADD PUSH1 0x9 SSTORE PUSH2 0x389 DUP7 PUSH2 0x2F98 JUMP JUMPDEST CALLER PUSH1 0x0 MSTORE PUSH1 0x14 DUP6 MSTORE PUSH2 0x39F DUP7 PUSH1 0x40 PUSH1 0x0 KECCAK256 PUSH2 0x2FBB JUMP JUMPDEST PUSH2 0x3A9 DUP7 CALLER PUSH2 0x335F JUMP JUMPDEST DUP6 PUSH1 0x0 MSTORE PUSH1 0xD DUP6 MSTORE PUSH1 0x40 PUSH1 0x0 KECCAK256 SWAP4 PUSH1 0x40 MLOAD SWAP2 PUSH2 0x3C4 DUP4 PUSH2 0x2B00 JUMP JUMPDEST CALLER DUP4 MSTORE DUP7 DUP4 ADD ADDRESS DUP2 MSTORE PUSH1 0x40 DUP5 ADD SWAP2 DUP11 DUP4 MSTORE PUSH1 0x60 DUP6 ADD SWAP4 TIMESTAMP DUP6 MSTORE PUSH1 0x80 DUP7 ADD SWAP9 PUSH1 0x2 DUP11 MSTORE DUP1 SLOAD SWAP1 PUSH1 0x1 PUSH1 0x40 SHL DUP3 LT ISZERO PUSH2 0x4C3 JUMPI PUSH1 0x1 DUP3 ADD DUP1 DUP3 SSTORE DUP3 LT ISZERO PUSH2 0x4AE JUMPI SWAP2 DUP1 SWAP2 PUSH1 0x4 SWAP9 SWAP8 SWAP7 SWAP6 SWAP5 SWAP4 PUSH1 0x0 MSTORE PUSH1 0x5 DUP14 PUSH1 0x0 KECCAK256 SWAP2 MUL ADD SWAP7 MLOAD AND DUP3 DUP8 SLOAD AND OR DUP7 SSTORE PUSH1 0x1 DUP7 ADD SWAP3 MLOAD AND SWAP1 DUP3 SLOAD AND OR SWAP1 SSTORE MLOAD PUSH1 0x2 DUP4 ADD SSTORE MLOAD PUSH1 0x3 DUP3 ADD SSTORE ADD SWAP3 MLOAD SWAP2 PUSH1 0x4 DUP4 LT ISZERO PUSH2 0x49A JUMPI POP PUSH1 0xFF SWAP1 DUP4 SLOAD AND SWAP2 AND OR SWAP1 SSTORE PUSH2 0x462 DUP3 ADDRESS CALLER PUSH2 0x313C JUMP JUMPDEST PUSH1 0x40 MLOAD SWAP3 DUP4 MSTORE TIMESTAMP SWAP1 DUP4 ADD MSTORE PUSH32 0xD6088CA62B31F4B677670AA9482BABF70665E6C8A746E78E6BFDA34689AE90D9 PUSH1 0x40 CALLER SWAP4 LOG3 PUSH1 0x1 PUSH1 0x7 SSTORE STOP JUMPDEST PUSH4 0x4E487B71 PUSH1 0xE0 SHL PUSH1 0x0 SWAP1 DUP2 MSTORE PUSH1 0x21 PUSH1 0x4 MSTORE REVERT JUMPDEST DUP10 PUSH4 0x4E487B71 PUSH1 0xE0 SHL PUSH1 0x0 MSTORE PUSH1 0x32 PUSH1 0x4 MSTORE PUSH1 0x0 REVERT JUMPDEST DUP10 PUSH4 0x4E487B71 PUSH1 0xE0 SHL PUSH1 0x0 MSTORE PUSH1 0x41 PUSH1 0x4 MSTORE PUSH1 0x0 REVERT JUMPDEST PUSH1 0x40 MLOAD PUSH3 0x461BCD PUSH1 0xE5 SHL DUP2 MSTORE PUSH1 0x4 DUP2 ADD DUP8 SWAP1 MSTORE PUSH1 0x1B DUP2 DUP7 ADD MSTORE PUSH32 0x436F756E7465723A2064656372656D656E74206F766572666C6F770000000000 PUSH1 0x44 DUP3 ADD MSTORE PUSH1 0x64 SWAP1 REVERT JUMPDEST PUSH1 0x40 MLOAD PUSH3 0x461BCD PUSH1 0xE5 SHL DUP2 MSTORE PUSH1 0x20 PUSH1 0x4 DUP3 ADD MSTORE DUP1 DUP4 ADD DUP4 SWAP1 MSTORE PUSH32 0x5072696365206D75737420626520657175616C20746F206C697374696E672070 PUSH1 0x44 DUP3 ADD MSTORE PUSH4 0x72696365 PUSH1 0xE0 SHL PUSH1 0x64 DUP3 ADD MSTORE PUSH1 0x84 SWAP1 REVERT JUMPDEST PUSH1 0x40 MLOAD PUSH3 0x461BCD PUSH1 0xE5 SHL DUP2 MSTORE PUSH1 0x20 PUSH1 0x4 DUP3 ADD MSTORE PUSH1 0x2A DUP2 DUP5 ADD MSTORE PUSH32 0x4F6E6C79206974656D206F776E65722063616E20706572666F726D2074686973 PUSH1 0x44 DUP3 ADD MSTORE PUSH10 0x1037B832B930BA34B7B7 PUSH1 0xB1 SHL PUSH1 0x64 DUP3 ADD MSTORE PUSH1 0x84 SWAP1 REVERT JUMPDEST CALLVALUE PUSH2 0x280 JUMPI PUSH1 0x20 DUP1 PUSH1 0x3 NOT CALLDATASIZE ADD SLT PUSH2 0x280 JUMPI PUSH2 0x5DE PUSH2 0x2A21 JUMP JUMPDEST PUSH1 0x8 SLOAD PUSH1 0x1 PUSH1 0x1 PUSH1 0xA0 SHL SUB SWAP2 DUP3 AND SWAP2 PUSH1 0x0 SWAP2 SWAP1 PUSH1 0x1 JUMPDEST DUP3 DUP2 GT ISZERO PUSH2 0x6C2 JUMPI POP PUSH2 0x61F PUSH2 0x609 DUP5 PUSH2 0x2D5D JUMP JUMPDEST SWAP4 PUSH2 0x617 PUSH1 0x40 MLOAD SWAP6 DUP7 PUSH2 0x2B6C JUMP JUMPDEST DUP1 DUP6 MSTORE PUSH2 0x2D5D JUMP JUMPDEST DUP4 DUP7 ADD SWAP5 SWAP1 PUSH1 0x1F NOT ADD CALLDATASIZE DUP7 CALLDATACOPY PUSH1 0x0 SWAP2 PUSH1 0x1 JUMPDEST DUP5 DUP2 GT ISZERO PUSH2 0x67C JUMPI DUP8 DUP7 DUP9 PUSH1 0x40 MLOAD SWAP3 DUP4 SWAP3 DUP2 DUP5 ADD SWAP1 DUP3 DUP6 MSTORE MLOAD DUP1 SWAP2 MSTORE PUSH1 0x40 DUP5 ADD SWAP3 SWAP2 PUSH1 0x0 JUMPDEST DUP3 DUP2 LT PUSH2 0x665 JUMPI POP POP POP POP SUB SWAP1 RETURN JUMPDEST DUP4 MLOAD DUP6 MSTORE DUP7 SWAP6 POP SWAP4 DUP2 ADD SWAP4 SWAP3 DUP2 ADD SWAP3 PUSH1 0x1 ADD PUSH2 0x656 JUMP JUMPDEST DUP1 PUSH1 0x0 MSTORE PUSH1 0xE DUP9 MSTORE DUP3 DUP3 PUSH1 0x40 PUSH1 0x0 KECCAK256 SLOAD AND EQ PUSH2 0x6A1 JUMPI JUMPDEST PUSH2 0x69C SWAP1 PUSH2 0x3065 JUMP JUMPDEST PUSH2 0x631 JUMP JUMPDEST SWAP3 PUSH2 0x6BA DUP2 DUP6 PUSH2 0x6B4 PUSH2 0x69C SWAP5 DUP11 PUSH2 0x2E6B JUMP JUMPDEST MSTORE PUSH2 0x3065 JUMP JUMPDEST SWAP4 SWAP1 POP PUSH2 0x693 JUMP JUMPDEST DUP1 PUSH1 0x0 MSTORE PUSH1 0xE DUP7 MSTORE DUP5 DUP3 PUSH1 0x40 PUSH1 0x0 KECCAK256 SLOAD AND EQ PUSH2 0x6E7 JUMPI JUMPDEST PUSH2 0x6E2 SWAP1 PUSH2 0x3065 JUMP JUMPDEST PUSH2 0x5F4 JUMP JUMPDEST SWAP3 PUSH2 0x6F4 PUSH2 0x6E2 SWAP2 PUSH2 0x3065 JUMP JUMPDEST SWAP4 SWAP1 POP PUSH2 0x6D9 JUMP JUMPDEST CALLVALUE PUSH2 0x280 JUMPI PUSH1 0x20 DUP1 PUSH1 0x3 NOT CALLDATASIZE ADD SLT PUSH2 0x280 JUMPI PUSH1 0x4 CALLDATALOAD PUSH1 0x1 PUSH1 0x1 PUSH1 0x40 SHL SUB DUP2 GT PUSH2 0x280 JUMPI DUP2 PUSH2 0x731 PUSH2 0x744 SWAP3 CALLDATASIZE SWAP1 PUSH1 0x4 ADD PUSH2 0x2BDF JUMP JUMPDEST DUP2 PUSH1 0x40 MLOAD SWAP4 DUP3 DUP6 DUP1 SWAP5 MLOAD SWAP4 DUP5 SWAP3 ADD PUSH2 0x29D9 JUMP JUMPDEST DUP2 ADD PUSH1 0x11 DUP2 MSTORE SUB ADD SWAP1 KECCAK256 PUSH1 0x40 MLOAD DUP1 DUP3 DUP5 DUP3 SWAP5 SLOAD SWAP4 DUP5 DUP2 MSTORE ADD SWAP1 PUSH1 0x0 MSTORE DUP5 PUSH1 0x0 KECCAK256 SWAP3 PUSH1 0x0 JUMPDEST DUP7 DUP3 DUP3 LT PUSH2 0x88B JUMPI DUP5 PUSH2 0x77D DUP2 DUP7 SUB DUP3 PUSH2 0x2B6C JUMP JUMPDEST PUSH1 0x0 DUP1 JUMPDEST DUP3 MLOAD DUP2 LT ISZERO PUSH2 0x7CA JUMPI PUSH2 0x794 DUP2 DUP5 PUSH2 0x2E6B JUMP JUMPDEST MLOAD PUSH1 0x0 MSTORE PUSH1 0xC DUP5 MSTORE PUSH1 0xFF PUSH1 0x4 PUSH1 0x40 PUSH1 0x0 KECCAK256 ADD SLOAD AND ISZERO PUSH2 0x7B6 JUMPI JUMPDEST PUSH1 0x1 ADD PUSH2 0x781 JUMP JUMPDEST SWAP1 PUSH2 0x7C2 PUSH1 0x1 SWAP2 PUSH2 0x3065 JUMP JUMPDEST SWAP2 SWAP1 POP PUSH2 0x7AE JUMP JUMPDEST POP PUSH2 0x7D4 SWAP1 PUSH2 0x2D9F JUMP JUMPDEST SWAP2 PUSH1 0x0 DUP1 JUMPDEST DUP4 MLOAD DUP2 LT ISZERO PUSH2 0x879 JUMPI PUSH2 0x7EC DUP2 DUP6 PUSH2 0x2E6B JUMP JUMPDEST MLOAD PUSH1 0x0 MSTORE PUSH1 0xC DUP4 MSTORE PUSH1 0x40 PUSH1 0x0 KECCAK256 PUSH1 0xFF PUSH1 0x4 DUP3 ADD SLOAD AND ISZERO DUP1 PUSH2 0x812 JUMPI JUMPDEST POP POP PUSH1 0x1 ADD PUSH2 0x7D9 JUMP JUMPDEST SWAP3 PUSH2 0x871 SWAP2 PUSH1 0x1 SWAP4 SWAP5 PUSH1 0x3 PUSH1 0x40 MLOAD SWAP3 PUSH2 0x82A DUP5 PUSH2 0x2B00 JUMP JUMPDEST DUP1 SLOAD DUP5 MSTORE DUP7 DUP1 PUSH1 0xA0 SHL SUB DUP1 DUP9 DUP4 ADD SLOAD AND DUP11 DUP7 ADD MSTORE PUSH1 0x2 DUP3 ADD SLOAD AND PUSH1 0x40 DUP6 ADD MSTORE ADD SLOAD PUSH1 0x60 DUP4 ADD MSTORE ISZERO PUSH1 0x80 DUP3 ADD MSTORE PUSH2 0x860 DUP3 DUP10 PUSH2 0x2E6B JUMP JUMPDEST MSTORE PUSH2 0x86B DUP2 DUP9 PUSH2 0x2E6B JUMP JUMPDEST POP PUSH2 0x3065 JUMP JUMPDEST SWAP2 SWAP1 DUP7 PUSH2 0x808 JUMP JUMPDEST PUSH1 0x40 MLOAD DUP1 PUSH2 0x887 DUP8 DUP3 PUSH2 0x2A4D JUMP JUMPDEST SUB SWAP1 RETURN JUMPDEST DUP6 SLOAD DUP5 MSTORE PUSH1 0x1 SWAP6 DUP7 ADD SWAP6 DUP8 SWAP6 POP SWAP4 ADD SWAP3 ADD PUSH2 0x768 JUMP JUMPDEST CALLVALUE PUSH2 0x280 JUMPI PUSH1 0x20 DUP1 PUSH1 0x3 NOT CALLDATASIZE ADD SLT PUSH2 0x280 JUMPI PUSH1 0x4 CALLDATALOAD PUSH1 0x0 DUP2 DUP2 MSTORE PUSH1 0x2 PUSH1 0x20 MSTORE PUSH1 0x40 SWAP1 KECCAK256 SLOAD PUSH2 0x8D9 SWAP1 PUSH1 0x1 PUSH1 0x1 PUSH1 0xA0 SHL SUB AND ISZERO ISZERO PUSH2 0x2BFD JUMP JUMPDEST PUSH1 0x0 MSTORE PUSH1 0xD DUP2 MSTORE PUSH1 0x40 PUSH1 0x0 KECCAK256 SWAP1 DUP2 SLOAD PUSH2 0x8F1 DUP2 PUSH2 0x2D5D JUMP JUMPDEST SWAP1 PUSH2 0x8FF PUSH1 0x40 MLOAD SWAP3 DUP4 PUSH2 0x2B6C JUMP JUMPDEST DUP1 DUP3 MSTORE PUSH1 0x0 SWAP4 DUP5 MSTORE DUP3 DUP5 KECCAK256 DUP4 DUP4 ADD SWAP5 DUP6 JUMPDEST DUP4 DUP3 LT PUSH2 0x9A6 JUMPI PUSH1 0x40 DUP1 MLOAD DUP8 DUP2 MSTORE DUP7 MLOAD DUP2 DUP10 ADD DUP2 SWAP1 MSTORE DUP10 SWAP3 DUP3 ADD SWAP1 DUP10 PUSH1 0x0 JUMPDEST DUP3 DUP2 LT PUSH2 0x93C JUMPI DUP5 DUP5 SUB DUP6 RETURN JUMPDEST SWAP1 SWAP2 SWAP3 DUP6 MLOAD PUSH1 0x1 DUP1 PUSH1 0xA0 SHL SUB DUP1 DUP3 MLOAD AND DUP4 MSTORE DUP5 DUP3 ADD MLOAD AND DUP5 DUP4 ADD MSTORE PUSH1 0x40 DUP2 ADD MLOAD PUSH1 0x40 DUP4 ADD MSTORE PUSH1 0x60 DUP1 DUP3 ADD MLOAD SWAP1 DUP4 ADD MSTORE PUSH1 0x80 DUP1 SWAP2 ADD MLOAD SWAP1 PUSH1 0x4 DUP3 LT ISZERO PUSH2 0x990 JUMPI DUP3 ADD MSTORE SWAP5 DUP3 ADD SWAP5 PUSH1 0xA0 ADD SWAP3 SWAP2 SWAP1 PUSH1 0x1 ADD PUSH2 0x92F JUMP JUMPDEST PUSH4 0x4E487B71 PUSH1 0xE0 SHL PUSH1 0x0 MSTORE PUSH1 0x21 PUSH1 0x4 MSTORE PUSH1 0x24 PUSH1 0x0 REVERT JUMPDEST PUSH1 0x40 MLOAD PUSH2 0x9B2 DUP2 PUSH2 0x2B00 JUMP JUMPDEST DUP4 SLOAD PUSH1 0x1 PUSH1 0x1 PUSH1 0xA0 SHL SUB SWAP1 DUP2 AND DUP3 MSTORE PUSH1 0x1 DUP6 ADD SLOAD AND DUP8 DUP3 ADD MSTORE PUSH1 0x2 DUP5 ADD SLOAD PUSH1 0x40 DUP3 ADD MSTORE PUSH1 0x3 DUP5 ADD SLOAD PUSH1 0x60 DUP3 ADD MSTORE PUSH1 0x4 DUP1 DUP6 ADD SLOAD PUSH1 0xFF AND SWAP1 DUP2 LT ISZERO PUSH2 0x990 JUMPI PUSH1 0x1 SWAP3 DUP3 DUP10 SWAP3 PUSH1 0x80 PUSH1 0x5 SWAP6 ADD MSTORE DUP2 MSTORE ADD SWAP4 ADD SWAP2 ADD SWAP1 SWAP2 PUSH2 0x910 JUMP JUMPDEST CALLVALUE PUSH2 0x280 JUMPI PUSH1 0x20 DUP1 PUSH1 0x3 NOT CALLDATASIZE ADD SLT PUSH2 0x280 JUMPI PUSH1 0x4 CALLDATALOAD PUSH1 0x0 PUSH1 0x60 PUSH1 0x40 MLOAD PUSH2 0xA30 DUP2 PUSH2 0x2B1B JUMP JUMPDEST DUP3 DUP2 MSTORE DUP3 DUP6 DUP3 ADD MSTORE DUP2 PUSH1 0x40 DUP3 ADD MSTORE ADD MSTORE PUSH2 0xA62 PUSH2 0x1D8 DUP3 PUSH1 0x0 MSTORE PUSH1 0x2 PUSH1 0x20 MSTORE PUSH1 0x1 DUP1 PUSH1 0xA0 SHL SUB PUSH1 0x40 PUSH1 0x0 KECCAK256 SLOAD AND ISZERO ISZERO SWAP1 JUMP JUMPDEST PUSH1 0x0 MSTORE PUSH1 0xE DUP2 MSTORE PUSH1 0x40 PUSH1 0x0 KECCAK256 SWAP1 PUSH1 0x40 MLOAD SWAP1 PUSH2 0xA7C DUP3 PUSH2 0x2B1B JUMP JUMPDEST DUP3 SLOAD PUSH1 0x1 PUSH1 0x1 PUSH1 0xA0 SHL SUB SWAP1 DUP2 AND DUP4 MSTORE PUSH1 0x1 DUP5 ADD SLOAD DUP3 DUP5 ADD SWAP1 DUP2 MSTORE SWAP1 SWAP4 PUSH2 0xAE8 SWAP2 PUSH1 0xFF PUSH1 0x3 PUSH2 0xAAC PUSH1 0x2 DUP6 ADD PUSH2 0x2C7A JUMP JUMPDEST SWAP4 PUSH1 0x40 DUP9 ADD SWAP5 DUP6 MSTORE ADD SLOAD AND SWAP4 PUSH1 0x60 DUP7 ADD SWAP5 ISZERO ISZERO DUP6 MSTORE PUSH1 0x40 MLOAD SWAP7 DUP8 SWAP7 DUP3 DUP9 MSTORE MLOAD AND SWAP1 DUP7 ADD MSTORE MLOAD PUSH1 0x40 DUP6 ADD MSTORE MLOAD PUSH1 0x80 PUSH1 0x60 DUP6 ADD MSTORE PUSH1 0xA0 DUP5 ADD SWAP1 PUSH2 0x29FC JUMP JUMPDEST SWAP1 MLOAD ISZERO ISZERO PUSH1 0x80 DUP4 ADD MSTORE SUB SWAP1 RETURN JUMPDEST CALLVALUE PUSH2 0x280 JUMPI PUSH1 0x20 CALLDATASIZE PUSH1 0x3 NOT ADD SLT PUSH2 0x280 JUMPI PUSH1 0x4 CALLDATALOAD PUSH1 0x0 DUP2 DUP2 MSTORE PUSH1 0x2 PUSH1 0x20 MSTORE PUSH1 0x40 SWAP1 KECCAK256 SLOAD PUSH2 0xB2C SWAP1 PUSH1 0x1 PUSH1 0x1 PUSH1 0xA0 SHL SUB AND ISZERO ISZERO PUSH2 0x2EE1 JUMP JUMPDEST PUSH1 0x0 MSTORE PUSH1 0x6 PUSH1 0x20 MSTORE PUSH2 0x887 PUSH2 0xB44 PUSH1 0x40 PUSH1 0x0 KECCAK256 PUSH2 0x2C7A JUMP JUMPDEST PUSH1 0x0 PUSH1 0x40 MLOAD PUSH2 0xB52 DUP2 PUSH2 0x2B36 JUMP JUMPDEST MSTORE PUSH1 0x40 MLOAD SWAP2 DUP3 SWAP2 PUSH1 0x20 DUP4 MSTORE PUSH1 0x20 DUP4 ADD SWAP1 PUSH2 0x29FC JUMP JUMPDEST PUSH1 0x60 CALLDATASIZE PUSH1 0x3 NOT ADD SLT PUSH2 0x280 JUMPI PUSH1 0x4 CALLDATALOAD PUSH1 0x1 PUSH1 0x1 PUSH1 0x40 SHL SUB DUP2 GT PUSH2 0x280 JUMPI PUSH2 0xB92 SWAP1 CALLDATASIZE SWAP1 PUSH1 0x4 ADD PUSH2 0x2BDF JUMP JUMPDEST PUSH1 0x44 CALLDATALOAD PUSH1 0x1 PUSH1 0x1 PUSH1 0x40 SHL SUB DUP2 GT PUSH2 0x280 JUMPI PUSH2 0xBB1 SWAP1 CALLDATASIZE SWAP1 PUSH1 0x4 ADD PUSH2 0x2BDF JUMP JUMPDEST SWAP1 PUSH2 0xBBA PUSH2 0x32A0 JUMP JUMPDEST PUSH2 0xBC7 PUSH1 0x24 CALLDATALOAD ISZERO ISZERO PUSH2 0x3019 JUMP JUMPDEST PUSH1 0x1 PUSH1 0x8 SLOAD ADD SWAP2 DUP3 PUSH1 0x8 SSTORE CALLER ISZERO PUSH2 0x1460 JUMPI PUSH1 0x0 DUP4 DUP2 MSTORE PUSH1 0x2 PUSH1 0x20 MSTORE PUSH1 0x40 SWAP1 KECCAK256 SLOAD PUSH2 0xBFD SWAP1 PUSH1 0x1 PUSH1 0x1 PUSH1 0xA0 SHL SUB AND ISZERO ISZERO JUMPDEST ISZERO PUSH2 0x3313 JUMP JUMPDEST PUSH1 0x0 DUP4 DUP2 MSTORE PUSH1 0x2 PUSH1 0x20 MSTORE PUSH1 0x40 SWAP1 KECCAK256 SLOAD PUSH2 0xC20 SWAP1 PUSH1 0x1 PUSH1 0x1 PUSH1 0xA0 SHL SUB AND ISZERO ISZERO PUSH2 0xBF7 JUMP JUMPDEST CALLER PUSH1 0x0 MSTORE PUSH1 0x3 PUSH1 0x20 MSTORE PUSH1 0x40 PUSH1 0x0 KECCAK256 PUSH1 0x1 DUP2 SLOAD ADD SWAP1 SSTORE DUP3 PUSH1 0x0 MSTORE PUSH1 0x2 PUSH1 0x20 MSTORE PUSH1 0x40 PUSH1 0x0 KECCAK256 CALLER PUSH1 0x1 PUSH1 0x1 PUSH1 0x60 SHL SUB PUSH1 0xA0 SHL DUP3 SLOAD AND OR SWAP1 SSTORE DUP3 CALLER PUSH1 0x0 PUSH32 0xDDF252AD1BE2C89B69C2B068FC378DAA952BA7F163C4A11628F55A4DF523B3EF DUP2 DUP1 LOG4 PUSH1 0x0 DUP4 DUP2 MSTORE PUSH1 0x2 PUSH1 0x20 MSTORE PUSH1 0x40 SWAP1 KECCAK256 SLOAD PUSH1 0x1 PUSH1 0x1 PUSH1 0xA0 SHL SUB AND ISZERO PUSH2 0x1404 JUMPI DUP3 PUSH1 0x0 MSTORE PUSH1 0x6 PUSH1 0x20 MSTORE PUSH1 0x40 PUSH1 0x0 KECCAK256 DUP3 MLOAD PUSH1 0x1 PUSH1 0x1 PUSH1 0x40 SHL SUB DUP2 GT PUSH2 0x119D JUMPI PUSH2 0xCC2 DUP3 SLOAD PUSH2 0x2C40 JUMP JUMPDEST PUSH1 0x1F DUP2 GT PUSH2 0x13C0 JUMPI JUMPDEST POP DUP1 PUSH1 0x20 PUSH1 0x1F DUP3 GT PUSH1 0x1 EQ PUSH2 0x1359 JUMPI PUSH1 0x0 SWAP2 PUSH2 0x134E JUMPI JUMPDEST POP DUP2 PUSH1 0x1 SHL SWAP2 PUSH1 0x0 NOT SWAP1 PUSH1 0x3 SHL SHR NOT AND OR SWAP1 SSTORE JUMPDEST PUSH32 0xF8E1A15ABA9398E019F0B49DF1A4FDE98EE17AE345CB5F6B5E2C27F5033E8CE7 PUSH1 0x20 PUSH1 0x40 MLOAD DUP6 DUP2 MSTORE LOG1 DUP3 PUSH1 0x0 MSTORE PUSH1 0x10 PUSH1 0x20 MSTORE PUSH1 0x40 PUSH1 0x0 KECCAK256 DUP2 MLOAD SWAP1 PUSH1 0x1 PUSH1 0x1 PUSH1 0x40 SHL SUB DUP3 GT PUSH2 0x119D JUMPI DUP5 SWAP2 PUSH2 0xD4B DUP3 SLOAD PUSH2 0x2C40 JUMP JUMPDEST PUSH1 0x1F DUP2 GT PUSH2 0x12FC JUMPI JUMPDEST POP PUSH1 0x20 PUSH1 0x1F DUP3 GT PUSH1 0x1 EQ PUSH2 0x1288 JUMPI SWAP4 PUSH2 0xD9D SWAP3 DUP3 PUSH1 0x20 SWAP4 PUSH2 0xDAC SWAP8 PUSH1 0x0 SWAP2 PUSH2 0x127D JUMPI JUMPDEST POP DUP2 PUSH1 0x1 SHL SWAP2 PUSH1 0x0 NOT SWAP1 PUSH1 0x3 SHL SHR NOT AND OR SWAP1 SSTORE DUP2 PUSH1 0x40 MLOAD SWAP4 DUP3 DUP6 DUP1 SWAP5 MLOAD SWAP4 DUP5 SWAP3 ADD PUSH2 0x29D9 JUMP JUMPDEST DUP2 ADD PUSH1 0x11 DUP2 MSTORE SUB ADD SWAP1 KECCAK256 PUSH2 0x2FBB JUMP JUMPDEST PUSH1 0x40 MLOAD PUSH2 0xDB8 DUP2 PUSH2 0x2B1B JUMP JUMPDEST CALLER DUP2 MSTORE PUSH1 0x20 DUP2 ADD SWAP1 TIMESTAMP DUP3 MSTORE PUSH1 0x40 DUP2 ADD DUP4 DUP2 MSTORE PUSH1 0x1 PUSH1 0x60 DUP4 ADD MSTORE DUP5 PUSH1 0x0 MSTORE PUSH1 0xE PUSH1 0x20 MSTORE PUSH1 0x40 PUSH1 0x0 KECCAK256 SWAP3 PUSH1 0x1 DUP1 PUSH1 0xA0 SHL SUB DUP4 MLOAD AND PUSH1 0x1 PUSH1 0x1 PUSH1 0x60 SHL SUB PUSH1 0xA0 SHL DUP6 SLOAD AND OR DUP5 SSTORE MLOAD PUSH1 0x1 DUP5 ADD SSTORE MLOAD DUP1 MLOAD SWAP1 PUSH1 0x1 PUSH1 0x1 PUSH1 0x40 SHL SUB DUP3 GT PUSH2 0x119D JUMPI PUSH2 0xE20 PUSH1 0x2 DUP6 ADD SLOAD PUSH2 0x2C40 JUMP JUMPDEST PUSH1 0x1F DUP2 GT PUSH2 0x1236 JUMPI JUMPDEST POP PUSH1 0x20 SWAP1 PUSH1 0x1F DUP4 GT PUSH1 0x1 EQ PUSH2 0x11BE JUMPI SWAP3 DUP3 PUSH1 0x3 SWAP4 PUSH1 0x60 SWAP4 PUSH2 0xE7B SWAP8 SWAP7 PUSH1 0x0 SWAP3 PUSH2 0x11B3 JUMPI JUMPDEST POP POP DUP2 PUSH1 0x1 SHL SWAP2 PUSH1 0x0 NOT SWAP1 DUP7 SHL SHR NOT AND OR PUSH1 0x2 DUP6 ADD SSTORE JUMPDEST ADD MLOAD ISZERO ISZERO SWAP2 ADD SWAP1 PUSH1 0xFF DUP1 NOT DUP4 SLOAD AND SWAP2 ISZERO ISZERO AND OR SWAP1 SSTORE JUMP JUMPDEST DUP2 PUSH32 0x6832C4A8240AEC284B577356B6CECFF5AF48C14E65C3CFE48759BFDE75F9B144 PUSH2 0xEB2 PUSH1 0x40 MLOAD SWAP4 PUSH1 0x40 DUP6 MSTORE PUSH1 0x40 DUP6 ADD SWAP1 PUSH2 0x29FC JUMP JUMPDEST SWAP3 TIMESTAMP PUSH1 0x20 DUP3 ADD MSTORE DUP1 CALLER SWAP5 SUB SWAP1 LOG3 DUP1 PUSH1 0x0 MSTORE PUSH1 0xF PUSH1 0x20 MSTORE PUSH2 0xED6 CALLER PUSH1 0x40 PUSH1 0x0 KECCAK256 PUSH2 0x2FDE JUMP JUMPDEST DUP1 PUSH1 0x0 MSTORE PUSH1 0xD PUSH1 0x20 MSTORE PUSH1 0x40 PUSH1 0x0 KECCAK256 PUSH1 0x40 MLOAD SWAP1 PUSH2 0xEF1 DUP3 PUSH2 0x2B00 JUMP JUMPDEST PUSH1 0x0 DUP3 MSTORE CALLER PUSH1 0x20 DUP4 ADD MSTORE PUSH1 0x0 PUSH1 0x40 DUP4 ADD MSTORE TIMESTAMP PUSH1 0x60 DUP4 ADD MSTORE PUSH1 0x0 PUSH1 0x80 DUP4 ADD MSTORE DUP1 SLOAD SWAP1 PUSH1 0x1 PUSH1 0x40 SHL DUP3 LT ISZERO PUSH2 0x119D JUMPI PUSH1 0x1 DUP3 ADD DUP1 DUP3 SSTORE DUP3 LT ISZERO PUSH2 0x1187 JUMPI PUSH1 0x80 SWAP2 PUSH1 0x4 SWAP2 PUSH1 0x0 MSTORE PUSH1 0x5 PUSH1 0x20 PUSH1 0x0 KECCAK256 SWAP2 MUL ADD PUSH1 0x1 DUP1 PUSH1 0xA0 SHL SUB DUP5 MLOAD AND PUSH1 0x1 PUSH1 0x1 PUSH1 0x60 SHL SUB PUSH1 0xA0 SHL DUP3 SLOAD AND OR DUP2 SSTORE PUSH1 0x1 DUP2 ADD PUSH1 0x1 DUP1 PUSH1 0xA0 SHL SUB PUSH1 0x20 DUP7 ADD MLOAD AND PUSH1 0x1 PUSH1 0x1 PUSH1 0x60 SHL SUB PUSH1 0xA0 SHL DUP3 SLOAD AND OR SWAP1 SSTORE PUSH1 0x40 DUP5 ADD MLOAD PUSH1 0x2 DUP3 ADD SSTORE PUSH1 0x60 DUP5 ADD MLOAD PUSH1 0x3 DUP3 ADD SSTORE ADD SWAP2 ADD MLOAD PUSH1 0x4 DUP2 LT ISZERO PUSH2 0x990 JUMPI PUSH1 0xFF DUP1 NOT DUP4 SLOAD AND SWAP2 AND OR SWAP1 SSTORE PUSH1 0x24 CALLDATALOAD ISZERO PUSH2 0x1142 JUMPI PUSH1 0x1 PUSH1 0x1 PUSH1 0xA0 SHL SUB PUSH2 0xFC2 DUP3 PUSH2 0x2F2D JUMP JUMPDEST AND CALLER SUB PUSH2 0x10ED JUMPI PUSH1 0x20 SWAP1 PUSH2 0x106D PUSH1 0x40 MLOAD PUSH2 0xFDB DUP2 PUSH2 0x2B00 JUMP JUMPDEST DUP3 DUP2 MSTORE PUSH1 0x4 DUP5 DUP3 ADD CALLER DUP2 MSTORE PUSH1 0x40 DUP4 ADD ADDRESS DUP2 MSTORE PUSH1 0x60 DUP5 ADD SWAP1 PUSH1 0x24 CALLDATALOAD DUP3 MSTORE PUSH1 0x80 DUP6 ADD SWAP3 PUSH1 0x0 DUP5 MSTORE DUP8 PUSH1 0x0 MSTORE PUSH1 0xC DUP10 MSTORE PUSH1 0x40 PUSH1 0x0 KECCAK256 SWAP6 MLOAD DUP7 SSTORE PUSH1 0x1 DUP7 ADD SWAP1 PUSH1 0x1 DUP1 PUSH1 0xA0 SHL SUB SWAP1 MLOAD AND PUSH1 0x1 PUSH1 0x1 PUSH1 0x60 SHL SUB PUSH1 0xA0 SHL DUP3 SLOAD AND OR SWAP1 SSTORE PUSH1 0x2 DUP6 ADD SWAP1 PUSH1 0x1 DUP1 PUSH1 0xA0 SHL SUB SWAP1 MLOAD AND PUSH1 0x1 PUSH1 0x1 PUSH1 0x60 SHL SUB PUSH1 0xA0 SHL DUP3 SLOAD AND OR SWAP1 SSTORE MLOAD PUSH1 0x3 DUP5 ADD SSTORE MLOAD ISZERO ISZERO SWAP2 ADD SWAP1 PUSH1 0xFF DUP1 NOT DUP4 SLOAD AND SWAP2 ISZERO ISZERO AND OR SWAP1 SSTORE JUMP JUMPDEST PUSH2 0x1076 DUP2 PUSH2 0x2F98 JUMP JUMPDEST CALLER PUSH1 0x0 MSTORE PUSH1 0x14 DUP3 MSTORE PUSH2 0x108C DUP2 PUSH1 0x40 PUSH1 0x0 KECCAK256 PUSH2 0x2FBB JUMP JUMPDEST PUSH2 0x1096 DUP2 CALLER PUSH2 0x335F JUMP JUMPDEST PUSH2 0x10A1 DUP2 ADDRESS CALLER PUSH2 0x313C JUMP JUMPDEST DUP1 PUSH32 0xB640004F1D14576D0C209E240CAD0410E0D8C0C33A09375861FBADAE2588A98D PUSH1 0x80 PUSH1 0x40 MLOAD CALLER DUP2 MSTORE ADDRESS DUP7 DUP3 ADD MSTORE PUSH1 0x24 CALLDATALOAD PUSH1 0x40 DUP3 ADD MSTORE PUSH1 0x0 PUSH1 0x60 DUP3 ADD MSTORE LOG2 PUSH1 0x1 PUSH1 0x7 SSTORE PUSH1 0x40 MLOAD SWAP1 DUP2 MSTORE RETURN JUMPDEST PUSH1 0x40 MLOAD PUSH3 0x461BCD PUSH1 0xE5 SHL DUP2 MSTORE PUSH1 0x20 PUSH1 0x4 DUP3 ADD MSTORE PUSH1 0x27 PUSH1 0x24 DUP3 ADD MSTORE PUSH32 0x4F6E6C7920746F6B656E206F776E65722063616E20637265617465206D61726B PUSH1 0x44 DUP3 ADD MSTORE PUSH7 0x6574206974656D PUSH1 0xC8 SHL PUSH1 0x64 DUP3 ADD MSTORE PUSH1 0x84 SWAP1 REVERT JUMPDEST PUSH1 0x40 MLOAD PUSH3 0x461BCD PUSH1 0xE5 SHL DUP2 MSTORE PUSH1 0x20 PUSH1 0x4 DUP3 ADD MSTORE PUSH1 0x1C PUSH1 0x24 DUP3 ADD MSTORE PUSH32 0x5072696365206D757374206265206174206C6561737420312077656900000000 PUSH1 0x44 DUP3 ADD MSTORE PUSH1 0x64 SWAP1 REVERT JUMPDEST PUSH4 0x4E487B71 PUSH1 0xE0 SHL PUSH1 0x0 MSTORE PUSH1 0x32 PUSH1 0x4 MSTORE PUSH1 0x24 PUSH1 0x0 REVERT JUMPDEST PUSH4 0x4E487B71 PUSH1 0xE0 SHL PUSH1 0x0 MSTORE PUSH1 0x41 PUSH1 0x4 MSTORE PUSH1 0x24 PUSH1 0x0 REVERT JUMPDEST ADD MLOAD SWAP1 POP DUP10 DUP1 PUSH2 0xE4D JUMP JUMPDEST SWAP1 PUSH1 0x2 DUP6 ADD PUSH1 0x0 MSTORE PUSH1 0x20 PUSH1 0x0 KECCAK256 SWAP2 PUSH1 0x0 JUMPDEST PUSH1 0x1F NOT DUP6 AND DUP2 LT PUSH2 0x121E JUMPI POP DUP4 PUSH1 0x60 SWAP4 PUSH2 0xE7B SWAP8 SWAP7 SWAP4 PUSH1 0x1 SWAP4 PUSH1 0x3 SWAP8 PUSH1 0x1F NOT DUP2 AND LT PUSH2 0x1206 JUMPI JUMPDEST POP POP POP DUP2 SHL ADD PUSH1 0x2 DUP6 ADD SSTORE PUSH2 0xE64 JUMP JUMPDEST ADD MLOAD PUSH1 0x0 NOT DUP4 DUP9 SHL PUSH1 0xF8 AND SHR NOT AND SWAP1 SSTORE DUP10 DUP1 DUP1 PUSH2 0x11F6 JUMP JUMPDEST SWAP2 SWAP3 PUSH1 0x20 PUSH1 0x1 DUP2 SWAP3 DUP7 DUP6 ADD MLOAD DUP2 SSTORE ADD SWAP5 ADD SWAP3 ADD PUSH2 0x11CF JUMP JUMPDEST PUSH1 0x2 DUP6 ADD PUSH1 0x0 MSTORE PUSH1 0x20 PUSH1 0x0 KECCAK256 PUSH1 0x1F DUP5 ADD PUSH1 0x5 SHR DUP2 ADD PUSH1 0x20 DUP6 LT PUSH2 0x1276 JUMPI JUMPDEST PUSH1 0x1F DUP4 ADD PUSH1 0x5 SHR DUP3 ADD DUP2 LT PUSH2 0x126A JUMPI POP POP PUSH2 0xE29 JUMP JUMPDEST PUSH1 0x0 DUP2 SSTORE PUSH1 0x1 ADD PUSH2 0x1254 JUMP JUMPDEST POP DUP1 PUSH2 0x1254 JUMP JUMPDEST SWAP1 POP DUP4 ADD MLOAD DUP11 PUSH2 0xD77 JUMP JUMPDEST DUP3 PUSH1 0x0 MSTORE PUSH1 0x20 PUSH1 0x0 KECCAK256 SWAP1 PUSH1 0x0 JUMPDEST PUSH1 0x1F NOT DUP5 AND DUP2 LT PUSH2 0x12E1 JUMPI POP SWAP3 PUSH1 0x1 DUP4 PUSH2 0xDAC SWAP8 SWAP4 PUSH2 0xD9D SWAP7 PUSH1 0x20 SWAP7 PUSH1 0x1F NOT DUP2 AND LT PUSH2 0x12C8 JUMPI JUMPDEST POP POP DUP2 SHL ADD SWAP1 SSTORE PUSH2 0x731 JUMP JUMPDEST DUP6 ADD MLOAD PUSH1 0x0 NOT PUSH1 0xF8 DUP5 PUSH1 0x3 SHL AND SHR NOT AND SWAP1 SSTORE DUP11 DUP1 PUSH2 0x12BC JUMP JUMPDEST DUP7 DUP3 ADD MLOAD DUP4 SSTORE DUP9 SWAP6 POP PUSH1 0x1 SWAP1 SWAP3 ADD SWAP2 PUSH1 0x20 SWAP2 DUP3 ADD SWAP2 ADD PUSH2 0x1295 JUMP JUMPDEST SWAP1 SWAP2 DUP1 SWAP4 POP PUSH1 0x0 MSTORE PUSH1 0x20 PUSH1 0x0 KECCAK256 PUSH1 0x1F DUP4 ADD PUSH1 0x5 SHR DUP2 ADD PUSH1 0x20 DUP5 LT PUSH2 0x1347 JUMPI JUMPDEST SWAP1 DUP8 SWAP5 SWAP4 SWAP3 SWAP2 JUMPDEST PUSH1 0x1F DUP4 ADD PUSH1 0x5 SHR DUP3 ADD DUP2 LT PUSH2 0x1338 JUMPI POP POP PUSH2 0xD54 JUMP JUMPDEST PUSH1 0x0 DUP2 SSTORE DUP9 SWAP6 POP PUSH1 0x1 ADD PUSH2 0x1322 JUMP JUMPDEST POP DUP1 PUSH2 0x131B JUMP JUMPDEST SWAP1 POP DUP5 ADD MLOAD DUP7 PUSH2 0xCE2 JUMP JUMPDEST SWAP2 POP DUP3 PUSH1 0x0 MSTORE PUSH1 0x20 PUSH1 0x0 KECCAK256 PUSH1 0x0 SWAP3 JUMPDEST PUSH1 0x1F NOT DUP4 AND DUP5 LT PUSH2 0x13A8 JUMPI PUSH1 0x1 SWAP4 POP DUP3 PUSH1 0x1F NOT DUP2 AND LT PUSH2 0x138F JUMPI JUMPDEST POP POP DUP2 SHL ADD SWAP1 SSTORE PUSH2 0xCF6 JUMP JUMPDEST DUP7 ADD MLOAD PUSH1 0x0 NOT PUSH1 0xF8 DUP5 PUSH1 0x3 SHL AND SHR NOT AND SWAP1 SSTORE DUP7 DUP1 PUSH2 0x1383 JUMP JUMPDEST DUP7 DUP2 ADD MLOAD DUP3 SSTORE PUSH1 0x20 SWAP4 DUP5 ADD SWAP4 PUSH1 0x1 SWAP1 SWAP3 ADD SWAP2 ADD PUSH2 0x1368 JUMP JUMPDEST DUP3 PUSH1 0x0 MSTORE PUSH1 0x20 PUSH1 0x0 KECCAK256 PUSH1 0x1F DUP4 ADD PUSH1 0x5 SHR DUP2 ADD PUSH1 0x20 DUP5 LT PUSH2 0x13FD JUMPI JUMPDEST PUSH1 0x1F DUP4 ADD PUSH1 0x5 SHR DUP3 ADD DUP2 LT PUSH2 0x13F1 JUMPI POP POP PUSH2 0xCCB JUMP JUMPDEST PUSH1 0x0 DUP2 SSTORE PUSH1 0x1 ADD PUSH2 0x13DB JUMP JUMPDEST POP DUP1 PUSH2 0x13DB JUMP JUMPDEST PUSH1 0x40 MLOAD PUSH3 0x461BCD PUSH1 0xE5 SHL DUP2 MSTORE PUSH1 0x20 PUSH1 0x4 DUP3 ADD MSTORE PUSH1 0x2E PUSH1 0x24 DUP3 ADD MSTORE PUSH32 0x45524337323155524953746F726167653A2055524920736574206F66206E6F6E PUSH1 0x44 DUP3 ADD MSTORE PUSH14 0x32BC34B9BA32B73A103A37B5B2B7 PUSH1 0x91 SHL PUSH1 0x64 DUP3 ADD MSTORE PUSH1 0x84 SWAP1 REVERT JUMPDEST PUSH1 0x64 PUSH1 0x40 MLOAD PUSH3 0x461BCD PUSH1 0xE5 SHL DUP2 MSTORE PUSH1 0x20 PUSH1 0x4 DUP3 ADD MSTORE PUSH1 0x20 PUSH1 0x24 DUP3 ADD MSTORE PUSH32 0x4552433732313A206D696E7420746F20746865207A65726F2061646472657373 PUSH1 0x44 DUP3 ADD MSTORE REVERT JUMPDEST CALLVALUE PUSH2 0x280 JUMPI PUSH1 0x20 DUP1 PUSH1 0x3 NOT CALLDATASIZE ADD SLT PUSH2 0x280 JUMPI PUSH1 0x1 PUSH1 0x1 PUSH1 0xA0 SHL SUB SWAP1 DUP2 PUSH2 0x14C8 PUSH2 0x2A21 JUMP JUMPDEST AND PUSH1 0x0 MSTORE PUSH1 0x13 DUP2 MSTORE PUSH1 0x40 PUSH1 0x0 KECCAK256 SWAP1 PUSH1 0x40 MLOAD DUP1 DUP4 DUP4 DUP3 SWAP6 SLOAD SWAP4 DUP5 DUP2 MSTORE ADD SWAP1 PUSH1 0x0 MSTORE DUP4 PUSH1 0x0 KECCAK256 SWAP3 PUSH1 0x0 JUMPDEST DUP6 DUP3 DUP3 LT PUSH2 0x1593 JUMPI POP POP POP PUSH2 0x1507 SWAP3 POP SUB DUP4 PUSH2 0x2B6C JUMP JUMPDEST PUSH2 0x1511 DUP3 MLOAD PUSH2 0x2D9F JUMP JUMPDEST SWAP3 PUSH1 0x0 JUMPDEST DUP4 MLOAD DUP2 LT ISZERO PUSH2 0x879 JUMPI DUP1 PUSH2 0x152B PUSH1 0x1 SWAP3 DUP7 PUSH2 0x2E6B JUMP JUMPDEST MLOAD PUSH1 0x0 MSTORE PUSH1 0xC DUP5 MSTORE PUSH1 0x40 PUSH1 0x0 KECCAK256 PUSH1 0xFF PUSH1 0x4 PUSH1 0x40 MLOAD SWAP3 PUSH2 0x1549 DUP5 PUSH2 0x2B00 JUMP JUMPDEST DUP1 SLOAD DUP5 MSTORE DUP7 DUP7 DUP3 ADD SLOAD AND DUP9 DUP6 ADD MSTORE DUP7 PUSH1 0x2 DUP3 ADD SLOAD AND PUSH1 0x40 DUP6 ADD MSTORE PUSH1 0x3 DUP2 ADD SLOAD PUSH1 0x60 DUP6 ADD MSTORE ADD SLOAD AND ISZERO ISZERO PUSH1 0x80 DUP3 ADD MSTORE PUSH2 0x1581 DUP3 DUP9 PUSH2 0x2E6B JUMP JUMPDEST MSTORE PUSH2 0x158C DUP2 DUP8 PUSH2 0x2E6B JUMP JUMPDEST POP ADD PUSH2 0x1515 JUMP JUMPDEST DUP6 SLOAD DUP5 MSTORE PUSH1 0x1 SWAP6 DUP7 ADD SWAP6 DUP9 SWAP6 POP SWAP4 ADD SWAP3 ADD PUSH2 0x14F0 JUMP JUMPDEST PUSH1 0x20 CALLDATASIZE PUSH1 0x3 NOT ADD SLT PUSH2 0x280 JUMPI PUSH2 0x15BD PUSH2 0x32A0 JUMP JUMPDEST PUSH1 0x4 CALLDATALOAD PUSH1 0x0 SWAP1 DUP2 MSTORE PUSH1 0xC PUSH1 0x20 MSTORE PUSH1 0x40 SWAP1 KECCAK256 PUSH1 0x3 DUP2 ADD SLOAD PUSH1 0x1 SWAP1 SWAP2 ADD SLOAD PUSH1 0x1 PUSH1 0x1 PUSH1 0xA0 SHL SUB AND CALLVALUE DUP3 SWAP1 SUB PUSH2 0x1A47 JUMPI PUSH1 0x1 PUSH1 0x1 PUSH1 0xA0 SHL SUB PUSH2 0x15FD PUSH1 0x4 CALLDATALOAD PUSH2 0x2F2D JUMP JUMPDEST AND ADDRESS SUB PUSH2 0x19EF JUMPI PUSH1 0x4 CALLDATALOAD PUSH1 0x0 MSTORE PUSH1 0xC PUSH1 0x20 MSTORE PUSH1 0xFF PUSH1 0x4 PUSH1 0x40 PUSH1 0x0 KECCAK256 ADD SLOAD AND PUSH2 0x19AA JUMPI DUP1 CALLER EQ PUSH2 0x195B JUMPI PUSH1 0x4 CALLDATALOAD PUSH1 0x0 MSTORE PUSH1 0xC PUSH1 0x20 MSTORE PUSH1 0x4 PUSH1 0x40 PUSH1 0x0 KECCAK256 PUSH1 0x2 DUP2 ADD CALLER PUSH1 0x1 PUSH1 0x1 PUSH1 0x60 SHL SUB PUSH1 0xA0 SHL DUP3 SLOAD AND OR SWAP1 SSTORE ADD PUSH1 0x1 PUSH1 0xFF NOT DUP3 SLOAD AND OR SWAP1 SSTORE PUSH1 0x1 PUSH1 0x9 SLOAD ADD PUSH1 0x9 SSTORE PUSH1 0x0 JUMPDEST PUSH1 0x12 SWAP1 DUP2 SLOAD DUP1 DUP3 LT ISZERO PUSH2 0x1953 JUMPI PUSH2 0x167C DUP3 PUSH2 0x2DEF JUMP JUMPDEST PUSH1 0x4 CALLDATALOAD SWAP2 SLOAD SWAP1 PUSH1 0x3 SHL SHR EQ PUSH2 0x1696 JUMPI POP PUSH1 0x1 SWAP2 POP ADD PUSH2 0x1666 JUMP JUMPDEST PUSH1 0x0 NOT SWAP2 DUP2 DUP4 ADD SWAP2 DUP3 GT PUSH2 0x191E JUMPI PUSH2 0x16C0 PUSH2 0x16B3 PUSH2 0x16D9 SWAP4 PUSH2 0x2DEF JUMP JUMPDEST SWAP1 SLOAD SWAP1 PUSH1 0x3 SHL SHR SWAP2 PUSH2 0x2DEF JUMP JUMPDEST SWAP1 SWAP2 SWAP1 DUP3 SLOAD SWAP1 PUSH1 0x3 SHL SWAP2 DUP3 SHL SWAP2 PUSH1 0x0 NOT SWAP1 SHL NOT AND OR SWAP1 SSTORE JUMP JUMPDEST DUP2 SLOAD DUP1 ISZERO PUSH2 0x193D JUMPI ADD SWAP1 PUSH2 0x1700 PUSH2 0x16EF DUP4 PUSH2 0x2DEF JUMP JUMPDEST DUP2 SLOAD SWAP1 PUSH1 0x0 NOT SWAP1 PUSH1 0x3 SHL SHL NOT AND SWAP1 SSTORE JUMP JUMPDEST SSTORE JUMPDEST DUP1 PUSH1 0x0 MSTORE PUSH1 0x14 PUSH1 0x20 MSTORE PUSH1 0x40 PUSH1 0x0 KECCAK256 SWAP1 PUSH1 0x0 JUMPDEST DUP3 SLOAD DUP1 DUP3 LT ISZERO PUSH2 0x1934 JUMPI PUSH2 0x1728 DUP3 DUP6 PUSH2 0x2E26 JUMP JUMPDEST PUSH1 0x4 CALLDATALOAD SWAP2 SLOAD SWAP1 PUSH1 0x3 SHL SHR EQ PUSH2 0x1740 JUMPI POP PUSH1 0x1 ADD PUSH2 0x1714 JUMP JUMPDEST SWAP2 SWAP3 SWAP1 SWAP2 PUSH1 0x0 NOT DUP2 ADD SWAP1 DUP2 GT PUSH2 0x191E JUMPI PUSH2 0x1777 SWAP3 PUSH2 0x16C0 PUSH2 0x1764 PUSH2 0x1772 SWAP4 DUP6 PUSH2 0x2E26 JUMP JUMPDEST SWAP1 SLOAD SWAP1 PUSH1 0x3 SHL SHR SWAP2 DUP5 PUSH2 0x2E26 JUMP JUMPDEST PUSH2 0x32F6 JUMP JUMPDEST CALLER PUSH1 0x0 MSTORE PUSH1 0x13 PUSH1 0x20 MSTORE PUSH2 0x1790 PUSH1 0x4 CALLDATALOAD PUSH1 0x40 PUSH1 0x0 KECCAK256 PUSH2 0x2FBB JUMP JUMPDEST PUSH1 0x4 CALLDATALOAD PUSH1 0x0 MSTORE PUSH1 0xF PUSH1 0x20 MSTORE PUSH2 0x17A9 CALLER PUSH1 0x40 PUSH1 0x0 KECCAK256 PUSH2 0x2FDE JUMP JUMPDEST PUSH1 0x4 CALLDATALOAD PUSH1 0x0 MSTORE PUSH1 0xD PUSH1 0x20 MSTORE PUSH1 0x40 PUSH1 0x0 KECCAK256 PUSH1 0x40 MLOAD SWAP1 PUSH2 0x17C6 DUP3 PUSH2 0x2B00 JUMP JUMPDEST DUP3 DUP3 MSTORE CALLER PUSH1 0x20 DUP4 ADD MSTORE DUP4 PUSH1 0x40 DUP4 ADD MSTORE TIMESTAMP PUSH1 0x60 DUP4 ADD MSTORE PUSH1 0x1 PUSH1 0x80 DUP4 ADD MSTORE DUP1 SLOAD SWAP1 PUSH1 0x1 PUSH1 0x40 SHL DUP3 LT ISZERO PUSH2 0x119D JUMPI PUSH1 0x1 DUP3 ADD DUP1 DUP3 SSTORE DUP3 LT ISZERO PUSH2 0x1187 JUMPI PUSH1 0x80 SWAP2 PUSH1 0x4 SWAP2 PUSH1 0x0 MSTORE PUSH1 0x5 PUSH1 0x20 PUSH1 0x0 KECCAK256 SWAP2 MUL ADD PUSH1 0x1 DUP1 PUSH1 0xA0 SHL SUB DUP5 MLOAD AND PUSH1 0x1 PUSH1 0x1 PUSH1 0x60 SHL SUB PUSH1 0xA0 SHL DUP3 SLOAD AND OR DUP2 SSTORE PUSH1 0x1 DUP2 ADD PUSH1 0x1 DUP1 PUSH1 0xA0 SHL SUB PUSH1 0x20 DUP7 ADD MLOAD AND PUSH1 0x1 PUSH1 0x1 PUSH1 0x60 SHL SUB PUSH1 0xA0 SHL DUP3 SLOAD AND OR SWAP1 SSTORE PUSH1 0x40 DUP5 ADD MLOAD PUSH1 0x2 DUP3 ADD SSTORE PUSH1 0x60 DUP5 ADD MLOAD PUSH1 0x3 DUP3 ADD SSTORE ADD SWAP2 ADD MLOAD PUSH1 0x4 DUP2 LT ISZERO PUSH2 0x990 JUMPI PUSH1 0xFF DUP1 NOT DUP4 SLOAD AND SWAP2 AND OR SWAP1 SSTORE PUSH2 0x1889 PUSH1 0x4 CALLDATALOAD CALLER ADDRESS PUSH2 0x313C JUMP JUMPDEST PUSH1 0x0 DUP1 DUP1 DUP1 PUSH1 0x1 DUP1 PUSH1 0xA0 SHL SUB PUSH1 0xB SLOAD AND PUSH1 0xA SLOAD SWAP1 DUP3 DUP3 ISZERO PUSH2 0x1915 JUMPI JUMPDEST CALL ISZERO PUSH2 0x1900 JUMPI PUSH1 0x0 CALLVALUE ISZERO PUSH2 0x190C JUMPI JUMPDEST PUSH1 0x0 DUP1 DUP1 DUP1 SWAP4 DUP6 CALLVALUE SWAP2 CALL ISZERO PUSH2 0x1900 JUMPI PUSH1 0x40 MLOAD SWAP2 DUP3 MSTORE TIMESTAMP PUSH1 0x20 DUP4 ADD MSTORE CALLER SWAP2 PUSH32 0xA831D161AB34FD077C450EDFEEAC91CD8CC4E1D8A3B07930CF05BF9C0A23D83E PUSH1 0x40 PUSH1 0x4 CALLDATALOAD SWAP3 LOG4 PUSH1 0x1 PUSH1 0x7 SSTORE STOP JUMPDEST PUSH1 0x40 MLOAD RETURNDATASIZE PUSH1 0x0 DUP3 RETURNDATACOPY RETURNDATASIZE SWAP1 REVERT JUMPDEST POP PUSH2 0x8FC PUSH2 0x18B4 JUMP JUMPDEST POP PUSH2 0x8FC PUSH2 0x18A5 JUMP JUMPDEST PUSH4 0x4E487B71 PUSH1 0xE0 SHL PUSH1 0x0 MSTORE PUSH1 0x11 PUSH1 0x4 MSTORE PUSH1 0x24 PUSH1 0x0 REVERT JUMPDEST POP POP SWAP1 POP PUSH2 0x1777 JUMP JUMPDEST PUSH4 0x4E487B71 PUSH1 0xE0 SHL PUSH1 0x0 MSTORE PUSH1 0x31 PUSH1 0x4 MSTORE PUSH1 0x24 PUSH1 0x0 REVERT JUMPDEST POP POP POP PUSH2 0x1702 JUMP JUMPDEST PUSH1 0x40 MLOAD PUSH3 0x461BCD PUSH1 0xE5 SHL DUP2 MSTORE PUSH1 0x20 PUSH1 0x4 DUP3 ADD MSTORE PUSH1 0x21 PUSH1 0x24 DUP3 ADD MSTORE PUSH32 0x53656C6C65722063616E6E6F7420627579207468656972206F776E20746F6B65 PUSH1 0x44 DUP3 ADD MSTORE PUSH1 0x37 PUSH1 0xF9 SHL PUSH1 0x64 DUP3 ADD MSTORE PUSH1 0x84 SWAP1 REVERT JUMPDEST PUSH1 0x40 MLOAD PUSH3 0x461BCD PUSH1 0xE5 SHL DUP2 MSTORE PUSH1 0x20 PUSH1 0x4 DUP3 ADD MSTORE PUSH1 0x19 PUSH1 0x24 DUP3 ADD MSTORE PUSH32 0x54686973206974656D20697320616C726561647920736F6C6400000000000000 PUSH1 0x44 DUP3 ADD MSTORE PUSH1 0x64 SWAP1 REVERT JUMPDEST PUSH1 0x40 MLOAD PUSH3 0x461BCD PUSH1 0xE5 SHL DUP2 MSTORE PUSH1 0x20 PUSH1 0x4 DUP3 ADD MSTORE PUSH1 0x2A PUSH1 0x24 DUP3 ADD MSTORE PUSH32 0x4D61726B6574706C616365206D75737420626520746865206F776E6572206F66 PUSH1 0x44 DUP3 ADD MSTORE PUSH10 0x103A3432903A37B5B2B7 PUSH1 0xB1 SHL PUSH1 0x64 DUP3 ADD MSTORE PUSH1 0x84 SWAP1 REVERT JUMPDEST PUSH1 0x84 PUSH1 0x40 MLOAD PUSH3 0x461BCD PUSH1 0xE5 SHL DUP2 MSTORE PUSH1 0x20 PUSH1 0x4 DUP3 ADD MSTORE PUSH1 0x40 PUSH1 0x24 DUP3 ADD MSTORE PUSH32 0x506C65617365207375626D6974207468652061736B696E672070726963652069 PUSH1 0x44 DUP3 ADD MSTORE PUSH32 0x6E206F7264657220746F20636F6D706C65746520746865207075726368617365 PUSH1 0x64 DUP3 ADD MSTORE REVERT JUMPDEST CALLVALUE PUSH2 0x280 JUMPI PUSH1 0x80 CALLDATASIZE PUSH1 0x3 NOT ADD SLT PUSH2 0x280 JUMPI PUSH2 0x1ACA PUSH2 0x2A21 JUMP JUMPDEST PUSH2 0x1AD2 PUSH2 0x2A37 JUMP JUMPDEST PUSH1 0x64 CALLDATALOAD SWAP2 PUSH1 0x1 PUSH1 0x1 PUSH1 0x40 SHL SUB DUP4 GT PUSH2 0x280 JUMPI CALLDATASIZE PUSH1 0x23 DUP5 ADD SLT ISZERO PUSH2 0x280 JUMPI PUSH2 0x1B06 PUSH2 0x1B10 SWAP4 CALLDATASIZE SWAP1 PUSH1 0x24 DUP2 PUSH1 0x4 ADD CALLDATALOAD SWAP2 ADD PUSH2 0x2BA8 JUMP JUMPDEST SWAP2 PUSH1 0x44 CALLDATALOAD SWAP2 PUSH2 0x2F50 JUMP JUMPDEST STOP JUMPDEST CALLVALUE PUSH2 0x280 JUMPI PUSH1 0x20 CALLDATASIZE PUSH1 0x3 NOT ADD SLT PUSH2 0x280 JUMPI PUSH1 0x4 CALLDATALOAD PUSH1 0x0 DUP2 DUP2 MSTORE PUSH1 0x2 PUSH1 0x20 MSTORE PUSH1 0x40 SWAP1 KECCAK256 SLOAD PUSH2 0x1B49 SWAP1 PUSH1 0x1 PUSH1 0x1 PUSH1 0xA0 SHL SUB AND ISZERO ISZERO PUSH2 0x2BFD JUMP JUMPDEST PUSH1 0x0 MSTORE PUSH1 0x10 PUSH1 0x20 MSTORE PUSH2 0x887 PUSH2 0x1B61 PUSH1 0x40 PUSH1 0x0 KECCAK256 PUSH2 0x2C7A JUMP JUMPDEST PUSH1 0x40 MLOAD SWAP2 DUP3 SWAP2 PUSH1 0x20 DUP4 MSTORE PUSH1 0x20 DUP4 ADD SWAP1 PUSH2 0x29FC JUMP JUMPDEST PUSH1 0x20 CALLDATASIZE PUSH1 0x3 NOT ADD SLT PUSH2 0x280 JUMPI PUSH1 0xB SLOAD PUSH1 0x1 PUSH1 0x1 PUSH1 0xA0 SHL SUB AND CALLER DUP2 SWAP1 SUB PUSH2 0x1C01 JUMPI CALLER SUB PUSH2 0x1BA3 JUMPI PUSH1 0x4 CALLDATALOAD PUSH1 0xA SSTORE STOP JUMPDEST PUSH1 0x40 MLOAD PUSH3 0x461BCD PUSH1 0xE5 SHL DUP2 MSTORE PUSH1 0x20 PUSH1 0x4 DUP3 ADD MSTORE PUSH1 0x30 PUSH1 0x24 DUP3 ADD MSTORE PUSH32 0x4F6E6C79206D61726B6574706C616365206F776E65722063616E207570646174 PUSH1 0x44 DUP3 ADD MSTORE PUSH16 0x32903634B9BA34B73390383934B1B297 PUSH1 0x81 SHL PUSH1 0x64 DUP3 ADD MSTORE PUSH1 0x84 SWAP1 REVERT JUMPDEST PUSH1 0x40 MLOAD PUSH3 0x461BCD PUSH1 0xE5 SHL DUP2 MSTORE PUSH1 0x20 PUSH1 0x4 DUP3 ADD MSTORE PUSH1 0x3A PUSH1 0x24 DUP3 ADD MSTORE PUSH32 0x6F6E6C79206F776E6572206F6620746865206D61726B6574706C616365206361 PUSH1 0x44 DUP3 ADD MSTORE PUSH32 0x6E206368616E676520746865206C697374696E67207072696365000000000000 PUSH1 0x64 DUP3 ADD MSTORE PUSH1 0x84 SWAP1 REVERT JUMPDEST CALLVALUE PUSH2 0x280 JUMPI PUSH1 0x40 CALLDATASIZE PUSH1 0x3 NOT ADD SLT PUSH2 0x280 JUMPI PUSH2 0x1C85 PUSH2 0x2A21 JUMP JUMPDEST PUSH1 0x24 CALLDATALOAD SWAP1 DUP2 ISZERO ISZERO SWAP1 DUP2 DUP4 SUB PUSH2 0x280 JUMPI PUSH1 0x1 PUSH1 0x1 PUSH1 0xA0 SHL SUB AND SWAP2 CALLER DUP4 EQ PUSH2 0x1D02 JUMPI PUSH2 0x1CD4 SWAP1 CALLER PUSH1 0x0 MSTORE PUSH1 0x5 PUSH1 0x20 MSTORE PUSH1 0x40 PUSH1 0x0 KECCAK256 DUP5 PUSH1 0x0 MSTORE PUSH1 0x20 MSTORE PUSH1 0x40 PUSH1 0x0 KECCAK256 SWAP1 PUSH1 0xFF DUP1 NOT DUP4 SLOAD AND SWAP2 ISZERO ISZERO AND OR SWAP1 SSTORE JUMP JUMPDEST PUSH1 0x40 MLOAD SWAP1 DUP2 MSTORE PUSH32 0x17307EAB39AB6107E8899845AD3D59BD9653F200F220920489CA2B5937696C31 PUSH1 0x20 CALLER SWAP3 LOG3 STOP JUMPDEST PUSH1 0x40 MLOAD PUSH3 0x461BCD PUSH1 0xE5 SHL DUP2 MSTORE PUSH1 0x20 PUSH1 0x4 DUP3 ADD MSTORE PUSH1 0x19 PUSH1 0x24 DUP3 ADD MSTORE PUSH32 0x4552433732313A20617070726F766520746F2063616C6C657200000000000000 PUSH1 0x44 DUP3 ADD MSTORE PUSH1 0x64 SWAP1 REVERT JUMPDEST CALLVALUE PUSH2 0x280 JUMPI PUSH1 0x0 CALLDATASIZE PUSH1 0x3 NOT ADD SLT PUSH2 0x280 JUMPI PUSH1 0x40 MLOAD PUSH1 0x0 PUSH1 0x1 DUP3 PUSH1 0x1 SLOAD SWAP3 PUSH2 0x1D6D DUP5 PUSH2 0x2C40 JUMP JUMPDEST SWAP3 DUP4 DUP4 MSTORE PUSH1 0x20 SWAP5 DUP6 PUSH1 0x1 DUP3 AND SWAP2 DUP3 PUSH1 0x0 EQ PUSH2 0x1E0A JUMPI POP POP PUSH1 0x1 EQ PUSH2 0x1DAD JUMPI JUMPDEST POP PUSH2 0x1D99 SWAP3 POP SUB DUP4 PUSH2 0x2B6C JUMP JUMPDEST PUSH2 0x887 PUSH1 0x40 MLOAD SWAP3 DUP3 DUP5 SWAP4 DUP5 MSTORE DUP4 ADD SWAP1 PUSH2 0x29FC JUMP JUMPDEST DUP5 SWAP2 POP PUSH1 0x1 PUSH1 0x0 MSTORE PUSH32 0xB10E2D527612073B26EECDFD717E6A320CF44B4AFAC2B0732D9FCBE2B7FA0CF6 SWAP1 PUSH1 0x0 SWAP2 JUMPDEST DUP6 DUP4 LT PUSH2 0x1DF2 JUMPI POP POP PUSH2 0x1D99 SWAP4 POP DUP3 ADD ADD DUP6 PUSH2 0x1D8C JUMP JUMPDEST DUP1 SLOAD DUP4 DUP10 ADD DUP6 ADD MSTORE DUP8 SWAP5 POP DUP7 SWAP4 SWAP1 SWAP3 ADD SWAP2 DUP2 ADD PUSH2 0x1DDB JUMP JUMPDEST PUSH1 0xFF NOT AND DUP6 DUP3 ADD MSTORE PUSH2 0x1D99 SWAP6 ISZERO ISZERO PUSH1 0x5 SHL DUP6 ADD ADD SWAP3 POP DUP8 SWAP2 POP PUSH2 0x1D8C SWAP1 POP JUMP JUMPDEST CALLVALUE PUSH2 0x280 JUMPI PUSH1 0x0 CALLDATASIZE PUSH1 0x3 NOT ADD SLT PUSH2 0x280 JUMPI PUSH1 0x40 MLOAD PUSH2 0x1E47 DUP2 PUSH2 0x2B1B JUMP JUMPDEST PUSH1 0x3 DUP2 MSTORE PUSH1 0x20 SWAP1 DUP2 PUSH1 0x0 JUMPDEST PUSH1 0x60 DUP1 DUP3 LT ISZERO PUSH2 0x1E6A JUMPI DUP3 DUP3 DUP6 ADD ADD MSTORE ADD DUP3 SWAP1 PUSH2 0x1E52 JUMP JUMPDEST POP POP POP PUSH1 0x40 MLOAD PUSH2 0x1E79 DUP2 PUSH2 0x2B51 JUMP JUMPDEST PUSH1 0x5 DUP2 MSTORE PUSH5 0x696D616765 PUSH1 0xD8 SHL DUP4 DUP3 ADD MSTORE PUSH2 0x1E93 DUP3 PUSH2 0x2E3E JUMP JUMPDEST MSTORE PUSH2 0x1E9D DUP2 PUSH2 0x2E3E JUMP JUMPDEST POP PUSH1 0x40 MLOAD PUSH2 0x1EAA DUP2 PUSH2 0x2B51 JUMP JUMPDEST PUSH1 0x5 DUP2 MSTORE PUSH5 0x766964656F PUSH1 0xD8 SHL DUP4 DUP3 ADD MSTORE PUSH2 0x1EC4 DUP3 PUSH2 0x2E4B JUMP JUMPDEST MSTORE PUSH2 0x1ECE DUP2 PUSH2 0x2E4B JUMP JUMPDEST POP PUSH1 0x40 MLOAD PUSH2 0x1EDB DUP2 PUSH2 0x2B51 JUMP JUMPDEST PUSH1 0x5 DUP2 MSTORE PUSH5 0x617564696F PUSH1 0xD8 SHL DUP4 DUP3 ADD MSTORE PUSH2 0x1EF5 DUP3 PUSH2 0x2E5B JUMP JUMPDEST MSTORE PUSH2 0x1EFF DUP2 PUSH2 0x2E5B JUMP JUMPDEST POP PUSH1 0x40 MLOAD SWAP1 DUP3 DUP3 ADD SWAP3 DUP1 DUP4 MSTORE DUP2 MLOAD DUP1 SWAP5 MSTORE PUSH1 0x40 DUP4 ADD SWAP4 DUP2 PUSH1 0x40 DUP3 PUSH1 0x5 SHL DUP7 ADD ADD SWAP4 ADD SWAP2 PUSH1 0x0 SWAP6 JUMPDEST DUP3 DUP8 LT PUSH2 0x1F33 JUMPI DUP6 DUP6 SUB DUP7 RETURN JUMPDEST SWAP1 SWAP2 SWAP3 SWAP4 DUP3 DUP1 PUSH2 0x1F4F PUSH1 0x1 SWAP4 PUSH1 0x3F NOT DUP11 DUP3 SUB ADD DUP7 MSTORE DUP9 MLOAD PUSH2 0x29FC JUMP JUMPDEST SWAP7 ADD SWAP3 ADD SWAP7 ADD SWAP6 SWAP3 SWAP2 SWAP1 SWAP3 PUSH2 0x1F26 JUMP JUMPDEST CALLVALUE PUSH2 0x280 JUMPI PUSH1 0x20 CALLDATASIZE PUSH1 0x3 NOT ADD SLT PUSH2 0x280 JUMPI PUSH1 0x20 PUSH1 0x4 CALLDATALOAD PUSH2 0x1F97 PUSH2 0x1D8 DUP3 PUSH1 0x0 MSTORE PUSH1 0x2 PUSH1 0x20 MSTORE PUSH1 0x1 DUP1 PUSH1 0xA0 SHL SUB PUSH1 0x40 PUSH1 0x0 KECCAK256 SLOAD AND ISZERO ISZERO SWAP1 JUMP JUMPDEST PUSH1 0x0 DUP2 DUP2 MSTORE PUSH1 0xE DUP4 MSTORE PUSH1 0x40 SWAP1 KECCAK256 SLOAD PUSH1 0x1 PUSH1 0x1 PUSH1 0xA0 SHL SUB SWAP1 DUP2 AND SWAP2 PUSH2 0x1FBA SWAP1 PUSH2 0x2F2D JUMP JUMPDEST AND EQ PUSH1 0x40 MLOAD SWAP1 DUP2 MSTORE RETURN JUMPDEST CALLVALUE PUSH2 0x280 JUMPI PUSH1 0x20 CALLDATASIZE PUSH1 0x3 NOT ADD SLT PUSH2 0x280 JUMPI PUSH1 0x1 PUSH1 0x1 PUSH1 0xA0 SHL SUB PUSH2 0x1FE5 PUSH2 0x2A21 JUMP JUMPDEST AND DUP1 ISZERO PUSH2 0x2004 JUMPI PUSH1 0x0 MSTORE PUSH1 0x3 PUSH1 0x20 MSTORE PUSH1 0x20 PUSH1 0x40 PUSH1 0x0 KECCAK256 SLOAD PUSH1 0x40 MLOAD SWAP1 DUP2 MSTORE RETURN JUMPDEST PUSH1 0x40 MLOAD PUSH3 0x461BCD PUSH1 0xE5 SHL DUP2 MSTORE PUSH1 0x20 PUSH1 0x4 DUP3 ADD MSTORE PUSH1 0x29 PUSH1 0x24 DUP3 ADD MSTORE PUSH32 0x4552433732313A2061646472657373207A65726F206973206E6F742061207661 PUSH1 0x44 DUP3 ADD MSTORE PUSH9 0x3634B21037BBB732B9 PUSH1 0xB9 SHL PUSH1 0x64 DUP3 ADD MSTORE PUSH1 0x84 SWAP1 REVERT JUMPDEST CALLVALUE PUSH2 0x280 JUMPI PUSH1 0x20 CALLDATASIZE PUSH1 0x3 NOT ADD SLT PUSH2 0x280 JUMPI PUSH1 0x20 PUSH2 0x2079 PUSH1 0x4 CALLDATALOAD PUSH2 0x2F2D JUMP JUMPDEST PUSH1 0x40 MLOAD PUSH1 0x1 PUSH1 0x1 PUSH1 0xA0 SHL SUB SWAP1 SWAP2 AND DUP2 MSTORE RETURN JUMPDEST CALLVALUE PUSH2 0x280 JUMPI PUSH1 0x20 DUP1 PUSH1 0x3 NOT CALLDATASIZE ADD SLT PUSH2 0x280 JUMPI PUSH1 0x1 PUSH1 0x1 PUSH1 0xA0 SHL SUB SWAP1 DUP2 PUSH2 0x20AF PUSH2 0x2A21 JUMP JUMPDEST AND PUSH1 0x0 MSTORE PUSH1 0x14 DUP2 MSTORE PUSH1 0x40 PUSH1 0x0 KECCAK256 SWAP1 PUSH1 0x40 MLOAD DUP1 DUP4 DUP4 DUP3 SWAP6 SLOAD SWAP4 DUP5 DUP2 MSTORE ADD SWAP1 PUSH1 0x0 MSTORE DUP4 PUSH1 0x0 KECCAK256 SWAP3 PUSH1 0x0 JUMPDEST DUP6 DUP3 DUP3 LT PUSH2 0x217A JUMPI POP POP POP PUSH2 0x20EE SWAP3 POP SUB DUP4 PUSH2 0x2B6C JUMP JUMPDEST PUSH2 0x20F8 DUP3 MLOAD PUSH2 0x2D9F JUMP JUMPDEST SWAP3 PUSH1 0x0 JUMPDEST DUP4 MLOAD DUP2 LT ISZERO PUSH2 0x879 JUMPI DUP1 PUSH2 0x2112 PUSH1 0x1 SWAP3 DUP7 PUSH2 0x2E6B JUMP JUMPDEST MLOAD PUSH1 0x0 MSTORE PUSH1 0xC DUP5 MSTORE PUSH1 0x40 PUSH1 0x0 KECCAK256 PUSH1 0xFF PUSH1 0x4 PUSH1 0x40 MLOAD SWAP3 PUSH2 0x2130 DUP5 PUSH2 0x2B00 JUMP JUMPDEST DUP1 SLOAD DUP5 MSTORE DUP7 DUP7 DUP3 ADD SLOAD AND DUP9 DUP6 ADD MSTORE DUP7 PUSH1 0x2 DUP3 ADD SLOAD AND PUSH1 0x40 DUP6 ADD MSTORE PUSH1 0x3 DUP2 ADD SLOAD PUSH1 0x60 DUP6 ADD MSTORE ADD SLOAD AND ISZERO ISZERO PUSH1 0x80 DUP3 ADD MSTORE PUSH2 0x2168 DUP3 DUP9 PUSH2 0x2E6B JUMP JUMPDEST MSTORE PUSH2 0x2173 DUP2 DUP8 PUSH2 0x2E6B JUMP JUMPDEST POP ADD PUSH2 0x20FC JUMP JUMPDEST DUP6 SLOAD DUP5 MSTORE PUSH1 0x1 SWAP6 DUP7 ADD SWAP6 DUP9 SWAP6 POP SWAP4 ADD SWAP3 ADD PUSH2 0x20D7 JUMP JUMPDEST CALLVALUE PUSH2 0x280 JUMPI PUSH1 0x0 CALLDATASIZE PUSH1 0x3 NOT ADD SLT PUSH2 0x280 JUMPI CALLER PUSH1 0x0 MSTORE PUSH1 0x20 PUSH1 0x14 DUP2 MSTORE PUSH1 0x40 PUSH1 0x0 KECCAK256 PUSH1 0x40 MLOAD DUP1 DUP3 DUP5 DUP3 SWAP5 SLOAD SWAP4 DUP5 DUP2 MSTORE ADD SWAP1 PUSH1 0x0 MSTORE DUP5 PUSH1 0x0 KECCAK256 SWAP3 PUSH1 0x0 JUMPDEST DUP7 DUP3 DUP3 LT PUSH2 0x227E JUMPI DUP5 PUSH2 0x21DF DUP2 DUP7 SUB DUP3 PUSH2 0x2B6C JUMP JUMPDEST PUSH2 0x21E9 DUP2 MLOAD PUSH2 0x2D9F JUMP JUMPDEST SWAP2 PUSH1 0x0 JUMPDEST DUP3 MLOAD DUP2 LT ISZERO PUSH2 0x2270 JUMPI DUP1 PUSH2 0x2203 PUSH1 0x1 SWAP3 DUP6 PUSH2 0x2E6B JUMP JUMPDEST MLOAD PUSH1 0x0 MSTORE PUSH1 0xC DUP4 MSTORE PUSH1 0x40 PUSH1 0x0 KECCAK256 PUSH1 0xFF PUSH1 0x4 PUSH1 0x40 MLOAD SWAP3 PUSH2 0x2221 DUP5 PUSH2 0x2B00 JUMP JUMPDEST DUP1 SLOAD DUP5 MSTORE DUP6 DUP1 PUSH1 0xA0 SHL SUB DUP1 DUP8 DUP4 ADD SLOAD AND DUP9 DUP7 ADD MSTORE PUSH1 0x2 DUP3 ADD SLOAD AND PUSH1 0x40 DUP6 ADD MSTORE PUSH1 0x3 DUP2 ADD SLOAD PUSH1 0x60 DUP6 ADD MSTORE ADD SLOAD AND ISZERO ISZERO PUSH1 0x80 DUP3 ADD MSTORE PUSH2 0x225E DUP3 DUP8 PUSH2 0x2E6B JUMP JUMPDEST MSTORE PUSH2 0x2269 DUP2 DUP7 PUSH2 0x2E6B JUMP JUMPDEST POP ADD PUSH2 0x21ED JUMP JUMPDEST PUSH1 0x40 MLOAD DUP1 PUSH2 0x887 DUP7 DUP3 PUSH2 0x2A4D JUMP JUMPDEST DUP6 SLOAD DUP5 MSTORE PUSH1 0x1 SWAP6 DUP7 ADD SWAP6 DUP8 SWAP6 POP SWAP4 ADD SWAP3 ADD PUSH2 0x21CA JUMP JUMPDEST CALLVALUE PUSH2 0x280 JUMPI PUSH2 0x1B10 PUSH2 0x22A5 CALLDATASIZE PUSH2 0x2ACB JUMP JUMPDEST SWAP1 PUSH1 0x40 MLOAD SWAP3 PUSH2 0x22B3 DUP5 PUSH2 0x2B36 JUMP JUMPDEST PUSH1 0x0 DUP5 MSTORE PUSH2 0x2F50 JUMP JUMPDEST CALLVALUE PUSH2 0x280 JUMPI PUSH2 0x1B10 PUSH2 0x22CD CALLDATASIZE PUSH2 0x2ACB JUMP JUMPDEST SWAP2 PUSH2 0x22E0 PUSH2 0x22DB DUP5 CALLER PUSH2 0x3074 JUMP JUMPDEST PUSH2 0x2E7F JUMP JUMPDEST PUSH2 0x313C JUMP JUMPDEST CALLVALUE PUSH2 0x280 JUMPI PUSH1 0x20 CALLDATASIZE PUSH1 0x3 NOT ADD SLT PUSH2 0x280 JUMPI PUSH1 0x4 CALLDATALOAD PUSH2 0x2301 PUSH2 0x2D74 JUMP JUMPDEST POP PUSH1 0x0 DUP2 DUP2 MSTORE PUSH1 0x2 PUSH1 0x20 MSTORE PUSH1 0x40 SWAP1 KECCAK256 SLOAD PUSH2 0x2325 SWAP1 PUSH1 0x1 PUSH1 0x1 PUSH1 0xA0 SHL SUB AND ISZERO ISZERO PUSH2 0x2BFD JUMP JUMPDEST PUSH1 0x0 DUP1 PUSH1 0x12 SLOAD SWAP1 JUMPDEST DUP2 DUP2 LT PUSH2 0x243C JUMPI JUMPDEST POP POP PUSH2 0x2340 DUP3 PUSH2 0x2F2D JUMP JUMPDEST PUSH1 0x1 PUSH1 0x1 PUSH1 0xA0 SHL SUB SWAP2 SWAP1 DUP2 ISZERO PUSH2 0x2430 JUMPI JUMPDEST POP ISZERO PUSH2 0x23EB JUMPI PUSH1 0xA0 SWAP2 PUSH1 0x0 MSTORE PUSH1 0xC PUSH1 0x20 MSTORE PUSH1 0xFF PUSH1 0x4 PUSH1 0x40 PUSH1 0x0 KECCAK256 PUSH1 0x40 MLOAD SWAP4 PUSH2 0x2378 DUP6 PUSH2 0x2B00 JUMP JUMPDEST DUP2 SLOAD DUP6 MSTORE DUP1 PUSH1 0x1 DUP4 ADD SLOAD AND PUSH1 0x20 DUP7 ADD MSTORE PUSH1 0x2 DUP3 ADD SLOAD AND PUSH1 0x40 DUP6 ADD MSTORE PUSH1 0x3 DUP2 ADD SLOAD PUSH1 0x60 DUP6 ADD MSTORE ADD SLOAD AND ISZERO ISZERO PUSH1 0x80 DUP3 ADD MSTORE PUSH2 0x23E9 PUSH1 0x40 MLOAD DUP1 SWAP3 PUSH1 0x80 DUP1 SWAP2 DUP1 MLOAD DUP5 MSTORE PUSH1 0x20 DUP2 ADD MLOAD PUSH1 0x1 DUP1 PUSH1 0xA0 SHL SUB DUP1 SWAP2 AND PUSH1 0x20 DUP7 ADD MSTORE PUSH1 0x40 DUP3 ADD MLOAD AND PUSH1 0x40 DUP6 ADD MSTORE PUSH1 0x60 DUP2 ADD MLOAD PUSH1 0x60 DUP6 ADD MSTORE ADD MLOAD ISZERO ISZERO SWAP2 ADD MSTORE JUMP JUMPDEST RETURN JUMPDEST PUSH1 0x40 MLOAD PUSH3 0x461BCD PUSH1 0xE5 SHL DUP2 MSTORE PUSH1 0x20 PUSH1 0x4 DUP3 ADD MSTORE PUSH1 0x17 PUSH1 0x24 DUP3 ADD MSTORE PUSH32 0x546F6B656E206973206E6F742061636365737369626C65000000000000000000 PUSH1 0x44 DUP3 ADD MSTORE PUSH1 0x64 SWAP1 REVERT JUMPDEST DUP3 AND CALLER EQ SWAP1 POP DUP4 PUSH2 0x2351 JUMP JUMPDEST DUP4 PUSH2 0x2446 DUP3 PUSH2 0x2DEF JUMP JUMPDEST SWAP1 SLOAD SWAP1 PUSH1 0x3 SHL SHR EQ PUSH2 0x245A JUMPI PUSH1 0x1 ADD PUSH2 0x232D JUMP JUMPDEST POP POP POP PUSH1 0x1 DUP3 DUP1 PUSH2 0x2335 JUMP JUMPDEST CALLVALUE PUSH2 0x280 JUMPI PUSH1 0x20 CALLDATASIZE PUSH1 0x3 NOT ADD SLT PUSH2 0x280 JUMPI PUSH1 0x4 CALLDATALOAD PUSH1 0x0 DUP2 DUP2 MSTORE PUSH1 0x2 PUSH1 0x20 MSTORE PUSH1 0x40 SWAP1 KECCAK256 SLOAD PUSH2 0x249D SWAP1 PUSH1 0x1 PUSH1 0x1 PUSH1 0xA0 SHL SUB AND ISZERO ISZERO PUSH2 0x2BFD JUMP JUMPDEST PUSH1 0x0 MSTORE PUSH1 0xD PUSH1 0x20 MSTORE PUSH1 0x20 PUSH1 0x40 PUSH1 0x0 KECCAK256 SLOAD PUSH1 0x40 MLOAD SWAP1 DUP2 MSTORE RETURN JUMPDEST CALLVALUE PUSH2 0x280 JUMPI PUSH1 0x0 CALLDATASIZE PUSH1 0x3 NOT ADD SLT PUSH2 0x280 JUMPI CALLER PUSH1 0x0 MSTORE PUSH1 0x20 PUSH1 0x13 DUP2 MSTORE PUSH1 0x40 PUSH1 0x0 KECCAK256 PUSH1 0x40 MLOAD DUP1 DUP3 DUP5 DUP3 SWAP5 SLOAD SWAP4 DUP5 DUP2 MSTORE ADD SWAP1 PUSH1 0x0 MSTORE DUP5 PUSH1 0x0 KECCAK256 SWAP3 PUSH1 0x0 JUMPDEST DUP7 DUP3 DUP3 LT PUSH2 0x2595 JUMPI DUP5 PUSH2 0x2504 DUP2 DUP7 SUB DUP3 PUSH2 0x2B6C JUMP JUMPDEST PUSH2 0x250E DUP2 MLOAD PUSH2 0x2D9F JUMP JUMPDEST SWAP2 PUSH1 0x0 JUMPDEST DUP3 MLOAD DUP2 LT ISZERO PUSH2 0x2270 JUMPI DUP1 PUSH2 0x2528 PUSH1 0x1 SWAP3 DUP6 PUSH2 0x2E6B JUMP JUMPDEST MLOAD PUSH1 0x0 MSTORE PUSH1 0xC DUP4 MSTORE PUSH1 0x40 PUSH1 0x0 KECCAK256 PUSH1 0xFF PUSH1 0x4 PUSH1 0x40 MLOAD SWAP3 PUSH2 0x2546 DUP5 PUSH2 0x2B00 JUMP JUMPDEST DUP1 SLOAD DUP5 MSTORE DUP6 DUP1 PUSH1 0xA0 SHL SUB DUP1 DUP8 DUP4 ADD SLOAD AND DUP9 DUP7 ADD MSTORE PUSH1 0x2 DUP3 ADD SLOAD AND PUSH1 0x40 DUP6 ADD MSTORE PUSH1 0x3 DUP2 ADD SLOAD PUSH1 0x60 DUP6 ADD MSTORE ADD SLOAD AND ISZERO ISZERO PUSH1 0x80 DUP3 ADD MSTORE PUSH2 0x2583 DUP3 DUP8 PUSH2 0x2E6B JUMP JUMPDEST MSTORE PUSH2 0x258E DUP2 DUP7 PUSH2 0x2E6B JUMP JUMPDEST POP ADD PUSH2 0x2512 JUMP JUMPDEST DUP6 SLOAD DUP5 MSTORE PUSH1 0x1 SWAP6 DUP7 ADD SWAP6 DUP8 SWAP6 POP SWAP4 ADD SWAP3 ADD PUSH2 0x24EF JUMP JUMPDEST CALLVALUE PUSH2 0x280 JUMPI PUSH1 0x0 CALLDATASIZE PUSH1 0x3 NOT ADD SLT PUSH2 0x280 JUMPI PUSH1 0x20 PUSH1 0xA SLOAD PUSH1 0x40 MLOAD SWAP1 DUP2 MSTORE RETURN JUMPDEST CALLVALUE PUSH2 0x280 JUMPI PUSH1 0x20 CALLDATASIZE PUSH1 0x3 NOT ADD SLT PUSH2 0x280 JUMPI PUSH1 0x4 CALLDATALOAD PUSH1 0x0 DUP2 DUP2 MSTORE PUSH1 0x2 PUSH1 0x20 MSTORE PUSH1 0x40 SWAP1 KECCAK256 SLOAD PUSH2 0x2600 SWAP1 PUSH1 0x1 PUSH1 0x1 PUSH1 0xA0 SHL SUB AND ISZERO ISZERO PUSH2 0x2BFD JUMP JUMPDEST PUSH1 0x0 MSTORE PUSH1 0xF PUSH1 0x20 MSTORE PUSH1 0x20 PUSH1 0x40 PUSH1 0x0 KECCAK256 SLOAD PUSH1 0x40 MLOAD SWAP1 DUP2 MSTORE RETURN JUMPDEST CALLVALUE PUSH2 0x280 JUMPI PUSH1 0x0 CALLDATASIZE PUSH1 0x3 NOT ADD SLT PUSH2 0x280 JUMPI PUSH1 0x12 SLOAD PUSH2 0x2635 DUP2 PUSH2 0x2D9F JUMP JUMPDEST SWAP1 PUSH1 0x0 JUMPDEST DUP2 DUP2 LT PUSH2 0x264E JUMPI PUSH1 0x40 MLOAD DUP1 PUSH2 0x887 DUP6 DUP3 PUSH2 0x2A4D JUMP JUMPDEST DUP1 PUSH2 0x265A PUSH1 0x1 SWAP3 PUSH2 0x2DEF JUMP JUMPDEST SWAP1 SLOAD PUSH1 0x3 SWAP2 DUP3 SHL SHR PUSH1 0x0 MSTORE PUSH1 0xFF PUSH1 0x4 PUSH1 0x20 SWAP3 PUSH1 0xC DUP5 MSTORE PUSH1 0x40 PUSH1 0x0 KECCAK256 SWAP1 PUSH1 0x40 MLOAD SWAP5 PUSH2 0x2683 DUP7 PUSH2 0x2B00 JUMP JUMPDEST DUP3 SLOAD DUP7 MSTORE DUP8 DUP1 PUSH1 0xA0 SHL SUB SWAP1 DUP2 DUP10 DUP6 ADD SLOAD AND SWAP1 DUP8 ADD MSTORE PUSH1 0x2 DUP4 ADD SLOAD AND PUSH1 0x40 DUP7 ADD MSTORE DUP2 ADD SLOAD PUSH1 0x60 DUP6 ADD MSTORE ADD SLOAD AND ISZERO ISZERO PUSH1 0x80 DUP3 ADD MSTORE PUSH2 0x26BF DUP3 DUP7 PUSH2 0x2E6B JUMP JUMPDEST MSTORE PUSH2 0x26CA DUP2 DUP6 PUSH2 0x2E6B JUMP JUMPDEST POP ADD PUSH2 0x2639 JUMP JUMPDEST CALLVALUE PUSH2 0x280 JUMPI PUSH1 0x40 CALLDATASIZE PUSH1 0x3 NOT ADD SLT PUSH2 0x280 JUMPI PUSH2 0x26EA PUSH2 0x2A21 JUMP JUMPDEST PUSH1 0x24 CALLDATALOAD SWAP1 PUSH1 0x1 PUSH1 0x1 PUSH1 0xA0 SHL SUB DUP1 DUP1 PUSH2 0x2701 DUP6 PUSH2 0x2F2D JUMP JUMPDEST AND SWAP3 AND SWAP2 DUP1 DUP4 EQ PUSH2 0x27FC JUMPI DUP1 CALLER EQ SWAP1 DUP2 ISZERO PUSH2 0x27D7 JUMPI JUMPDEST POP ISZERO PUSH2 0x276C JUMPI PUSH1 0x0 DUP4 DUP2 MSTORE PUSH1 0x4 PUSH1 0x20 MSTORE PUSH1 0x40 SWAP1 KECCAK256 DUP1 SLOAD PUSH1 0x1 PUSH1 0x1 PUSH1 0xA0 SHL SUB NOT AND DUP4 OR SWAP1 SSTORE PUSH2 0x2744 DUP4 PUSH2 0x2F2D JUMP JUMPDEST AND PUSH32 0x8C5BE1E5EBEC7D5BD14F71427D1E84F3DD0314C0F7B2291E5B200AC8C7C3B925 PUSH1 0x0 DUP1 LOG4 STOP JUMPDEST PUSH1 0x40 MLOAD PUSH3 0x461BCD PUSH1 0xE5 SHL DUP2 MSTORE PUSH1 0x20 PUSH1 0x4 DUP3 ADD MSTORE PUSH1 0x3D PUSH1 0x24 DUP3 ADD MSTORE PUSH32 0x4552433732313A20617070726F76652063616C6C6572206973206E6F7420746F PUSH1 0x44 DUP3 ADD MSTORE PUSH32 0x6B656E206F776E6572206F7220617070726F76656420666F7220616C6C000000 PUSH1 0x64 DUP3 ADD MSTORE PUSH1 0x84 SWAP1 REVERT JUMPDEST SWAP1 POP PUSH1 0x0 MSTORE PUSH1 0x5 PUSH1 0x20 MSTORE PUSH1 0x40 PUSH1 0x0 KECCAK256 CALLER PUSH1 0x0 MSTORE PUSH1 0x20 MSTORE PUSH1 0xFF PUSH1 0x40 PUSH1 0x0 KECCAK256 SLOAD AND DUP5 PUSH2 0x2717 JUMP JUMPDEST PUSH1 0x40 MLOAD PUSH3 0x461BCD PUSH1 0xE5 SHL DUP2 MSTORE PUSH1 0x20 PUSH1 0x4 DUP3 ADD MSTORE PUSH1 0x21 PUSH1 0x24 DUP3 ADD MSTORE PUSH32 0x4552433732313A20617070726F76616C20746F2063757272656E74206F776E65 PUSH1 0x44 DUP3 ADD MSTORE PUSH1 0x39 PUSH1 0xF9 SHL PUSH1 0x64 DUP3 ADD MSTORE PUSH1 0x84 SWAP1 REVERT JUMPDEST CALLVALUE PUSH2 0x280 JUMPI PUSH1 0x20 CALLDATASIZE PUSH1 0x3 NOT ADD SLT PUSH2 0x280 JUMPI PUSH1 0x20 PUSH2 0x2079 PUSH1 0x4 CALLDATALOAD PUSH2 0x2D1F JUMP JUMPDEST CALLVALUE PUSH2 0x280 JUMPI PUSH1 0x0 CALLDATASIZE PUSH1 0x3 NOT ADD SLT PUSH2 0x280 JUMPI PUSH1 0x40 MLOAD PUSH1 0x0 DUP1 SLOAD SWAP1 DUP3 PUSH2 0x288C DUP4 PUSH2 0x2C40 JUMP JUMPDEST SWAP2 DUP3 DUP3 MSTORE PUSH1 0x20 SWAP4 PUSH1 0x1 SWAP1 DUP6 PUSH1 0x1 DUP3 AND SWAP2 DUP3 PUSH1 0x0 EQ PUSH2 0x1E0A JUMPI POP POP PUSH1 0x1 EQ PUSH2 0x28BA JUMPI POP PUSH2 0x1D99 SWAP3 POP SUB DUP4 PUSH2 0x2B6C JUMP JUMPDEST PUSH1 0x0 DUP1 DUP1 MSTORE DUP6 SWAP3 POP SWAP1 PUSH32 0x290DECD9548B62A8D60345A988386FC84BA6BC95484008F6362F93160EF3E563 JUMPDEST DUP6 DUP4 LT PUSH2 0x28FC JUMPI POP POP PUSH2 0x1D99 SWAP4 POP DUP3 ADD ADD DUP6 PUSH2 0x1D8C JUMP JUMPDEST DUP1 SLOAD DUP4 DUP10 ADD DUP6 ADD MSTORE DUP8 SWAP5 POP DUP7 SWAP4 SWAP1 SWAP3 ADD SWAP2 DUP2 ADD PUSH2 0x28E5 JUMP JUMPDEST CALLVALUE PUSH2 0x280 JUMPI PUSH1 0x20 CALLDATASIZE PUSH1 0x3 NOT ADD SLT PUSH2 0x280 JUMPI PUSH1 0x20 PUSH2 0x2079 PUSH1 0x4 CALLDATALOAD PUSH2 0x294F PUSH2 0x1D8 DUP3 PUSH1 0x0 MSTORE PUSH1 0x2 PUSH1 0x20 MSTORE PUSH1 0x1 DUP1 PUSH1 0xA0 SHL SUB PUSH1 0x40 PUSH1 0x0 KECCAK256 SLOAD AND ISZERO ISZERO SWAP1 JUMP JUMPDEST PUSH2 0x2F2D JUMP JUMPDEST CALLVALUE PUSH2 0x280 JUMPI PUSH1 0x20 CALLDATASIZE PUSH1 0x3 NOT ADD SLT PUSH2 0x280 JUMPI PUSH1 0x4 CALLDATALOAD SWAP1 PUSH4 0xFFFFFFFF PUSH1 0xE0 SHL DUP3 AND DUP1 SWAP3 SUB PUSH2 0x280 JUMPI PUSH1 0x20 SWAP2 PUSH4 0x24832483 PUSH1 0xE1 SHL DUP2 EQ SWAP1 DUP2 ISZERO PUSH2 0x2996 JUMPI JUMPDEST POP ISZERO ISZERO DUP2 MSTORE RETURN JUMPDEST PUSH4 0x80AC58CD PUSH1 0xE0 SHL DUP2 EQ SWAP2 POP DUP2 ISZERO PUSH2 0x29C8 JUMPI JUMPDEST DUP2 ISZERO PUSH2 0x29B7 JUMPI JUMPDEST POP DUP4 PUSH2 0x298F JUMP JUMPDEST PUSH4 0x1FFC9A7 PUSH1 0xE0 SHL EQ SWAP1 POP DUP4 PUSH2 0x29B0 JUMP JUMPDEST PUSH4 0x5B5E139F PUSH1 0xE0 SHL DUP2 EQ SWAP2 POP PUSH2 0x29A9 JUMP JUMPDEST PUSH1 0x0 JUMPDEST DUP4 DUP2 LT PUSH2 0x29EC JUMPI POP POP PUSH1 0x0 SWAP2 ADD MSTORE JUMP JUMPDEST DUP2 DUP2 ADD MLOAD DUP4 DUP3 ADD MSTORE PUSH1 0x20 ADD PUSH2 0x29DC JUMP JUMPDEST SWAP1 PUSH1 0x20 SWAP2 PUSH2 0x2A15 DUP2 MLOAD DUP1 SWAP3 DUP2 DUP6 MSTORE DUP6 DUP1 DUP7 ADD SWAP2 ADD PUSH2 0x29D9 JUMP JUMPDEST PUSH1 0x1F ADD PUSH1 0x1F NOT AND ADD ADD SWAP1 JUMP JUMPDEST PUSH1 0x4 CALLDATALOAD SWAP1 PUSH1 0x1 PUSH1 0x1 PUSH1 0xA0 SHL SUB DUP3 AND DUP3 SUB PUSH2 0x280 JUMPI JUMP JUMPDEST PUSH1 0x24 CALLDATALOAD SWAP1 PUSH1 0x1 PUSH1 0x1 PUSH1 0xA0 SHL SUB DUP3 AND DUP3 SUB PUSH2 0x280 JUMPI JUMP JUMPDEST PUSH1 0x20 SWAP1 PUSH1 0x20 PUSH1 0x40 DUP2 DUP4 ADD SWAP3 DUP3 DUP2 MSTORE DUP6 MLOAD DUP1 SWAP5 MSTORE ADD SWAP4 ADD SWAP2 PUSH1 0x0 JUMPDEST DUP3 DUP2 LT PUSH2 0x2A75 JUMPI POP POP POP POP SWAP1 JUMP JUMPDEST SWAP1 SWAP2 SWAP3 SWAP4 DUP3 PUSH1 0xA0 DUP3 PUSH2 0x2ABF PUSH1 0x1 SWAP5 DUP10 MLOAD PUSH1 0x80 DUP1 SWAP2 DUP1 MLOAD DUP5 MSTORE PUSH1 0x20 DUP2 ADD MLOAD PUSH1 0x1 DUP1 PUSH1 0xA0 SHL SUB DUP1 SWAP2 AND PUSH1 0x20 DUP7 ADD MSTORE PUSH1 0x40 DUP3 ADD MLOAD AND PUSH1 0x40 DUP6 ADD MSTORE PUSH1 0x60 DUP2 ADD MLOAD PUSH1 0x60 DUP6 ADD MSTORE ADD MLOAD ISZERO ISZERO SWAP2 ADD MSTORE JUMP JUMPDEST ADD SWAP6 ADD SWAP4 SWAP3 SWAP2 ADD PUSH2 0x2A67 JUMP JUMPDEST PUSH1 0x60 SWAP1 PUSH1 0x3 NOT ADD SLT PUSH2 0x280 JUMPI PUSH1 0x1 PUSH1 0x1 PUSH1 0xA0 SHL SUB SWAP1 PUSH1 0x4 CALLDATALOAD DUP3 DUP2 AND DUP2 SUB PUSH2 0x280 JUMPI SWAP2 PUSH1 0x24 CALLDATALOAD SWAP1 DUP2 AND DUP2 SUB PUSH2 0x280 JUMPI SWAP1 PUSH1 0x44 CALLDATALOAD SWAP1 JUMP JUMPDEST PUSH1 0xA0 DUP2 ADD SWAP1 DUP2 LT PUSH1 0x1 PUSH1 0x1 PUSH1 0x40 SHL SUB DUP3 GT OR PUSH2 0x119D JUMPI PUSH1 0x40 MSTORE JUMP JUMPDEST PUSH1 0x80 DUP2 ADD SWAP1 DUP2 LT PUSH1 0x1 PUSH1 0x1 PUSH1 0x40 SHL SUB DUP3 GT OR PUSH2 0x119D JUMPI PUSH1 0x40 MSTORE JUMP JUMPDEST PUSH1 0x20 DUP2 ADD SWAP1 DUP2 LT PUSH1 0x1 PUSH1 0x1 PUSH1 0x40 SHL SUB DUP3 GT OR PUSH2 0x119D JUMPI PUSH1 0x40 MSTORE JUMP JUMPDEST PUSH1 0x40 DUP2 ADD SWAP1 DUP2 LT PUSH1 0x1 PUSH1 0x1 PUSH1 0x40 SHL SUB DUP3 GT OR PUSH2 0x119D JUMPI PUSH1 0x40 MSTORE JUMP JUMPDEST SWAP1 PUSH1 0x1F DUP1 NOT SWAP2 ADD AND DUP2 ADD SWAP1 DUP2 LT PUSH1 0x1 PUSH1 0x1 PUSH1 0x40 SHL SUB DUP3 GT OR PUSH2 0x119D JUMPI PUSH1 0x40 MSTORE JUMP JUMPDEST PUSH1 0x1 PUSH1 0x1 PUSH1 0x40 SHL SUB DUP2 GT PUSH2 0x119D JUMPI PUSH1 0x1F ADD PUSH1 0x1F NOT AND PUSH1 0x20 ADD SWAP1 JUMP JUMPDEST SWAP3 SWAP2 SWAP3 PUSH2 0x2BB4 DUP3 PUSH2 0x2B8D JUMP JUMPDEST SWAP2 PUSH2 0x2BC2 PUSH1 0x40 MLOAD SWAP4 DUP5 PUSH2 0x2B6C JUMP JUMPDEST DUP3 SWAP5 DUP2 DUP5 MSTORE DUP2 DUP4 ADD GT PUSH2 0x280 JUMPI DUP3 DUP2 PUSH1 0x20 SWAP4 DUP5 PUSH1 0x0 SWAP7 ADD CALLDATACOPY ADD ADD MSTORE JUMP JUMPDEST SWAP1 DUP1 PUSH1 0x1F DUP4 ADD SLT ISZERO PUSH2 0x280 JUMPI DUP2 PUSH1 0x20 PUSH2 0x2BFA SWAP4 CALLDATALOAD SWAP2 ADD PUSH2 0x2BA8 JUMP JUMPDEST SWAP1 JUMP JUMPDEST ISZERO PUSH2 0x2C04 JUMPI JUMP JUMPDEST PUSH1 0x40 MLOAD PUSH3 0x461BCD PUSH1 0xE5 SHL DUP2 MSTORE PUSH1 0x20 PUSH1 0x4 DUP3 ADD MSTORE PUSH1 0x14 PUSH1 0x24 DUP3 ADD MSTORE PUSH20 0x151BDAD95B88191BD95CC81B9BDD08195E1A5CDD PUSH1 0x62 SHL PUSH1 0x44 DUP3 ADD MSTORE PUSH1 0x64 SWAP1 REVERT JUMPDEST SWAP1 PUSH1 0x1 DUP3 DUP2 SHR SWAP3 AND DUP1 ISZERO PUSH2 0x2C70 JUMPI JUMPDEST PUSH1 0x20 DUP4 LT EQ PUSH2 0x2C5A JUMPI JUMP JUMPDEST PUSH4 0x4E487B71 PUSH1 0xE0 SHL PUSH1 0x0 MSTORE PUSH1 0x22 PUSH1 0x4 MSTORE PUSH1 0x24 PUSH1 0x0 REVERT JUMPDEST SWAP2 PUSH1 0x7F AND SWAP2 PUSH2 0x2C4F JUMP JUMPDEST SWAP1 PUSH1 0x40 MLOAD SWAP2 DUP3 PUSH1 0x0 DUP3 SLOAD PUSH2 0x2C8D DUP2 PUSH2 0x2C40 JUMP JUMPDEST SWAP1 DUP2 DUP5 MSTORE PUSH1 0x20 SWAP5 PUSH1 0x1 SWAP2 PUSH1 0x1 DUP2 AND SWAP1 DUP2 PUSH1 0x0 EQ PUSH2 0x2CFD JUMPI POP PUSH1 0x1 EQ PUSH2 0x2CBE JUMPI JUMPDEST POP POP POP PUSH2 0x2CBC SWAP3 POP SUB DUP4 PUSH2 0x2B6C JUMP JUMPDEST JUMP JUMPDEST PUSH1 0x0 SWAP1 DUP2 MSTORE DUP6 DUP2 KECCAK256 SWAP6 SWAP4 POP SWAP2 SWAP1 JUMPDEST DUP2 DUP4 LT PUSH2 0x2CE5 JUMPI POP POP PUSH2 0x2CBC SWAP4 POP DUP3 ADD ADD CODESIZE DUP1 DUP1 PUSH2 0x2CAD JUMP JUMPDEST DUP6 SLOAD DUP9 DUP5 ADD DUP6 ADD MSTORE SWAP5 DUP6 ADD SWAP5 DUP8 SWAP5 POP SWAP2 DUP4 ADD SWAP2 PUSH2 0x2CCC JUMP JUMPDEST SWAP3 POP POP POP PUSH2 0x2CBC SWAP5 SWAP3 POP PUSH1 0xFF NOT AND DUP3 DUP5 ADD MSTORE ISZERO ISZERO PUSH1 0x5 SHL DUP3 ADD ADD CODESIZE DUP1 DUP1 PUSH2 0x2CAD JUMP JUMPDEST PUSH1 0x0 DUP2 DUP2 MSTORE PUSH1 0x2 PUSH1 0x20 MSTORE PUSH1 0x40 SWAP1 KECCAK256 SLOAD PUSH2 0x2D42 SWAP1 PUSH1 0x1 PUSH1 0x1 PUSH1 0xA0 SHL SUB AND ISZERO ISZERO PUSH2 0x2EE1 JUMP JUMPDEST PUSH1 0x0 SWAP1 DUP2 MSTORE PUSH1 0x4 PUSH1 0x20 MSTORE PUSH1 0x40 SWAP1 KECCAK256 SLOAD PUSH1 0x1 PUSH1 0x1 PUSH1 0xA0 SHL SUB AND SWAP1 JUMP JUMPDEST PUSH1 0x1 PUSH1 0x1 PUSH1 0x40 SHL SUB DUP2 GT PUSH2 0x119D JUMPI PUSH1 0x5 SHL PUSH1 0x20 ADD SWAP1 JUMP JUMPDEST PUSH1 0x40 MLOAD SWAP1 PUSH2 0x2D81 DUP3 PUSH2 0x2B00 JUMP JUMPDEST PUSH1 0x0 PUSH1 0x80 DUP4 DUP3 DUP2 MSTORE DUP3 PUSH1 0x20 DUP3 ADD MSTORE DUP3 PUSH1 0x40 DUP3 ADD MSTORE DUP3 PUSH1 0x60 DUP3 ADD MSTORE ADD MSTORE JUMP JUMPDEST SWAP1 PUSH2 0x2DA9 DUP3 PUSH2 0x2D5D JUMP JUMPDEST PUSH2 0x2DB6 PUSH1 0x40 MLOAD SWAP2 DUP3 PUSH2 0x2B6C JUMP JUMPDEST DUP3 DUP2 MSTORE DUP1 SWAP3 PUSH2 0x2DC7 PUSH1 0x1F NOT SWAP2 PUSH2 0x2D5D JUMP JUMPDEST ADD SWAP1 PUSH1 0x0 JUMPDEST DUP3 DUP2 LT PUSH2 0x2DD8 JUMPI POP POP POP JUMP JUMPDEST PUSH1 0x20 SWAP1 PUSH2 0x2DE3 PUSH2 0x2D74 JUMP JUMPDEST DUP3 DUP3 DUP6 ADD ADD MSTORE ADD PUSH2 0x2DCC JUMP JUMPDEST PUSH1 0x12 SLOAD DUP2 LT ISZERO PUSH2 0x1187 JUMPI PUSH1 0x12 PUSH1 0x0 MSTORE PUSH32 0xBB8A6A4669BA250D26CD7A459ECA9D215F8307E33AEBE50379BC5A3617EC3444 ADD SWAP1 PUSH1 0x0 SWAP1 JUMP JUMPDEST DUP1 SLOAD DUP3 LT ISZERO PUSH2 0x1187 JUMPI PUSH1 0x0 MSTORE PUSH1 0x20 PUSH1 0x0 KECCAK256 ADD SWAP1 PUSH1 0x0 SWAP1 JUMP JUMPDEST DUP1 MLOAD ISZERO PUSH2 0x1187 JUMPI PUSH1 0x20 ADD SWAP1 JUMP JUMPDEST DUP1 MLOAD PUSH1 0x1 LT ISZERO PUSH2 0x1187 JUMPI PUSH1 0x40 ADD SWAP1 JUMP JUMPDEST DUP1 MLOAD PUSH1 0x2 LT ISZERO PUSH2 0x1187 JUMPI PUSH1 0x60 ADD SWAP1 JUMP JUMPDEST DUP1 MLOAD DUP3 LT ISZERO PUSH2 0x1187 JUMPI PUSH1 0x20 SWAP2 PUSH1 0x5 SHL ADD ADD SWAP1 JUMP JUMPDEST ISZERO PUSH2 0x2E86 JUMPI JUMP JUMPDEST PUSH1 0x40 MLOAD PUSH3 0x461BCD PUSH1 0xE5 SHL DUP2 MSTORE PUSH1 0x20 PUSH1 0x4 DUP3 ADD MSTORE PUSH1 0x2D PUSH1 0x24 DUP3 ADD MSTORE PUSH32 0x4552433732313A2063616C6C6572206973206E6F7420746F6B656E206F776E65 PUSH1 0x44 DUP3 ADD MSTORE PUSH13 0x1C881BDC88185C1C1C9BDD9959 PUSH1 0x9A SHL PUSH1 0x64 DUP3 ADD MSTORE PUSH1 0x84 SWAP1 REVERT JUMPDEST ISZERO PUSH2 0x2EE8 JUMPI JUMP JUMPDEST PUSH1 0x40 MLOAD PUSH3 0x461BCD PUSH1 0xE5 SHL DUP2 MSTORE PUSH1 0x20 PUSH1 0x4 DUP3 ADD MSTORE PUSH1 0x18 PUSH1 0x24 DUP3 ADD MSTORE PUSH32 0x4552433732313A20696E76616C696420746F6B656E2049440000000000000000 PUSH1 0x44 DUP3 ADD MSTORE PUSH1 0x64 SWAP1 REVERT JUMPDEST PUSH1 0x0 SWAP1 DUP2 MSTORE PUSH1 0x2 PUSH1 0x20 MSTORE PUSH1 0x40 SWAP1 KECCAK256 SLOAD PUSH1 0x1 PUSH1 0x1 PUSH1 0xA0 SHL SUB AND PUSH2 0x2BFA DUP2 ISZERO ISZERO PUSH2 0x2EE1 JUMP JUMPDEST SWAP1 PUSH2 0x2F74 SWAP4 SWAP3 SWAP2 PUSH2 0x2F64 PUSH2 0x22DB DUP5 CALLER PUSH2 0x3074 JUMP JUMPDEST PUSH2 0x2F6F DUP4 DUP4 DUP4 PUSH2 0x313C JUMP JUMPDEST PUSH2 0x33F8 JUMP JUMPDEST ISZERO PUSH2 0x2F7B JUMPI JUMP JUMPDEST PUSH1 0x40 MLOAD PUSH3 0x461BCD PUSH1 0xE5 SHL DUP2 MSTORE DUP1 PUSH2 0x2F94 PUSH1 0x4 DUP3 ADD PUSH2 0x324D JUMP JUMPDEST SUB SWAP1 REVERT JUMPDEST PUSH1 0x12 SLOAD SWAP1 PUSH1 0x1 PUSH1 0x40 SHL DUP3 LT ISZERO PUSH2 0x119D JUMPI PUSH2 0x16C0 DUP3 PUSH1 0x1 PUSH2 0x2CBC SWAP5 ADD PUSH1 0x12 SSTORE PUSH2 0x2DEF JUMP JUMPDEST SWAP1 DUP2 SLOAD SWAP2 PUSH1 0x1 PUSH1 0x40 SHL DUP4 LT ISZERO PUSH2 0x119D JUMPI DUP3 PUSH2 0x16C0 SWAP2 PUSH1 0x1 PUSH2 0x2CBC SWAP6 ADD DUP2 SSTORE PUSH2 0x2E26 JUMP JUMPDEST DUP1 SLOAD PUSH1 0x1 PUSH1 0x40 SHL DUP2 LT ISZERO PUSH2 0x119D JUMPI PUSH2 0x2FFB SWAP2 PUSH1 0x1 DUP3 ADD DUP2 SSTORE PUSH2 0x2E26 JUMP JUMPDEST PUSH1 0x1 DUP1 PUSH1 0xA0 SWAP5 SWAP4 SWAP5 SHL SUB DUP1 DUP5 SLOAD SWAP3 PUSH1 0x3 SHL SWAP4 AND DUP4 SHL SWAP3 SHL NOT AND OR SWAP1 SSTORE JUMP JUMPDEST ISZERO PUSH2 0x3020 JUMPI JUMP JUMPDEST PUSH1 0x40 MLOAD PUSH3 0x461BCD PUSH1 0xE5 SHL DUP2 MSTORE PUSH1 0x20 PUSH1 0x4 DUP3 ADD MSTORE PUSH1 0x1C PUSH1 0x24 DUP3 ADD MSTORE PUSH32 0x5072696365206D7573742062652067726561746572207468616E203000000000 PUSH1 0x44 DUP3 ADD MSTORE PUSH1 0x64 SWAP1 REVERT JUMPDEST PUSH1 0x0 NOT DUP2 EQ PUSH2 0x191E JUMPI PUSH1 0x1 ADD SWAP1 JUMP JUMPDEST SWAP1 PUSH1 0x1 PUSH1 0x1 PUSH1 0xA0 SHL SUB DUP1 DUP1 PUSH2 0x3088 DUP5 PUSH2 0x2F2D JUMP JUMPDEST AND SWAP4 AND SWAP2 DUP4 DUP4 EQ SWAP4 DUP5 ISZERO PUSH2 0x30BB JUMPI JUMPDEST POP DUP4 ISZERO PUSH2 0x30A5 JUMPI JUMPDEST POP POP POP SWAP1 JUMP JUMPDEST PUSH2 0x30B1 SWAP2 SWAP3 SWAP4 POP PUSH2 0x2D1F JUMP JUMPDEST AND EQ CODESIZE DUP1 DUP1 PUSH2 0x309F JUMP JUMPDEST SWAP1 SWAP4 POP PUSH1 0x0 MSTORE PUSH1 0x5 PUSH1 0x20 MSTORE PUSH1 0x40 PUSH1 0x0 KECCAK256 DUP3 PUSH1 0x0 MSTORE PUSH1 0x20 MSTORE PUSH1 0xFF PUSH1 0x40 PUSH1 0x0 KECCAK256 SLOAD AND SWAP3 CODESIZE PUSH2 0x3097 JUMP JUMPDEST ISZERO PUSH2 0x30E9 JUMPI JUMP JUMPDEST PUSH1 0x40 MLOAD PUSH3 0x461BCD PUSH1 0xE5 SHL DUP2 MSTORE PUSH1 0x20 PUSH1 0x4 DUP3 ADD MSTORE PUSH1 0x25 PUSH1 0x24 DUP3 ADD MSTORE PUSH32 0x4552433732313A207472616E736665722066726F6D20696E636F727265637420 PUSH1 0x44 DUP3 ADD MSTORE PUSH5 0x37BBB732B9 PUSH1 0xD9 SHL PUSH1 0x64 DUP3 ADD MSTORE PUSH1 0x84 SWAP1 REVERT JUMPDEST SWAP1 PUSH2 0x3164 SWAP2 PUSH2 0x314A DUP5 PUSH2 0x2F2D JUMP JUMPDEST PUSH1 0x1 PUSH1 0x1 PUSH1 0xA0 SHL SUB SWAP4 SWAP2 DUP5 AND SWAP3 DUP5 SWAP3 SWAP1 SWAP2 DUP4 AND DUP5 EQ PUSH2 0x30E2 JUMP JUMPDEST AND SWAP2 DUP3 ISZERO PUSH2 0x31FC JUMPI DUP2 PUSH2 0x3181 SWAP2 PUSH2 0x317A DUP7 PUSH2 0x2F2D JUMP JUMPDEST AND EQ PUSH2 0x30E2 JUMP JUMPDEST PUSH32 0xDDF252AD1BE2C89B69C2B068FC378DAA952BA7F163C4A11628F55A4DF523B3EF PUSH1 0x0 DUP5 DUP2 MSTORE PUSH1 0x4 PUSH1 0x20 MSTORE PUSH1 0x40 DUP2 KECCAK256 PUSH1 0x1 PUSH1 0x1 PUSH1 0x60 SHL SUB PUSH1 0xA0 SHL SWAP1 DUP2 DUP2 SLOAD AND SWAP1 SSTORE DUP4 DUP3 MSTORE PUSH1 0x3 PUSH1 0x20 MSTORE PUSH1 0x40 DUP3 KECCAK256 PUSH1 0x0 NOT DUP2 SLOAD ADD SWAP1 SSTORE DUP5 DUP3 MSTORE PUSH1 0x40 DUP3 KECCAK256 PUSH1 0x1 DUP2 SLOAD ADD SWAP1 SSTORE DUP6 DUP3 MSTORE PUSH1 0x2 PUSH1 0x20 MSTORE DUP5 PUSH1 0x40 DUP4 KECCAK256 SWAP2 DUP3 SLOAD AND OR SWAP1 SSTORE DUP1 LOG4 JUMP JUMPDEST PUSH1 0x40 MLOAD PUSH3 0x461BCD PUSH1 0xE5 SHL DUP2 MSTORE PUSH1 0x20 PUSH1 0x4 DUP3 ADD MSTORE PUSH1 0x24 DUP1 DUP3 ADD MSTORE PUSH32 0x4552433732313A207472616E7366657220746F20746865207A65726F20616464 PUSH1 0x44 DUP3 ADD MSTORE PUSH4 0x72657373 PUSH1 0xE0 SHL PUSH1 0x64 DUP3 ADD MSTORE PUSH1 0x84 SWAP1 REVERT JUMPDEST PUSH1 0x80 SWAP1 PUSH1 0x20 DUP2 MSTORE PUSH1 0x32 PUSH1 0x20 DUP3 ADD MSTORE PUSH32 0x4552433732313A207472616E7366657220746F206E6F6E204552433732315265 PUSH1 0x40 DUP3 ADD MSTORE PUSH18 0x31B2B4BB32B91034B6B83632B6B2B73A32B9 PUSH1 0x71 SHL PUSH1 0x60 DUP3 ADD MSTORE ADD SWAP1 JUMP JUMPDEST PUSH1 0x2 PUSH1 0x7 SLOAD EQ PUSH2 0x32B1 JUMPI PUSH1 0x2 PUSH1 0x7 SSTORE JUMP JUMPDEST PUSH1 0x40 MLOAD PUSH3 0x461BCD PUSH1 0xE5 SHL DUP2 MSTORE PUSH1 0x20 PUSH1 0x4 DUP3 ADD MSTORE PUSH1 0x1F PUSH1 0x24 DUP3 ADD MSTORE PUSH32 0x5265656E7472616E637947756172643A207265656E7472616E742063616C6C00 PUSH1 0x44 DUP3 ADD MSTORE PUSH1 0x64 SWAP1 REVERT JUMPDEST DUP1 SLOAD DUP1 ISZERO PUSH2 0x193D JUMPI PUSH1 0x0 NOT ADD SWAP1 PUSH2 0x3310 PUSH2 0x16EF DUP4 DUP4 PUSH2 0x2E26 JUMP JUMPDEST SSTORE JUMP JUMPDEST ISZERO PUSH2 0x331A JUMPI JUMP JUMPDEST PUSH1 0x40 MLOAD PUSH3 0x461BCD PUSH1 0xE5 SHL DUP2 MSTORE PUSH1 0x20 PUSH1 0x4 DUP3 ADD MSTORE PUSH1 0x1C PUSH1 0x24 DUP3 ADD MSTORE PUSH32 0x4552433732313A20746F6B656E20616C7265616479206D696E74656400000000 PUSH1 0x44 DUP3 ADD MSTORE PUSH1 0x64 SWAP1 REVERT JUMPDEST PUSH1 0x1 PUSH1 0x1 PUSH1 0xA0 SHL SUB AND PUSH1 0x0 SWAP1 DUP2 MSTORE PUSH1 0x13 PUSH1 0x20 MSTORE PUSH1 0x40 DUP2 KECCAK256 SWAP1 SWAP2 DUP3 JUMPDEST DUP3 SLOAD DUP1 DUP3 LT ISZERO PUSH2 0x33F1 JUMPI DUP3 SWAP1 PUSH2 0x3390 DUP4 DUP7 PUSH2 0x2E26 JUMP JUMPDEST SWAP3 SWAP1 SLOAD PUSH1 0x3 SWAP4 DUP5 SHL SHR EQ PUSH2 0x33A8 JUMPI POP POP PUSH1 0x1 ADD PUSH2 0x337A JUMP JUMPDEST SWAP2 SWAP4 SWAP5 SWAP1 SWAP3 POP PUSH1 0x0 NOT DUP3 ADD SWAP2 DUP3 GT PUSH2 0x33DD JUMPI POP SWAP2 PUSH2 0x16C0 PUSH2 0x1772 SWAP3 PUSH2 0x33D1 DUP7 SWAP6 PUSH2 0x2CBC SWAP8 PUSH2 0x2E26 JUMP JUMPDEST SWAP1 SLOAD SWAP2 SHL SHR SWAP2 DUP5 PUSH2 0x2E26 JUMP JUMPDEST PUSH4 0x4E487B71 PUSH1 0xE0 SHL DUP2 MSTORE PUSH1 0x11 PUSH1 0x4 MSTORE PUSH1 0x24 SWAP1 REVERT JUMPDEST POP POP POP POP POP JUMP JUMPDEST SWAP3 SWAP4 SWAP2 SWAP3 SWAP1 DUP1 EXTCODESIZE ISZERO PUSH2 0x3511 JUMPI PUSH2 0x344C SWAP5 PUSH1 0x1 DUP1 PUSH1 0xA0 SHL SUB SWAP5 PUSH1 0x40 MLOAD SWAP3 DUP4 SWAP2 DUP8 PUSH4 0xA85BD01 PUSH1 0xE1 SHL SWAP7 DUP8 DUP6 MSTORE CALLER PUSH1 0x4 DUP7 ADD MSTORE AND PUSH1 0x24 DUP5 ADD MSTORE PUSH1 0x44 DUP4 ADD MSTORE PUSH1 0x80 PUSH1 0x64 DUP4 ADD MSTORE DUP2 DUP1 PUSH1 0x20 SWAP10 DUP11 SWAP6 PUSH1 0x84 DUP4 ADD SWAP1 PUSH2 0x29FC JUMP JUMPDEST SUB SWAP2 PUSH1 0x0 SWAP9 DUP10 SWAP2 AND GAS CALL DUP5 SWAP2 DUP2 PUSH2 0x34CD JUMPI JUMPDEST POP PUSH2 0x34BC JUMPI POP POP POP RETURNDATASIZE PUSH1 0x0 EQ PUSH2 0x34B4 JUMPI RETURNDATASIZE PUSH2 0x3478 DUP2 PUSH2 0x2B8D JUMP JUMPDEST SWAP1 PUSH2 0x3486 PUSH1 0x40 MLOAD SWAP3 DUP4 PUSH2 0x2B6C JUMP JUMPDEST DUP2 MSTORE DUP1 SWAP2 DUP4 RETURNDATASIZE SWAP3 ADD RETURNDATACOPY JUMPDEST DUP1 MLOAD SWAP2 DUP3 PUSH2 0x34B1 JUMPI PUSH1 0x40 MLOAD PUSH3 0x461BCD PUSH1 0xE5 SHL DUP2 MSTORE DUP1 PUSH2 0x2F94 PUSH1 0x4 DUP3 ADD PUSH2 0x324D JUMP JUMPDEST ADD REVERT JUMPDEST POP PUSH1 0x60 PUSH2 0x3490 JUMP JUMPDEST PUSH1 0x1 PUSH1 0x1 PUSH1 0xE0 SHL SUB NOT AND EQ SWAP3 POP SWAP1 POP JUMP JUMPDEST SWAP1 SWAP2 POP DUP6 DUP2 DUP2 RETURNDATASIZE DUP4 GT PUSH2 0x350A JUMPI JUMPDEST PUSH2 0x34E5 DUP2 DUP4 PUSH2 0x2B6C JUMP JUMPDEST DUP2 ADD SUB SLT PUSH2 0x3506 JUMPI MLOAD PUSH1 0x1 PUSH1 0x1 PUSH1 0xE0 SHL SUB NOT DUP2 AND DUP2 SUB PUSH2 0x3506 JUMPI SWAP1 CODESIZE PUSH2 0x345E JUMP JUMPDEST DUP5 DUP1 REVERT JUMPDEST POP RETURNDATASIZE PUSH2 0x34DB JUMP JUMPDEST POP POP SWAP2 POP POP PUSH1 0x1 SWAP1 JUMP INVALID LOG2 PUSH5 0x6970667358 0x22 SLT KECCAK256 TSTORE MOD LOG1 0xE0 0xD4 SWAP3 PUSH6 0x6B76BC02761E ADD 0xAE PUSH2 0x6C35 MSTORE8 PUSH13 0x7932D49315B1F9EC767AD5C764 PUSH20 0x6F6C634300081800330000000000000000000000 "},"methodIdentifiers":{"approve(address,uint256)":"095ea7b3","balanceOf(address)":"70a08231","createMarketSale(uint256)":"be9af536","createToken(string,uint256,string)":"c6c9b5b1","fetchItemsListed()":"45f8fa80","fetchListedNFTs(address)":"607307b6","fetchMarketItems()":"0f08efe0","fetchMyNFTs()":"202e3740","fetchNFTByTokenId(uint256)":"226523dd","fetchNFTsByMediaType(string)":"cebefca5","fetchOwnedNFTs(address)":"c4a4d903","getApproved(uint256)":"081812fc","getAvailableMediaTypes()":"899a0584","getCurrentTokenOwner(uint256)":"06566f42","getListingPrice()":"12e85585","getTokenMediaType(uint256)":"b4246519","getTokenOwnerCount(uint256)":"121490a6","getTokenOwnershipHistory(uint256)":"edb6770f","getTokenProvenance(uint256)":"cb301f7f","getTokenTransactionCount(uint256)":"213cc530","getTokenTransactionHistory(uint256)":"cc55ae69","getTokensCreatedBy(address)":"ddc0f312","isApprovedForAll(address,address)":"e985e9c5","isOriginalToken(uint256)":"821af93c","name()":"06fdde03","ownerOf(uint256)":"6352211e","resellToken(uint256,uint256)":"e219fc75","safeTransferFrom(address,address,uint256)":"42842e0e","safeTransferFrom(address,address,uint256,bytes)":"b88d4fde","setApprovalForAll(address,bool)":"a22cb465","supportsInterface(bytes4)":"01ffc9a7","symbol()":"95d89b41","tokenURI(uint256)":"c87b56dd","transferFrom(address,address,uint256)":"23b872dd","updateListingPrice(uint256)":"ae677aa3"}}}}}