{"contracts/NFTMarketplace.sol":{"NFTMarketplace":{"abi":[{"inputs":[],"stateMutability":"nonpayable","type":"constructor"},{"anonymous":false,"inputs":[{"indexed":true,"internalType":"address","name":"owner","type":"address"},{"indexed":true,"internalType":"address","name":"approved","type":"address"},{"indexed":true,"internalType":"uint256","name":"tokenId","type":"uint256"}],"name":"Approval","type":"event"},{"anonymous":false,"inputs":[{"indexed":true,"internalType":"address","name":"owner","type":"address"},{"indexed":true,"internalType":"address","name":"operator","type":"address"},{"indexed":false,"internalType":"bool","name":"approved","type":"bool"}],"name":"ApprovalForAll","type":"event"},{"anonymous":false,"inputs":[{"indexed":false,"internalType":"uint256","name":"_fromTokenId","type":"uint256"},{"indexed":false,"internalType":"uint256","name":"_toTokenId","type":"uint256"}],"name":"BatchMetadataUpdate","type":"event"},{"anonymous":false,"inputs":[{"indexed":true,"internalType":"uint256","name":"tokenId","type":"uint256"},{"indexed":false,"internalType":"address","name":"seller","type":"address"},{"indexed":false,"internalType":"address","name":"owner","type":"address"},{"indexed":false,"internalType":"uint256","name":"price","type":"uint256"},{"indexed":false,"internalType":"bool","name":"sold","type":"bool"}],"name":"MarketItemCreated","type":"event"},{"anonymous":false,"inputs":[{"indexed":false,"internalType":"uint256","name":"_tokenId","type":"uint256"}],"name":"MetadataUpdate","type":"event"},{"anonymous":false,"inputs":[{"indexed":true,"internalType":"uint256","name":"tokenId","type":"uint256"},{"indexed":true,"internalType":"address","name":"creator","type":"address"},{"indexed":false,"internalType":"string","name":"metadataURI","type":"string"},{"indexed":false,"internalType":"uint256","name":"timestamp","type":"uint256"}],"name":"ProvenanceRecorded","type":"event"},{"anonymous":false,"inputs":[{"indexed":true,"internalType":"uint256","name":"tokenId","type":"uint256"},{"indexed":true,"internalType":"address","name":"seller","type":"address"},{"indexed":false,"internalType":"uint256","name":"price","type":"uint256"},{"indexed":false,"internalType":"uint256","name":"timestamp","type":"uint256"}],"name":"TokenResold","type":"event"},{"anonymous":false,"inputs":[{"indexed":true,"internalType":"uint256","name":"tokenId","type":"uint256"},{"indexed":true,"internalType":"address","name":"from","type":"address"},{"indexed":true,"internalType":"address","name":"to","type":"address"},{"indexed":false,"internalType":"uint256","name":"price","type":"uint256"},{"indexed":false,"internalType":"uint256","name":"timestamp","type":"uint256"}],"name":"TokenSold","type":"event"},{"anonymous":false,"inputs":[{"indexed":true,"internalType":"address","name":"from","type":"address"},{"indexed":true,"internalType":"address","name":"to","type":"address"},{"indexed":true,"internalType":"uint256","name":"tokenId","type":"uint256"}],"name":"Transfer","type":"event"},{"inputs":[{"internalType":"address","name":"to","type":"address"},{"internalType":"uint256","name":"tokenId","type":"uint256"}],"name":"approve","outputs":[],"stateMutability":"nonpayable","type":"function"},{"inputs":[{"internalType":"address","name":"owner","type":"address"}],"name":"balanceOf","outputs":[{"internalType":"uint256","name":"","type":"uint256"}],"stateMutability":"view","type":"function"},{"inputs":[{"internalType":"uint256","name":"tokenId","type":"uint256"}],"name":"createMarketSale","outputs":[],"stateMutability":"payable","type":"function"},{"inputs":[{"internalType":"string","name":"tokenURI","type":"string"},{"internalType":"uint256","name":"price","type":"uint256"}],"name":"createToken","outputs":[{"internalType":"uint256","name":"","type":"uint256"}],"stateMutability":"payable","type":"function"},{"inputs":[],"name":"fetchItemsListed","outputs":[{"components":[{"internalType":"uint256","name":"tokenId","type":"uint256"},{"internalType":"address payable","name":"seller","type":"address"},{"internalType":"address payable","name":"owner","type":"address"},{"internalType":"uint256","name":"price","type":"uint256"},{"internalType":"bool","name":"sold","type":"bool"}],"internalType":"struct NFTMarketplace.MarketItem[]","name":"","type":"tuple[]"}],"stateMutability":"view","type":"function"},{"inputs":[],"name":"fetchMarketItems","outputs":[{"components":[{"internalType":"uint256","name":"tokenId","type":"uint256"},{"internalType":"address payable","name":"seller","type":"address"},{"internalType":"address payable","name":"owner","type":"address"},{"internalType":"uint256","name":"price","type":"uint256"},{"internalType":"bool","name":"sold","type":"bool"}],"internalType":"struct NFTMarketplace.MarketItem[]","name":"","type":"tuple[]"}],"stateMutability":"view","type":"function"},{"inputs":[],"name":"fetchMyNFTs","outputs":[{"components":[{"internalType":"uint256","name":"tokenId","type":"uint256"},{"internalType":"address payable","name":"seller","type":"address"},{"internalType":"address payable","name":"owner","type":"address"},{"internalType":"uint256","name":"price","type":"uint256"},{"internalType":"bool","name":"sold","type":"bool"}],"internalType":"struct NFTMarketplace.MarketItem[]","name":"","type":"tuple[]"}],"stateMutability":"view","type":"function"},{"inputs":[{"internalType":"uint256","name":"tokenId","type":"uint256"}],"name":"getApproved","outputs":[{"internalType":"address","name":"","type":"address"}],"stateMutability":"view","type":"function"},{"inputs":[{"internalType":"uint256","name":"tokenId","type":"uint256"}],"name":"getCurrentTokenOwner","outputs":[{"internalType":"address","name":"","type":"address"}],"stateMutability":"view","type":"function"},{"inputs":[],"name":"getListingPrice","outputs":[{"internalType":"uint256","name":"","type":"uint256"}],"stateMutability":"view","type":"function"},{"inputs":[{"internalType":"uint256","name":"tokenId","type":"uint256"}],"name":"getTokenOwnerCount","outputs":[{"internalType":"uint256","name":"","type":"uint256"}],"stateMutability":"view","type":"function"},{"inputs":[{"internalType":"uint256","name":"tokenId","type":"uint256"}],"name":"getTokenOwnershipHistory","outputs":[{"internalType":"address[]","name":"","type":"address[]"}],"stateMutability":"view","type":"function"},{"inputs":[{"internalType":"uint256","name":"tokenId","type":"uint256"}],"name":"getTokenProvenance","outputs":[{"components":[{"internalType":"address","name":"creator","type":"address"},{"internalType":"uint256","name":"creationTime","type":"uint256"},{"internalType":"string","name":"metadataURI","type":"string"},{"internalType":"bool","name":"verified","type":"bool"}],"internalType":"struct NFTMarketplace.Provenance","name":"","type":"tuple"}],"stateMutability":"view","type":"function"},{"inputs":[{"internalType":"uint256","name":"tokenId","type":"uint256"}],"name":"getTokenTransactionCount","outputs":[{"internalType":"uint256","name":"","type":"uint256"}],"stateMutability":"view","type":"function"},{"inputs":[{"internalType":"uint256","name":"tokenId","type":"uint256"}],"name":"getTokenTransactionHistory","outputs":[{"components":[{"internalType":"address","name":"from","type":"address"},{"internalType":"address","name":"to","type":"address"},{"internalType":"uint256","name":"price","type":"uint256"},{"internalType":"uint256","name":"timestamp","type":"uint256"},{"internalType":"enum NFTMarketplace.TransactionType","name":"transactionType","type":"uint8"}],"internalType":"struct NFTMarketplace.TransactionHistory[]","name":"","type":"tuple[]"}],"stateMutability":"view","type":"function"},{"inputs":[{"internalType":"address","name":"creator","type":"address"}],"name":"getTokensCreatedBy","outputs":[{"internalType":"uint256[]","name":"","type":"uint256[]"}],"stateMutability":"view","type":"function"},{"inputs":[{"internalType":"address","name":"owner","type":"address"},{"internalType":"address","name":"operator","type":"address"}],"name":"isApprovedForAll","outputs":[{"internalType":"bool","name":"","type":"bool"}],"stateMutability":"view","type":"function"},{"inputs":[{"internalType":"uint256","name":"tokenId","type":"uint256"}],"name":"isOriginalToken","outputs":[{"internalType":"bool","name":"","type":"bool"}],"stateMutability":"view","type":"function"},{"inputs":[],"name":"name","outputs":[{"internalType":"string","name":"","type":"string"}],"stateMutability":"view","type":"function"},{"inputs":[{"internalType":"uint256","name":"tokenId","type":"uint256"}],"name":"ownerOf","outputs":[{"internalType":"address","name":"","type":"address"}],"stateMutability":"view","type":"function"},{"inputs":[{"internalType":"uint256","name":"tokenId","type":"uint256"},{"internalType":"uint256","name":"price","type":"uint256"}],"name":"resellToken","outputs":[],"stateMutability":"payable","type":"function"},{"inputs":[{"internalType":"address","name":"from","type":"address"},{"internalType":"address","name":"to","type":"address"},{"internalType":"uint256","name":"tokenId","type":"uint256"}],"name":"safeTransferFrom","outputs":[],"stateMutability":"nonpayable","type":"function"},{"inputs":[{"internalType":"address","name":"from","type":"address"},{"internalType":"address","name":"to","type":"address"},{"internalType":"uint256","name":"tokenId","type":"uint256"},{"internalType":"bytes","name":"data","type":"bytes"}],"name":"safeTransferFrom","outputs":[],"stateMutability":"nonpayable","type":"function"},{"inputs":[{"internalType":"address","name":"operator","type":"address"},{"internalType":"bool","name":"approved","type":"bool"}],"name":"setApprovalForAll","outputs":[],"stateMutability":"nonpayable","type":"function"},{"inputs":[{"internalType":"bytes4","name":"interfaceId","type":"bytes4"}],"name":"supportsInterface","outputs":[{"internalType":"bool","name":"","type":"bool"}],"stateMutability":"view","type":"function"},{"inputs":[],"name":"symbol","outputs":[{"internalType":"string","name":"","type":"string"}],"stateMutability":"view","type":"function"},{"inputs":[{"internalType":"uint256","name":"tokenId","type":"uint256"}],"name":"tokenURI","outputs":[{"internalType":"string","name":"","type":"string"}],"stateMutability":"view","type":"function"},{"inputs":[{"internalType":"address","name":"from","type":"address"},{"internalType":"address","name":"to","type":"address"},{"internalType":"uint256","name":"tokenId","type":"uint256"}],"name":"transferFrom","outputs":[],"stateMutability":"nonpayable","type":"function"},{"inputs":[{"internalType":"uint256","name":"_listingPrice","type":"uint256"}],"name":"updateListingPrice","outputs":[],"stateMutability":"payable","type":"function"}],"evm":{"bytecode":{"linkReferences":{},"object":"60803462000334576001600160401b0390604090808201838111828210176200031e578252601081526020926f4d657461766572736520546f6b656e7360801b848301528251838101818110838211176200031e57845260048152631351551560e21b858201528251908282116200031e5760008054926001958685811c9516801562000313575b89861014620002ff578190601f95868111620002ac575b508990868311600114620002485784926200023c575b5050600019600383901b1c191690861b1781555b8151938411620002285784548581811c911680156200021d575b888210146200020957838111620001c1575b50869284116001146200015b578394959650926200014f575b5050600019600383901b1c191690821b1781555b60075566038d7ea4c68000600a55600b80546001600160a01b0319163317905551612cc490816200033a8239f35b0151905038806200010d565b9190601f1984169685845280842093905b888210620001a957505083859697106200018f575b505050811b01815562000121565b015160001960f88460031b161c1916905538808062000181565b8087859682949686015181550195019301906200016c565b8582528782208480870160051c8201928a8810620001ff575b0160051c019086905b828110620001f3575050620000f4565b838155018690620001e3565b92508192620001da565b634e487b7160e01b82526022600452602482fd5b90607f1690620000e2565b634e487b7160e01b81526041600452602490fd5b015190503880620000b4565b8480528a85208994509190601f198416865b8d8282106200029557505084116200027b575b505050811b018155620000c8565b015160001960f88460031b161c191690553880806200026d565b8385015186558c979095019493840193016200025a565b9091508380528984208680850160051c8201928c8610620002f5575b918a91869594930160051c01915b828110620002e65750506200009e565b8681558594508a9101620002d6565b92508192620002c8565b634e487b7160e01b83526022600452602483fd5b94607f169462000087565b634e487b7160e01b600052604160045260246000fd5b600080fdfe608080604052600436101561001357600080fd5b60003560e01c90816301ffc9a7146121335750806306566f42146120f357806306fdde0314612048578063081812fc1461202a578063095ea7b314611eb05780630f08efe014611df7578063121490a614611da857806312e8558514611d8a578063202e374014611c94578063213cc53014611c4557806323b872dd14611c1c57806342842e0e14611bf457806345f8fa8014611af05780636352211e14611ac057806370a0823114611a2957806372b3b62014611234578063821af93c146111cf57806395d89b41146110ec578063a22cb46514611011578063ae677aa314610f1a578063b88d4fde14610eb8578063be9af53614610984578063c87b56dd1461090e578063cb301f7f14610824578063cc55ae69146106ba578063ddc0f31214610582578063e219fc7514610299578063e985e9c5146102435763edb6770f1461015e57600080fd5b3461023e5760208060031936011261023e5760043560008181526002602052604090205461019b906001600160a01b03161515612399565b612399565b600052600f8152604060002060405190818382549182815201908192600052846000209060005b868282106102215786866101d882880383612324565b604051928392818401908285525180915260408401929160005b82811061020157505050500390f35b83516001600160a01b0316855286955093810193928101926001016101f2565b83546001600160a01b0316855290930192600192830192016101c2565b600080fd5b3461023e57604036600319011261023e5761025c6121f8565b61026461220e565b9060018060a01b03809116600052600560205260406000209116600052602052602060ff604060002054166040519015158152f35b604036600319011261023e576004356024908135916102b66129ba565b6102bf82612697565b6001600160a01b0390339082160361052b57600a5434036104da576102e58415156126bd565b82600052602091600c83526040600020600481019060ff1991828154169055866003820155600260018201916001600160601b0360a01b923384825416179055013082825416179055600954801561049657600019016009556103478661278c565b336000526012855261035d8660406000206127af565b6103678633612acc565b85600052600d855260406000209360405191610382836122d0565b33835286830130815260408401918a83526060850193428552608086019860028a52805490600160401b821015610481576001820180825582101561046c57918091600498979695949360005260058d600020910201965116828754161786556001860192511690825416179055516002830155516003820155019251916004831015610458575060ff9083541691161790556104208230336128a9565b60405192835242908301527fd6088ca62b31f4b677670aa9482babf70665e6c8a746e78e6bfda34689ae90d960403393a36001600755005b634e487b7160e01b60009081526021600452fd5b89634e487b7160e01b60005260326004526000fd5b89634e487b7160e01b60005260416004526000fd5b60405162461bcd60e51b815260048101879052601b818601527f436f756e7465723a2064656372656d656e74206f766572666c6f7700000000006044820152606490fd5b60405162461bcd60e51b8152602060048201528083018390527f5072696365206d75737420626520657175616c20746f206c697374696e6720706044820152637269636560e01b6064820152608490fd5b60405162461bcd60e51b815260206004820152602a818401527f4f6e6c79206974656d206f776e65722063616e20706572666f726d20746869736044820152691037b832b930ba34b7b760b11b6064820152608490fd5b3461023e5760208060031936011261023e5761059c6121f8565b6008546001600160a01b03918216916000919060015b8281111561068057506105dd6105c7846124f9565b936105d56040519586612324565b8085526124f9565b8386019490601f190136863760009160015b8481111561063a57878688604051928392818401908285525180915260408401929160005b82811061062357505050500390f35b835185528695509381019392810192600101610614565b80600052600e88528282604060002054161461065f575b61065a906127d2565b6105ef565b92610678818561067261065a948a6125d5565b526127d2565b939050610651565b80600052600e8652848260406000205416146106a5575b6106a0906127d2565b6105b2565b926106b26106a0916127d2565b939050610697565b3461023e5760208060031936011261023e576004356000818152600260205260409020546106f2906001600160a01b03161515612399565b600052600d8152604060002090815461070a816124f9565b906107186040519283612324565b808252600093845282842083830194855b8382106107bf5760408051878152865181890181905289928201908960005b8281106107555784840385f35b909192855160018060a01b0380825116835284820151168483015260408101516040830152606080820151908301526080809101519060048210156107a9578201529482019460a001929190600101610748565b634e487b7160e01b600052602160045260246000fd5b6040516107cb816122d0565b83546001600160a01b03908116825260018501541687820152600284015460408201526003840154606082015260048085015460ff16908110156107a95760019282899260806005950152815201930191019091610729565b3461023e5760208060031936011261023e5760043560006060604051610849816122ec565b8281528285820152816040820152015261087b61019682600052600260205260018060a01b0360406000205416151590565b600052600e815260406000209060405190610895826122ec565b82546001600160a01b039081168352600184015482840190815290936109019160ff60036108c560028501612416565b936040880194855201541693606086019415158552604051968796828852511690860152516040850152516080606085015260a08401906121b8565b9051151560808301520390f35b3461023e57602036600319011261023e57600435600081815260026020526040902054610945906001600160a01b0316151561264b565b600052600660205261098061095d6040600020612416565b600060405161096b81612308565b526040519182916020835260208301906121b8565b0390f35b602036600319011261023e576109986129ba565b6004356000908152600c6020526040902060038101546001909101546001600160a01b031634829003610e4e576001600160a01b036109d8600435612697565b163003610df657600435600052600c60205260ff60046040600020015416610db157803314610d6257600435600052600c6020526004604060002060028101336001600160601b0360a01b82541617905501600160ff1982541617905560016009540160095560005b601090815480821015610d5a57610a5782612586565b60043591549060031b1c14610a7157506001915001610a41565b60001991818301918211610d2557610a9b610a8e610ab493612586565b90549060031b1c91612586565b90919082549060031b91821b91600019901b1916179055565b81548015610d44570190610adb610aca83612586565b8154906000199060031b1b19169055565b555b80600052601260205260406000209060005b825480821015610d3b57610b0382856125bd565b60043591549060031b1c14610b1b5750600101610aef565b919290916000198101908111610d2557610b5292610a9b610b3f610b4d93856125bd565b90549060031b1c91846125bd565b612aaf565b336000526011602052610b6b60043560406000206127af565b600435600052600f602052610b84336040600020612709565b600435600052600d602052604060002060405190610ba1826122d0565b82825233602083015283604083015242606083015260016080830152805490600160401b821015610d0f5760018201808255821015610cf9576080916004916000526005602060002091020160018060a01b038451166001600160601b0360a01b8254161781556001810160018060a01b036020860151166001600160601b0360a01b82541617905560408401516002820155606084015160038201550191015160048110156107a95760ff80198354169116179055610c6460043533306128a9565b600080808060018060a01b03600b5416600a5490828215610cf0575bf115610cdb5760003415610ce7575b600080808093853491f115610cdb5760405191825242602083015233917fa831d161ab34fd077c450edfeeac91cd8cc4e1d8a3b07930cf05bf9c0a23d83e604060043592a46001600755005b6040513d6000823e3d90fd5b506108fc610c8f565b506108fc610c80565b634e487b7160e01b600052603260045260246000fd5b634e487b7160e01b600052604160045260246000fd5b634e487b7160e01b600052601160045260246000fd5b50509050610b52565b634e487b7160e01b600052603160045260246000fd5b505050610add565b60405162461bcd60e51b815260206004820152602160248201527f53656c6c65722063616e6e6f7420627579207468656972206f776e20746f6b656044820152603760f91b6064820152608490fd5b60405162461bcd60e51b815260206004820152601960248201527f54686973206974656d20697320616c726561647920736f6c64000000000000006044820152606490fd5b60405162461bcd60e51b815260206004820152602a60248201527f4d61726b6574706c616365206d75737420626520746865206f776e6572206f66604482015269103a3432903a37b5b2b760b11b6064820152608490fd5b608460405162461bcd60e51b815260206004820152604060248201527f506c65617365207375626d6974207468652061736b696e67207072696365206960448201527f6e206f7264657220746f20636f6d706c657465207468652070757263686173656064820152fd5b3461023e57608036600319011261023e57610ed16121f8565b610ed961220e565b6064359167ffffffffffffffff831161023e573660238401121561023e57610f0e610f18933690602481600401359101612362565b9160443591612744565b005b602036600319011261023e57600b546001600160a01b031633819003610fa6573303610f4857600435600a55005b60405162461bcd60e51b815260206004820152603060248201527f4f6e6c79206d61726b6574706c616365206f776e65722063616e20757064617460448201526f32903634b9ba34b73390383934b1b29760811b6064820152608490fd5b60405162461bcd60e51b815260206004820152603a60248201527f6f6e6c79206f776e6572206f6620746865206d61726b6574706c61636520636160448201527f6e206368616e676520746865206c697374696e672070726963650000000000006064820152608490fd5b3461023e57604036600319011261023e5761102a6121f8565b602435908115159081830361023e576001600160a01b0316913383146110a7576110799033600052600560205260406000208460005260205260406000209060ff801983541691151516179055565b6040519081527f17307eab39ab6107e8899845ad3d59bd9653f200f220920489ca2b5937696c3160203392a3005b60405162461bcd60e51b815260206004820152601960248201527f4552433732313a20617070726f766520746f2063616c6c6572000000000000006044820152606490fd5b3461023e57600036600319011261023e57604051600060018260015492611112846123dc565b92838352602094856001821691826000146111af575050600114611152575b5061113e92500383612324565b6109806040519282849384528301906121b8565b84915060016000527fb10e2d527612073b26eecdfd717e6a320cf44b4afac2b0732d9fcbe2b7fa0cf6906000915b85831061119757505061113e935082010185611131565b80548389018501528794508693909201918101611180565b60ff19168582015261113e95151560051b85010192508791506111319050565b3461023e57602036600319011261023e57602060043561120761019682600052600260205260018060a01b0360406000205416151590565b6000818152600e835260409020546001600160a01b039081169161122a90612697565b1614604051908152f35b604036600319011261023e5760043567ffffffffffffffff811161023e573660238201121561023e57611271903690602481600401359101612362565b6112796129ba565b61128660243515156126bd565b600a5434036119eb576001600854018060085533156119a7576000818152600260205260409020546112c4906001600160a01b031615155b15612a10565b6000818152600260205260409020546112e7906001600160a01b031615156112be565b3360005260036020526040600020600181540190558060005260026020526040600020336001600160601b0360a01b825416179055803360007fddf252ad1be2c89b69c2b068fc378daa952ba7f163c4a11628f55a4df523b3ef8180a46000818152600260205260409020546001600160a01b03161561194b5780600052600660205260406000209180519267ffffffffffffffff8411610d0f5761138c81546123dc565b601f8111611907575b50602093601f81116001146118a0578091929394600091611895575b508160011b916000199060031b1c19161790555b7ff8e1a15aba9398e019f0b49df1a4fde98ee17ae345cb5f6b5e2c27f5033e8ce76020604051848152a16040516113fb816122ec565b3381526020810190428252604081018381526001606083015284600052600e60205260406000209260018060a01b038351166001600160601b0360a01b8554161784555160018401555180519067ffffffffffffffff8211610d0f5761146460028501546123dc565b601f811161184e575b50602090601f83116001146117d65792826003936060936114bf97966000926117cb575b50508160011b9160001990861b1c19161760028501555b0151151591019060ff801983541691151516179055565b817f6832c4a8240aec284b577356b6cecff5af48c14e65c3cfe48759bfde75f9b1446114f6604051936040855260408501906121b8565b924260208201528033940390a380600052600f60205261151a336040600020612709565b80600052600d602052604060002060405190611535826122d0565b600082523360208301526000604083015242606083015260006080830152805490600160401b821015610d0f5760018201808255821015610cf9576080916004916000526005602060002091020160018060a01b038451166001600160601b0360a01b8254161781556001810160018060a01b036020860151166001600160601b0360a01b82541617905560408401516002820155606084015160038201550191015160048110156107a95760ff8019835416911617905560243515611786576001600160a01b0361160682612697565b163303611731576020906116b160405161161f816122d0565b8281526004848201338152604083013081526060840190602435825260808501926000845287600052600c8952604060002095518655600186019060018060a01b039051166001600160601b0360a01b825416179055600285019060018060a01b039051166001600160601b0360a01b82541617905551600384015551151591019060ff801983541691151516179055565b6116ba8161278c565b33600052601282526116d08160406000206127af565b6116da8133612acc565b6116e58130336128a9565b807fb640004f1d14576d0c209e240cad0410e0d8c0c33a09375861fbadae2588a98d60806040513381523086820152602435604082015260006060820152a26001600755604051908152f35b60405162461bcd60e51b815260206004820152602760248201527f4f6e6c7920746f6b656e206f776e65722063616e20637265617465206d61726b6044820152666574206974656d60c81b6064820152608490fd5b60405162461bcd60e51b815260206004820152601c60248201527f5072696365206d757374206265206174206c65617374203120776569000000006044820152606490fd5b015190508980611491565b906002850160005260206000209160005b601f19851681106118365750836060936114bf979693600193600397601f1981161061181e575b505050811b0160028501556114a8565b015160001983881b60f8161c1916905589808061180e565b919260206001819286850151815501940192016117e7565b600285016000526020600020601f840160051c81016020851061188e575b601f830160051c8201811061188257505061146d565b6000815560010161186c565b508061186c565b9050830151856113b1565b81600052602060002060005b601f19831681106118ef575060019293949582601f198116106118d6575b5050811b0190556113c5565b85015160001960f88460031b161c1916905585806118ca565b848701518255602096870196600190920191016118ac565b816000526020600020601f860160051c810160208710611944575b601f830160051c82018110611938575050611395565b60008155600101611922565b5080611922565b60405162461bcd60e51b815260206004820152602e60248201527f45524337323155524953746f726167653a2055524920736574206f66206e6f6e60448201526d32bc34b9ba32b73a103a37b5b2b760911b6064820152608490fd5b606460405162461bcd60e51b815260206004820152602060248201527f4552433732313a206d696e7420746f20746865207a65726f20616464726573736044820152fd5b60405162461bcd60e51b81526020600482015260166024820152754d75737420706179206c697374696e6720707269636560501b6044820152606490fd5b3461023e57602036600319011261023e576001600160a01b03611a4a6121f8565b168015611a695760005260036020526020604060002054604051908152f35b60405162461bcd60e51b815260206004820152602960248201527f4552433732313a2061646472657373207a65726f206973206e6f7420612076616044820152683634b21037bbb732b960b91b6064820152608490fd5b3461023e57602036600319011261023e576020611ade600435612697565b6040516001600160a01b039091168152f35b3461023e57600036600319011261023e57336000526020601281526040600020604051808284829454938481520190600052846000209260005b86828210611bde5784611b3f81860382612324565b611b498151612511565b9160005b8251811015611bd05780611b63600192856125d5565b51600052600c8352604060002060ff600460405192611b81846122d0565b80548452858060a01b038087830154168886015260028201541660408501526003810154606085015201541615156080820152611bbe82876125d5565b52611bc981866125d5565b5001611b4d565b604051806109808682612224565b8554845260019586019587955093019201611b2a565b3461023e57610f18611c053661229b565b9060405192611c1384612308565b60008452612744565b3461023e57610f18611c2d3661229b565b91611c40611c3b84336127e1565b6125e9565b6128a9565b3461023e57602036600319011261023e57600435600081815260026020526040902054611c7c906001600160a01b03161515612399565b600052600d6020526020604060002054604051908152f35b3461023e57600036600319011261023e57336000526020601181526040600020604051808284829454938481520190600052846000209260005b86828210611d745784611ce381860382612324565b611ced8151612511565b9160005b8251811015611bd05780611d07600192856125d5565b51600052600c8352604060002060ff600460405192611d25846122d0565b80548452858060a01b038087830154168886015260028201541660408501526003810154606085015201541615156080820152611d6282876125d5565b52611d6d81866125d5565b5001611cf1565b8554845260019586019587955093019201611cce565b3461023e57600036600319011261023e576020600a54604051908152f35b3461023e57602036600319011261023e57600435600081815260026020526040902054611ddf906001600160a01b03161515612399565b600052600f6020526020604060002054604051908152f35b3461023e57600036600319011261023e57601054611e1481612511565b9060005b818110611e2d57604051806109808582612224565b80611e39600192612586565b9054600391821b1c60005260ff6004602092600c845260406000209060405194611e62866122d0565b82548652878060a01b0390818985015416908701526002830154166040860152810154606085015201541615156080820152611e9e82866125d5565b52611ea981856125d5565b5001611e18565b3461023e57604036600319011261023e57611ec96121f8565b602435906001600160a01b038080611ee085612697565b16921691808314611fdb57803314908115611fb6575b5015611f4b57600083815260046020526040902080546001600160a01b03191683179055611f2383612697565b167f8c5be1e5ebec7d5bd14f71427d1e84f3dd0314c0f7b2291e5b200ac8c7c3b925600080a4005b60405162461bcd60e51b815260206004820152603d60248201527f4552433732313a20617070726f76652063616c6c6572206973206e6f7420746f60448201527f6b656e206f776e6572206f7220617070726f76656420666f7220616c6c0000006064820152608490fd5b9050600052600560205260406000203360005260205260ff6040600020541684611ef6565b60405162461bcd60e51b815260206004820152602160248201527f4552433732313a20617070726f76616c20746f2063757272656e74206f776e656044820152603960f91b6064820152608490fd5b3461023e57602036600319011261023e576020611ade6004356124bb565b3461023e57600036600319011261023e5760405160008054908261206b836123dc565b91828252602093600190856001821691826000146111af575050600114612099575061113e92500383612324565b6000808052859250907f290decd9548b62a8d60345a988386fc84ba6bc95484008f6362f93160ef3e5635b8583106120db57505061113e935082010185611131565b805483890185015287945086939092019181016120c4565b3461023e57602036600319011261023e576020611ade60043561212e61019682600052600260205260018060a01b0360406000205416151590565b612697565b3461023e57602036600319011261023e576004359063ffffffff60e01b821680920361023e57602091632483248360e11b8114908115612175575b5015158152f35b6380ac58cd60e01b8114915081156121a7575b8115612196575b508361216e565b6301ffc9a760e01b1490508361218f565b635b5e139f60e01b81149150612188565b919082519283825260005b8481106121e4575050826000602080949584010152601f8019910116010190565b6020818301810151848301820152016121c3565b600435906001600160a01b038216820361023e57565b602435906001600160a01b038216820361023e57565b60208082019080835283518092528060408094019401926000905b83821061224e57505050505090565b845180518752808401516001600160a01b03908116888601528183015116878301526060808201519088015260809081015115159087015260a0909501949382019360019091019061223f565b606090600319011261023e576001600160a01b0390600435828116810361023e5791602435908116810361023e579060443590565b60a0810190811067ffffffffffffffff821117610d0f57604052565b6080810190811067ffffffffffffffff821117610d0f57604052565b6020810190811067ffffffffffffffff821117610d0f57604052565b90601f8019910116810190811067ffffffffffffffff821117610d0f57604052565b67ffffffffffffffff8111610d0f57601f01601f191660200190565b92919261236e82612346565b9161237c6040519384612324565b82948184528183011161023e578281602093846000960137010152565b156123a057565b60405162461bcd60e51b8152602060048201526014602482015273151bdad95b88191bd95cc81b9bdd08195e1a5cdd60621b6044820152606490fd5b90600182811c9216801561240c575b60208310146123f657565b634e487b7160e01b600052602260045260246000fd5b91607f16916123eb565b90604051918260008254612429816123dc565b90818452602094600191600181169081600014612499575060011461245a575b50505061245892500383612324565b565b600090815285812095935091905b8183106124815750506124589350820101388080612449565b85548884018501529485019487945091830191612468565b9250505061245894925060ff191682840152151560051b820101388080612449565b6000818152600260205260409020546124de906001600160a01b0316151561264b565b6000908152600460205260409020546001600160a01b031690565b67ffffffffffffffff8111610d0f5760051b60200190565b9061251b826124f9565b60409061252b6040519182612324565b838152809361253c601f19916124f9565b019160005b83811061254e5750505050565b602090825161255c816122d0565b60008152826000818301526000858301526000606083015260006080830152828601015201612541565b601054811015610cf95760106000527f1b6847dc741a1b0cd08d278845f9d819d87b734759afb55fe2de5cb82a9ae6720190600090565b8054821015610cf95760005260206000200190600090565b8051821015610cf95760209160051b010190565b156125f057565b60405162461bcd60e51b815260206004820152602d60248201527f4552433732313a2063616c6c6572206973206e6f7420746f6b656e206f776e6560448201526c1c881bdc88185c1c1c9bdd9959609a1b6064820152608490fd5b1561265257565b60405162461bcd60e51b815260206004820152601860248201527f4552433732313a20696e76616c696420746f6b656e20494400000000000000006044820152606490fd5b6000908152600260205260409020546001600160a01b03166126ba81151561264b565b90565b156126c457565b60405162461bcd60e51b815260206004820152601c60248201527f5072696365206d7573742062652067726561746572207468616e2030000000006044820152606490fd5b8054600160401b811015610d0f57612726916001820181556125bd565b60018060a09493941b038084549260031b9316831b921b1916179055565b90612768939291612758611c3b84336127e1565b6127638383836128a9565b612b6b565b1561276f57565b60405162461bcd60e51b81528061278860048201612a5c565b0390fd5b60105490600160401b821015610d0f57610a9b8260016124589401601055612586565b90815491600160401b831015610d0f5782610a9b916001612458950181556125bd565b6000198114610d255760010190565b906001600160a01b0380806127f584612697565b16931691838314938415612828575b508315612812575b50505090565b61281e919293506124bb565b161438808061280c565b909350600052600560205260406000208260005260205260ff604060002054169238612804565b1561285657565b60405162461bcd60e51b815260206004820152602560248201527f4552433732313a207472616e736665722066726f6d20696e636f72726563742060448201526437bbb732b960d91b6064820152608490fd5b906128d1916128b784612697565b6001600160a01b039391841692849290918316841461284f565b1691821561296957816128ee916128e786612697565b161461284f565b7fddf252ad1be2c89b69c2b068fc378daa952ba7f163c4a11628f55a4df523b3ef60008481526004602052604081206001600160601b0360a01b9081815416905583825260036020526040822060001981540190558482526040822060018154019055858252600260205284604083209182541617905580a4565b60405162461bcd60e51b8152602060048201526024808201527f4552433732313a207472616e7366657220746f20746865207a65726f206164646044820152637265737360e01b6064820152608490fd5b6002600754146129cb576002600755565b60405162461bcd60e51b815260206004820152601f60248201527f5265656e7472616e637947756172643a207265656e7472616e742063616c6c006044820152606490fd5b15612a1757565b60405162461bcd60e51b815260206004820152601c60248201527f4552433732313a20746f6b656e20616c7265616479206d696e746564000000006044820152606490fd5b60809060208152603260208201527f4552433732313a207472616e7366657220746f206e6f6e20455243373231526560408201527131b2b4bb32b91034b6b83632b6b2b73a32b960711b60608201520190565b80548015610d44576000190190612ac9610aca83836125bd565b55565b6001600160a01b031660009081526011602081905260408220919290835b835480821015612b63578390612b0083876125bd565b929054600393841b1c14612b18575050600101612aea565b94959194909350600019810192908311612b5057505091610a9b610b4d92612b448695612458976125bd565b9054911b1c91846125bd565b634e487b7160e01b825260045260249150fd5b505050505050565b9293919290803b15612c8457612bbf9460018060a01b039460405192839187630a85bd0160e11b9687855233600486015216602484015260448301526080606483015281806020998a9560848301906121b8565b03916000988991165af1849181612c40575b50612c2f575050503d600014612c27573d612beb81612346565b90612bf96040519283612324565b81528091833d92013e5b80519182612c245760405162461bcd60e51b81528061278860048201612a5c565b01fd5b506060612c03565b6001600160e01b0319161492509050565b9091508581813d8311612c7d575b612c588183612324565b81010312612c7957516001600160e01b031981168103612c79579038612bd1565b8480fd5b503d612c4e565b505091505060019056fea264697066735822122089d8f105c8f603698ef33712d1a9be9066437c43f3f01eacf75d152b73a3129c64736f6c63430008180033","opcodes":"PUSH1 0x80 CALLVALUE PUSH3 0x334 JUMPI PUSH1 0x1 PUSH1 0x1 PUSH1 0x40 SHL SUB SWAP1 PUSH1 0x40 SWAP1 DUP1 DUP3 ADD DUP4 DUP2 GT DUP3 DUP3 LT OR PUSH3 0x31E JUMPI DUP3 MSTORE PUSH1 0x10 DUP2 MSTORE PUSH1 0x20 SWAP3 PUSH16 0x4D657461766572736520546F6B656E73 PUSH1 0x80 SHL DUP5 DUP4 ADD MSTORE DUP3 MLOAD DUP4 DUP2 ADD DUP2 DUP2 LT DUP4 DUP3 GT OR PUSH3 0x31E JUMPI DUP5 MSTORE PUSH1 0x4 DUP2 MSTORE PUSH4 0x13515515 PUSH1 0xE2 SHL DUP6 DUP3 ADD MSTORE DUP3 MLOAD SWAP1 DUP3 DUP3 GT PUSH3 0x31E JUMPI PUSH1 0x0 DUP1 SLOAD SWAP3 PUSH1 0x1 SWAP6 DUP7 DUP6 DUP2 SHR SWAP6 AND DUP1 ISZERO PUSH3 0x313 JUMPI JUMPDEST DUP10 DUP7 LT EQ PUSH3 0x2FF JUMPI DUP2 SWAP1 PUSH1 0x1F SWAP6 DUP7 DUP2 GT PUSH3 0x2AC JUMPI JUMPDEST POP DUP10 SWAP1 DUP7 DUP4 GT PUSH1 0x1 EQ PUSH3 0x248 JUMPI DUP5 SWAP3 PUSH3 0x23C JUMPI JUMPDEST POP POP PUSH1 0x0 NOT PUSH1 0x3 DUP4 SWAP1 SHL SHR NOT AND SWAP1 DUP7 SHL OR DUP2 SSTORE JUMPDEST DUP2 MLOAD SWAP4 DUP5 GT PUSH3 0x228 JUMPI DUP5 SLOAD DUP6 DUP2 DUP2 SHR SWAP2 AND DUP1 ISZERO PUSH3 0x21D JUMPI JUMPDEST DUP9 DUP3 LT EQ PUSH3 0x209 JUMPI DUP4 DUP2 GT PUSH3 0x1C1 JUMPI JUMPDEST POP DUP7 SWAP3 DUP5 GT PUSH1 0x1 EQ PUSH3 0x15B JUMPI DUP4 SWAP5 SWAP6 SWAP7 POP SWAP3 PUSH3 0x14F JUMPI JUMPDEST POP POP PUSH1 0x0 NOT PUSH1 0x3 DUP4 SWAP1 SHL SHR NOT AND SWAP1 DUP3 SHL OR DUP2 SSTORE JUMPDEST PUSH1 0x7 SSTORE PUSH7 0x38D7EA4C68000 PUSH1 0xA SSTORE PUSH1 0xB DUP1 SLOAD PUSH1 0x1 PUSH1 0x1 PUSH1 0xA0 SHL SUB NOT AND CALLER OR SWAP1 SSTORE MLOAD PUSH2 0x2CC4 SWAP1 DUP2 PUSH3 0x33A DUP3 CODECOPY RETURN JUMPDEST ADD MLOAD SWAP1 POP CODESIZE DUP1 PUSH3 0x10D JUMP JUMPDEST SWAP2 SWAP1 PUSH1 0x1F NOT DUP5 AND SWAP7 DUP6 DUP5 MSTORE DUP1 DUP5 KECCAK256 SWAP4 SWAP1 JUMPDEST DUP9 DUP3 LT PUSH3 0x1A9 JUMPI POP POP DUP4 DUP6 SWAP7 SWAP8 LT PUSH3 0x18F JUMPI JUMPDEST POP POP POP DUP2 SHL ADD DUP2 SSTORE PUSH3 0x121 JUMP JUMPDEST ADD MLOAD PUSH1 0x0 NOT PUSH1 0xF8 DUP5 PUSH1 0x3 SHL AND SHR NOT AND SWAP1 SSTORE CODESIZE DUP1 DUP1 PUSH3 0x181 JUMP JUMPDEST DUP1 DUP8 DUP6 SWAP7 DUP3 SWAP5 SWAP7 DUP7 ADD MLOAD DUP2 SSTORE ADD SWAP6 ADD SWAP4 ADD SWAP1 PUSH3 0x16C JUMP JUMPDEST DUP6 DUP3 MSTORE DUP8 DUP3 KECCAK256 DUP5 DUP1 DUP8 ADD PUSH1 0x5 SHR DUP3 ADD SWAP3 DUP11 DUP9 LT PUSH3 0x1FF JUMPI JUMPDEST ADD PUSH1 0x5 SHR ADD SWAP1 DUP7 SWAP1 JUMPDEST DUP3 DUP2 LT PUSH3 0x1F3 JUMPI POP POP PUSH3 0xF4 JUMP JUMPDEST DUP4 DUP2 SSTORE ADD DUP7 SWAP1 PUSH3 0x1E3 JUMP JUMPDEST SWAP3 POP DUP2 SWAP3 PUSH3 0x1DA JUMP JUMPDEST PUSH4 0x4E487B71 PUSH1 0xE0 SHL DUP3 MSTORE PUSH1 0x22 PUSH1 0x4 MSTORE PUSH1 0x24 DUP3 REVERT JUMPDEST SWAP1 PUSH1 0x7F AND SWAP1 PUSH3 0xE2 JUMP JUMPDEST PUSH4 0x4E487B71 PUSH1 0xE0 SHL DUP2 MSTORE PUSH1 0x41 PUSH1 0x4 MSTORE PUSH1 0x24 SWAP1 REVERT JUMPDEST ADD MLOAD SWAP1 POP CODESIZE DUP1 PUSH3 0xB4 JUMP JUMPDEST DUP5 DUP1 MSTORE DUP11 DUP6 KECCAK256 DUP10 SWAP5 POP SWAP2 SWAP1 PUSH1 0x1F NOT DUP5 AND DUP7 JUMPDEST DUP14 DUP3 DUP3 LT PUSH3 0x295 JUMPI POP POP DUP5 GT PUSH3 0x27B JUMPI JUMPDEST POP POP POP DUP2 SHL ADD DUP2 SSTORE PUSH3 0xC8 JUMP JUMPDEST ADD MLOAD PUSH1 0x0 NOT PUSH1 0xF8 DUP5 PUSH1 0x3 SHL AND SHR NOT AND SWAP1 SSTORE CODESIZE DUP1 DUP1 PUSH3 0x26D JUMP JUMPDEST DUP4 DUP6 ADD MLOAD DUP7 SSTORE DUP13 SWAP8 SWAP1 SWAP6 ADD SWAP5 SWAP4 DUP5 ADD SWAP4 ADD PUSH3 0x25A JUMP JUMPDEST SWAP1 SWAP2 POP DUP4 DUP1 MSTORE DUP10 DUP5 KECCAK256 DUP7 DUP1 DUP6 ADD PUSH1 0x5 SHR DUP3 ADD SWAP3 DUP13 DUP7 LT PUSH3 0x2F5 JUMPI JUMPDEST SWAP2 DUP11 SWAP2 DUP7 SWAP6 SWAP5 SWAP4 ADD PUSH1 0x5 SHR ADD SWAP2 JUMPDEST DUP3 DUP2 LT PUSH3 0x2E6 JUMPI POP POP PUSH3 0x9E JUMP JUMPDEST DUP7 DUP2 SSTORE DUP6 SWAP5 POP DUP11 SWAP2 ADD PUSH3 0x2D6 JUMP JUMPDEST SWAP3 POP DUP2 SWAP3 PUSH3 0x2C8 JUMP JUMPDEST PUSH4 0x4E487B71 PUSH1 0xE0 SHL DUP4 MSTORE PUSH1 0x22 PUSH1 0x4 MSTORE PUSH1 0x24 DUP4 REVERT JUMPDEST SWAP5 PUSH1 0x7F AND SWAP5 PUSH3 0x87 JUMP JUMPDEST PUSH4 0x4E487B71 PUSH1 0xE0 SHL PUSH1 0x0 MSTORE PUSH1 0x41 PUSH1 0x4 MSTORE PUSH1 0x24 PUSH1 0x0 REVERT JUMPDEST PUSH1 0x0 DUP1 REVERT INVALID PUSH1 0x80 DUP1 PUSH1 0x40 MSTORE PUSH1 0x4 CALLDATASIZE LT ISZERO PUSH2 0x13 JUMPI PUSH1 0x0 DUP1 REVERT JUMPDEST PUSH1 0x0 CALLDATALOAD PUSH1 0xE0 SHR SWAP1 DUP2 PUSH4 0x1FFC9A7 EQ PUSH2 0x2133 JUMPI POP DUP1 PUSH4 0x6566F42 EQ PUSH2 0x20F3 JUMPI DUP1 PUSH4 0x6FDDE03 EQ PUSH2 0x2048 JUMPI DUP1 PUSH4 0x81812FC EQ PUSH2 0x202A JUMPI DUP1 PUSH4 0x95EA7B3 EQ PUSH2 0x1EB0 JUMPI DUP1 PUSH4 0xF08EFE0 EQ PUSH2 0x1DF7 JUMPI DUP1 PUSH4 0x121490A6 EQ PUSH2 0x1DA8 JUMPI DUP1 PUSH4 0x12E85585 EQ PUSH2 0x1D8A JUMPI DUP1 PUSH4 0x202E3740 EQ PUSH2 0x1C94 JUMPI DUP1 PUSH4 0x213CC530 EQ PUSH2 0x1C45 JUMPI DUP1 PUSH4 0x23B872DD EQ PUSH2 0x1C1C JUMPI DUP1 PUSH4 0x42842E0E EQ PUSH2 0x1BF4 JUMPI DUP1 PUSH4 0x45F8FA80 EQ PUSH2 0x1AF0 JUMPI DUP1 PUSH4 0x6352211E EQ PUSH2 0x1AC0 JUMPI DUP1 PUSH4 0x70A08231 EQ PUSH2 0x1A29 JUMPI DUP1 PUSH4 0x72B3B620 EQ PUSH2 0x1234 JUMPI DUP1 PUSH4 0x821AF93C EQ PUSH2 0x11CF JUMPI DUP1 PUSH4 0x95D89B41 EQ PUSH2 0x10EC JUMPI DUP1 PUSH4 0xA22CB465 EQ PUSH2 0x1011 JUMPI DUP1 PUSH4 0xAE677AA3 EQ PUSH2 0xF1A JUMPI DUP1 PUSH4 0xB88D4FDE EQ PUSH2 0xEB8 JUMPI DUP1 PUSH4 0xBE9AF536 EQ PUSH2 0x984 JUMPI DUP1 PUSH4 0xC87B56DD EQ PUSH2 0x90E JUMPI DUP1 PUSH4 0xCB301F7F EQ PUSH2 0x824 JUMPI DUP1 PUSH4 0xCC55AE69 EQ PUSH2 0x6BA JUMPI DUP1 PUSH4 0xDDC0F312 EQ PUSH2 0x582 JUMPI DUP1 PUSH4 0xE219FC75 EQ PUSH2 0x299 JUMPI DUP1 PUSH4 0xE985E9C5 EQ PUSH2 0x243 JUMPI PUSH4 0xEDB6770F EQ PUSH2 0x15E JUMPI PUSH1 0x0 DUP1 REVERT JUMPDEST CALLVALUE PUSH2 0x23E JUMPI PUSH1 0x20 DUP1 PUSH1 0x3 NOT CALLDATASIZE ADD SLT PUSH2 0x23E JUMPI PUSH1 0x4 CALLDATALOAD PUSH1 0x0 DUP2 DUP2 MSTORE PUSH1 0x2 PUSH1 0x20 MSTORE PUSH1 0x40 SWAP1 KECCAK256 SLOAD PUSH2 0x19B SWAP1 PUSH1 0x1 PUSH1 0x1 PUSH1 0xA0 SHL SUB AND ISZERO ISZERO PUSH2 0x2399 JUMP JUMPDEST PUSH2 0x2399 JUMP JUMPDEST PUSH1 0x0 MSTORE PUSH1 0xF DUP2 MSTORE PUSH1 0x40 PUSH1 0x0 KECCAK256 PUSH1 0x40 MLOAD SWAP1 DUP2 DUP4 DUP3 SLOAD SWAP2 DUP3 DUP2 MSTORE ADD SWAP1 DUP2 SWAP3 PUSH1 0x0 MSTORE DUP5 PUSH1 0x0 KECCAK256 SWAP1 PUSH1 0x0 JUMPDEST DUP7 DUP3 DUP3 LT PUSH2 0x221 JUMPI DUP7 DUP7 PUSH2 0x1D8 DUP3 DUP9 SUB DUP4 PUSH2 0x2324 JUMP JUMPDEST PUSH1 0x40 MLOAD SWAP3 DUP4 SWAP3 DUP2 DUP5 ADD SWAP1 DUP3 DUP6 MSTORE MLOAD DUP1 SWAP2 MSTORE PUSH1 0x40 DUP5 ADD SWAP3 SWAP2 PUSH1 0x0 JUMPDEST DUP3 DUP2 LT PUSH2 0x201 JUMPI POP POP POP POP SUB SWAP1 RETURN JUMPDEST DUP4 MLOAD PUSH1 0x1 PUSH1 0x1 PUSH1 0xA0 SHL SUB AND DUP6 MSTORE DUP7 SWAP6 POP SWAP4 DUP2 ADD SWAP4 SWAP3 DUP2 ADD SWAP3 PUSH1 0x1 ADD PUSH2 0x1F2 JUMP JUMPDEST DUP4 SLOAD PUSH1 0x1 PUSH1 0x1 PUSH1 0xA0 SHL SUB AND DUP6 MSTORE SWAP1 SWAP4 ADD SWAP3 PUSH1 0x1 SWAP3 DUP4 ADD SWAP3 ADD PUSH2 0x1C2 JUMP JUMPDEST PUSH1 0x0 DUP1 REVERT JUMPDEST CALLVALUE PUSH2 0x23E JUMPI PUSH1 0x40 CALLDATASIZE PUSH1 0x3 NOT ADD SLT PUSH2 0x23E JUMPI PUSH2 0x25C PUSH2 0x21F8 JUMP JUMPDEST PUSH2 0x264 PUSH2 0x220E JUMP JUMPDEST SWAP1 PUSH1 0x1 DUP1 PUSH1 0xA0 SHL SUB DUP1 SWAP2 AND PUSH1 0x0 MSTORE PUSH1 0x5 PUSH1 0x20 MSTORE PUSH1 0x40 PUSH1 0x0 KECCAK256 SWAP2 AND PUSH1 0x0 MSTORE PUSH1 0x20 MSTORE PUSH1 0x20 PUSH1 0xFF PUSH1 0x40 PUSH1 0x0 KECCAK256 SLOAD AND PUSH1 0x40 MLOAD SWAP1 ISZERO ISZERO DUP2 MSTORE RETURN JUMPDEST PUSH1 0x40 CALLDATASIZE PUSH1 0x3 NOT ADD SLT PUSH2 0x23E JUMPI PUSH1 0x4 CALLDATALOAD PUSH1 0x24 SWAP1 DUP2 CALLDATALOAD SWAP2 PUSH2 0x2B6 PUSH2 0x29BA JUMP JUMPDEST PUSH2 0x2BF DUP3 PUSH2 0x2697 JUMP JUMPDEST PUSH1 0x1 PUSH1 0x1 PUSH1 0xA0 SHL SUB SWAP1 CALLER SWAP1 DUP3 AND SUB PUSH2 0x52B JUMPI PUSH1 0xA SLOAD CALLVALUE SUB PUSH2 0x4DA JUMPI PUSH2 0x2E5 DUP5 ISZERO ISZERO PUSH2 0x26BD JUMP JUMPDEST DUP3 PUSH1 0x0 MSTORE PUSH1 0x20 SWAP2 PUSH1 0xC DUP4 MSTORE PUSH1 0x40 PUSH1 0x0 KECCAK256 PUSH1 0x4 DUP2 ADD SWAP1 PUSH1 0xFF NOT SWAP2 DUP3 DUP2 SLOAD AND SWAP1 SSTORE DUP7 PUSH1 0x3 DUP3 ADD SSTORE PUSH1 0x2 PUSH1 0x1 DUP3 ADD SWAP2 PUSH1 0x1 PUSH1 0x1 PUSH1 0x60 SHL SUB PUSH1 0xA0 SHL SWAP3 CALLER DUP5 DUP3 SLOAD AND OR SWAP1 SSTORE ADD ADDRESS DUP3 DUP3 SLOAD AND OR SWAP1 SSTORE PUSH1 0x9 SLOAD DUP1 ISZERO PUSH2 0x496 JUMPI PUSH1 0x0 NOT ADD PUSH1 0x9 SSTORE PUSH2 0x347 DUP7 PUSH2 0x278C JUMP JUMPDEST CALLER PUSH1 0x0 MSTORE PUSH1 0x12 DUP6 MSTORE PUSH2 0x35D DUP7 PUSH1 0x40 PUSH1 0x0 KECCAK256 PUSH2 0x27AF JUMP JUMPDEST PUSH2 0x367 DUP7 CALLER PUSH2 0x2ACC JUMP JUMPDEST DUP6 PUSH1 0x0 MSTORE PUSH1 0xD DUP6 MSTORE PUSH1 0x40 PUSH1 0x0 KECCAK256 SWAP4 PUSH1 0x40 MLOAD SWAP2 PUSH2 0x382 DUP4 PUSH2 0x22D0 JUMP JUMPDEST CALLER DUP4 MSTORE DUP7 DUP4 ADD ADDRESS DUP2 MSTORE PUSH1 0x40 DUP5 ADD SWAP2 DUP11 DUP4 MSTORE PUSH1 0x60 DUP6 ADD SWAP4 TIMESTAMP DUP6 MSTORE PUSH1 0x80 DUP7 ADD SWAP9 PUSH1 0x2 DUP11 MSTORE DUP1 SLOAD SWAP1 PUSH1 0x1 PUSH1 0x40 SHL DUP3 LT ISZERO PUSH2 0x481 JUMPI PUSH1 0x1 DUP3 ADD DUP1 DUP3 SSTORE DUP3 LT ISZERO PUSH2 0x46C JUMPI SWAP2 DUP1 SWAP2 PUSH1 0x4 SWAP9 SWAP8 SWAP7 SWAP6 SWAP5 SWAP4 PUSH1 0x0 MSTORE PUSH1 0x5 DUP14 PUSH1 0x0 KECCAK256 SWAP2 MUL ADD SWAP7 MLOAD AND DUP3 DUP8 SLOAD AND OR DUP7 SSTORE PUSH1 0x1 DUP7 ADD SWAP3 MLOAD AND SWAP1 DUP3 SLOAD AND OR SWAP1 SSTORE MLOAD PUSH1 0x2 DUP4 ADD SSTORE MLOAD PUSH1 0x3 DUP3 ADD SSTORE ADD SWAP3 MLOAD SWAP2 PUSH1 0x4 DUP4 LT ISZERO PUSH2 0x458 JUMPI POP PUSH1 0xFF SWAP1 DUP4 SLOAD AND SWAP2 AND OR SWAP1 SSTORE PUSH2 0x420 DUP3 ADDRESS CALLER PUSH2 0x28A9 JUMP JUMPDEST PUSH1 0x40 MLOAD SWAP3 DUP4 MSTORE TIMESTAMP SWAP1 DUP4 ADD MSTORE PUSH32 0xD6088CA62B31F4B677670AA9482BABF70665E6C8A746E78E6BFDA34689AE90D9 PUSH1 0x40 CALLER SWAP4 LOG3 PUSH1 0x1 PUSH1 0x7 SSTORE STOP JUMPDEST PUSH4 0x4E487B71 PUSH1 0xE0 SHL PUSH1 0x0 SWAP1 DUP2 MSTORE PUSH1 0x21 PUSH1 0x4 MSTORE REVERT JUMPDEST DUP10 PUSH4 0x4E487B71 PUSH1 0xE0 SHL PUSH1 0x0 MSTORE PUSH1 0x32 PUSH1 0x4 MSTORE PUSH1 0x0 REVERT JUMPDEST DUP10 PUSH4 0x4E487B71 PUSH1 0xE0 SHL PUSH1 0x0 MSTORE PUSH1 0x41 PUSH1 0x4 MSTORE PUSH1 0x0 REVERT JUMPDEST PUSH1 0x40 MLOAD PUSH3 0x461BCD PUSH1 0xE5 SHL DUP2 MSTORE PUSH1 0x4 DUP2 ADD DUP8 SWAP1 MSTORE PUSH1 0x1B DUP2 DUP7 ADD MSTORE PUSH32 0x436F756E7465723A2064656372656D656E74206F766572666C6F770000000000 PUSH1 0x44 DUP3 ADD MSTORE PUSH1 0x64 SWAP1 REVERT JUMPDEST PUSH1 0x40 MLOAD PUSH3 0x461BCD PUSH1 0xE5 SHL DUP2 MSTORE PUSH1 0x20 PUSH1 0x4 DUP3 ADD MSTORE DUP1 DUP4 ADD DUP4 SWAP1 MSTORE PUSH32 0x5072696365206D75737420626520657175616C20746F206C697374696E672070 PUSH1 0x44 DUP3 ADD MSTORE PUSH4 0x72696365 PUSH1 0xE0 SHL PUSH1 0x64 DUP3 ADD MSTORE PUSH1 0x84 SWAP1 REVERT JUMPDEST PUSH1 0x40 MLOAD PUSH3 0x461BCD PUSH1 0xE5 SHL DUP2 MSTORE PUSH1 0x20 PUSH1 0x4 DUP3 ADD MSTORE PUSH1 0x2A DUP2 DUP5 ADD MSTORE PUSH32 0x4F6E6C79206974656D206F776E65722063616E20706572666F726D2074686973 PUSH1 0x44 DUP3 ADD MSTORE PUSH10 0x1037B832B930BA34B7B7 PUSH1 0xB1 SHL PUSH1 0x64 DUP3 ADD MSTORE PUSH1 0x84 SWAP1 REVERT JUMPDEST CALLVALUE PUSH2 0x23E JUMPI PUSH1 0x20 DUP1 PUSH1 0x3 NOT CALLDATASIZE ADD SLT PUSH2 0x23E JUMPI PUSH2 0x59C PUSH2 0x21F8 JUMP JUMPDEST PUSH1 0x8 SLOAD PUSH1 0x1 PUSH1 0x1 PUSH1 0xA0 SHL SUB SWAP2 DUP3 AND SWAP2 PUSH1 0x0 SWAP2 SWAP1 PUSH1 0x1 JUMPDEST DUP3 DUP2 GT ISZERO PUSH2 0x680 JUMPI POP PUSH2 0x5DD PUSH2 0x5C7 DUP5 PUSH2 0x24F9 JUMP JUMPDEST SWAP4 PUSH2 0x5D5 PUSH1 0x40 MLOAD SWAP6 DUP7 PUSH2 0x2324 JUMP JUMPDEST DUP1 DUP6 MSTORE PUSH2 0x24F9 JUMP JUMPDEST DUP4 DUP7 ADD SWAP5 SWAP1 PUSH1 0x1F NOT ADD CALLDATASIZE DUP7 CALLDATACOPY PUSH1 0x0 SWAP2 PUSH1 0x1 JUMPDEST DUP5 DUP2 GT ISZERO PUSH2 0x63A JUMPI DUP8 DUP7 DUP9 PUSH1 0x40 MLOAD SWAP3 DUP4 SWAP3 DUP2 DUP5 ADD SWAP1 DUP3 DUP6 MSTORE MLOAD DUP1 SWAP2 MSTORE PUSH1 0x40 DUP5 ADD SWAP3 SWAP2 PUSH1 0x0 JUMPDEST DUP3 DUP2 LT PUSH2 0x623 JUMPI POP POP POP POP SUB SWAP1 RETURN JUMPDEST DUP4 MLOAD DUP6 MSTORE DUP7 SWAP6 POP SWAP4 DUP2 ADD SWAP4 SWAP3 DUP2 ADD SWAP3 PUSH1 0x1 ADD PUSH2 0x614 JUMP JUMPDEST DUP1 PUSH1 0x0 MSTORE PUSH1 0xE DUP9 MSTORE DUP3 DUP3 PUSH1 0x40 PUSH1 0x0 KECCAK256 SLOAD AND EQ PUSH2 0x65F JUMPI JUMPDEST PUSH2 0x65A SWAP1 PUSH2 0x27D2 JUMP JUMPDEST PUSH2 0x5EF JUMP JUMPDEST SWAP3 PUSH2 0x678 DUP2 DUP6 PUSH2 0x672 PUSH2 0x65A SWAP5 DUP11 PUSH2 0x25D5 JUMP JUMPDEST MSTORE PUSH2 0x27D2 JUMP JUMPDEST SWAP4 SWAP1 POP PUSH2 0x651 JUMP JUMPDEST DUP1 PUSH1 0x0 MSTORE PUSH1 0xE DUP7 MSTORE DUP5 DUP3 PUSH1 0x40 PUSH1 0x0 KECCAK256 SLOAD AND EQ PUSH2 0x6A5 JUMPI JUMPDEST PUSH2 0x6A0 SWAP1 PUSH2 0x27D2 JUMP JUMPDEST PUSH2 0x5B2 JUMP JUMPDEST SWAP3 PUSH2 0x6B2 PUSH2 0x6A0 SWAP2 PUSH2 0x27D2 JUMP JUMPDEST SWAP4 SWAP1 POP PUSH2 0x697 JUMP JUMPDEST CALLVALUE PUSH2 0x23E JUMPI PUSH1 0x20 DUP1 PUSH1 0x3 NOT CALLDATASIZE ADD SLT PUSH2 0x23E JUMPI PUSH1 0x4 CALLDATALOAD PUSH1 0x0 DUP2 DUP2 MSTORE PUSH1 0x2 PUSH1 0x20 MSTORE PUSH1 0x40 SWAP1 KECCAK256 SLOAD PUSH2 0x6F2 SWAP1 PUSH1 0x1 PUSH1 0x1 PUSH1 0xA0 SHL SUB AND ISZERO ISZERO PUSH2 0x2399 JUMP JUMPDEST PUSH1 0x0 MSTORE PUSH1 0xD DUP2 MSTORE PUSH1 0x40 PUSH1 0x0 KECCAK256 SWAP1 DUP2 SLOAD PUSH2 0x70A DUP2 PUSH2 0x24F9 JUMP JUMPDEST SWAP1 PUSH2 0x718 PUSH1 0x40 MLOAD SWAP3 DUP4 PUSH2 0x2324 JUMP JUMPDEST DUP1 DUP3 MSTORE PUSH1 0x0 SWAP4 DUP5 MSTORE DUP3 DUP5 KECCAK256 DUP4 DUP4 ADD SWAP5 DUP6 JUMPDEST DUP4 DUP3 LT PUSH2 0x7BF JUMPI PUSH1 0x40 DUP1 MLOAD DUP8 DUP2 MSTORE DUP7 MLOAD DUP2 DUP10 ADD DUP2 SWAP1 MSTORE DUP10 SWAP3 DUP3 ADD SWAP1 DUP10 PUSH1 0x0 JUMPDEST DUP3 DUP2 LT PUSH2 0x755 JUMPI DUP5 DUP5 SUB DUP6 RETURN JUMPDEST SWAP1 SWAP2 SWAP3 DUP6 MLOAD PUSH1 0x1 DUP1 PUSH1 0xA0 SHL SUB DUP1 DUP3 MLOAD AND DUP4 MSTORE DUP5 DUP3 ADD MLOAD AND DUP5 DUP4 ADD MSTORE PUSH1 0x40 DUP2 ADD MLOAD PUSH1 0x40 DUP4 ADD MSTORE PUSH1 0x60 DUP1 DUP3 ADD MLOAD SWAP1 DUP4 ADD MSTORE PUSH1 0x80 DUP1 SWAP2 ADD MLOAD SWAP1 PUSH1 0x4 DUP3 LT ISZERO PUSH2 0x7A9 JUMPI DUP3 ADD MSTORE SWAP5 DUP3 ADD SWAP5 PUSH1 0xA0 ADD SWAP3 SWAP2 SWAP1 PUSH1 0x1 ADD PUSH2 0x748 JUMP JUMPDEST PUSH4 0x4E487B71 PUSH1 0xE0 SHL PUSH1 0x0 MSTORE PUSH1 0x21 PUSH1 0x4 MSTORE PUSH1 0x24 PUSH1 0x0 REVERT JUMPDEST PUSH1 0x40 MLOAD PUSH2 0x7CB DUP2 PUSH2 0x22D0 JUMP JUMPDEST DUP4 SLOAD PUSH1 0x1 PUSH1 0x1 PUSH1 0xA0 SHL SUB SWAP1 DUP2 AND DUP3 MSTORE PUSH1 0x1 DUP6 ADD SLOAD AND DUP8 DUP3 ADD MSTORE PUSH1 0x2 DUP5 ADD SLOAD PUSH1 0x40 DUP3 ADD MSTORE PUSH1 0x3 DUP5 ADD SLOAD PUSH1 0x60 DUP3 ADD MSTORE PUSH1 0x4 DUP1 DUP6 ADD SLOAD PUSH1 0xFF AND SWAP1 DUP2 LT ISZERO PUSH2 0x7A9 JUMPI PUSH1 0x1 SWAP3 DUP3 DUP10 SWAP3 PUSH1 0x80 PUSH1 0x5 SWAP6 ADD MSTORE DUP2 MSTORE ADD SWAP4 ADD SWAP2 ADD SWAP1 SWAP2 PUSH2 0x729 JUMP JUMPDEST CALLVALUE PUSH2 0x23E JUMPI PUSH1 0x20 DUP1 PUSH1 0x3 NOT CALLDATASIZE ADD SLT PUSH2 0x23E JUMPI PUSH1 0x4 CALLDATALOAD PUSH1 0x0 PUSH1 0x60 PUSH1 0x40 MLOAD PUSH2 0x849 DUP2 PUSH2 0x22EC JUMP JUMPDEST DUP3 DUP2 MSTORE DUP3 DUP6 DUP3 ADD MSTORE DUP2 PUSH1 0x40 DUP3 ADD MSTORE ADD MSTORE PUSH2 0x87B PUSH2 0x196 DUP3 PUSH1 0x0 MSTORE PUSH1 0x2 PUSH1 0x20 MSTORE PUSH1 0x1 DUP1 PUSH1 0xA0 SHL SUB PUSH1 0x40 PUSH1 0x0 KECCAK256 SLOAD AND ISZERO ISZERO SWAP1 JUMP JUMPDEST PUSH1 0x0 MSTORE PUSH1 0xE DUP2 MSTORE PUSH1 0x40 PUSH1 0x0 KECCAK256 SWAP1 PUSH1 0x40 MLOAD SWAP1 PUSH2 0x895 DUP3 PUSH2 0x22EC JUMP JUMPDEST DUP3 SLOAD PUSH1 0x1 PUSH1 0x1 PUSH1 0xA0 SHL SUB SWAP1 DUP2 AND DUP4 MSTORE PUSH1 0x1 DUP5 ADD SLOAD DUP3 DUP5 ADD SWAP1 DUP2 MSTORE SWAP1 SWAP4 PUSH2 0x901 SWAP2 PUSH1 0xFF PUSH1 0x3 PUSH2 0x8C5 PUSH1 0x2 DUP6 ADD PUSH2 0x2416 JUMP JUMPDEST SWAP4 PUSH1 0x40 DUP9 ADD SWAP5 DUP6 MSTORE ADD SLOAD AND SWAP4 PUSH1 0x60 DUP7 ADD SWAP5 ISZERO ISZERO DUP6 MSTORE PUSH1 0x40 MLOAD SWAP7 DUP8 SWAP7 DUP3 DUP9 MSTORE MLOAD AND SWAP1 DUP7 ADD MSTORE MLOAD PUSH1 0x40 DUP6 ADD MSTORE MLOAD PUSH1 0x80 PUSH1 0x60 DUP6 ADD MSTORE PUSH1 0xA0 DUP5 ADD SWAP1 PUSH2 0x21B8 JUMP JUMPDEST SWAP1 MLOAD ISZERO ISZERO PUSH1 0x80 DUP4 ADD MSTORE SUB SWAP1 RETURN JUMPDEST CALLVALUE PUSH2 0x23E JUMPI PUSH1 0x20 CALLDATASIZE PUSH1 0x3 NOT ADD SLT PUSH2 0x23E JUMPI PUSH1 0x4 CALLDATALOAD PUSH1 0x0 DUP2 DUP2 MSTORE PUSH1 0x2 PUSH1 0x20 MSTORE PUSH1 0x40 SWAP1 KECCAK256 SLOAD PUSH2 0x945 SWAP1 PUSH1 0x1 PUSH1 0x1 PUSH1 0xA0 SHL SUB AND ISZERO ISZERO PUSH2 0x264B JUMP JUMPDEST PUSH1 0x0 MSTORE PUSH1 0x6 PUSH1 0x20 MSTORE PUSH2 0x980 PUSH2 0x95D PUSH1 0x40 PUSH1 0x0 KECCAK256 PUSH2 0x2416 JUMP JUMPDEST PUSH1 0x0 PUSH1 0x40 MLOAD PUSH2 0x96B DUP2 PUSH2 0x2308 JUMP JUMPDEST MSTORE PUSH1 0x40 MLOAD SWAP2 DUP3 SWAP2 PUSH1 0x20 DUP4 MSTORE PUSH1 0x20 DUP4 ADD SWAP1 PUSH2 0x21B8 JUMP JUMPDEST SUB SWAP1 RETURN JUMPDEST PUSH1 0x20 CALLDATASIZE PUSH1 0x3 NOT ADD SLT PUSH2 0x23E JUMPI PUSH2 0x998 PUSH2 0x29BA JUMP JUMPDEST PUSH1 0x4 CALLDATALOAD PUSH1 0x0 SWAP1 DUP2 MSTORE PUSH1 0xC PUSH1 0x20 MSTORE PUSH1 0x40 SWAP1 KECCAK256 PUSH1 0x3 DUP2 ADD SLOAD PUSH1 0x1 SWAP1 SWAP2 ADD SLOAD PUSH1 0x1 PUSH1 0x1 PUSH1 0xA0 SHL SUB AND CALLVALUE DUP3 SWAP1 SUB PUSH2 0xE4E JUMPI PUSH1 0x1 PUSH1 0x1 PUSH1 0xA0 SHL SUB PUSH2 0x9D8 PUSH1 0x4 CALLDATALOAD PUSH2 0x2697 JUMP JUMPDEST AND ADDRESS SUB PUSH2 0xDF6 JUMPI PUSH1 0x4 CALLDATALOAD PUSH1 0x0 MSTORE PUSH1 0xC PUSH1 0x20 MSTORE PUSH1 0xFF PUSH1 0x4 PUSH1 0x40 PUSH1 0x0 KECCAK256 ADD SLOAD AND PUSH2 0xDB1 JUMPI DUP1 CALLER EQ PUSH2 0xD62 JUMPI PUSH1 0x4 CALLDATALOAD PUSH1 0x0 MSTORE PUSH1 0xC PUSH1 0x20 MSTORE PUSH1 0x4 PUSH1 0x40 PUSH1 0x0 KECCAK256 PUSH1 0x2 DUP2 ADD CALLER PUSH1 0x1 PUSH1 0x1 PUSH1 0x60 SHL SUB PUSH1 0xA0 SHL DUP3 SLOAD AND OR SWAP1 SSTORE ADD PUSH1 0x1 PUSH1 0xFF NOT DUP3 SLOAD AND OR SWAP1 SSTORE PUSH1 0x1 PUSH1 0x9 SLOAD ADD PUSH1 0x9 SSTORE PUSH1 0x0 JUMPDEST PUSH1 0x10 SWAP1 DUP2 SLOAD DUP1 DUP3 LT ISZERO PUSH2 0xD5A JUMPI PUSH2 0xA57 DUP3 PUSH2 0x2586 JUMP JUMPDEST PUSH1 0x4 CALLDATALOAD SWAP2 SLOAD SWAP1 PUSH1 0x3 SHL SHR EQ PUSH2 0xA71 JUMPI POP PUSH1 0x1 SWAP2 POP ADD PUSH2 0xA41 JUMP JUMPDEST PUSH1 0x0 NOT SWAP2 DUP2 DUP4 ADD SWAP2 DUP3 GT PUSH2 0xD25 JUMPI PUSH2 0xA9B PUSH2 0xA8E PUSH2 0xAB4 SWAP4 PUSH2 0x2586 JUMP JUMPDEST SWAP1 SLOAD SWAP1 PUSH1 0x3 SHL SHR SWAP2 PUSH2 0x2586 JUMP JUMPDEST SWAP1 SWAP2 SWAP1 DUP3 SLOAD SWAP1 PUSH1 0x3 SHL SWAP2 DUP3 SHL SWAP2 PUSH1 0x0 NOT SWAP1 SHL NOT AND OR SWAP1 SSTORE JUMP JUMPDEST DUP2 SLOAD DUP1 ISZERO PUSH2 0xD44 JUMPI ADD SWAP1 PUSH2 0xADB PUSH2 0xACA DUP4 PUSH2 0x2586 JUMP JUMPDEST DUP2 SLOAD SWAP1 PUSH1 0x0 NOT SWAP1 PUSH1 0x3 SHL SHL NOT AND SWAP1 SSTORE JUMP JUMPDEST SSTORE JUMPDEST DUP1 PUSH1 0x0 MSTORE PUSH1 0x12 PUSH1 0x20 MSTORE PUSH1 0x40 PUSH1 0x0 KECCAK256 SWAP1 PUSH1 0x0 JUMPDEST DUP3 SLOAD DUP1 DUP3 LT ISZERO PUSH2 0xD3B JUMPI PUSH2 0xB03 DUP3 DUP6 PUSH2 0x25BD JUMP JUMPDEST PUSH1 0x4 CALLDATALOAD SWAP2 SLOAD SWAP1 PUSH1 0x3 SHL SHR EQ PUSH2 0xB1B JUMPI POP PUSH1 0x1 ADD PUSH2 0xAEF JUMP JUMPDEST SWAP2 SWAP3 SWAP1 SWAP2 PUSH1 0x0 NOT DUP2 ADD SWAP1 DUP2 GT PUSH2 0xD25 JUMPI PUSH2 0xB52 SWAP3 PUSH2 0xA9B PUSH2 0xB3F PUSH2 0xB4D SWAP4 DUP6 PUSH2 0x25BD JUMP JUMPDEST SWAP1 SLOAD SWAP1 PUSH1 0x3 SHL SHR SWAP2 DUP5 PUSH2 0x25BD JUMP JUMPDEST PUSH2 0x2AAF JUMP JUMPDEST CALLER PUSH1 0x0 MSTORE PUSH1 0x11 PUSH1 0x20 MSTORE PUSH2 0xB6B PUSH1 0x4 CALLDATALOAD PUSH1 0x40 PUSH1 0x0 KECCAK256 PUSH2 0x27AF JUMP JUMPDEST PUSH1 0x4 CALLDATALOAD PUSH1 0x0 MSTORE PUSH1 0xF PUSH1 0x20 MSTORE PUSH2 0xB84 CALLER PUSH1 0x40 PUSH1 0x0 KECCAK256 PUSH2 0x2709 JUMP JUMPDEST PUSH1 0x4 CALLDATALOAD PUSH1 0x0 MSTORE PUSH1 0xD PUSH1 0x20 MSTORE PUSH1 0x40 PUSH1 0x0 KECCAK256 PUSH1 0x40 MLOAD SWAP1 PUSH2 0xBA1 DUP3 PUSH2 0x22D0 JUMP JUMPDEST DUP3 DUP3 MSTORE CALLER PUSH1 0x20 DUP4 ADD MSTORE DUP4 PUSH1 0x40 DUP4 ADD MSTORE TIMESTAMP PUSH1 0x60 DUP4 ADD MSTORE PUSH1 0x1 PUSH1 0x80 DUP4 ADD MSTORE DUP1 SLOAD SWAP1 PUSH1 0x1 PUSH1 0x40 SHL DUP3 LT ISZERO PUSH2 0xD0F JUMPI PUSH1 0x1 DUP3 ADD DUP1 DUP3 SSTORE DUP3 LT ISZERO PUSH2 0xCF9 JUMPI PUSH1 0x80 SWAP2 PUSH1 0x4 SWAP2 PUSH1 0x0 MSTORE PUSH1 0x5 PUSH1 0x20 PUSH1 0x0 KECCAK256 SWAP2 MUL ADD PUSH1 0x1 DUP1 PUSH1 0xA0 SHL SUB DUP5 MLOAD AND PUSH1 0x1 PUSH1 0x1 PUSH1 0x60 SHL SUB PUSH1 0xA0 SHL DUP3 SLOAD AND OR DUP2 SSTORE PUSH1 0x1 DUP2 ADD PUSH1 0x1 DUP1 PUSH1 0xA0 SHL SUB PUSH1 0x20 DUP7 ADD MLOAD AND PUSH1 0x1 PUSH1 0x1 PUSH1 0x60 SHL SUB PUSH1 0xA0 SHL DUP3 SLOAD AND OR SWAP1 SSTORE PUSH1 0x40 DUP5 ADD MLOAD PUSH1 0x2 DUP3 ADD SSTORE PUSH1 0x60 DUP5 ADD MLOAD PUSH1 0x3 DUP3 ADD SSTORE ADD SWAP2 ADD MLOAD PUSH1 0x4 DUP2 LT ISZERO PUSH2 0x7A9 JUMPI PUSH1 0xFF DUP1 NOT DUP4 SLOAD AND SWAP2 AND OR SWAP1 SSTORE PUSH2 0xC64 PUSH1 0x4 CALLDATALOAD CALLER ADDRESS PUSH2 0x28A9 JUMP JUMPDEST PUSH1 0x0 DUP1 DUP1 DUP1 PUSH1 0x1 DUP1 PUSH1 0xA0 SHL SUB PUSH1 0xB SLOAD AND PUSH1 0xA SLOAD SWAP1 DUP3 DUP3 ISZERO PUSH2 0xCF0 JUMPI JUMPDEST CALL ISZERO PUSH2 0xCDB JUMPI PUSH1 0x0 CALLVALUE ISZERO PUSH2 0xCE7 JUMPI JUMPDEST PUSH1 0x0 DUP1 DUP1 DUP1 SWAP4 DUP6 CALLVALUE SWAP2 CALL ISZERO PUSH2 0xCDB JUMPI PUSH1 0x40 MLOAD SWAP2 DUP3 MSTORE TIMESTAMP PUSH1 0x20 DUP4 ADD MSTORE CALLER SWAP2 PUSH32 0xA831D161AB34FD077C450EDFEEAC91CD8CC4E1D8A3B07930CF05BF9C0A23D83E PUSH1 0x40 PUSH1 0x4 CALLDATALOAD SWAP3 LOG4 PUSH1 0x1 PUSH1 0x7 SSTORE STOP JUMPDEST PUSH1 0x40 MLOAD RETURNDATASIZE PUSH1 0x0 DUP3 RETURNDATACOPY RETURNDATASIZE SWAP1 REVERT JUMPDEST POP PUSH2 0x8FC PUSH2 0xC8F JUMP JUMPDEST POP PUSH2 0x8FC PUSH2 0xC80 JUMP JUMPDEST PUSH4 0x4E487B71 PUSH1 0xE0 SHL PUSH1 0x0 MSTORE PUSH1 0x32 PUSH1 0x4 MSTORE PUSH1 0x24 PUSH1 0x0 REVERT JUMPDEST PUSH4 0x4E487B71 PUSH1 0xE0 SHL PUSH1 0x0 MSTORE PUSH1 0x41 PUSH1 0x4 MSTORE PUSH1 0x24 PUSH1 0x0 REVERT JUMPDEST PUSH4 0x4E487B71 PUSH1 0xE0 SHL PUSH1 0x0 MSTORE PUSH1 0x11 PUSH1 0x4 MSTORE PUSH1 0x24 PUSH1 0x0 REVERT JUMPDEST POP POP SWAP1 POP PUSH2 0xB52 JUMP JUMPDEST PUSH4 0x4E487B71 PUSH1 0xE0 SHL PUSH1 0x0 MSTORE PUSH1 0x31 PUSH1 0x4 MSTORE PUSH1 0x24 PUSH1 0x0 REVERT JUMPDEST POP POP POP PUSH2 0xADD JUMP JUMPDEST PUSH1 0x40 MLOAD PUSH3 0x461BCD PUSH1 0xE5 SHL DUP2 MSTORE PUSH1 0x20 PUSH1 0x4 DUP3 ADD MSTORE PUSH1 0x21 PUSH1 0x24 DUP3 ADD MSTORE PUSH32 0x53656C6C65722063616E6E6F7420627579207468656972206F776E20746F6B65 PUSH1 0x44 DUP3 ADD MSTORE PUSH1 0x37 PUSH1 0xF9 SHL PUSH1 0x64 DUP3 ADD MSTORE PUSH1 0x84 SWAP1 REVERT JUMPDEST PUSH1 0x40 MLOAD PUSH3 0x461BCD PUSH1 0xE5 SHL DUP2 MSTORE PUSH1 0x20 PUSH1 0x4 DUP3 ADD MSTORE PUSH1 0x19 PUSH1 0x24 DUP3 ADD MSTORE PUSH32 0x54686973206974656D20697320616C726561647920736F6C6400000000000000 PUSH1 0x44 DUP3 ADD MSTORE PUSH1 0x64 SWAP1 REVERT JUMPDEST PUSH1 0x40 MLOAD PUSH3 0x461BCD PUSH1 0xE5 SHL DUP2 MSTORE PUSH1 0x20 PUSH1 0x4 DUP3 ADD MSTORE PUSH1 0x2A PUSH1 0x24 DUP3 ADD MSTORE PUSH32 0x4D61726B6574706C616365206D75737420626520746865206F776E6572206F66 PUSH1 0x44 DUP3 ADD MSTORE PUSH10 0x103A3432903A37B5B2B7 PUSH1 0xB1 SHL PUSH1 0x64 DUP3 ADD MSTORE PUSH1 0x84 SWAP1 REVERT JUMPDEST PUSH1 0x84 PUSH1 0x40 MLOAD PUSH3 0x461BCD PUSH1 0xE5 SHL DUP2 MSTORE PUSH1 0x20 PUSH1 0x4 DUP3 ADD MSTORE PUSH1 0x40 PUSH1 0x24 DUP3 ADD MSTORE PUSH32 0x506C65617365207375626D6974207468652061736B696E672070726963652069 PUSH1 0x44 DUP3 ADD MSTORE PUSH32 0x6E206F7264657220746F20636F6D706C65746520746865207075726368617365 PUSH1 0x64 DUP3 ADD MSTORE REVERT JUMPDEST CALLVALUE PUSH2 0x23E JUMPI PUSH1 0x80 CALLDATASIZE PUSH1 0x3 NOT ADD SLT PUSH2 0x23E JUMPI PUSH2 0xED1 PUSH2 0x21F8 JUMP JUMPDEST PUSH2 0xED9 PUSH2 0x220E JUMP JUMPDEST PUSH1 0x64 CALLDATALOAD SWAP2 PUSH8 0xFFFFFFFFFFFFFFFF DUP4 GT PUSH2 0x23E JUMPI CALLDATASIZE PUSH1 0x23 DUP5 ADD SLT ISZERO PUSH2 0x23E JUMPI PUSH2 0xF0E PUSH2 0xF18 SWAP4 CALLDATASIZE SWAP1 PUSH1 0x24 DUP2 PUSH1 0x4 ADD CALLDATALOAD SWAP2 ADD PUSH2 0x2362 JUMP JUMPDEST SWAP2 PUSH1 0x44 CALLDATALOAD SWAP2 PUSH2 0x2744 JUMP JUMPDEST STOP JUMPDEST PUSH1 0x20 CALLDATASIZE PUSH1 0x3 NOT ADD SLT PUSH2 0x23E JUMPI PUSH1 0xB SLOAD PUSH1 0x1 PUSH1 0x1 PUSH1 0xA0 SHL SUB AND CALLER DUP2 SWAP1 SUB PUSH2 0xFA6 JUMPI CALLER SUB PUSH2 0xF48 JUMPI PUSH1 0x4 CALLDATALOAD PUSH1 0xA SSTORE STOP JUMPDEST PUSH1 0x40 MLOAD PUSH3 0x461BCD PUSH1 0xE5 SHL DUP2 MSTORE PUSH1 0x20 PUSH1 0x4 DUP3 ADD MSTORE PUSH1 0x30 PUSH1 0x24 DUP3 ADD MSTORE PUSH32 0x4F6E6C79206D61726B6574706C616365206F776E65722063616E207570646174 PUSH1 0x44 DUP3 ADD MSTORE PUSH16 0x32903634B9BA34B73390383934B1B297 PUSH1 0x81 SHL PUSH1 0x64 DUP3 ADD MSTORE PUSH1 0x84 SWAP1 REVERT JUMPDEST PUSH1 0x40 MLOAD PUSH3 0x461BCD PUSH1 0xE5 SHL DUP2 MSTORE PUSH1 0x20 PUSH1 0x4 DUP3 ADD MSTORE PUSH1 0x3A PUSH1 0x24 DUP3 ADD MSTORE PUSH32 0x6F6E6C79206F776E6572206F6620746865206D61726B6574706C616365206361 PUSH1 0x44 DUP3 ADD MSTORE PUSH32 0x6E206368616E676520746865206C697374696E67207072696365000000000000 PUSH1 0x64 DUP3 ADD MSTORE PUSH1 0x84 SWAP1 REVERT JUMPDEST CALLVALUE PUSH2 0x23E JUMPI PUSH1 0x40 CALLDATASIZE PUSH1 0x3 NOT ADD SLT PUSH2 0x23E JUMPI PUSH2 0x102A PUSH2 0x21F8 JUMP JUMPDEST PUSH1 0x24 CALLDATALOAD SWAP1 DUP2 ISZERO ISZERO SWAP1 DUP2 DUP4 SUB PUSH2 0x23E JUMPI PUSH1 0x1 PUSH1 0x1 PUSH1 0xA0 SHL SUB AND SWAP2 CALLER DUP4 EQ PUSH2 0x10A7 JUMPI PUSH2 0x1079 SWAP1 CALLER PUSH1 0x0 MSTORE PUSH1 0x5 PUSH1 0x20 MSTORE PUSH1 0x40 PUSH1 0x0 KECCAK256 DUP5 PUSH1 0x0 MSTORE PUSH1 0x20 MSTORE PUSH1 0x40 PUSH1 0x0 KECCAK256 SWAP1 PUSH1 0xFF DUP1 NOT DUP4 SLOAD AND SWAP2 ISZERO ISZERO AND OR SWAP1 SSTORE JUMP JUMPDEST PUSH1 0x40 MLOAD SWAP1 DUP2 MSTORE PUSH32 0x17307EAB39AB6107E8899845AD3D59BD9653F200F220920489CA2B5937696C31 PUSH1 0x20 CALLER SWAP3 LOG3 STOP JUMPDEST PUSH1 0x40 MLOAD PUSH3 0x461BCD PUSH1 0xE5 SHL DUP2 MSTORE PUSH1 0x20 PUSH1 0x4 DUP3 ADD MSTORE PUSH1 0x19 PUSH1 0x24 DUP3 ADD MSTORE PUSH32 0x4552433732313A20617070726F766520746F2063616C6C657200000000000000 PUSH1 0x44 DUP3 ADD MSTORE PUSH1 0x64 SWAP1 REVERT JUMPDEST CALLVALUE PUSH2 0x23E JUMPI PUSH1 0x0 CALLDATASIZE PUSH1 0x3 NOT ADD SLT PUSH2 0x23E JUMPI PUSH1 0x40 MLOAD PUSH1 0x0 PUSH1 0x1 DUP3 PUSH1 0x1 SLOAD SWAP3 PUSH2 0x1112 DUP5 PUSH2 0x23DC JUMP JUMPDEST SWAP3 DUP4 DUP4 MSTORE PUSH1 0x20 SWAP5 DUP6 PUSH1 0x1 DUP3 AND SWAP2 DUP3 PUSH1 0x0 EQ PUSH2 0x11AF JUMPI POP POP PUSH1 0x1 EQ PUSH2 0x1152 JUMPI JUMPDEST POP PUSH2 0x113E SWAP3 POP SUB DUP4 PUSH2 0x2324 JUMP JUMPDEST PUSH2 0x980 PUSH1 0x40 MLOAD SWAP3 DUP3 DUP5 SWAP4 DUP5 MSTORE DUP4 ADD SWAP1 PUSH2 0x21B8 JUMP JUMPDEST DUP5 SWAP2 POP PUSH1 0x1 PUSH1 0x0 MSTORE PUSH32 0xB10E2D527612073B26EECDFD717E6A320CF44B4AFAC2B0732D9FCBE2B7FA0CF6 SWAP1 PUSH1 0x0 SWAP2 JUMPDEST DUP6 DUP4 LT PUSH2 0x1197 JUMPI POP POP PUSH2 0x113E SWAP4 POP DUP3 ADD ADD DUP6 PUSH2 0x1131 JUMP JUMPDEST DUP1 SLOAD DUP4 DUP10 ADD DUP6 ADD MSTORE DUP8 SWAP5 POP DUP7 SWAP4 SWAP1 SWAP3 ADD SWAP2 DUP2 ADD PUSH2 0x1180 JUMP JUMPDEST PUSH1 0xFF NOT AND DUP6 DUP3 ADD MSTORE PUSH2 0x113E SWAP6 ISZERO ISZERO PUSH1 0x5 SHL DUP6 ADD ADD SWAP3 POP DUP8 SWAP2 POP PUSH2 0x1131 SWAP1 POP JUMP JUMPDEST CALLVALUE PUSH2 0x23E JUMPI PUSH1 0x20 CALLDATASIZE PUSH1 0x3 NOT ADD SLT PUSH2 0x23E JUMPI PUSH1 0x20 PUSH1 0x4 CALLDATALOAD PUSH2 0x1207 PUSH2 0x196 DUP3 PUSH1 0x0 MSTORE PUSH1 0x2 PUSH1 0x20 MSTORE PUSH1 0x1 DUP1 PUSH1 0xA0 SHL SUB PUSH1 0x40 PUSH1 0x0 KECCAK256 SLOAD AND ISZERO ISZERO SWAP1 JUMP JUMPDEST PUSH1 0x0 DUP2 DUP2 MSTORE PUSH1 0xE DUP4 MSTORE PUSH1 0x40 SWAP1 KECCAK256 SLOAD PUSH1 0x1 PUSH1 0x1 PUSH1 0xA0 SHL SUB SWAP1 DUP2 AND SWAP2 PUSH2 0x122A SWAP1 PUSH2 0x2697 JUMP JUMPDEST AND EQ PUSH1 0x40 MLOAD SWAP1 DUP2 MSTORE RETURN JUMPDEST PUSH1 0x40 CALLDATASIZE PUSH1 0x3 NOT ADD SLT PUSH2 0x23E JUMPI PUSH1 0x4 CALLDATALOAD PUSH8 0xFFFFFFFFFFFFFFFF DUP2 GT PUSH2 0x23E JUMPI CALLDATASIZE PUSH1 0x23 DUP3 ADD SLT ISZERO PUSH2 0x23E JUMPI PUSH2 0x1271 SWAP1 CALLDATASIZE SWAP1 PUSH1 0x24 DUP2 PUSH1 0x4 ADD CALLDATALOAD SWAP2 ADD PUSH2 0x2362 JUMP JUMPDEST PUSH2 0x1279 PUSH2 0x29BA JUMP JUMPDEST PUSH2 0x1286 PUSH1 0x24 CALLDATALOAD ISZERO ISZERO PUSH2 0x26BD JUMP JUMPDEST PUSH1 0xA SLOAD CALLVALUE SUB PUSH2 0x19EB JUMPI PUSH1 0x1 PUSH1 0x8 SLOAD ADD DUP1 PUSH1 0x8 SSTORE CALLER ISZERO PUSH2 0x19A7 JUMPI PUSH1 0x0 DUP2 DUP2 MSTORE PUSH1 0x2 PUSH1 0x20 MSTORE PUSH1 0x40 SWAP1 KECCAK256 SLOAD PUSH2 0x12C4 SWAP1 PUSH1 0x1 PUSH1 0x1 PUSH1 0xA0 SHL SUB AND ISZERO ISZERO JUMPDEST ISZERO PUSH2 0x2A10 JUMP JUMPDEST PUSH1 0x0 DUP2 DUP2 MSTORE PUSH1 0x2 PUSH1 0x20 MSTORE PUSH1 0x40 SWAP1 KECCAK256 SLOAD PUSH2 0x12E7 SWAP1 PUSH1 0x1 PUSH1 0x1 PUSH1 0xA0 SHL SUB AND ISZERO ISZERO PUSH2 0x12BE JUMP JUMPDEST CALLER PUSH1 0x0 MSTORE PUSH1 0x3 PUSH1 0x20 MSTORE PUSH1 0x40 PUSH1 0x0 KECCAK256 PUSH1 0x1 DUP2 SLOAD ADD SWAP1 SSTORE DUP1 PUSH1 0x0 MSTORE PUSH1 0x2 PUSH1 0x20 MSTORE PUSH1 0x40 PUSH1 0x0 KECCAK256 CALLER PUSH1 0x1 PUSH1 0x1 PUSH1 0x60 SHL SUB PUSH1 0xA0 SHL DUP3 SLOAD AND OR SWAP1 SSTORE DUP1 CALLER PUSH1 0x0 PUSH32 0xDDF252AD1BE2C89B69C2B068FC378DAA952BA7F163C4A11628F55A4DF523B3EF DUP2 DUP1 LOG4 PUSH1 0x0 DUP2 DUP2 MSTORE PUSH1 0x2 PUSH1 0x20 MSTORE PUSH1 0x40 SWAP1 KECCAK256 SLOAD PUSH1 0x1 PUSH1 0x1 PUSH1 0xA0 SHL SUB AND ISZERO PUSH2 0x194B JUMPI DUP1 PUSH1 0x0 MSTORE PUSH1 0x6 PUSH1 0x20 MSTORE PUSH1 0x40 PUSH1 0x0 KECCAK256 SWAP2 DUP1 MLOAD SWAP3 PUSH8 0xFFFFFFFFFFFFFFFF DUP5 GT PUSH2 0xD0F JUMPI PUSH2 0x138C DUP2 SLOAD PUSH2 0x23DC JUMP JUMPDEST PUSH1 0x1F DUP2 GT PUSH2 0x1907 JUMPI JUMPDEST POP PUSH1 0x20 SWAP4 PUSH1 0x1F DUP2 GT PUSH1 0x1 EQ PUSH2 0x18A0 JUMPI DUP1 SWAP2 SWAP3 SWAP4 SWAP5 PUSH1 0x0 SWAP2 PUSH2 0x1895 JUMPI JUMPDEST POP DUP2 PUSH1 0x1 SHL SWAP2 PUSH1 0x0 NOT SWAP1 PUSH1 0x3 SHL SHR NOT AND OR SWAP1 SSTORE JUMPDEST PUSH32 0xF8E1A15ABA9398E019F0B49DF1A4FDE98EE17AE345CB5F6B5E2C27F5033E8CE7 PUSH1 0x20 PUSH1 0x40 MLOAD DUP5 DUP2 MSTORE LOG1 PUSH1 0x40 MLOAD PUSH2 0x13FB DUP2 PUSH2 0x22EC JUMP JUMPDEST CALLER DUP2 MSTORE PUSH1 0x20 DUP2 ADD SWAP1 TIMESTAMP DUP3 MSTORE PUSH1 0x40 DUP2 ADD DUP4 DUP2 MSTORE PUSH1 0x1 PUSH1 0x60 DUP4 ADD MSTORE DUP5 PUSH1 0x0 MSTORE PUSH1 0xE PUSH1 0x20 MSTORE PUSH1 0x40 PUSH1 0x0 KECCAK256 SWAP3 PUSH1 0x1 DUP1 PUSH1 0xA0 SHL SUB DUP4 MLOAD AND PUSH1 0x1 PUSH1 0x1 PUSH1 0x60 SHL SUB PUSH1 0xA0 SHL DUP6 SLOAD AND OR DUP5 SSTORE MLOAD PUSH1 0x1 DUP5 ADD SSTORE MLOAD DUP1 MLOAD SWAP1 PUSH8 0xFFFFFFFFFFFFFFFF DUP3 GT PUSH2 0xD0F JUMPI PUSH2 0x1464 PUSH1 0x2 DUP6 ADD SLOAD PUSH2 0x23DC JUMP JUMPDEST PUSH1 0x1F DUP2 GT PUSH2 0x184E JUMPI JUMPDEST POP PUSH1 0x20 SWAP1 PUSH1 0x1F DUP4 GT PUSH1 0x1 EQ PUSH2 0x17D6 JUMPI SWAP3 DUP3 PUSH1 0x3 SWAP4 PUSH1 0x60 SWAP4 PUSH2 0x14BF SWAP8 SWAP7 PUSH1 0x0 SWAP3 PUSH2 0x17CB JUMPI JUMPDEST POP POP DUP2 PUSH1 0x1 SHL SWAP2 PUSH1 0x0 NOT SWAP1 DUP7 SHL SHR NOT AND OR PUSH1 0x2 DUP6 ADD SSTORE JUMPDEST ADD MLOAD ISZERO ISZERO SWAP2 ADD SWAP1 PUSH1 0xFF DUP1 NOT DUP4 SLOAD AND SWAP2 ISZERO ISZERO AND OR SWAP1 SSTORE JUMP JUMPDEST DUP2 PUSH32 0x6832C4A8240AEC284B577356B6CECFF5AF48C14E65C3CFE48759BFDE75F9B144 PUSH2 0x14F6 PUSH1 0x40 MLOAD SWAP4 PUSH1 0x40 DUP6 MSTORE PUSH1 0x40 DUP6 ADD SWAP1 PUSH2 0x21B8 JUMP JUMPDEST SWAP3 TIMESTAMP PUSH1 0x20 DUP3 ADD MSTORE DUP1 CALLER SWAP5 SUB SWAP1 LOG3 DUP1 PUSH1 0x0 MSTORE PUSH1 0xF PUSH1 0x20 MSTORE PUSH2 0x151A CALLER PUSH1 0x40 PUSH1 0x0 KECCAK256 PUSH2 0x2709 JUMP JUMPDEST DUP1 PUSH1 0x0 MSTORE PUSH1 0xD PUSH1 0x20 MSTORE PUSH1 0x40 PUSH1 0x0 KECCAK256 PUSH1 0x40 MLOAD SWAP1 PUSH2 0x1535 DUP3 PUSH2 0x22D0 JUMP JUMPDEST PUSH1 0x0 DUP3 MSTORE CALLER PUSH1 0x20 DUP4 ADD MSTORE PUSH1 0x0 PUSH1 0x40 DUP4 ADD MSTORE TIMESTAMP PUSH1 0x60 DUP4 ADD MSTORE PUSH1 0x0 PUSH1 0x80 DUP4 ADD MSTORE DUP1 SLOAD SWAP1 PUSH1 0x1 PUSH1 0x40 SHL DUP3 LT ISZERO PUSH2 0xD0F JUMPI PUSH1 0x1 DUP3 ADD DUP1 DUP3 SSTORE DUP3 LT ISZERO PUSH2 0xCF9 JUMPI PUSH1 0x80 SWAP2 PUSH1 0x4 SWAP2 PUSH1 0x0 MSTORE PUSH1 0x5 PUSH1 0x20 PUSH1 0x0 KECCAK256 SWAP2 MUL ADD PUSH1 0x1 DUP1 PUSH1 0xA0 SHL SUB DUP5 MLOAD AND PUSH1 0x1 PUSH1 0x1 PUSH1 0x60 SHL SUB PUSH1 0xA0 SHL DUP3 SLOAD AND OR DUP2 SSTORE PUSH1 0x1 DUP2 ADD PUSH1 0x1 DUP1 PUSH1 0xA0 SHL SUB PUSH1 0x20 DUP7 ADD MLOAD AND PUSH1 0x1 PUSH1 0x1 PUSH1 0x60 SHL SUB PUSH1 0xA0 SHL DUP3 SLOAD AND OR SWAP1 SSTORE PUSH1 0x40 DUP5 ADD MLOAD PUSH1 0x2 DUP3 ADD SSTORE PUSH1 0x60 DUP5 ADD MLOAD PUSH1 0x3 DUP3 ADD SSTORE ADD SWAP2 ADD MLOAD PUSH1 0x4 DUP2 LT ISZERO PUSH2 0x7A9 JUMPI PUSH1 0xFF DUP1 NOT DUP4 SLOAD AND SWAP2 AND OR SWAP1 SSTORE PUSH1 0x24 CALLDATALOAD ISZERO PUSH2 0x1786 JUMPI PUSH1 0x1 PUSH1 0x1 PUSH1 0xA0 SHL SUB PUSH2 0x1606 DUP3 PUSH2 0x2697 JUMP JUMPDEST AND CALLER SUB PUSH2 0x1731 JUMPI PUSH1 0x20 SWAP1 PUSH2 0x16B1 PUSH1 0x40 MLOAD PUSH2 0x161F DUP2 PUSH2 0x22D0 JUMP JUMPDEST DUP3 DUP2 MSTORE PUSH1 0x4 DUP5 DUP3 ADD CALLER DUP2 MSTORE PUSH1 0x40 DUP4 ADD ADDRESS DUP2 MSTORE PUSH1 0x60 DUP5 ADD SWAP1 PUSH1 0x24 CALLDATALOAD DUP3 MSTORE PUSH1 0x80 DUP6 ADD SWAP3 PUSH1 0x0 DUP5 MSTORE DUP8 PUSH1 0x0 MSTORE PUSH1 0xC DUP10 MSTORE PUSH1 0x40 PUSH1 0x0 KECCAK256 SWAP6 MLOAD DUP7 SSTORE PUSH1 0x1 DUP7 ADD SWAP1 PUSH1 0x1 DUP1 PUSH1 0xA0 SHL SUB SWAP1 MLOAD AND PUSH1 0x1 PUSH1 0x1 PUSH1 0x60 SHL SUB PUSH1 0xA0 SHL DUP3 SLOAD AND OR SWAP1 SSTORE PUSH1 0x2 DUP6 ADD SWAP1 PUSH1 0x1 DUP1 PUSH1 0xA0 SHL SUB SWAP1 MLOAD AND PUSH1 0x1 PUSH1 0x1 PUSH1 0x60 SHL SUB PUSH1 0xA0 SHL DUP3 SLOAD AND OR SWAP1 SSTORE MLOAD PUSH1 0x3 DUP5 ADD SSTORE MLOAD ISZERO ISZERO SWAP2 ADD SWAP1 PUSH1 0xFF DUP1 NOT DUP4 SLOAD AND SWAP2 ISZERO ISZERO AND OR SWAP1 SSTORE JUMP JUMPDEST PUSH2 0x16BA DUP2 PUSH2 0x278C JUMP JUMPDEST CALLER PUSH1 0x0 MSTORE PUSH1 0x12 DUP3 MSTORE PUSH2 0x16D0 DUP2 PUSH1 0x40 PUSH1 0x0 KECCAK256 PUSH2 0x27AF JUMP JUMPDEST PUSH2 0x16DA DUP2 CALLER PUSH2 0x2ACC JUMP JUMPDEST PUSH2 0x16E5 DUP2 ADDRESS CALLER PUSH2 0x28A9 JUMP JUMPDEST DUP1 PUSH32 0xB640004F1D14576D0C209E240CAD0410E0D8C0C33A09375861FBADAE2588A98D PUSH1 0x80 PUSH1 0x40 MLOAD CALLER DUP2 MSTORE ADDRESS DUP7 DUP3 ADD MSTORE PUSH1 0x24 CALLDATALOAD PUSH1 0x40 DUP3 ADD MSTORE PUSH1 0x0 PUSH1 0x60 DUP3 ADD MSTORE LOG2 PUSH1 0x1 PUSH1 0x7 SSTORE PUSH1 0x40 MLOAD SWAP1 DUP2 MSTORE RETURN JUMPDEST PUSH1 0x40 MLOAD PUSH3 0x461BCD PUSH1 0xE5 SHL DUP2 MSTORE PUSH1 0x20 PUSH1 0x4 DUP3 ADD MSTORE PUSH1 0x27 PUSH1 0x24 DUP3 ADD MSTORE PUSH32 0x4F6E6C7920746F6B656E206F776E65722063616E20637265617465206D61726B PUSH1 0x44 DUP3 ADD MSTORE PUSH7 0x6574206974656D PUSH1 0xC8 SHL PUSH1 0x64 DUP3 ADD MSTORE PUSH1 0x84 SWAP1 REVERT JUMPDEST PUSH1 0x40 MLOAD PUSH3 0x461BCD PUSH1 0xE5 SHL DUP2 MSTORE PUSH1 0x20 PUSH1 0x4 DUP3 ADD MSTORE PUSH1 0x1C PUSH1 0x24 DUP3 ADD MSTORE PUSH32 0x5072696365206D757374206265206174206C6561737420312077656900000000 PUSH1 0x44 DUP3 ADD MSTORE PUSH1 0x64 SWAP1 REVERT JUMPDEST ADD MLOAD SWAP1 POP DUP10 DUP1 PUSH2 0x1491 JUMP JUMPDEST SWAP1 PUSH1 0x2 DUP6 ADD PUSH1 0x0 MSTORE PUSH1 0x20 PUSH1 0x0 KECCAK256 SWAP2 PUSH1 0x0 JUMPDEST PUSH1 0x1F NOT DUP6 AND DUP2 LT PUSH2 0x1836 JUMPI POP DUP4 PUSH1 0x60 SWAP4 PUSH2 0x14BF SWAP8 SWAP7 SWAP4 PUSH1 0x1 SWAP4 PUSH1 0x3 SWAP8 PUSH1 0x1F NOT DUP2 AND LT PUSH2 0x181E JUMPI JUMPDEST POP POP POP DUP2 SHL ADD PUSH1 0x2 DUP6 ADD SSTORE PUSH2 0x14A8 JUMP JUMPDEST ADD MLOAD PUSH1 0x0 NOT DUP4 DUP9 SHL PUSH1 0xF8 AND SHR NOT AND SWAP1 SSTORE DUP10 DUP1 DUP1 PUSH2 0x180E JUMP JUMPDEST SWAP2 SWAP3 PUSH1 0x20 PUSH1 0x1 DUP2 SWAP3 DUP7 DUP6 ADD MLOAD DUP2 SSTORE ADD SWAP5 ADD SWAP3 ADD PUSH2 0x17E7 JUMP JUMPDEST PUSH1 0x2 DUP6 ADD PUSH1 0x0 MSTORE PUSH1 0x20 PUSH1 0x0 KECCAK256 PUSH1 0x1F DUP5 ADD PUSH1 0x5 SHR DUP2 ADD PUSH1 0x20 DUP6 LT PUSH2 0x188E JUMPI JUMPDEST PUSH1 0x1F DUP4 ADD PUSH1 0x5 SHR DUP3 ADD DUP2 LT PUSH2 0x1882 JUMPI POP POP PUSH2 0x146D JUMP JUMPDEST PUSH1 0x0 DUP2 SSTORE PUSH1 0x1 ADD PUSH2 0x186C JUMP JUMPDEST POP DUP1 PUSH2 0x186C JUMP JUMPDEST SWAP1 POP DUP4 ADD MLOAD DUP6 PUSH2 0x13B1 JUMP JUMPDEST DUP2 PUSH1 0x0 MSTORE PUSH1 0x20 PUSH1 0x0 KECCAK256 PUSH1 0x0 JUMPDEST PUSH1 0x1F NOT DUP4 AND DUP2 LT PUSH2 0x18EF JUMPI POP PUSH1 0x1 SWAP3 SWAP4 SWAP5 SWAP6 DUP3 PUSH1 0x1F NOT DUP2 AND LT PUSH2 0x18D6 JUMPI JUMPDEST POP POP DUP2 SHL ADD SWAP1 SSTORE PUSH2 0x13C5 JUMP JUMPDEST DUP6 ADD MLOAD PUSH1 0x0 NOT PUSH1 0xF8 DUP5 PUSH1 0x3 SHL AND SHR NOT AND SWAP1 SSTORE DUP6 DUP1 PUSH2 0x18CA JUMP JUMPDEST DUP5 DUP8 ADD MLOAD DUP3 SSTORE PUSH1 0x20 SWAP7 DUP8 ADD SWAP7 PUSH1 0x1 SWAP1 SWAP3 ADD SWAP2 ADD PUSH2 0x18AC JUMP JUMPDEST DUP2 PUSH1 0x0 MSTORE PUSH1 0x20 PUSH1 0x0 KECCAK256 PUSH1 0x1F DUP7 ADD PUSH1 0x5 SHR DUP2 ADD PUSH1 0x20 DUP8 LT PUSH2 0x1944 JUMPI JUMPDEST PUSH1 0x1F DUP4 ADD PUSH1 0x5 SHR DUP3 ADD DUP2 LT PUSH2 0x1938 JUMPI POP POP PUSH2 0x1395 JUMP JUMPDEST PUSH1 0x0 DUP2 SSTORE PUSH1 0x1 ADD PUSH2 0x1922 JUMP JUMPDEST POP DUP1 PUSH2 0x1922 JUMP JUMPDEST PUSH1 0x40 MLOAD PUSH3 0x461BCD PUSH1 0xE5 SHL DUP2 MSTORE PUSH1 0x20 PUSH1 0x4 DUP3 ADD MSTORE PUSH1 0x2E PUSH1 0x24 DUP3 ADD MSTORE PUSH32 0x45524337323155524953746F726167653A2055524920736574206F66206E6F6E PUSH1 0x44 DUP3 ADD MSTORE PUSH14 0x32BC34B9BA32B73A103A37B5B2B7 PUSH1 0x91 SHL PUSH1 0x64 DUP3 ADD MSTORE PUSH1 0x84 SWAP1 REVERT JUMPDEST PUSH1 0x64 PUSH1 0x40 MLOAD PUSH3 0x461BCD PUSH1 0xE5 SHL DUP2 MSTORE PUSH1 0x20 PUSH1 0x4 DUP3 ADD MSTORE PUSH1 0x20 PUSH1 0x24 DUP3 ADD MSTORE PUSH32 0x4552433732313A206D696E7420746F20746865207A65726F2061646472657373 PUSH1 0x44 DUP3 ADD MSTORE REVERT JUMPDEST PUSH1 0x40 MLOAD PUSH3 0x461BCD PUSH1 0xE5 SHL DUP2 MSTORE PUSH1 0x20 PUSH1 0x4 DUP3 ADD MSTORE PUSH1 0x16 PUSH1 0x24 DUP3 ADD MSTORE PUSH22 0x4D75737420706179206C697374696E67207072696365 PUSH1 0x50 SHL PUSH1 0x44 DUP3 ADD MSTORE PUSH1 0x64 SWAP1 REVERT JUMPDEST CALLVALUE PUSH2 0x23E JUMPI PUSH1 0x20 CALLDATASIZE PUSH1 0x3 NOT ADD SLT PUSH2 0x23E JUMPI PUSH1 0x1 PUSH1 0x1 PUSH1 0xA0 SHL SUB PUSH2 0x1A4A PUSH2 0x21F8 JUMP JUMPDEST AND DUP1 ISZERO PUSH2 0x1A69 JUMPI PUSH1 0x0 MSTORE PUSH1 0x3 PUSH1 0x20 MSTORE PUSH1 0x20 PUSH1 0x40 PUSH1 0x0 KECCAK256 SLOAD PUSH1 0x40 MLOAD SWAP1 DUP2 MSTORE RETURN JUMPDEST PUSH1 0x40 MLOAD PUSH3 0x461BCD PUSH1 0xE5 SHL DUP2 MSTORE PUSH1 0x20 PUSH1 0x4 DUP3 ADD MSTORE PUSH1 0x29 PUSH1 0x24 DUP3 ADD MSTORE PUSH32 0x4552433732313A2061646472657373207A65726F206973206E6F742061207661 PUSH1 0x44 DUP3 ADD MSTORE PUSH9 0x3634B21037BBB732B9 PUSH1 0xB9 SHL PUSH1 0x64 DUP3 ADD MSTORE PUSH1 0x84 SWAP1 REVERT JUMPDEST CALLVALUE PUSH2 0x23E JUMPI PUSH1 0x20 CALLDATASIZE PUSH1 0x3 NOT ADD SLT PUSH2 0x23E JUMPI PUSH1 0x20 PUSH2 0x1ADE PUSH1 0x4 CALLDATALOAD PUSH2 0x2697 JUMP JUMPDEST PUSH1 0x40 MLOAD PUSH1 0x1 PUSH1 0x1 PUSH1 0xA0 SHL SUB SWAP1 SWAP2 AND DUP2 MSTORE RETURN JUMPDEST CALLVALUE PUSH2 0x23E JUMPI PUSH1 0x0 CALLDATASIZE PUSH1 0x3 NOT ADD SLT PUSH2 0x23E JUMPI CALLER PUSH1 0x0 MSTORE PUSH1 0x20 PUSH1 0x12 DUP2 MSTORE PUSH1 0x40 PUSH1 0x0 KECCAK256 PUSH1 0x40 MLOAD DUP1 DUP3 DUP5 DUP3 SWAP5 SLOAD SWAP4 DUP5 DUP2 MSTORE ADD SWAP1 PUSH1 0x0 MSTORE DUP5 PUSH1 0x0 KECCAK256 SWAP3 PUSH1 0x0 JUMPDEST DUP7 DUP3 DUP3 LT PUSH2 0x1BDE JUMPI DUP5 PUSH2 0x1B3F DUP2 DUP7 SUB DUP3 PUSH2 0x2324 JUMP JUMPDEST PUSH2 0x1B49 DUP2 MLOAD PUSH2 0x2511 JUMP JUMPDEST SWAP2 PUSH1 0x0 JUMPDEST DUP3 MLOAD DUP2 LT ISZERO PUSH2 0x1BD0 JUMPI DUP1 PUSH2 0x1B63 PUSH1 0x1 SWAP3 DUP6 PUSH2 0x25D5 JUMP JUMPDEST MLOAD PUSH1 0x0 MSTORE PUSH1 0xC DUP4 MSTORE PUSH1 0x40 PUSH1 0x0 KECCAK256 PUSH1 0xFF PUSH1 0x4 PUSH1 0x40 MLOAD SWAP3 PUSH2 0x1B81 DUP5 PUSH2 0x22D0 JUMP JUMPDEST DUP1 SLOAD DUP5 MSTORE DUP6 DUP1 PUSH1 0xA0 SHL SUB DUP1 DUP8 DUP4 ADD SLOAD AND DUP9 DUP7 ADD MSTORE PUSH1 0x2 DUP3 ADD SLOAD AND PUSH1 0x40 DUP6 ADD MSTORE PUSH1 0x3 DUP2 ADD SLOAD PUSH1 0x60 DUP6 ADD MSTORE ADD SLOAD AND ISZERO ISZERO PUSH1 0x80 DUP3 ADD MSTORE PUSH2 0x1BBE DUP3 DUP8 PUSH2 0x25D5 JUMP JUMPDEST MSTORE PUSH2 0x1BC9 DUP2 DUP7 PUSH2 0x25D5 JUMP JUMPDEST POP ADD PUSH2 0x1B4D JUMP JUMPDEST PUSH1 0x40 MLOAD DUP1 PUSH2 0x980 DUP7 DUP3 PUSH2 0x2224 JUMP JUMPDEST DUP6 SLOAD DUP5 MSTORE PUSH1 0x1 SWAP6 DUP7 ADD SWAP6 DUP8 SWAP6 POP SWAP4 ADD SWAP3 ADD PUSH2 0x1B2A JUMP JUMPDEST CALLVALUE PUSH2 0x23E JUMPI PUSH2 0xF18 PUSH2 0x1C05 CALLDATASIZE PUSH2 0x229B JUMP JUMPDEST SWAP1 PUSH1 0x40 MLOAD SWAP3 PUSH2 0x1C13 DUP5 PUSH2 0x2308 JUMP JUMPDEST PUSH1 0x0 DUP5 MSTORE PUSH2 0x2744 JUMP JUMPDEST CALLVALUE PUSH2 0x23E JUMPI PUSH2 0xF18 PUSH2 0x1C2D CALLDATASIZE PUSH2 0x229B JUMP JUMPDEST SWAP2 PUSH2 0x1C40 PUSH2 0x1C3B DUP5 CALLER PUSH2 0x27E1 JUMP JUMPDEST PUSH2 0x25E9 JUMP JUMPDEST PUSH2 0x28A9 JUMP JUMPDEST CALLVALUE PUSH2 0x23E JUMPI PUSH1 0x20 CALLDATASIZE PUSH1 0x3 NOT ADD SLT PUSH2 0x23E JUMPI PUSH1 0x4 CALLDATALOAD PUSH1 0x0 DUP2 DUP2 MSTORE PUSH1 0x2 PUSH1 0x20 MSTORE PUSH1 0x40 SWAP1 KECCAK256 SLOAD PUSH2 0x1C7C SWAP1 PUSH1 0x1 PUSH1 0x1 PUSH1 0xA0 SHL SUB AND ISZERO ISZERO PUSH2 0x2399 JUMP JUMPDEST PUSH1 0x0 MSTORE PUSH1 0xD PUSH1 0x20 MSTORE PUSH1 0x20 PUSH1 0x40 PUSH1 0x0 KECCAK256 SLOAD PUSH1 0x40 MLOAD SWAP1 DUP2 MSTORE RETURN JUMPDEST CALLVALUE PUSH2 0x23E JUMPI PUSH1 0x0 CALLDATASIZE PUSH1 0x3 NOT ADD SLT PUSH2 0x23E JUMPI CALLER PUSH1 0x0 MSTORE PUSH1 0x20 PUSH1 0x11 DUP2 MSTORE PUSH1 0x40 PUSH1 0x0 KECCAK256 PUSH1 0x40 MLOAD DUP1 DUP3 DUP5 DUP3 SWAP5 SLOAD SWAP4 DUP5 DUP2 MSTORE ADD SWAP1 PUSH1 0x0 MSTORE DUP5 PUSH1 0x0 KECCAK256 SWAP3 PUSH1 0x0 JUMPDEST DUP7 DUP3 DUP3 LT PUSH2 0x1D74 JUMPI DUP5 PUSH2 0x1CE3 DUP2 DUP7 SUB DUP3 PUSH2 0x2324 JUMP JUMPDEST PUSH2 0x1CED DUP2 MLOAD PUSH2 0x2511 JUMP JUMPDEST SWAP2 PUSH1 0x0 JUMPDEST DUP3 MLOAD DUP2 LT ISZERO PUSH2 0x1BD0 JUMPI DUP1 PUSH2 0x1D07 PUSH1 0x1 SWAP3 DUP6 PUSH2 0x25D5 JUMP JUMPDEST MLOAD PUSH1 0x0 MSTORE PUSH1 0xC DUP4 MSTORE PUSH1 0x40 PUSH1 0x0 KECCAK256 PUSH1 0xFF PUSH1 0x4 PUSH1 0x40 MLOAD SWAP3 PUSH2 0x1D25 DUP5 PUSH2 0x22D0 JUMP JUMPDEST DUP1 SLOAD DUP5 MSTORE DUP6 DUP1 PUSH1 0xA0 SHL SUB DUP1 DUP8 DUP4 ADD SLOAD AND DUP9 DUP7 ADD MSTORE PUSH1 0x2 DUP3 ADD SLOAD AND PUSH1 0x40 DUP6 ADD MSTORE PUSH1 0x3 DUP2 ADD SLOAD PUSH1 0x60 DUP6 ADD MSTORE ADD SLOAD AND ISZERO ISZERO PUSH1 0x80 DUP3 ADD MSTORE PUSH2 0x1D62 DUP3 DUP8 PUSH2 0x25D5 JUMP JUMPDEST MSTORE PUSH2 0x1D6D DUP2 DUP7 PUSH2 0x25D5 JUMP JUMPDEST POP ADD PUSH2 0x1CF1 JUMP JUMPDEST DUP6 SLOAD DUP5 MSTORE PUSH1 0x1 SWAP6 DUP7 ADD SWAP6 DUP8 SWAP6 POP SWAP4 ADD SWAP3 ADD PUSH2 0x1CCE JUMP JUMPDEST CALLVALUE PUSH2 0x23E JUMPI PUSH1 0x0 CALLDATASIZE PUSH1 0x3 NOT ADD SLT PUSH2 0x23E JUMPI PUSH1 0x20 PUSH1 0xA SLOAD PUSH1 0x40 MLOAD SWAP1 DUP2 MSTORE RETURN JUMPDEST CALLVALUE PUSH2 0x23E JUMPI PUSH1 0x20 CALLDATASIZE PUSH1 0x3 NOT ADD SLT PUSH2 0x23E JUMPI PUSH1 0x4 CALLDATALOAD PUSH1 0x0 DUP2 DUP2 MSTORE PUSH1 0x2 PUSH1 0x20 MSTORE PUSH1 0x40 SWAP1 KECCAK256 SLOAD PUSH2 0x1DDF SWAP1 PUSH1 0x1 PUSH1 0x1 PUSH1 0xA0 SHL SUB AND ISZERO ISZERO PUSH2 0x2399 JUMP JUMPDEST PUSH1 0x0 MSTORE PUSH1 0xF PUSH1 0x20 MSTORE PUSH1 0x20 PUSH1 0x40 PUSH1 0x0 KECCAK256 SLOAD PUSH1 0x40 MLOAD SWAP1 DUP2 MSTORE RETURN JUMPDEST CALLVALUE PUSH2 0x23E JUMPI PUSH1 0x0 CALLDATASIZE PUSH1 0x3 NOT ADD SLT PUSH2 0x23E JUMPI PUSH1 0x10 SLOAD PUSH2 0x1E14 DUP2 PUSH2 0x2511 JUMP JUMPDEST SWAP1 PUSH1 0x0 JUMPDEST DUP2 DUP2 LT PUSH2 0x1E2D JUMPI PUSH1 0x40 MLOAD DUP1 PUSH2 0x980 DUP6 DUP3 PUSH2 0x2224 JUMP JUMPDEST DUP1 PUSH2 0x1E39 PUSH1 0x1 SWAP3 PUSH2 0x2586 JUMP JUMPDEST SWAP1 SLOAD PUSH1 0x3 SWAP2 DUP3 SHL SHR PUSH1 0x0 MSTORE PUSH1 0xFF PUSH1 0x4 PUSH1 0x20 SWAP3 PUSH1 0xC DUP5 MSTORE PUSH1 0x40 PUSH1 0x0 KECCAK256 SWAP1 PUSH1 0x40 MLOAD SWAP5 PUSH2 0x1E62 DUP7 PUSH2 0x22D0 JUMP JUMPDEST DUP3 SLOAD DUP7 MSTORE DUP8 DUP1 PUSH1 0xA0 SHL SUB SWAP1 DUP2 DUP10 DUP6 ADD SLOAD AND SWAP1 DUP8 ADD MSTORE PUSH1 0x2 DUP4 ADD SLOAD AND PUSH1 0x40 DUP7 ADD MSTORE DUP2 ADD SLOAD PUSH1 0x60 DUP6 ADD MSTORE ADD SLOAD AND ISZERO ISZERO PUSH1 0x80 DUP3 ADD MSTORE PUSH2 0x1E9E DUP3 DUP7 PUSH2 0x25D5 JUMP JUMPDEST MSTORE PUSH2 0x1EA9 DUP2 DUP6 PUSH2 0x25D5 JUMP JUMPDEST POP ADD PUSH2 0x1E18 JUMP JUMPDEST CALLVALUE PUSH2 0x23E JUMPI PUSH1 0x40 CALLDATASIZE PUSH1 0x3 NOT ADD SLT PUSH2 0x23E JUMPI PUSH2 0x1EC9 PUSH2 0x21F8 JUMP JUMPDEST PUSH1 0x24 CALLDATALOAD SWAP1 PUSH1 0x1 PUSH1 0x1 PUSH1 0xA0 SHL SUB DUP1 DUP1 PUSH2 0x1EE0 DUP6 PUSH2 0x2697 JUMP JUMPDEST AND SWAP3 AND SWAP2 DUP1 DUP4 EQ PUSH2 0x1FDB JUMPI DUP1 CALLER EQ SWAP1 DUP2 ISZERO PUSH2 0x1FB6 JUMPI JUMPDEST POP ISZERO PUSH2 0x1F4B JUMPI PUSH1 0x0 DUP4 DUP2 MSTORE PUSH1 0x4 PUSH1 0x20 MSTORE PUSH1 0x40 SWAP1 KECCAK256 DUP1 SLOAD PUSH1 0x1 PUSH1 0x1 PUSH1 0xA0 SHL SUB NOT AND DUP4 OR SWAP1 SSTORE PUSH2 0x1F23 DUP4 PUSH2 0x2697 JUMP JUMPDEST AND PUSH32 0x8C5BE1E5EBEC7D5BD14F71427D1E84F3DD0314C0F7B2291E5B200AC8C7C3B925 PUSH1 0x0 DUP1 LOG4 STOP JUMPDEST PUSH1 0x40 MLOAD PUSH3 0x461BCD PUSH1 0xE5 SHL DUP2 MSTORE PUSH1 0x20 PUSH1 0x4 DUP3 ADD MSTORE PUSH1 0x3D PUSH1 0x24 DUP3 ADD MSTORE PUSH32 0x4552433732313A20617070726F76652063616C6C6572206973206E6F7420746F PUSH1 0x44 DUP3 ADD MSTORE PUSH32 0x6B656E206F776E6572206F7220617070726F76656420666F7220616C6C000000 PUSH1 0x64 DUP3 ADD MSTORE PUSH1 0x84 SWAP1 REVERT JUMPDEST SWAP1 POP PUSH1 0x0 MSTORE PUSH1 0x5 PUSH1 0x20 MSTORE PUSH1 0x40 PUSH1 0x0 KECCAK256 CALLER PUSH1 0x0 MSTORE PUSH1 0x20 MSTORE PUSH1 0xFF PUSH1 0x40 PUSH1 0x0 KECCAK256 SLOAD AND DUP5 PUSH2 0x1EF6 JUMP JUMPDEST PUSH1 0x40 MLOAD PUSH3 0x461BCD PUSH1 0xE5 SHL DUP2 MSTORE PUSH1 0x20 PUSH1 0x4 DUP3 ADD MSTORE PUSH1 0x21 PUSH1 0x24 DUP3 ADD MSTORE PUSH32 0x4552433732313A20617070726F76616C20746F2063757272656E74206F776E65 PUSH1 0x44 DUP3 ADD MSTORE PUSH1 0x39 PUSH1 0xF9 SHL PUSH1 0x64 DUP3 ADD MSTORE PUSH1 0x84 SWAP1 REVERT JUMPDEST CALLVALUE PUSH2 0x23E JUMPI PUSH1 0x20 CALLDATASIZE PUSH1 0x3 NOT ADD SLT PUSH2 0x23E JUMPI PUSH1 0x20 PUSH2 0x1ADE PUSH1 0x4 CALLDATALOAD PUSH2 0x24BB JUMP JUMPDEST CALLVALUE PUSH2 0x23E JUMPI PUSH1 0x0 CALLDATASIZE PUSH1 0x3 NOT ADD SLT PUSH2 0x23E JUMPI PUSH1 0x40 MLOAD PUSH1 0x0 DUP1 SLOAD SWAP1 DUP3 PUSH2 0x206B DUP4 PUSH2 0x23DC JUMP JUMPDEST SWAP2 DUP3 DUP3 MSTORE PUSH1 0x20 SWAP4 PUSH1 0x1 SWAP1 DUP6 PUSH1 0x1 DUP3 AND SWAP2 DUP3 PUSH1 0x0 EQ PUSH2 0x11AF JUMPI POP POP PUSH1 0x1 EQ PUSH2 0x2099 JUMPI POP PUSH2 0x113E SWAP3 POP SUB DUP4 PUSH2 0x2324 JUMP JUMPDEST PUSH1 0x0 DUP1 DUP1 MSTORE DUP6 SWAP3 POP SWAP1 PUSH32 0x290DECD9548B62A8D60345A988386FC84BA6BC95484008F6362F93160EF3E563 JUMPDEST DUP6 DUP4 LT PUSH2 0x20DB JUMPI POP POP PUSH2 0x113E SWAP4 POP DUP3 ADD ADD DUP6 PUSH2 0x1131 JUMP JUMPDEST DUP1 SLOAD DUP4 DUP10 ADD DUP6 ADD MSTORE DUP8 SWAP5 POP DUP7 SWAP4 SWAP1 SWAP3 ADD SWAP2 DUP2 ADD PUSH2 0x20C4 JUMP JUMPDEST CALLVALUE PUSH2 0x23E JUMPI PUSH1 0x20 CALLDATASIZE PUSH1 0x3 NOT ADD SLT PUSH2 0x23E JUMPI PUSH1 0x20 PUSH2 0x1ADE PUSH1 0x4 CALLDATALOAD PUSH2 0x212E PUSH2 0x196 DUP3 PUSH1 0x0 MSTORE PUSH1 0x2 PUSH1 0x20 MSTORE PUSH1 0x1 DUP1 PUSH1 0xA0 SHL SUB PUSH1 0x40 PUSH1 0x0 KECCAK256 SLOAD AND ISZERO ISZERO SWAP1 JUMP JUMPDEST PUSH2 0x2697 JUMP JUMPDEST CALLVALUE PUSH2 0x23E JUMPI PUSH1 0x20 CALLDATASIZE PUSH1 0x3 NOT ADD SLT PUSH2 0x23E JUMPI PUSH1 0x4 CALLDATALOAD SWAP1 PUSH4 0xFFFFFFFF PUSH1 0xE0 SHL DUP3 AND DUP1 SWAP3 SUB PUSH2 0x23E JUMPI PUSH1 0x20 SWAP2 PUSH4 0x24832483 PUSH1 0xE1 SHL DUP2 EQ SWAP1 DUP2 ISZERO PUSH2 0x2175 JUMPI JUMPDEST POP ISZERO ISZERO DUP2 MSTORE RETURN JUMPDEST PUSH4 0x80AC58CD PUSH1 0xE0 SHL DUP2 EQ SWAP2 POP DUP2 ISZERO PUSH2 0x21A7 JUMPI JUMPDEST DUP2 ISZERO PUSH2 0x2196 JUMPI JUMPDEST POP DUP4 PUSH2 0x216E JUMP JUMPDEST PUSH4 0x1FFC9A7 PUSH1 0xE0 SHL EQ SWAP1 POP DUP4 PUSH2 0x218F JUMP JUMPDEST PUSH4 0x5B5E139F PUSH1 0xE0 SHL DUP2 EQ SWAP2 POP PUSH2 0x2188 JUMP JUMPDEST SWAP2 SWAP1 DUP3 MLOAD SWAP3 DUP4 DUP3 MSTORE PUSH1 0x0 JUMPDEST DUP5 DUP2 LT PUSH2 0x21E4 JUMPI POP POP DUP3 PUSH1 0x0 PUSH1 0x20 DUP1 SWAP5 SWAP6 DUP5 ADD ADD MSTORE PUSH1 0x1F DUP1 NOT SWAP2 ADD AND ADD ADD SWAP1 JUMP JUMPDEST PUSH1 0x20 DUP2 DUP4 ADD DUP2 ADD MLOAD DUP5 DUP4 ADD DUP3 ADD MSTORE ADD PUSH2 0x21C3 JUMP JUMPDEST PUSH1 0x4 CALLDATALOAD SWAP1 PUSH1 0x1 PUSH1 0x1 PUSH1 0xA0 SHL SUB DUP3 AND DUP3 SUB PUSH2 0x23E JUMPI JUMP JUMPDEST PUSH1 0x24 CALLDATALOAD SWAP1 PUSH1 0x1 PUSH1 0x1 PUSH1 0xA0 SHL SUB DUP3 AND DUP3 SUB PUSH2 0x23E JUMPI JUMP JUMPDEST PUSH1 0x20 DUP1 DUP3 ADD SWAP1 DUP1 DUP4 MSTORE DUP4 MLOAD DUP1 SWAP3 MSTORE DUP1 PUSH1 0x40 DUP1 SWAP5 ADD SWAP5 ADD SWAP3 PUSH1 0x0 SWAP1 JUMPDEST DUP4 DUP3 LT PUSH2 0x224E JUMPI POP POP POP POP POP SWAP1 JUMP JUMPDEST DUP5 MLOAD DUP1 MLOAD DUP8 MSTORE DUP1 DUP5 ADD MLOAD PUSH1 0x1 PUSH1 0x1 PUSH1 0xA0 SHL SUB SWAP1 DUP2 AND DUP9 DUP7 ADD MSTORE DUP2 DUP4 ADD MLOAD AND DUP8 DUP4 ADD MSTORE PUSH1 0x60 DUP1 DUP3 ADD MLOAD SWAP1 DUP9 ADD MSTORE PUSH1 0x80 SWAP1 DUP2 ADD MLOAD ISZERO ISZERO SWAP1 DUP8 ADD MSTORE PUSH1 0xA0 SWAP1 SWAP6 ADD SWAP5 SWAP4 DUP3 ADD SWAP4 PUSH1 0x1 SWAP1 SWAP2 ADD SWAP1 PUSH2 0x223F JUMP JUMPDEST PUSH1 0x60 SWAP1 PUSH1 0x3 NOT ADD SLT PUSH2 0x23E JUMPI PUSH1 0x1 PUSH1 0x1 PUSH1 0xA0 SHL SUB SWAP1 PUSH1 0x4 CALLDATALOAD DUP3 DUP2 AND DUP2 SUB PUSH2 0x23E JUMPI SWAP2 PUSH1 0x24 CALLDATALOAD SWAP1 DUP2 AND DUP2 SUB PUSH2 0x23E JUMPI SWAP1 PUSH1 0x44 CALLDATALOAD SWAP1 JUMP JUMPDEST PUSH1 0xA0 DUP2 ADD SWAP1 DUP2 LT PUSH8 0xFFFFFFFFFFFFFFFF DUP3 GT OR PUSH2 0xD0F JUMPI PUSH1 0x40 MSTORE JUMP JUMPDEST PUSH1 0x80 DUP2 ADD SWAP1 DUP2 LT PUSH8 0xFFFFFFFFFFFFFFFF DUP3 GT OR PUSH2 0xD0F JUMPI PUSH1 0x40 MSTORE JUMP JUMPDEST PUSH1 0x20 DUP2 ADD SWAP1 DUP2 LT PUSH8 0xFFFFFFFFFFFFFFFF DUP3 GT OR PUSH2 0xD0F JUMPI PUSH1 0x40 MSTORE JUMP JUMPDEST SWAP1 PUSH1 0x1F DUP1 NOT SWAP2 ADD AND DUP2 ADD SWAP1 DUP2 LT PUSH8 0xFFFFFFFFFFFFFFFF DUP3 GT OR PUSH2 0xD0F JUMPI PUSH1 0x40 MSTORE JUMP JUMPDEST PUSH8 0xFFFFFFFFFFFFFFFF DUP2 GT PUSH2 0xD0F JUMPI PUSH1 0x1F ADD PUSH1 0x1F NOT AND PUSH1 0x20 ADD SWAP1 JUMP JUMPDEST SWAP3 SWAP2 SWAP3 PUSH2 0x236E DUP3 PUSH2 0x2346 JUMP JUMPDEST SWAP2 PUSH2 0x237C PUSH1 0x40 MLOAD SWAP4 DUP5 PUSH2 0x2324 JUMP JUMPDEST DUP3 SWAP5 DUP2 DUP5 MSTORE DUP2 DUP4 ADD GT PUSH2 0x23E JUMPI DUP3 DUP2 PUSH1 0x20 SWAP4 DUP5 PUSH1 0x0 SWAP7 ADD CALLDATACOPY ADD ADD MSTORE JUMP JUMPDEST ISZERO PUSH2 0x23A0 JUMPI JUMP JUMPDEST PUSH1 0x40 MLOAD PUSH3 0x461BCD PUSH1 0xE5 SHL DUP2 MSTORE PUSH1 0x20 PUSH1 0x4 DUP3 ADD MSTORE PUSH1 0x14 PUSH1 0x24 DUP3 ADD MSTORE PUSH20 0x151BDAD95B88191BD95CC81B9BDD08195E1A5CDD PUSH1 0x62 SHL PUSH1 0x44 DUP3 ADD MSTORE PUSH1 0x64 SWAP1 REVERT JUMPDEST SWAP1 PUSH1 0x1 DUP3 DUP2 SHR SWAP3 AND DUP1 ISZERO PUSH2 0x240C JUMPI JUMPDEST PUSH1 0x20 DUP4 LT EQ PUSH2 0x23F6 JUMPI JUMP JUMPDEST PUSH4 0x4E487B71 PUSH1 0xE0 SHL PUSH1 0x0 MSTORE PUSH1 0x22 PUSH1 0x4 MSTORE PUSH1 0x24 PUSH1 0x0 REVERT JUMPDEST SWAP2 PUSH1 0x7F AND SWAP2 PUSH2 0x23EB JUMP JUMPDEST SWAP1 PUSH1 0x40 MLOAD SWAP2 DUP3 PUSH1 0x0 DUP3 SLOAD PUSH2 0x2429 DUP2 PUSH2 0x23DC JUMP JUMPDEST SWAP1 DUP2 DUP5 MSTORE PUSH1 0x20 SWAP5 PUSH1 0x1 SWAP2 PUSH1 0x1 DUP2 AND SWAP1 DUP2 PUSH1 0x0 EQ PUSH2 0x2499 JUMPI POP PUSH1 0x1 EQ PUSH2 0x245A JUMPI JUMPDEST POP POP POP PUSH2 0x2458 SWAP3 POP SUB DUP4 PUSH2 0x2324 JUMP JUMPDEST JUMP JUMPDEST PUSH1 0x0 SWAP1 DUP2 MSTORE DUP6 DUP2 KECCAK256 SWAP6 SWAP4 POP SWAP2 SWAP1 JUMPDEST DUP2 DUP4 LT PUSH2 0x2481 JUMPI POP POP PUSH2 0x2458 SWAP4 POP DUP3 ADD ADD CODESIZE DUP1 DUP1 PUSH2 0x2449 JUMP JUMPDEST DUP6 SLOAD DUP9 DUP5 ADD DUP6 ADD MSTORE SWAP5 DUP6 ADD SWAP5 DUP8 SWAP5 POP SWAP2 DUP4 ADD SWAP2 PUSH2 0x2468 JUMP JUMPDEST SWAP3 POP POP POP PUSH2 0x2458 SWAP5 SWAP3 POP PUSH1 0xFF NOT AND DUP3 DUP5 ADD MSTORE ISZERO ISZERO PUSH1 0x5 SHL DUP3 ADD ADD CODESIZE DUP1 DUP1 PUSH2 0x2449 JUMP JUMPDEST PUSH1 0x0 DUP2 DUP2 MSTORE PUSH1 0x2 PUSH1 0x20 MSTORE PUSH1 0x40 SWAP1 KECCAK256 SLOAD PUSH2 0x24DE SWAP1 PUSH1 0x1 PUSH1 0x1 PUSH1 0xA0 SHL SUB AND ISZERO ISZERO PUSH2 0x264B JUMP JUMPDEST PUSH1 0x0 SWAP1 DUP2 MSTORE PUSH1 0x4 PUSH1 0x20 MSTORE PUSH1 0x40 SWAP1 KECCAK256 SLOAD PUSH1 0x1 PUSH1 0x1 PUSH1 0xA0 SHL SUB AND SWAP1 JUMP JUMPDEST PUSH8 0xFFFFFFFFFFFFFFFF DUP2 GT PUSH2 0xD0F JUMPI PUSH1 0x5 SHL PUSH1 0x20 ADD SWAP1 JUMP JUMPDEST SWAP1 PUSH2 0x251B DUP3 PUSH2 0x24F9 JUMP JUMPDEST PUSH1 0x40 SWAP1 PUSH2 0x252B PUSH1 0x40 MLOAD SWAP2 DUP3 PUSH2 0x2324 JUMP JUMPDEST DUP4 DUP2 MSTORE DUP1 SWAP4 PUSH2 0x253C PUSH1 0x1F NOT SWAP2 PUSH2 0x24F9 JUMP JUMPDEST ADD SWAP2 PUSH1 0x0 JUMPDEST DUP4 DUP2 LT PUSH2 0x254E JUMPI POP POP POP POP JUMP JUMPDEST PUSH1 0x20 SWAP1 DUP3 MLOAD PUSH2 0x255C DUP2 PUSH2 0x22D0 JUMP JUMPDEST PUSH1 0x0 DUP2 MSTORE DUP3 PUSH1 0x0 DUP2 DUP4 ADD MSTORE PUSH1 0x0 DUP6 DUP4 ADD MSTORE PUSH1 0x0 PUSH1 0x60 DUP4 ADD MSTORE PUSH1 0x0 PUSH1 0x80 DUP4 ADD MSTORE DUP3 DUP7 ADD ADD MSTORE ADD PUSH2 0x2541 JUMP JUMPDEST PUSH1 0x10 SLOAD DUP2 LT ISZERO PUSH2 0xCF9 JUMPI PUSH1 0x10 PUSH1 0x0 MSTORE PUSH32 0x1B6847DC741A1B0CD08D278845F9D819D87B734759AFB55FE2DE5CB82A9AE672 ADD SWAP1 PUSH1 0x0 SWAP1 JUMP JUMPDEST DUP1 SLOAD DUP3 LT ISZERO PUSH2 0xCF9 JUMPI PUSH1 0x0 MSTORE PUSH1 0x20 PUSH1 0x0 KECCAK256 ADD SWAP1 PUSH1 0x0 SWAP1 JUMP JUMPDEST DUP1 MLOAD DUP3 LT ISZERO PUSH2 0xCF9 JUMPI PUSH1 0x20 SWAP2 PUSH1 0x5 SHL ADD ADD SWAP1 JUMP JUMPDEST ISZERO PUSH2 0x25F0 JUMPI JUMP JUMPDEST PUSH1 0x40 MLOAD PUSH3 0x461BCD PUSH1 0xE5 SHL DUP2 MSTORE PUSH1 0x20 PUSH1 0x4 DUP3 ADD MSTORE PUSH1 0x2D PUSH1 0x24 DUP3 ADD MSTORE PUSH32 0x4552433732313A2063616C6C6572206973206E6F7420746F6B656E206F776E65 PUSH1 0x44 DUP3 ADD MSTORE PUSH13 0x1C881BDC88185C1C1C9BDD9959 PUSH1 0x9A SHL PUSH1 0x64 DUP3 ADD MSTORE PUSH1 0x84 SWAP1 REVERT JUMPDEST ISZERO PUSH2 0x2652 JUMPI JUMP JUMPDEST PUSH1 0x40 MLOAD PUSH3 0x461BCD PUSH1 0xE5 SHL DUP2 MSTORE PUSH1 0x20 PUSH1 0x4 DUP3 ADD MSTORE PUSH1 0x18 PUSH1 0x24 DUP3 ADD MSTORE PUSH32 0x4552433732313A20696E76616C696420746F6B656E2049440000000000000000 PUSH1 0x44 DUP3 ADD MSTORE PUSH1 0x64 SWAP1 REVERT JUMPDEST PUSH1 0x0 SWAP1 DUP2 MSTORE PUSH1 0x2 PUSH1 0x20 MSTORE PUSH1 0x40 SWAP1 KECCAK256 SLOAD PUSH1 0x1 PUSH1 0x1 PUSH1 0xA0 SHL SUB AND PUSH2 0x26BA DUP2 ISZERO ISZERO PUSH2 0x264B JUMP JUMPDEST SWAP1 JUMP JUMPDEST ISZERO PUSH2 0x26C4 JUMPI JUMP JUMPDEST PUSH1 0x40 MLOAD PUSH3 0x461BCD PUSH1 0xE5 SHL DUP2 MSTORE PUSH1 0x20 PUSH1 0x4 DUP3 ADD MSTORE PUSH1 0x1C PUSH1 0x24 DUP3 ADD MSTORE PUSH32 0x5072696365206D7573742062652067726561746572207468616E203000000000 PUSH1 0x44 DUP3 ADD MSTORE PUSH1 0x64 SWAP1 REVERT JUMPDEST DUP1 SLOAD PUSH1 0x1 PUSH1 0x40 SHL DUP2 LT ISZERO PUSH2 0xD0F JUMPI PUSH2 0x2726 SWAP2 PUSH1 0x1 DUP3 ADD DUP2 SSTORE PUSH2 0x25BD JUMP JUMPDEST PUSH1 0x1 DUP1 PUSH1 0xA0 SWAP5 SWAP4 SWAP5 SHL SUB DUP1 DUP5 SLOAD SWAP3 PUSH1 0x3 SHL SWAP4 AND DUP4 SHL SWAP3 SHL NOT AND OR SWAP1 SSTORE JUMP JUMPDEST SWAP1 PUSH2 0x2768 SWAP4 SWAP3 SWAP2 PUSH2 0x2758 PUSH2 0x1C3B DUP5 CALLER PUSH2 0x27E1 JUMP JUMPDEST PUSH2 0x2763 DUP4 DUP4 DUP4 PUSH2 0x28A9 JUMP JUMPDEST PUSH2 0x2B6B JUMP JUMPDEST ISZERO PUSH2 0x276F JUMPI JUMP JUMPDEST PUSH1 0x40 MLOAD PUSH3 0x461BCD PUSH1 0xE5 SHL DUP2 MSTORE DUP1 PUSH2 0x2788 PUSH1 0x4 DUP3 ADD PUSH2 0x2A5C JUMP JUMPDEST SUB SWAP1 REVERT JUMPDEST PUSH1 0x10 SLOAD SWAP1 PUSH1 0x1 PUSH1 0x40 SHL DUP3 LT ISZERO PUSH2 0xD0F JUMPI PUSH2 0xA9B DUP3 PUSH1 0x1 PUSH2 0x2458 SWAP5 ADD PUSH1 0x10 SSTORE PUSH2 0x2586 JUMP JUMPDEST SWAP1 DUP2 SLOAD SWAP2 PUSH1 0x1 PUSH1 0x40 SHL DUP4 LT ISZERO PUSH2 0xD0F JUMPI DUP3 PUSH2 0xA9B SWAP2 PUSH1 0x1 PUSH2 0x2458 SWAP6 ADD DUP2 SSTORE PUSH2 0x25BD JUMP JUMPDEST PUSH1 0x0 NOT DUP2 EQ PUSH2 0xD25 JUMPI PUSH1 0x1 ADD SWAP1 JUMP JUMPDEST SWAP1 PUSH1 0x1 PUSH1 0x1 PUSH1 0xA0 SHL SUB DUP1 DUP1 PUSH2 0x27F5 DUP5 PUSH2 0x2697 JUMP JUMPDEST AND SWAP4 AND SWAP2 DUP4 DUP4 EQ SWAP4 DUP5 ISZERO PUSH2 0x2828 JUMPI JUMPDEST POP DUP4 ISZERO PUSH2 0x2812 JUMPI JUMPDEST POP POP POP SWAP1 JUMP JUMPDEST PUSH2 0x281E SWAP2 SWAP3 SWAP4 POP PUSH2 0x24BB JUMP JUMPDEST AND EQ CODESIZE DUP1 DUP1 PUSH2 0x280C JUMP JUMPDEST SWAP1 SWAP4 POP PUSH1 0x0 MSTORE PUSH1 0x5 PUSH1 0x20 MSTORE PUSH1 0x40 PUSH1 0x0 KECCAK256 DUP3 PUSH1 0x0 MSTORE PUSH1 0x20 MSTORE PUSH1 0xFF PUSH1 0x40 PUSH1 0x0 KECCAK256 SLOAD AND SWAP3 CODESIZE PUSH2 0x2804 JUMP JUMPDEST ISZERO PUSH2 0x2856 JUMPI JUMP JUMPDEST PUSH1 0x40 MLOAD PUSH3 0x461BCD PUSH1 0xE5 SHL DUP2 MSTORE PUSH1 0x20 PUSH1 0x4 DUP3 ADD MSTORE PUSH1 0x25 PUSH1 0x24 DUP3 ADD MSTORE PUSH32 0x4552433732313A207472616E736665722066726F6D20696E636F727265637420 PUSH1 0x44 DUP3 ADD MSTORE PUSH5 0x37BBB732B9 PUSH1 0xD9 SHL PUSH1 0x64 DUP3 ADD MSTORE PUSH1 0x84 SWAP1 REVERT JUMPDEST SWAP1 PUSH2 0x28D1 SWAP2 PUSH2 0x28B7 DUP5 PUSH2 0x2697 JUMP JUMPDEST PUSH1 0x1 PUSH1 0x1 PUSH1 0xA0 SHL SUB SWAP4 SWAP2 DUP5 AND SWAP3 DUP5 SWAP3 SWAP1 SWAP2 DUP4 AND DUP5 EQ PUSH2 0x284F JUMP JUMPDEST AND SWAP2 DUP3 ISZERO PUSH2 0x2969 JUMPI DUP2 PUSH2 0x28EE SWAP2 PUSH2 0x28E7 DUP7 PUSH2 0x2697 JUMP JUMPDEST AND EQ PUSH2 0x284F JUMP JUMPDEST PUSH32 0xDDF252AD1BE2C89B69C2B068FC378DAA952BA7F163C4A11628F55A4DF523B3EF PUSH1 0x0 DUP5 DUP2 MSTORE PUSH1 0x4 PUSH1 0x20 MSTORE PUSH1 0x40 DUP2 KECCAK256 PUSH1 0x1 PUSH1 0x1 PUSH1 0x60 SHL SUB PUSH1 0xA0 SHL SWAP1 DUP2 DUP2 SLOAD AND SWAP1 SSTORE DUP4 DUP3 MSTORE PUSH1 0x3 PUSH1 0x20 MSTORE PUSH1 0x40 DUP3 KECCAK256 PUSH1 0x0 NOT DUP2 SLOAD ADD SWAP1 SSTORE DUP5 DUP3 MSTORE PUSH1 0x40 DUP3 KECCAK256 PUSH1 0x1 DUP2 SLOAD ADD SWAP1 SSTORE DUP6 DUP3 MSTORE PUSH1 0x2 PUSH1 0x20 MSTORE DUP5 PUSH1 0x40 DUP4 KECCAK256 SWAP2 DUP3 SLOAD AND OR SWAP1 SSTORE DUP1 LOG4 JUMP JUMPDEST PUSH1 0x40 MLOAD PUSH3 0x461BCD PUSH1 0xE5 SHL DUP2 MSTORE PUSH1 0x20 PUSH1 0x4 DUP3 ADD MSTORE PUSH1 0x24 DUP1 DUP3 ADD MSTORE PUSH32 0x4552433732313A207472616E7366657220746F20746865207A65726F20616464 PUSH1 0x44 DUP3 ADD MSTORE PUSH4 0x72657373 PUSH1 0xE0 SHL PUSH1 0x64 DUP3 ADD MSTORE PUSH1 0x84 SWAP1 REVERT JUMPDEST PUSH1 0x2 PUSH1 0x7 SLOAD EQ PUSH2 0x29CB JUMPI PUSH1 0x2 PUSH1 0x7 SSTORE JUMP JUMPDEST PUSH1 0x40 MLOAD PUSH3 0x461BCD PUSH1 0xE5 SHL DUP2 MSTORE PUSH1 0x20 PUSH1 0x4 DUP3 ADD MSTORE PUSH1 0x1F PUSH1 0x24 DUP3 ADD MSTORE PUSH32 0x5265656E7472616E637947756172643A207265656E7472616E742063616C6C00 PUSH1 0x44 DUP3 ADD MSTORE PUSH1 0x64 SWAP1 REVERT JUMPDEST ISZERO PUSH2 0x2A17 JUMPI JUMP JUMPDEST PUSH1 0x40 MLOAD PUSH3 0x461BCD PUSH1 0xE5 SHL DUP2 MSTORE PUSH1 0x20 PUSH1 0x4 DUP3 ADD MSTORE PUSH1 0x1C PUSH1 0x24 DUP3 ADD MSTORE PUSH32 0x4552433732313A20746F6B656E20616C7265616479206D696E74656400000000 PUSH1 0x44 DUP3 ADD MSTORE PUSH1 0x64 SWAP1 REVERT JUMPDEST PUSH1 0x80 SWAP1 PUSH1 0x20 DUP2 MSTORE PUSH1 0x32 PUSH1 0x20 DUP3 ADD MSTORE PUSH32 0x4552433732313A207472616E7366657220746F206E6F6E204552433732315265 PUSH1 0x40 DUP3 ADD MSTORE PUSH18 0x31B2B4BB32B91034B6B83632B6B2B73A32B9 PUSH1 0x71 SHL PUSH1 0x60 DUP3 ADD MSTORE ADD SWAP1 JUMP JUMPDEST DUP1 SLOAD DUP1 ISZERO PUSH2 0xD44 JUMPI PUSH1 0x0 NOT ADD SWAP1 PUSH2 0x2AC9 PUSH2 0xACA DUP4 DUP4 PUSH2 0x25BD JUMP JUMPDEST SSTORE JUMP JUMPDEST PUSH1 0x1 PUSH1 0x1 PUSH1 0xA0 SHL SUB AND PUSH1 0x0 SWAP1 DUP2 MSTORE PUSH1 0x11 PUSH1 0x20 DUP2 SWAP1 MSTORE PUSH1 0x40 DUP3 KECCAK256 SWAP2 SWAP3 SWAP1 DUP4 JUMPDEST DUP4 SLOAD DUP1 DUP3 LT ISZERO PUSH2 0x2B63 JUMPI DUP4 SWAP1 PUSH2 0x2B00 DUP4 DUP8 PUSH2 0x25BD JUMP JUMPDEST SWAP3 SWAP1 SLOAD PUSH1 0x3 SWAP4 DUP5 SHL SHR EQ PUSH2 0x2B18 JUMPI POP POP PUSH1 0x1 ADD PUSH2 0x2AEA JUMP JUMPDEST SWAP5 SWAP6 SWAP2 SWAP5 SWAP1 SWAP4 POP PUSH1 0x0 NOT DUP2 ADD SWAP3 SWAP1 DUP4 GT PUSH2 0x2B50 JUMPI POP POP SWAP2 PUSH2 0xA9B PUSH2 0xB4D SWAP3 PUSH2 0x2B44 DUP7 SWAP6 PUSH2 0x2458 SWAP8 PUSH2 0x25BD JUMP JUMPDEST SWAP1 SLOAD SWAP2 SHL SHR SWAP2 DUP5 PUSH2 0x25BD JUMP JUMPDEST PUSH4 0x4E487B71 PUSH1 0xE0 SHL DUP3 MSTORE PUSH1 0x4 MSTORE PUSH1 0x24 SWAP2 POP REVERT JUMPDEST POP POP POP POP POP POP JUMP JUMPDEST SWAP3 SWAP4 SWAP2 SWAP3 SWAP1 DUP1 EXTCODESIZE ISZERO PUSH2 0x2C84 JUMPI PUSH2 0x2BBF SWAP5 PUSH1 0x1 DUP1 PUSH1 0xA0 SHL SUB SWAP5 PUSH1 0x40 MLOAD SWAP3 DUP4 SWAP2 DUP8 PUSH4 0xA85BD01 PUSH1 0xE1 SHL SWAP7 DUP8 DUP6 MSTORE CALLER PUSH1 0x4 DUP7 ADD MSTORE AND PUSH1 0x24 DUP5 ADD MSTORE PUSH1 0x44 DUP4 ADD MSTORE PUSH1 0x80 PUSH1 0x64 DUP4 ADD MSTORE DUP2 DUP1 PUSH1 0x20 SWAP10 DUP11 SWAP6 PUSH1 0x84 DUP4 ADD SWAP1 PUSH2 0x21B8 JUMP JUMPDEST SUB SWAP2 PUSH1 0x0 SWAP9 DUP10 SWAP2 AND GAS CALL DUP5 SWAP2 DUP2 PUSH2 0x2C40 JUMPI JUMPDEST POP PUSH2 0x2C2F JUMPI POP POP POP RETURNDATASIZE PUSH1 0x0 EQ PUSH2 0x2C27 JUMPI RETURNDATASIZE PUSH2 0x2BEB DUP2 PUSH2 0x2346 JUMP JUMPDEST SWAP1 PUSH2 0x2BF9 PUSH1 0x40 MLOAD SWAP3 DUP4 PUSH2 0x2324 JUMP JUMPDEST DUP2 MSTORE DUP1 SWAP2 DUP4 RETURNDATASIZE SWAP3 ADD RETURNDATACOPY JUMPDEST DUP1 MLOAD SWAP2 DUP3 PUSH2 0x2C24 JUMPI PUSH1 0x40 MLOAD PUSH3 0x461BCD PUSH1 0xE5 SHL DUP2 MSTORE DUP1 PUSH2 0x2788 PUSH1 0x4 DUP3 ADD PUSH2 0x2A5C JUMP JUMPDEST ADD REVERT JUMPDEST POP PUSH1 0x60 PUSH2 0x2C03 JUMP JUMPDEST PUSH1 0x1 PUSH1 0x1 PUSH1 0xE0 SHL SUB NOT AND EQ SWAP3 POP SWAP1 POP JUMP JUMPDEST SWAP1 SWAP2 POP DUP6 DUP2 DUP2 RETURNDATASIZE DUP4 GT PUSH2 0x2C7D JUMPI JUMPDEST PUSH2 0x2C58 DUP2 DUP4 PUSH2 0x2324 JUMP JUMPDEST DUP2 ADD SUB SLT PUSH2 0x2C79 JUMPI MLOAD PUSH1 0x1 PUSH1 0x1 PUSH1 0xE0 SHL SUB NOT DUP2 AND DUP2 SUB PUSH2 0x2C79 JUMPI SWAP1 CODESIZE PUSH2 0x2BD1 JUMP JUMPDEST DUP5 DUP1 REVERT JUMPDEST POP RETURNDATASIZE PUSH2 0x2C4E JUMP JUMPDEST POP POP SWAP2 POP POP PUSH1 0x1 SWAP1 JUMP INVALID LOG2 PUSH5 0x6970667358 0x22 SLT KECCAK256 DUP10 0xD8 CALL SDIV 0xC8 0xF6 SUB PUSH10 0x8EF33712D1A9BE906643 PUSH29 0x43F3F01EACF75D152B73A3129C64736F6C634300081800330000000000 "},"methodIdentifiers":{"approve(address,uint256)":"095ea7b3","balanceOf(address)":"70a08231","createMarketSale(uint256)":"be9af536","createToken(string,uint256)":"72b3b620","fetchItemsListed()":"45f8fa80","fetchMarketItems()":"0f08efe0","fetchMyNFTs()":"202e3740","getApproved(uint256)":"081812fc","getCurrentTokenOwner(uint256)":"06566f42","getListingPrice()":"12e85585","getTokenOwnerCount(uint256)":"121490a6","getTokenOwnershipHistory(uint256)":"edb6770f","getTokenProvenance(uint256)":"cb301f7f","getTokenTransactionCount(uint256)":"213cc530","getTokenTransactionHistory(uint256)":"cc55ae69","getTokensCreatedBy(address)":"ddc0f312","isApprovedForAll(address,address)":"e985e9c5","isOriginalToken(uint256)":"821af93c","name()":"06fdde03","ownerOf(uint256)":"6352211e","resellToken(uint256,uint256)":"e219fc75","safeTransferFrom(address,address,uint256)":"42842e0e","safeTransferFrom(address,address,uint256,bytes)":"b88d4fde","setApprovalForAll(address,bool)":"a22cb465","supportsInterface(bytes4)":"01ffc9a7","symbol()":"95d89b41","tokenURI(uint256)":"c87b56dd","transferFrom(address,address,uint256)":"23b872dd","updateListingPrice(uint256)":"ae677aa3"}}}}}