{
  "_format": "hh-sol-artifact-1",
  "contractName": "NFTMarketplace",
  "sourceName": "contracts/NFTMarketplace.sol",
  "abi": [
    {
      "inputs": [],
      "stateMutability": "nonpayable",
      "type": "constructor"
    },
    {
      "anonymous": false,
      "inputs": [
        {
          "indexed": true,
          "internalType": "address",
          "name": "owner",
          "type": "address"
        },
        {
          "indexed": true,
          "internalType": "address",
          "name": "approved",
          "type": "address"
        },
        {
          "indexed": true,
          "internalType": "uint256",
          "name": "tokenId",
          "type": "uint256"
        }
      ],
      "name": "Approval",
      "type": "event"
    },
    {
      "anonymous": false,
      "inputs": [
        {
          "indexed": true,
          "internalType": "address",
          "name": "owner",
          "type": "address"
        },
        {
          "indexed": true,
          "internalType": "address",
          "name": "operator",
          "type": "address"
        },
        {
          "indexed": false,
          "internalType": "bool",
          "name": "approved",
          "type": "bool"
        }
      ],
      "name": "ApprovalForAll",
      "type": "event"
    },
    {
      "anonymous": false,
      "inputs": [
        {
          "indexed": false,
          "internalType": "uint256",
          "name": "_fromTokenId",
          "type": "uint256"
        },
        {
          "indexed": false,
          "internalType": "uint256",
          "name": "_toTokenId",
          "type": "uint256"
        }
      ],
      "name": "BatchMetadataUpdate",
      "type": "event"
    },
    {
      "anonymous": false,
      "inputs": [
        {
          "indexed": true,
          "internalType": "uint256",
          "name": "tokenId",
          "type": "uint256"
        },
        {
          "indexed": false,
          "internalType": "address",
          "name": "seller",
          "type": "address"
        },
        {
          "indexed": false,
          "internalType": "address",
          "name": "owner",
          "type": "address"
        },
        {
          "indexed": false,
          "internalType": "uint256",
          "name": "price",
          "type": "uint256"
        },
        {
          "indexed": false,
          "internalType": "bool",
          "name": "sold",
          "type": "bool"
        }
      ],
      "name": "MarketItemCreated",
      "type": "event"
    },
    {
      "anonymous": false,
      "inputs": [
        {
          "indexed": false,
          "internalType": "uint256",
          "name": "_tokenId",
          "type": "uint256"
        }
      ],
      "name": "MetadataUpdate",
      "type": "event"
    },
    {
      "anonymous": false,
      "inputs": [
        {
          "indexed": true,
          "internalType": "uint256",
          "name": "tokenId",
          "type": "uint256"
        },
        {
          "indexed": true,
          "internalType": "address",
          "name": "creator",
          "type": "address"
        },
        {
          "indexed": false,
          "internalType": "string",
          "name": "metadataURI",
          "type": "string"
        },
        {
          "indexed": false,
          "internalType": "uint256",
          "name": "timestamp",
          "type": "uint256"
        }
      ],
      "name": "ProvenanceRecorded",
      "type": "event"
    },
    {
      "anonymous": false,
      "inputs": [
        {
          "indexed": true,
          "internalType": "uint256",
          "name": "tokenId",
          "type": "uint256"
        },
        {
          "indexed": true,
          "internalType": "address",
          "name": "seller",
          "type": "address"
        },
        {
          "indexed": false,
          "internalType": "uint256",
          "name": "price",
          "type": "uint256"
        },
        {
          "indexed": false,
          "internalType": "uint256",
          "name": "timestamp",
          "type": "uint256"
        }
      ],
      "name": "TokenResold",
      "type": "event"
    },
    {
      "anonymous": false,
      "inputs": [
        {
          "indexed": true,
          "internalType": "uint256",
          "name": "tokenId",
          "type": "uint256"
        },
        {
          "indexed": true,
          "internalType": "address",
          "name": "from",
          "type": "address"
        },
        {
          "indexed": true,
          "internalType": "address",
          "name": "to",
          "type": "address"
        },
        {
          "indexed": false,
          "internalType": "uint256",
          "name": "price",
          "type": "uint256"
        },
        {
          "indexed": false,
          "internalType": "uint256",
          "name": "timestamp",
          "type": "uint256"
        }
      ],
      "name": "TokenSold",
      "type": "event"
    },
    {
      "anonymous": false,
      "inputs": [
        {
          "indexed": true,
          "internalType": "address",
          "name": "from",
          "type": "address"
        },
        {
          "indexed": true,
          "internalType": "address",
          "name": "to",
          "type": "address"
        },
        {
          "indexed": true,
          "internalType": "uint256",
          "name": "tokenId",
          "type": "uint256"
        }
      ],
      "name": "Transfer",
      "type": "event"
    },
    {
      "inputs": [
        {
          "internalType": "address",
          "name": "to",
          "type": "address"
        },
        {
          "internalType": "uint256",
          "name": "tokenId",
          "type": "uint256"
        }
      ],
      "name": "approve",
      "outputs": [],
      "stateMutability": "nonpayable",
      "type": "function"
    },
    {
      "inputs": [
        {
          "internalType": "address",
          "name": "owner",
          "type": "address"
        }
      ],
      "name": "balanceOf",
      "outputs": [
        {
          "internalType": "uint256",
          "name": "",
          "type": "uint256"
        }
      ],
      "stateMutability": "view",
      "type": "function"
    },
    {
      "inputs": [
        {
          "internalType": "uint256",
          "name": "tokenId",
          "type": "uint256"
        }
      ],
      "name": "createMarketSale",
      "outputs": [],
      "stateMutability": "payable",
      "type": "function"
    },
    {
      "inputs": [
        {
          "internalType": "string",
          "name": "tokenURI",
          "type": "string"
        },
        {
          "internalType": "uint256",
          "name": "price",
          "type": "uint256"
        },
        {
          "internalType": "string",
          "name": "mediaType",
          "type": "string"
        }
      ],
      "name": "createToken",
      "outputs": [
        {
          "internalType": "uint256",
          "name": "",
          "type": "uint256"
        }
      ],
      "stateMutability": "payable",
      "type": "function"
    },
    {
      "inputs": [],
      "name": "fetchItemsListed",
      "outputs": [
        {
          "components": [
            {
              "internalType": "uint256",
              "name": "tokenId",
              "type": "uint256"
            },
            {
              "internalType": "address payable",
              "name": "seller",
              "type": "address"
            },
            {
              "internalType": "address payable",
              "name": "owner",
              "type": "address"
            },
            {
              "internalType": "uint256",
              "name": "price",
              "type": "uint256"
            },
            {
              "internalType": "bool",
              "name": "sold",
              "type": "bool"
            }
          ],
          "internalType": "struct NFTMarketplace.MarketItem[]",
          "name": "",
          "type": "tuple[]"
        }
      ],
      "stateMutability": "view",
      "type": "function"
    },
    {
      "inputs": [
        {
          "internalType": "address",
          "name": "targetAddress",
          "type": "address"
        }
      ],
      "name": "fetchListedNFTs",
      "outputs": [
        {
          "components": [
            {
              "internalType": "uint256",
              "name": "tokenId",
              "type": "uint256"
            },
            {
              "internalType": "address payable",
              "name": "seller",
              "type": "address"
            },
            {
              "internalType": "address payable",
              "name": "owner",
              "type": "address"
            },
            {
              "internalType": "uint256",
              "name": "price",
              "type": "uint256"
            },
            {
              "internalType": "bool",
              "name": "sold",
              "type": "bool"
            }
          ],
          "internalType": "struct NFTMarketplace.MarketItem[]",
          "name": "",
          "type": "tuple[]"
        }
      ],
      "stateMutability": "view",
      "type": "function"
    },
    {
      "inputs": [],
      "name": "fetchMarketItems",
      "outputs": [
        {
          "components": [
            {
              "internalType": "uint256",
              "name": "tokenId",
              "type": "uint256"
            },
            {
              "internalType": "address payable",
              "name": "seller",
              "type": "address"
            },
            {
              "internalType": "address payable",
              "name": "owner",
              "type": "address"
            },
            {
              "internalType": "uint256",
              "name": "price",
              "type": "uint256"
            },
            {
              "internalType": "bool",
              "name": "sold",
              "type": "bool"
            }
          ],
          "internalType": "struct NFTMarketplace.MarketItem[]",
          "name": "",
          "type": "tuple[]"
        }
      ],
      "stateMutability": "view",
      "type": "function"
    },
    {
      "inputs": [],
      "name": "fetchMyNFTs",
      "outputs": [
        {
          "components": [
            {
              "internalType": "uint256",
              "name": "tokenId",
              "type": "uint256"
            },
            {
              "internalType": "address payable",
              "name": "seller",
              "type": "address"
            },
            {
              "internalType": "address payable",
              "name": "owner",
              "type": "address"
            },
            {
              "internalType": "uint256",
              "name": "price",
              "type": "uint256"
            },
            {
              "internalType": "bool",
              "name": "sold",
              "type": "bool"
            }
          ],
          "internalType": "struct NFTMarketplace.MarketItem[]",
          "name": "",
          "type": "tuple[]"
        }
      ],
      "stateMutability": "view",
      "type": "function"
    },
    {
      "inputs": [
        {
          "internalType": "uint256",
          "name": "tokenId",
          "type": "uint256"
        }
      ],
      "name": "fetchNFTByTokenId",
      "outputs": [
        {
          "components": [
            {
              "internalType": "uint256",
              "name": "tokenId",
              "type": "uint256"
            },
            {
              "internalType": "address payable",
              "name": "seller",
              "type": "address"
            },
            {
              "internalType": "address payable",
              "name": "owner",
              "type": "address"
            },
            {
              "internalType": "uint256",
              "name": "price",
              "type": "uint256"
            },
            {
              "internalType": "bool",
              "name": "sold",
              "type": "bool"
            }
          ],
          "internalType": "struct NFTMarketplace.MarketItem",
          "name": "",
          "type": "tuple"
        }
      ],
      "stateMutability": "view",
      "type": "function"
    },
    {
      "inputs": [
        {
          "internalType": "string",
          "name": "mediaType",
          "type": "string"
        }
      ],
      "name": "fetchNFTsByMediaType",
      "outputs": [
        {
          "components": [
            {
              "internalType": "uint256",
              "name": "tokenId",
              "type": "uint256"
            },
            {
              "internalType": "address payable",
              "name": "seller",
              "type": "address"
            },
            {
              "internalType": "address payable",
              "name": "owner",
              "type": "address"
            },
            {
              "internalType": "uint256",
              "name": "price",
              "type": "uint256"
            },
            {
              "internalType": "bool",
              "name": "sold",
              "type": "bool"
            }
          ],
          "internalType": "struct NFTMarketplace.MarketItem[]",
          "name": "",
          "type": "tuple[]"
        }
      ],
      "stateMutability": "view",
      "type": "function"
    },
    {
      "inputs": [
        {
          "internalType": "address",
          "name": "targetAddress",
          "type": "address"
        }
      ],
      "name": "fetchOwnedNFTs",
      "outputs": [
        {
          "components": [
            {
              "internalType": "uint256",
              "name": "tokenId",
              "type": "uint256"
            },
            {
              "internalType": "address payable",
              "name": "seller",
              "type": "address"
            },
            {
              "internalType": "address payable",
              "name": "owner",
              "type": "address"
            },
            {
              "internalType": "uint256",
              "name": "price",
              "type": "uint256"
            },
            {
              "internalType": "bool",
              "name": "sold",
              "type": "bool"
            }
          ],
          "internalType": "struct NFTMarketplace.MarketItem[]",
          "name": "",
          "type": "tuple[]"
        }
      ],
      "stateMutability": "view",
      "type": "function"
    },
    {
      "inputs": [
        {
          "internalType": "uint256",
          "name": "tokenId",
          "type": "uint256"
        }
      ],
      "name": "getApproved",
      "outputs": [
        {
          "internalType": "address",
          "name": "",
          "type": "address"
        }
      ],
      "stateMutability": "view",
      "type": "function"
    },
    {
      "inputs": [],
      "name": "getAvailableMediaTypes",
      "outputs": [
        {
          "internalType": "string[]",
          "name": "",
          "type": "string[]"
        }
      ],
      "stateMutability": "view",
      "type": "function"
    },
    {
      "inputs": [
        {
          "internalType": "uint256",
          "name": "tokenId",
          "type": "uint256"
        }
      ],
      "name": "getCurrentTokenOwner",
      "outputs": [
        {
          "internalType": "address",
          "name": "",
          "type": "address"
        }
      ],
      "stateMutability": "view",
      "type": "function"
    },
    {
      "inputs": [],
      "name": "getListingPrice",
      "outputs": [
        {
          "internalType": "uint256",
          "name": "",
          "type": "uint256"
        }
      ],
      "stateMutability": "view",
      "type": "function"
    },
    {
      "inputs": [
        {
          "internalType": "uint256",
          "name": "tokenId",
          "type": "uint256"
        }
      ],
      "name": "getTokenMediaType",
      "outputs": [
        {
          "internalType": "string",
          "name": "",
          "type": "string"
        }
      ],
      "stateMutability": "view",
      "type": "function"
    },
    {
      "inputs": [
        {
          "internalType": "uint256",
          "name": "tokenId",
          "type": "uint256"
        }
      ],
      "name": "getTokenOwnerCount",
      "outputs": [
        {
          "internalType": "uint256",
          "name": "",
          "type": "uint256"
        }
      ],
      "stateMutability": "view",
      "type": "function"
    },
    {
      "inputs": [
        {
          "internalType": "uint256",
          "name": "tokenId",
          "type": "uint256"
        }
      ],
      "name": "getTokenOwnershipHistory",
      "outputs": [
        {
          "internalType": "address[]",
          "name": "",
          "type": "address[]"
        }
      ],
      "stateMutability": "view",
      "type": "function"
    },
    {
      "inputs": [
        {
          "internalType": "uint256",
          "name": "tokenId",
          "type": "uint256"
        }
      ],
      "name": "getTokenProvenance",
      "outputs": [
        {
          "components": [
            {
              "internalType": "address",
              "name": "creator",
              "type": "address"
            },
            {
              "internalType": "uint256",
              "name": "creationTime",
              "type": "uint256"
            },
            {
              "internalType": "string",
              "name": "metadataURI",
              "type": "string"
            },
            {
              "internalType": "bool",
              "name": "verified",
              "type": "bool"
            }
          ],
          "internalType": "struct NFTMarketplace.Provenance",
          "name": "",
          "type": "tuple"
        }
      ],
      "stateMutability": "view",
      "type": "function"
    },
    {
      "inputs": [
        {
          "internalType": "uint256",
          "name": "tokenId",
          "type": "uint256"
        }
      ],
      "name": "getTokenTransactionCount",
      "outputs": [
        {
          "internalType": "uint256",
          "name": "",
          "type": "uint256"
        }
      ],
      "stateMutability": "view",
      "type": "function"
    },
    {
      "inputs": [
        {
          "internalType": "uint256",
          "name": "tokenId",
          "type": "uint256"
        }
      ],
      "name": "getTokenTransactionHistory",
      "outputs": [
        {
          "components": [
            {
              "internalType": "address",
              "name": "from",
              "type": "address"
            },
            {
              "internalType": "address",
              "name": "to",
              "type": "address"
            },
            {
              "internalType": "uint256",
              "name": "price",
              "type": "uint256"
            },
            {
              "internalType": "uint256",
              "name": "timestamp",
              "type": "uint256"
            },
            {
              "internalType": "enum NFTMarketplace.TransactionType",
              "name": "transactionType",
              "type": "uint8"
            }
          ],
          "internalType": "struct NFTMarketplace.TransactionHistory[]",
          "name": "",
          "type": "tuple[]"
        }
      ],
      "stateMutability": "view",
      "type": "function"
    },
    {
      "inputs": [
        {
          "internalType": "address",
          "name": "creator",
          "type": "address"
        }
      ],
      "name": "getTokensCreatedBy",
      "outputs": [
        {
          "internalType": "uint256[]",
          "name": "",
          "type": "uint256[]"
        }
      ],
      "stateMutability": "view",
      "type": "function"
    },
    {
      "inputs": [
        {
          "internalType": "address",
          "name": "owner",
          "type": "address"
        },
        {
          "internalType": "address",
          "name": "operator",
          "type": "address"
        }
      ],
      "name": "isApprovedForAll",
      "outputs": [
        {
          "internalType": "bool",
          "name": "",
          "type": "bool"
        }
      ],
      "stateMutability": "view",
      "type": "function"
    },
    {
      "inputs": [
        {
          "internalType": "uint256",
          "name": "tokenId",
          "type": "uint256"
        }
      ],
      "name": "isOriginalToken",
      "outputs": [
        {
          "internalType": "bool",
          "name": "",
          "type": "bool"
        }
      ],
      "stateMutability": "view",
      "type": "function"
    },
    {
      "inputs": [],
      "name": "name",
      "outputs": [
        {
          "internalType": "string",
          "name": "",
          "type": "string"
        }
      ],
      "stateMutability": "view",
      "type": "function"
    },
    {
      "inputs": [
        {
          "internalType": "uint256",
          "name": "tokenId",
          "type": "uint256"
        }
      ],
      "name": "ownerOf",
      "outputs": [
        {
          "internalType": "address",
          "name": "",
          "type": "address"
        }
      ],
      "stateMutability": "view",
      "type": "function"
    },
    {
      "inputs": [
        {
          "internalType": "uint256",
          "name": "tokenId",
          "type": "uint256"
        },
        {
          "internalType": "uint256",
          "name": "price",
          "type": "uint256"
        }
      ],
      "name": "resellToken",
      "outputs": [],
      "stateMutability": "payable",
      "type": "function"
    },
    {
      "inputs": [
        {
          "internalType": "address",
          "name": "from",
          "type": "address"
        },
        {
          "internalType": "address",
          "name": "to",
          "type": "address"
        },
        {
          "internalType": "uint256",
          "name": "tokenId",
          "type": "uint256"
        }
      ],
      "name": "safeTransferFrom",
      "outputs": [],
      "stateMutability": "nonpayable",
      "type": "function"
    },
    {
      "inputs": [
        {
          "internalType": "address",
          "name": "from",
          "type": "address"
        },
        {
          "internalType": "address",
          "name": "to",
          "type": "address"
        },
        {
          "internalType": "uint256",
          "name": "tokenId",
          "type": "uint256"
        },
        {
          "internalType": "bytes",
          "name": "data",
          "type": "bytes"
        }
      ],
      "name": "safeTransferFrom",
      "outputs": [],
      "stateMutability": "nonpayable",
      "type": "function"
    },
    {
      "inputs": [
        {
          "internalType": "address",
          "name": "operator",
          "type": "address"
        },
        {
          "internalType": "bool",
          "name": "approved",
          "type": "bool"
        }
      ],
      "name": "setApprovalForAll",
      "outputs": [],
      "stateMutability": "nonpayable",
      "type": "function"
    },
    {
      "inputs": [
        {
          "internalType": "bytes4",
          "name": "interfaceId",
          "type": "bytes4"
        }
      ],
      "name": "supportsInterface",
      "outputs": [
        {
          "internalType": "bool",
          "name": "",
          "type": "bool"
        }
      ],
      "stateMutability": "view",
      "type": "function"
    },
    {
      "inputs": [],
      "name": "symbol",
      "outputs": [
        {
          "internalType": "string",
          "name": "",
          "type": "string"
        }
      ],
      "stateMutability": "view",
      "type": "function"
    },
    {
      "inputs": [
        {
          "internalType": "uint256",
          "name": "tokenId",
          "type": "uint256"
        }
      ],
      "name": "tokenURI",
      "outputs": [
        {
          "internalType": "string",
          "name": "",
          "type": "string"
        }
      ],
      "stateMutability": "view",
      "type": "function"
    },
    {
      "inputs": [
        {
          "internalType": "address",
          "name": "from",
          "type": "address"
        },
        {
          "internalType": "address",
          "name": "to",
          "type": "address"
        },
        {
          "internalType": "uint256",
          "name": "tokenId",
          "type": "uint256"
        }
      ],
      "name": "transferFrom",
      "outputs": [],
      "stateMutability": "nonpayable",
      "type": "function"
    },
    {
      "inputs": [
        {
          "internalType": "uint256",
          "name": "_listingPrice",
          "type": "uint256"
        }
      ],
      "name": "updateListingPrice",
      "outputs": [],
      "stateMutability": "payable",
      "type": "function"
    }
  ],
  "bytecode": "0x60803462000334576001600160401b0390604090808201838111828210176200031e578252601081526020926f4d657461766572736520546f6b656e7360801b848301528251838101818110838211176200031e57845260048152631351551560e21b858201528251908282116200031e5760008054926001958685811c9516801562000313575b89861014620002ff578190601f95868111620002ac575b508990868311600114620002485784926200023c575b5050600019600383901b1c191690861b1781555b8151938411620002285784548581811c911680156200021d575b888210146200020957838111620001c1575b50869284116001146200015b578394959650926200014f575b5050600019600383901b1c191690821b1781555b60075566038d7ea4c68000600a55600b80546001600160a01b031916331790555161355190816200033a8239f35b0151905038806200010d565b9190601f1984169685845280842093905b888210620001a957505083859697106200018f575b505050811b01815562000121565b015160001960f88460031b161c1916905538808062000181565b8087859682949686015181550195019301906200016c565b8582528782208480870160051c8201928a8810620001ff575b0160051c019086905b828110620001f3575050620000f4565b838155018690620001e3565b92508192620001da565b634e487b7160e01b82526022600452602482fd5b90607f1690620000e2565b634e487b7160e01b81526041600452602490fd5b015190503880620000b4565b8480528a85208994509190601f198416865b8d8282106200029557505084116200027b575b505050811b018155620000c8565b015160001960f88460031b161c191690553880806200026d565b8385015186558c979095019493840193016200025a565b9091508380528984208680850160051c8201928c8610620002f5575b918a91869594930160051c01915b828110620002e65750506200009e565b8681558594508a9101620002d6565b92508192620002c8565b634e487b7160e01b83526022600452602483fd5b94607f169462000087565b634e487b7160e01b600052604160045260246000fd5b600080fdfe608080604052600436101561001357600080fd5b60003560e01c90816301ffc9a7146129545750806306566f421461291457806306fdde0314612869578063081812fc1461284b578063095ea7b3146126d15780630f08efe014612618578063121490a6146125c957806312e85585146125ab578063202e3740146124b5578063213cc53014612466578063226523dd146122e557806323b872dd146122bc57806342842e0e1461229457806345f8fa8014612190578063607307b61461208b5780636352211e1461205b57806370a0823114611fc4578063821af93c14611f5f578063899a058414611e2a57806395d89b4114611d47578063a22cb46514611c6c578063ae677aa314611b75578063b424651914611b12578063b88d4fde14611ab1578063be9af536146115a9578063c4a4d903146114a4578063c6c9b5b114610b67578063c87b56dd14610af5578063cb301f7f14610a0b578063cc55ae69146108a1578063cebefca5146106fc578063ddc0f312146105c4578063e219fc75146102db578063e985e9c5146102855763edb6770f146101a057600080fd5b3461028057602080600319360112610280576004356000818152600260205260409020546101dd906001600160a01b03161515612bfd565b612bfd565b600052600f8152604060002060405190818382549182815201908192600052846000209060005b8682821061026357868661021a82880383612b6c565b604051928392818401908285525180915260408401929160005b82811061024357505050500390f35b83516001600160a01b031685528695509381019392810192600101610234565b83546001600160a01b031685529093019260019283019201610204565b600080fd5b346102805760403660031901126102805761029e612a21565b6102a6612a37565b9060018060a01b03809116600052600560205260406000209116600052602052602060ff604060002054166040519015158152f35b6040366003190112610280576004356024908135916102f86132a0565b61030182612f2d565b6001600160a01b0390339082160361056d57600a54340361051c57610327841515613019565b82600052602091600c83526040600020600481019060ff1991828154169055866003820155600260018201916001600160601b0360a01b92338482541617905501308282541617905560095480156104d8576000190160095561038986612f98565b336000526014855261039f866040600020612fbb565b6103a9863361335f565b85600052600d8552604060002093604051916103c483612b00565b33835286830130815260408401918a83526060850193428552608086019860028a52805490600160401b8210156104c357600182018082558210156104ae57918091600498979695949360005260058d60002091020196511682875416178655600186019251169082541617905551600283015551600382015501925191600483101561049a575060ff90835416911617905561046282303361313c565b60405192835242908301527fd6088ca62b31f4b677670aa9482babf70665e6c8a746e78e6bfda34689ae90d960403393a36001600755005b634e487b7160e01b60009081526021600452fd5b89634e487b7160e01b60005260326004526000fd5b89634e487b7160e01b60005260416004526000fd5b60405162461bcd60e51b815260048101879052601b818601527f436f756e7465723a2064656372656d656e74206f766572666c6f7700000000006044820152606490fd5b60405162461bcd60e51b8152602060048201528083018390527f5072696365206d75737420626520657175616c20746f206c697374696e6720706044820152637269636560e01b6064820152608490fd5b60405162461bcd60e51b815260206004820152602a818401527f4f6e6c79206974656d206f776e65722063616e20706572666f726d20746869736044820152691037b832b930ba34b7b760b11b6064820152608490fd5b3461028057602080600319360112610280576105de612a21565b6008546001600160a01b03918216916000919060015b828111156106c2575061061f61060984612d5d565b936106176040519586612b6c565b808552612d5d565b8386019490601f190136863760009160015b8481111561067c57878688604051928392818401908285525180915260408401929160005b82811061066557505050500390f35b835185528695509381019392810192600101610656565b80600052600e8852828260406000205416146106a1575b61069c90613065565b610631565b926106ba81856106b461069c948a612e6b565b52613065565b939050610693565b80600052600e8652848260406000205416146106e7575b6106e290613065565b6105f4565b926106f46106e291613065565b9390506106d9565b3461028057602080600319360112610280576004356001600160401b0381116102805781610731610744923690600401612bdf565b81604051938285809451938492016129d9565b81016011815203019020604051808284829454938481520190600052846000209260005b8682821061088b578461077d81860382612b6c565b6000805b82518110156107ca576107948184612e6b565b51600052600c845260ff60046040600020015416156107b6575b600101610781565b906107c2600191613065565b9190506107ae565b506107d490612d9f565b916000805b8351811015610879576107ec8185612e6b565b51600052600c8352604060002060ff6004820154161580610812575b50506001016107d9565b92610871916001939460036040519261082a84612b00565b80548452868060a01b038088830154168a8601526002820154166040850152015460608301521560808201526108608289612e6b565b5261086b8188612e6b565b50613065565b919086610808565b604051806108878782612a4d565b0390f35b8554845260019586019587955093019201610768565b3461028057602080600319360112610280576004356000818152600260205260409020546108d9906001600160a01b03161515612bfd565b600052600d815260406000209081546108f181612d5d565b906108ff6040519283612b6c565b808252600093845282842083830194855b8382106109a65760408051878152865181890181905289928201908960005b82811061093c5784840385f35b909192855160018060a01b038082511683528482015116848301526040810151604083015260608082015190830152608080910151906004821015610990578201529482019460a00192919060010161092f565b634e487b7160e01b600052602160045260246000fd5b6040516109b281612b00565b83546001600160a01b03908116825260018501541687820152600284015460408201526003840154606082015260048085015460ff16908110156109905760019282899260806005950152815201930191019091610910565b34610280576020806003193601126102805760043560006060604051610a3081612b1b565b82815282858201528160408201520152610a626101d882600052600260205260018060a01b0360406000205416151590565b600052600e815260406000209060405190610a7c82612b1b565b82546001600160a01b03908116835260018401548284019081529093610ae89160ff6003610aac60028501612c7a565b936040880194855201541693606086019415158552604051968796828852511690860152516040850152516080606085015260a08401906129fc565b9051151560808301520390f35b3461028057602036600319011261028057600435600081815260026020526040902054610b2c906001600160a01b03161515612ee1565b6000526006602052610887610b446040600020612c7a565b6000604051610b5281612b36565b526040519182916020835260208301906129fc565b6060366003190112610280576004356001600160401b03811161028057610b92903690600401612bdf565b6044356001600160401b03811161028057610bb1903690600401612bdf565b90610bba6132a0565b610bc76024351515613019565b6001600854019182600855331561146057600083815260026020526040902054610bfd906001600160a01b031615155b15613313565b600083815260026020526040902054610c20906001600160a01b03161515610bf7565b3360005260036020526040600020600181540190558260005260026020526040600020336001600160601b0360a01b825416179055823360007fddf252ad1be2c89b69c2b068fc378daa952ba7f163c4a11628f55a4df523b3ef8180a46000838152600260205260409020546001600160a01b03161561140457826000526006602052604060002082516001600160401b03811161119d57610cc28254612c40565b601f81116113c0575b50806020601f82116001146113595760009161134e575b508160011b916000199060031b1c19161790555b7ff8e1a15aba9398e019f0b49df1a4fde98ee17ae345cb5f6b5e2c27f5033e8ce76020604051858152a182600052601060205260406000208151906001600160401b03821161119d578491610d4b8254612c40565b601f81116112fc575b506020601f82116001146112885793610d9d9282602093610dac9760009161127d575b508160011b916000199060031b1c191617905581604051938285809451938492016129d9565b81016011815203019020612fbb565b604051610db881612b1b565b3381526020810190428252604081018381526001606083015284600052600e60205260406000209260018060a01b038351166001600160601b0360a01b855416178455516001840155518051906001600160401b03821161119d57610e206002850154612c40565b601f8111611236575b50602090601f83116001146111be579282600393606093610e7b97966000926111b3575b50508160011b9160001990861b1c19161760028501555b0151151591019060ff801983541691151516179055565b817f6832c4a8240aec284b577356b6cecff5af48c14e65c3cfe48759bfde75f9b144610eb2604051936040855260408501906129fc565b924260208201528033940390a380600052600f602052610ed6336040600020612fde565b80600052600d602052604060002060405190610ef182612b00565b600082523360208301526000604083015242606083015260006080830152805490600160401b82101561119d5760018201808255821015611187576080916004916000526005602060002091020160018060a01b038451166001600160601b0360a01b8254161781556001810160018060a01b036020860151166001600160601b0360a01b82541617905560408401516002820155606084015160038201550191015160048110156109905760ff8019835416911617905560243515611142576001600160a01b03610fc282612f2d565b1633036110ed5760209061106d604051610fdb81612b00565b8281526004848201338152604083013081526060840190602435825260808501926000845287600052600c8952604060002095518655600186019060018060a01b039051166001600160601b0360a01b825416179055600285019060018060a01b039051166001600160601b0360a01b82541617905551600384015551151591019060ff801983541691151516179055565b61107681612f98565b336000526014825261108c816040600020612fbb565b611096813361335f565b6110a181303361313c565b807fb640004f1d14576d0c209e240cad0410e0d8c0c33a09375861fbadae2588a98d60806040513381523086820152602435604082015260006060820152a26001600755604051908152f35b60405162461bcd60e51b815260206004820152602760248201527f4f6e6c7920746f6b656e206f776e65722063616e20637265617465206d61726b6044820152666574206974656d60c81b6064820152608490fd5b60405162461bcd60e51b815260206004820152601c60248201527f5072696365206d757374206265206174206c65617374203120776569000000006044820152606490fd5b634e487b7160e01b600052603260045260246000fd5b634e487b7160e01b600052604160045260246000fd5b015190508980610e4d565b906002850160005260206000209160005b601f198516811061121e575083606093610e7b979693600193600397601f19811610611206575b505050811b016002850155610e64565b015160001983881b60f8161c191690558980806111f6565b919260206001819286850151815501940192016111cf565b600285016000526020600020601f840160051c810160208510611276575b601f830160051c8201811061126a575050610e29565b60008155600101611254565b5080611254565b90508301518a610d77565b8260005260206000209060005b601f19841681106112e1575092600183610dac9793610d9d96602096601f198116106112c8575b5050811b019055610731565b85015160001960f88460031b161c191690558a806112bc565b86820151835588955060019092019160209182019101611295565b90918093506000526020600020601f830160051c810160208410611347575b9087949392915b601f830160051c82018110611338575050610d54565b60008155889550600101611322565b508061131b565b905084015186610ce2565b91508260005260206000206000925b601f19831684106113a8576001935082601f1981161061138f575b5050811b019055610cf6565b86015160001960f88460031b161c191690558680611383565b86810151825560209384019360019092019101611368565b826000526020600020601f830160051c8101602084106113fd575b601f830160051c820181106113f1575050610ccb565b600081556001016113db565b50806113db565b60405162461bcd60e51b815260206004820152602e60248201527f45524337323155524953746f726167653a2055524920736574206f66206e6f6e60448201526d32bc34b9ba32b73a103a37b5b2b760911b6064820152608490fd5b606460405162461bcd60e51b815260206004820152602060248201527f4552433732313a206d696e7420746f20746865207a65726f20616464726573736044820152fd5b3461028057602080600319360112610280576001600160a01b0390816114c8612a21565b1660005260138152604060002090604051808383829554938481520190600052836000209260005b858282106115935750505061150792500383612b6c565b6115118251612d9f565b9260005b8351811015610879578061152b60019286612e6b565b51600052600c8452604060002060ff60046040519261154984612b00565b805484528686820154168885015286600282015416604085015260038101546060850152015416151560808201526115818288612e6b565b5261158c8187612e6b565b5001611515565b85548452600195860195889550930192016114f0565b6020366003190112610280576115bd6132a0565b6004356000908152600c6020526040902060038101546001909101546001600160a01b031634829003611a47576001600160a01b036115fd600435612f2d565b1630036119ef57600435600052600c60205260ff600460406000200154166119aa5780331461195b57600435600052600c6020526004604060002060028101336001600160601b0360a01b82541617905501600160ff1982541617905560016009540160095560005b6012908154808210156119535761167c82612def565b60043591549060031b1c1461169657506001915001611666565b6000199181830191821161191e576116c06116b36116d993612def565b90549060031b1c91612def565b90919082549060031b91821b91600019901b1916179055565b8154801561193d5701906117006116ef83612def565b8154906000199060031b1b19169055565b555b80600052601460205260406000209060005b825480821015611934576117288285612e26565b60043591549060031b1c146117405750600101611714565b91929091600019810190811161191e57611777926116c06117646117729385612e26565b90549060031b1c9184612e26565b6132f6565b3360005260136020526117906004356040600020612fbb565b600435600052600f6020526117a9336040600020612fde565b600435600052600d6020526040600020604051906117c682612b00565b82825233602083015283604083015242606083015260016080830152805490600160401b82101561119d5760018201808255821015611187576080916004916000526005602060002091020160018060a01b038451166001600160601b0360a01b8254161781556001810160018060a01b036020860151166001600160601b0360a01b82541617905560408401516002820155606084015160038201550191015160048110156109905760ff80198354169116179055611889600435333061313c565b600080808060018060a01b03600b5416600a5490828215611915575bf115611900576000341561190c575b600080808093853491f1156119005760405191825242602083015233917fa831d161ab34fd077c450edfeeac91cd8cc4e1d8a3b07930cf05bf9c0a23d83e604060043592a46001600755005b6040513d6000823e3d90fd5b506108fc6118b4565b506108fc6118a5565b634e487b7160e01b600052601160045260246000fd5b50509050611777565b634e487b7160e01b600052603160045260246000fd5b505050611702565b60405162461bcd60e51b815260206004820152602160248201527f53656c6c65722063616e6e6f7420627579207468656972206f776e20746f6b656044820152603760f91b6064820152608490fd5b60405162461bcd60e51b815260206004820152601960248201527f54686973206974656d20697320616c726561647920736f6c64000000000000006044820152606490fd5b60405162461bcd60e51b815260206004820152602a60248201527f4d61726b6574706c616365206d75737420626520746865206f776e6572206f66604482015269103a3432903a37b5b2b760b11b6064820152608490fd5b608460405162461bcd60e51b815260206004820152604060248201527f506c65617365207375626d6974207468652061736b696e67207072696365206960448201527f6e206f7264657220746f20636f6d706c657465207468652070757263686173656064820152fd5b3461028057608036600319011261028057611aca612a21565b611ad2612a37565b606435916001600160401b038311610280573660238401121561028057611b06611b10933690602481600401359101612ba8565b9160443591612f50565b005b3461028057602036600319011261028057600435600081815260026020526040902054611b49906001600160a01b03161515612bfd565b6000526010602052610887611b616040600020612c7a565b6040519182916020835260208301906129fc565b602036600319011261028057600b546001600160a01b031633819003611c01573303611ba357600435600a55005b60405162461bcd60e51b815260206004820152603060248201527f4f6e6c79206d61726b6574706c616365206f776e65722063616e20757064617460448201526f32903634b9ba34b73390383934b1b29760811b6064820152608490fd5b60405162461bcd60e51b815260206004820152603a60248201527f6f6e6c79206f776e6572206f6620746865206d61726b6574706c61636520636160448201527f6e206368616e676520746865206c697374696e672070726963650000000000006064820152608490fd5b3461028057604036600319011261028057611c85612a21565b6024359081151590818303610280576001600160a01b031691338314611d0257611cd49033600052600560205260406000208460005260205260406000209060ff801983541691151516179055565b6040519081527f17307eab39ab6107e8899845ad3d59bd9653f200f220920489ca2b5937696c3160203392a3005b60405162461bcd60e51b815260206004820152601960248201527f4552433732313a20617070726f766520746f2063616c6c6572000000000000006044820152606490fd5b3461028057600036600319011261028057604051600060018260015492611d6d84612c40565b9283835260209485600182169182600014611e0a575050600114611dad575b50611d9992500383612b6c565b6108876040519282849384528301906129fc565b84915060016000527fb10e2d527612073b26eecdfd717e6a320cf44b4afac2b0732d9fcbe2b7fa0cf6906000915b858310611df2575050611d99935082010185611d8c565b80548389018501528794508693909201918101611ddb565b60ff191685820152611d9995151560051b8501019250879150611d8c9050565b3461028057600036600319011261028057604051611e4781612b1b565b600381526020908160005b606080821015611e6a57828285010152018290611e52565b505050604051611e7981612b51565b6005815264696d61676560d81b83820152611e9382612e3e565b52611e9d81612e3e565b50604051611eaa81612b51565b6005815264766964656f60d81b83820152611ec482612e4b565b52611ece81612e4b565b50604051611edb81612b51565b6005815264617564696f60d81b83820152611ef582612e5b565b52611eff81612e5b565b506040519082820192808352815180945260408301938160408260051b8601019301916000955b828710611f335785850386f35b909192938280611f4f600193603f198a820301865288516129fc565b9601920196019592919092611f26565b34610280576020366003190112610280576020600435611f976101d882600052600260205260018060a01b0360406000205416151590565b6000818152600e835260409020546001600160a01b0390811691611fba90612f2d565b1614604051908152f35b34610280576020366003190112610280576001600160a01b03611fe5612a21565b1680156120045760005260036020526020604060002054604051908152f35b60405162461bcd60e51b815260206004820152602960248201527f4552433732313a2061646472657373207a65726f206973206e6f7420612076616044820152683634b21037bbb732b960b91b6064820152608490fd5b34610280576020366003190112610280576020612079600435612f2d565b6040516001600160a01b039091168152f35b3461028057602080600319360112610280576001600160a01b0390816120af612a21565b1660005260148152604060002090604051808383829554938481520190600052836000209260005b8582821061217a575050506120ee92500383612b6c565b6120f88251612d9f565b9260005b8351811015610879578061211260019286612e6b565b51600052600c8452604060002060ff60046040519261213084612b00565b805484528686820154168885015286600282015416604085015260038101546060850152015416151560808201526121688288612e6b565b526121738187612e6b565b50016120fc565b85548452600195860195889550930192016120d7565b3461028057600036600319011261028057336000526020601481526040600020604051808284829454938481520190600052846000209260005b8682821061227e57846121df81860382612b6c565b6121e98151612d9f565b9160005b8251811015612270578061220360019285612e6b565b51600052600c8352604060002060ff60046040519261222184612b00565b80548452858060a01b03808783015416888601526002820154166040850152600381015460608501520154161515608082015261225e8287612e6b565b526122698186612e6b565b50016121ed565b604051806108878682612a4d565b85548452600195860195879550930192016121ca565b3461028057611b106122a536612acb565b90604051926122b384612b36565b60008452612f50565b3461028057611b106122cd36612acb565b916122e06122db8433613074565b612e7f565b61313c565b3461028057602036600319011261028057600435612301612d74565b50600081815260026020526040902054612325906001600160a01b03161515612bfd565b600080601254905b81811061243c575b505061234082612f2d565b6001600160a01b0391908115612430575b50156123eb5760a091600052600c60205260ff600460406000206040519361237885612b00565b81548552806001830154166020860152600282015416604085015260038101546060850152015416151560808201526123e960405180926080809180518452602081015160018060a01b03809116602086015260408201511660408501526060810151606085015201511515910152565bf35b60405162461bcd60e51b815260206004820152601760248201527f546f6b656e206973206e6f742061636365737369626c650000000000000000006044820152606490fd5b82163314905083612351565b8361244682612def565b90549060031b1c1461245a5760010161232d565b50505060018280612335565b346102805760203660031901126102805760043560008181526002602052604090205461249d906001600160a01b03161515612bfd565b600052600d6020526020604060002054604051908152f35b3461028057600036600319011261028057336000526020601381526040600020604051808284829454938481520190600052846000209260005b86828210612595578461250481860382612b6c565b61250e8151612d9f565b9160005b8251811015612270578061252860019285612e6b565b51600052600c8352604060002060ff60046040519261254684612b00565b80548452858060a01b0380878301541688860152600282015416604085015260038101546060850152015416151560808201526125838287612e6b565b5261258e8186612e6b565b5001612512565b85548452600195860195879550930192016124ef565b34610280576000366003190112610280576020600a54604051908152f35b3461028057602036600319011261028057600435600081815260026020526040902054612600906001600160a01b03161515612bfd565b600052600f6020526020604060002054604051908152f35b346102805760003660031901126102805760125461263581612d9f565b9060005b81811061264e57604051806108878582612a4d565b8061265a600192612def565b9054600391821b1c60005260ff6004602092600c84526040600020906040519461268386612b00565b82548652878060a01b03908189850154169087015260028301541660408601528101546060850152015416151560808201526126bf8286612e6b565b526126ca8185612e6b565b5001612639565b34610280576040366003190112610280576126ea612a21565b602435906001600160a01b03808061270185612f2d565b169216918083146127fc578033149081156127d7575b501561276c57600083815260046020526040902080546001600160a01b0319168317905561274483612f2d565b167f8c5be1e5ebec7d5bd14f71427d1e84f3dd0314c0f7b2291e5b200ac8c7c3b925600080a4005b60405162461bcd60e51b815260206004820152603d60248201527f4552433732313a20617070726f76652063616c6c6572206973206e6f7420746f60448201527f6b656e206f776e6572206f7220617070726f76656420666f7220616c6c0000006064820152608490fd5b9050600052600560205260406000203360005260205260ff6040600020541684612717565b60405162461bcd60e51b815260206004820152602160248201527f4552433732313a20617070726f76616c20746f2063757272656e74206f776e656044820152603960f91b6064820152608490fd5b34610280576020366003190112610280576020612079600435612d1f565b346102805760003660031901126102805760405160008054908261288c83612c40565b9182825260209360019085600182169182600014611e0a5750506001146128ba5750611d9992500383612b6c565b6000808052859250907f290decd9548b62a8d60345a988386fc84ba6bc95484008f6362f93160ef3e5635b8583106128fc575050611d99935082010185611d8c565b805483890185015287945086939092019181016128e5565b3461028057602036600319011261028057602061207960043561294f6101d882600052600260205260018060a01b0360406000205416151590565b612f2d565b34610280576020366003190112610280576004359063ffffffff60e01b821680920361028057602091632483248360e11b8114908115612996575b5015158152f35b6380ac58cd60e01b8114915081156129c8575b81156129b7575b508361298f565b6301ffc9a760e01b149050836129b0565b635b5e139f60e01b811491506129a9565b60005b8381106129ec5750506000910152565b81810151838201526020016129dc565b90602091612a15815180928185528580860191016129d9565b601f01601f1916010190565b600435906001600160a01b038216820361028057565b602435906001600160a01b038216820361028057565b602090602060408183019282815285518094520193019160005b828110612a75575050505090565b909192938260a082612abf60019489516080809180518452602081015160018060a01b03809116602086015260408201511660408501526060810151606085015201511515910152565b01950193929101612a67565b6060906003190112610280576001600160a01b0390600435828116810361028057916024359081168103610280579060443590565b60a081019081106001600160401b0382111761119d57604052565b608081019081106001600160401b0382111761119d57604052565b602081019081106001600160401b0382111761119d57604052565b604081019081106001600160401b0382111761119d57604052565b90601f801991011681019081106001600160401b0382111761119d57604052565b6001600160401b03811161119d57601f01601f191660200190565b929192612bb482612b8d565b91612bc26040519384612b6c565b829481845281830111610280578281602093846000960137010152565b9080601f8301121561028057816020612bfa93359101612ba8565b90565b15612c0457565b60405162461bcd60e51b8152602060048201526014602482015273151bdad95b88191bd95cc81b9bdd08195e1a5cdd60621b6044820152606490fd5b90600182811c92168015612c70575b6020831014612c5a57565b634e487b7160e01b600052602260045260246000fd5b91607f1691612c4f565b90604051918260008254612c8d81612c40565b90818452602094600191600181169081600014612cfd5750600114612cbe575b505050612cbc92500383612b6c565b565b600090815285812095935091905b818310612ce5575050612cbc9350820101388080612cad565b85548884018501529485019487945091830191612ccc565b92505050612cbc94925060ff191682840152151560051b820101388080612cad565b600081815260026020526040902054612d42906001600160a01b03161515612ee1565b6000908152600460205260409020546001600160a01b031690565b6001600160401b03811161119d5760051b60200190565b60405190612d8182612b00565b60006080838281528260208201528260408201528260608201520152565b90612da982612d5d565b612db66040519182612b6c565b8281528092612dc7601f1991612d5d565b019060005b828110612dd857505050565b602090612de3612d74565b82828501015201612dcc565b6012548110156111875760126000527fbb8a6a4669ba250d26cd7a459eca9d215f8307e33aebe50379bc5a3617ec34440190600090565b80548210156111875760005260206000200190600090565b8051156111875760200190565b8051600110156111875760400190565b8051600210156111875760600190565b80518210156111875760209160051b010190565b15612e8657565b60405162461bcd60e51b815260206004820152602d60248201527f4552433732313a2063616c6c6572206973206e6f7420746f6b656e206f776e6560448201526c1c881bdc88185c1c1c9bdd9959609a1b6064820152608490fd5b15612ee857565b60405162461bcd60e51b815260206004820152601860248201527f4552433732313a20696e76616c696420746f6b656e20494400000000000000006044820152606490fd5b6000908152600260205260409020546001600160a01b0316612bfa811515612ee1565b90612f74939291612f646122db8433613074565b612f6f83838361313c565b6133f8565b15612f7b57565b60405162461bcd60e51b815280612f946004820161324d565b0390fd5b60125490600160401b82101561119d576116c0826001612cbc9401601255612def565b90815491600160401b83101561119d57826116c0916001612cbc95018155612e26565b8054600160401b81101561119d57612ffb91600182018155612e26565b60018060a09493941b038084549260031b9316831b921b1916179055565b1561302057565b60405162461bcd60e51b815260206004820152601c60248201527f5072696365206d7573742062652067726561746572207468616e2030000000006044820152606490fd5b600019811461191e5760010190565b906001600160a01b03808061308884612f2d565b169316918383149384156130bb575b5083156130a5575b50505090565b6130b191929350612d1f565b161438808061309f565b909350600052600560205260406000208260005260205260ff604060002054169238613097565b156130e957565b60405162461bcd60e51b815260206004820152602560248201527f4552433732313a207472616e736665722066726f6d20696e636f72726563742060448201526437bbb732b960d91b6064820152608490fd5b906131649161314a84612f2d565b6001600160a01b03939184169284929091831684146130e2565b169182156131fc57816131819161317a86612f2d565b16146130e2565b7fddf252ad1be2c89b69c2b068fc378daa952ba7f163c4a11628f55a4df523b3ef60008481526004602052604081206001600160601b0360a01b9081815416905583825260036020526040822060001981540190558482526040822060018154019055858252600260205284604083209182541617905580a4565b60405162461bcd60e51b8152602060048201526024808201527f4552433732313a207472616e7366657220746f20746865207a65726f206164646044820152637265737360e01b6064820152608490fd5b60809060208152603260208201527f4552433732313a207472616e7366657220746f206e6f6e20455243373231526560408201527131b2b4bb32b91034b6b83632b6b2b73a32b960711b60608201520190565b6002600754146132b1576002600755565b60405162461bcd60e51b815260206004820152601f60248201527f5265656e7472616e637947756172643a207265656e7472616e742063616c6c006044820152606490fd5b8054801561193d5760001901906133106116ef8383612e26565b55565b1561331a57565b60405162461bcd60e51b815260206004820152601c60248201527f4552433732313a20746f6b656e20616c7265616479206d696e746564000000006044820152606490fd5b6001600160a01b031660009081526013602052604081209091825b8254808210156133f15782906133908386612e26565b929054600393841b1c146133a857505060010161337a565b91939490925060001982019182116133dd5750916116c0611772926133d18695612cbc97612e26565b9054911b1c9184612e26565b634e487b7160e01b81526011600452602490fd5b5050505050565b9293919290803b156135115761344c9460018060a01b039460405192839187630a85bd0160e11b9687855233600486015216602484015260448301526080606483015281806020998a9560848301906129fc565b03916000988991165af18491816134cd575b506134bc575050503d6000146134b4573d61347881612b8d565b906134866040519283612b6c565b81528091833d92013e5b805191826134b15760405162461bcd60e51b815280612f946004820161324d565b01fd5b506060613490565b6001600160e01b0319161492509050565b9091508581813d831161350a575b6134e58183612b6c565b8101031261350657516001600160e01b03198116810361350657903861345e565b8480fd5b503d6134db565b505091505060019056fea26469706673582212205d06a1e0d492656b76bc02761e01ae616c35536c7932d49315b1f9ec767ad5c764736f6c63430008180033",
  "linkReferences": {},
  "deployedLinkReferences": {}
}