{
  "_format": "hh-sol-artifact-1",
  "contractName": "NFTMarketplace",
  "sourceName": "contracts/NFTMarketplace.sol",
  "abi": [
    {
      "inputs": [],
      "stateMutability": "nonpayable",
      "type": "constructor"
    },
    {
      "anonymous": false,
      "inputs": [
        {
          "indexed": true,
          "internalType": "address",
          "name": "owner",
          "type": "address"
        },
        {
          "indexed": true,
          "internalType": "address",
          "name": "approved",
          "type": "address"
        },
        {
          "indexed": true,
          "internalType": "uint256",
          "name": "tokenId",
          "type": "uint256"
        }
      ],
      "name": "Approval",
      "type": "event"
    },
    {
      "anonymous": false,
      "inputs": [
        {
          "indexed": true,
          "internalType": "address",
          "name": "owner",
          "type": "address"
        },
        {
          "indexed": true,
          "internalType": "address",
          "name": "operator",
          "type": "address"
        },
        {
          "indexed": false,
          "internalType": "bool",
          "name": "approved",
          "type": "bool"
        }
      ],
      "name": "ApprovalForAll",
      "type": "event"
    },
    {
      "anonymous": false,
      "inputs": [
        {
          "indexed": false,
          "internalType": "uint256",
          "name": "_fromTokenId",
          "type": "uint256"
        },
        {
          "indexed": false,
          "internalType": "uint256",
          "name": "_toTokenId",
          "type": "uint256"
        }
      ],
      "name": "BatchMetadataUpdate",
      "type": "event"
    },
    {
      "anonymous": false,
      "inputs": [
        {
          "indexed": true,
          "internalType": "uint256",
          "name": "tokenId",
          "type": "uint256"
        },
        {
          "indexed": false,
          "internalType": "address",
          "name": "seller",
          "type": "address"
        },
        {
          "indexed": false,
          "internalType": "address",
          "name": "owner",
          "type": "address"
        },
        {
          "indexed": false,
          "internalType": "uint256",
          "name": "price",
          "type": "uint256"
        },
        {
          "indexed": false,
          "internalType": "bool",
          "name": "sold",
          "type": "bool"
        }
      ],
      "name": "MarketItemCreated",
      "type": "event"
    },
    {
      "anonymous": false,
      "inputs": [
        {
          "indexed": false,
          "internalType": "uint256",
          "name": "_tokenId",
          "type": "uint256"
        }
      ],
      "name": "MetadataUpdate",
      "type": "event"
    },
    {
      "anonymous": false,
      "inputs": [
        {
          "indexed": true,
          "internalType": "uint256",
          "name": "tokenId",
          "type": "uint256"
        },
        {
          "indexed": true,
          "internalType": "address",
          "name": "creator",
          "type": "address"
        },
        {
          "indexed": false,
          "internalType": "string",
          "name": "metadataURI",
          "type": "string"
        },
        {
          "indexed": false,
          "internalType": "uint256",
          "name": "timestamp",
          "type": "uint256"
        }
      ],
      "name": "ProvenanceRecorded",
      "type": "event"
    },
    {
      "anonymous": false,
      "inputs": [
        {
          "indexed": true,
          "internalType": "uint256",
          "name": "tokenId",
          "type": "uint256"
        },
        {
          "indexed": true,
          "internalType": "address",
          "name": "seller",
          "type": "address"
        },
        {
          "indexed": false,
          "internalType": "uint256",
          "name": "price",
          "type": "uint256"
        },
        {
          "indexed": false,
          "internalType": "uint256",
          "name": "timestamp",
          "type": "uint256"
        }
      ],
      "name": "TokenResold",
      "type": "event"
    },
    {
      "anonymous": false,
      "inputs": [
        {
          "indexed": true,
          "internalType": "uint256",
          "name": "tokenId",
          "type": "uint256"
        },
        {
          "indexed": true,
          "internalType": "address",
          "name": "from",
          "type": "address"
        },
        {
          "indexed": true,
          "internalType": "address",
          "name": "to",
          "type": "address"
        },
        {
          "indexed": false,
          "internalType": "uint256",
          "name": "price",
          "type": "uint256"
        },
        {
          "indexed": false,
          "internalType": "uint256",
          "name": "timestamp",
          "type": "uint256"
        }
      ],
      "name": "TokenSold",
      "type": "event"
    },
    {
      "anonymous": false,
      "inputs": [
        {
          "indexed": true,
          "internalType": "address",
          "name": "from",
          "type": "address"
        },
        {
          "indexed": true,
          "internalType": "address",
          "name": "to",
          "type": "address"
        },
        {
          "indexed": true,
          "internalType": "uint256",
          "name": "tokenId",
          "type": "uint256"
        }
      ],
      "name": "Transfer",
      "type": "event"
    },
    {
      "inputs": [
        {
          "internalType": "address",
          "name": "to",
          "type": "address"
        },
        {
          "internalType": "uint256",
          "name": "tokenId",
          "type": "uint256"
        }
      ],
      "name": "approve",
      "outputs": [],
      "stateMutability": "nonpayable",
      "type": "function"
    },
    {
      "inputs": [
        {
          "internalType": "address",
          "name": "owner",
          "type": "address"
        }
      ],
      "name": "balanceOf",
      "outputs": [
        {
          "internalType": "uint256",
          "name": "",
          "type": "uint256"
        }
      ],
      "stateMutability": "view",
      "type": "function"
    },
    {
      "inputs": [
        {
          "internalType": "uint256",
          "name": "tokenId",
          "type": "uint256"
        }
      ],
      "name": "createMarketSale",
      "outputs": [],
      "stateMutability": "payable",
      "type": "function"
    },
    {
      "inputs": [
        {
          "internalType": "string",
          "name": "tokenURI",
          "type": "string"
        },
        {
          "internalType": "uint256",
          "name": "price",
          "type": "uint256"
        }
      ],
      "name": "createToken",
      "outputs": [
        {
          "internalType": "uint256",
          "name": "",
          "type": "uint256"
        }
      ],
      "stateMutability": "payable",
      "type": "function"
    },
    {
      "inputs": [],
      "name": "fetchItemsListed",
      "outputs": [
        {
          "components": [
            {
              "internalType": "uint256",
              "name": "tokenId",
              "type": "uint256"
            },
            {
              "internalType": "address payable",
              "name": "seller",
              "type": "address"
            },
            {
              "internalType": "address payable",
              "name": "owner",
              "type": "address"
            },
            {
              "internalType": "uint256",
              "name": "price",
              "type": "uint256"
            },
            {
              "internalType": "bool",
              "name": "sold",
              "type": "bool"
            }
          ],
          "internalType": "struct NFTMarketplace.MarketItem[]",
          "name": "",
          "type": "tuple[]"
        }
      ],
      "stateMutability": "view",
      "type": "function"
    },
    {
      "inputs": [
        {
          "internalType": "address",
          "name": "targetAddress",
          "type": "address"
        }
      ],
      "name": "fetchListedNFTs",
      "outputs": [
        {
          "components": [
            {
              "internalType": "uint256",
              "name": "tokenId",
              "type": "uint256"
            },
            {
              "internalType": "address payable",
              "name": "seller",
              "type": "address"
            },
            {
              "internalType": "address payable",
              "name": "owner",
              "type": "address"
            },
            {
              "internalType": "uint256",
              "name": "price",
              "type": "uint256"
            },
            {
              "internalType": "bool",
              "name": "sold",
              "type": "bool"
            }
          ],
          "internalType": "struct NFTMarketplace.MarketItem[]",
          "name": "",
          "type": "tuple[]"
        }
      ],
      "stateMutability": "view",
      "type": "function"
    },
    {
      "inputs": [],
      "name": "fetchMarketItems",
      "outputs": [
        {
          "components": [
            {
              "internalType": "uint256",
              "name": "tokenId",
              "type": "uint256"
            },
            {
              "internalType": "address payable",
              "name": "seller",
              "type": "address"
            },
            {
              "internalType": "address payable",
              "name": "owner",
              "type": "address"
            },
            {
              "internalType": "uint256",
              "name": "price",
              "type": "uint256"
            },
            {
              "internalType": "bool",
              "name": "sold",
              "type": "bool"
            }
          ],
          "internalType": "struct NFTMarketplace.MarketItem[]",
          "name": "",
          "type": "tuple[]"
        }
      ],
      "stateMutability": "view",
      "type": "function"
    },
    {
      "inputs": [],
      "name": "fetchMyNFTs",
      "outputs": [
        {
          "components": [
            {
              "internalType": "uint256",
              "name": "tokenId",
              "type": "uint256"
            },
            {
              "internalType": "address payable",
              "name": "seller",
              "type": "address"
            },
            {
              "internalType": "address payable",
              "name": "owner",
              "type": "address"
            },
            {
              "internalType": "uint256",
              "name": "price",
              "type": "uint256"
            },
            {
              "internalType": "bool",
              "name": "sold",
              "type": "bool"
            }
          ],
          "internalType": "struct NFTMarketplace.MarketItem[]",
          "name": "",
          "type": "tuple[]"
        }
      ],
      "stateMutability": "view",
      "type": "function"
    },
    {
      "inputs": [
        {
          "internalType": "uint256",
          "name": "tokenId",
          "type": "uint256"
        }
      ],
      "name": "fetchNFTByTokenId",
      "outputs": [
        {
          "components": [
            {
              "internalType": "uint256",
              "name": "tokenId",
              "type": "uint256"
            },
            {
              "internalType": "address payable",
              "name": "seller",
              "type": "address"
            },
            {
              "internalType": "address payable",
              "name": "owner",
              "type": "address"
            },
            {
              "internalType": "uint256",
              "name": "price",
              "type": "uint256"
            },
            {
              "internalType": "bool",
              "name": "sold",
              "type": "bool"
            }
          ],
          "internalType": "struct NFTMarketplace.MarketItem",
          "name": "",
          "type": "tuple"
        }
      ],
      "stateMutability": "view",
      "type": "function"
    },
    {
      "inputs": [
        {
          "internalType": "address",
          "name": "targetAddress",
          "type": "address"
        }
      ],
      "name": "fetchOwnedNFTs",
      "outputs": [
        {
          "components": [
            {
              "internalType": "uint256",
              "name": "tokenId",
              "type": "uint256"
            },
            {
              "internalType": "address payable",
              "name": "seller",
              "type": "address"
            },
            {
              "internalType": "address payable",
              "name": "owner",
              "type": "address"
            },
            {
              "internalType": "uint256",
              "name": "price",
              "type": "uint256"
            },
            {
              "internalType": "bool",
              "name": "sold",
              "type": "bool"
            }
          ],
          "internalType": "struct NFTMarketplace.MarketItem[]",
          "name": "",
          "type": "tuple[]"
        }
      ],
      "stateMutability": "view",
      "type": "function"
    },
    {
      "inputs": [
        {
          "internalType": "uint256",
          "name": "tokenId",
          "type": "uint256"
        }
      ],
      "name": "getApproved",
      "outputs": [
        {
          "internalType": "address",
          "name": "",
          "type": "address"
        }
      ],
      "stateMutability": "view",
      "type": "function"
    },
    {
      "inputs": [
        {
          "internalType": "uint256",
          "name": "tokenId",
          "type": "uint256"
        }
      ],
      "name": "getCurrentTokenOwner",
      "outputs": [
        {
          "internalType": "address",
          "name": "",
          "type": "address"
        }
      ],
      "stateMutability": "view",
      "type": "function"
    },
    {
      "inputs": [],
      "name": "getListingPrice",
      "outputs": [
        {
          "internalType": "uint256",
          "name": "",
          "type": "uint256"
        }
      ],
      "stateMutability": "view",
      "type": "function"
    },
    {
      "inputs": [
        {
          "internalType": "uint256",
          "name": "tokenId",
          "type": "uint256"
        }
      ],
      "name": "getTokenOwnerCount",
      "outputs": [
        {
          "internalType": "uint256",
          "name": "",
          "type": "uint256"
        }
      ],
      "stateMutability": "view",
      "type": "function"
    },
    {
      "inputs": [
        {
          "internalType": "uint256",
          "name": "tokenId",
          "type": "uint256"
        }
      ],
      "name": "getTokenOwnershipHistory",
      "outputs": [
        {
          "internalType": "address[]",
          "name": "",
          "type": "address[]"
        }
      ],
      "stateMutability": "view",
      "type": "function"
    },
    {
      "inputs": [
        {
          "internalType": "uint256",
          "name": "tokenId",
          "type": "uint256"
        }
      ],
      "name": "getTokenProvenance",
      "outputs": [
        {
          "components": [
            {
              "internalType": "address",
              "name": "creator",
              "type": "address"
            },
            {
              "internalType": "uint256",
              "name": "creationTime",
              "type": "uint256"
            },
            {
              "internalType": "string",
              "name": "metadataURI",
              "type": "string"
            },
            {
              "internalType": "bool",
              "name": "verified",
              "type": "bool"
            }
          ],
          "internalType": "struct NFTMarketplace.Provenance",
          "name": "",
          "type": "tuple"
        }
      ],
      "stateMutability": "view",
      "type": "function"
    },
    {
      "inputs": [
        {
          "internalType": "uint256",
          "name": "tokenId",
          "type": "uint256"
        }
      ],
      "name": "getTokenTransactionCount",
      "outputs": [
        {
          "internalType": "uint256",
          "name": "",
          "type": "uint256"
        }
      ],
      "stateMutability": "view",
      "type": "function"
    },
    {
      "inputs": [
        {
          "internalType": "uint256",
          "name": "tokenId",
          "type": "uint256"
        }
      ],
      "name": "getTokenTransactionHistory",
      "outputs": [
        {
          "components": [
            {
              "internalType": "address",
              "name": "from",
              "type": "address"
            },
            {
              "internalType": "address",
              "name": "to",
              "type": "address"
            },
            {
              "internalType": "uint256",
              "name": "price",
              "type": "uint256"
            },
            {
              "internalType": "uint256",
              "name": "timestamp",
              "type": "uint256"
            },
            {
              "internalType": "enum NFTMarketplace.TransactionType",
              "name": "transactionType",
              "type": "uint8"
            }
          ],
          "internalType": "struct NFTMarketplace.TransactionHistory[]",
          "name": "",
          "type": "tuple[]"
        }
      ],
      "stateMutability": "view",
      "type": "function"
    },
    {
      "inputs": [
        {
          "internalType": "address",
          "name": "creator",
          "type": "address"
        }
      ],
      "name": "getTokensCreatedBy",
      "outputs": [
        {
          "internalType": "uint256[]",
          "name": "",
          "type": "uint256[]"
        }
      ],
      "stateMutability": "view",
      "type": "function"
    },
    {
      "inputs": [
        {
          "internalType": "address",
          "name": "owner",
          "type": "address"
        },
        {
          "internalType": "address",
          "name": "operator",
          "type": "address"
        }
      ],
      "name": "isApprovedForAll",
      "outputs": [
        {
          "internalType": "bool",
          "name": "",
          "type": "bool"
        }
      ],
      "stateMutability": "view",
      "type": "function"
    },
    {
      "inputs": [
        {
          "internalType": "uint256",
          "name": "tokenId",
          "type": "uint256"
        }
      ],
      "name": "isOriginalToken",
      "outputs": [
        {
          "internalType": "bool",
          "name": "",
          "type": "bool"
        }
      ],
      "stateMutability": "view",
      "type": "function"
    },
    {
      "inputs": [],
      "name": "name",
      "outputs": [
        {
          "internalType": "string",
          "name": "",
          "type": "string"
        }
      ],
      "stateMutability": "view",
      "type": "function"
    },
    {
      "inputs": [
        {
          "internalType": "uint256",
          "name": "tokenId",
          "type": "uint256"
        }
      ],
      "name": "ownerOf",
      "outputs": [
        {
          "internalType": "address",
          "name": "",
          "type": "address"
        }
      ],
      "stateMutability": "view",
      "type": "function"
    },
    {
      "inputs": [
        {
          "internalType": "uint256",
          "name": "tokenId",
          "type": "uint256"
        },
        {
          "internalType": "uint256",
          "name": "price",
          "type": "uint256"
        }
      ],
      "name": "resellToken",
      "outputs": [],
      "stateMutability": "payable",
      "type": "function"
    },
    {
      "inputs": [
        {
          "internalType": "address",
          "name": "from",
          "type": "address"
        },
        {
          "internalType": "address",
          "name": "to",
          "type": "address"
        },
        {
          "internalType": "uint256",
          "name": "tokenId",
          "type": "uint256"
        }
      ],
      "name": "safeTransferFrom",
      "outputs": [],
      "stateMutability": "nonpayable",
      "type": "function"
    },
    {
      "inputs": [
        {
          "internalType": "address",
          "name": "from",
          "type": "address"
        },
        {
          "internalType": "address",
          "name": "to",
          "type": "address"
        },
        {
          "internalType": "uint256",
          "name": "tokenId",
          "type": "uint256"
        },
        {
          "internalType": "bytes",
          "name": "data",
          "type": "bytes"
        }
      ],
      "name": "safeTransferFrom",
      "outputs": [],
      "stateMutability": "nonpayable",
      "type": "function"
    },
    {
      "inputs": [
        {
          "internalType": "address",
          "name": "operator",
          "type": "address"
        },
        {
          "internalType": "bool",
          "name": "approved",
          "type": "bool"
        }
      ],
      "name": "setApprovalForAll",
      "outputs": [],
      "stateMutability": "nonpayable",
      "type": "function"
    },
    {
      "inputs": [
        {
          "internalType": "bytes4",
          "name": "interfaceId",
          "type": "bytes4"
        }
      ],
      "name": "supportsInterface",
      "outputs": [
        {
          "internalType": "bool",
          "name": "",
          "type": "bool"
        }
      ],
      "stateMutability": "view",
      "type": "function"
    },
    {
      "inputs": [],
      "name": "symbol",
      "outputs": [
        {
          "internalType": "string",
          "name": "",
          "type": "string"
        }
      ],
      "stateMutability": "view",
      "type": "function"
    },
    {
      "inputs": [
        {
          "internalType": "uint256",
          "name": "tokenId",
          "type": "uint256"
        }
      ],
      "name": "tokenURI",
      "outputs": [
        {
          "internalType": "string",
          "name": "",
          "type": "string"
        }
      ],
      "stateMutability": "view",
      "type": "function"
    },
    {
      "inputs": [
        {
          "internalType": "address",
          "name": "from",
          "type": "address"
        },
        {
          "internalType": "address",
          "name": "to",
          "type": "address"
        },
        {
          "internalType": "uint256",
          "name": "tokenId",
          "type": "uint256"
        }
      ],
      "name": "transferFrom",
      "outputs": [],
      "stateMutability": "nonpayable",
      "type": "function"
    },
    {
      "inputs": [
        {
          "internalType": "uint256",
          "name": "_listingPrice",
          "type": "uint256"
        }
      ],
      "name": "updateListingPrice",
      "outputs": [],
      "stateMutability": "payable",
      "type": "function"
    }
  ],
  "bytecode": "0x60803462000334576001600160401b0390604090808201838111828210176200031e578252601081526020926f4d657461766572736520546f6b656e7360801b848301528251838101818110838211176200031e57845260048152631351551560e21b858201528251908282116200031e5760008054926001958685811c9516801562000313575b89861014620002ff578190601f95868111620002ac575b508990868311600114620002485784926200023c575b5050600019600383901b1c191690861b1781555b8151938411620002285784548581811c911680156200021d575b888210146200020957838111620001c1575b50869284116001146200015b578394959650926200014f575b5050600019600383901b1c191690821b1781555b60075566038d7ea4c68000600a55600b80546001600160a01b031916331790555161308b90816200033a8239f35b0151905038806200010d565b9190601f1984169685845280842093905b888210620001a957505083859697106200018f575b505050811b01815562000121565b015160001960f88460031b161c1916905538808062000181565b8087859682949686015181550195019301906200016c565b8582528782208480870160051c8201928a8810620001ff575b0160051c019086905b828110620001f3575050620000f4565b838155018690620001e3565b92508192620001da565b634e487b7160e01b82526022600452602482fd5b90607f1690620000e2565b634e487b7160e01b81526041600452602490fd5b015190503880620000b4565b8480528a85208994509190601f198416865b8d8282106200029557505084116200027b575b505050811b018155620000c8565b015160001960f88460031b161c191690553880806200026d565b8385015186558c979095019493840193016200025a565b9091508380528984208680850160051c8201928c8610620002f5575b918a91869594930160051c01915b828110620002e65750506200009e565b8681558594508a9101620002d6565b92508192620002c8565b634e487b7160e01b83526022600452602483fd5b94607f169462000087565b634e487b7160e01b600052604160045260246000fd5b600080fdfe608080604052600436101561001357600080fd5b60003560e01c90816301ffc9a7146124ed5750806306566f42146124ad57806306fdde0314612402578063081812fc146123e4578063095ea7b31461226a5780630f08efe0146121b1578063121490a61461216257806312e8558514612144578063202e37401461204e578063213cc53014611fff578063226523dd14611e7e57806323b872dd14611e5557806342842e0e14611e2d57806345f8fa8014611d29578063607307b614611c245780636352211e14611bf457806370a0823114611b5d57806372b3b62014611368578063821af93c1461130357806395d89b4114611220578063a22cb46514611145578063ae677aa31461104e578063b88d4fde14610fec578063be9af53614610ab8578063c4a4d903146109a5578063c87b56dd1461092f578063cb301f7f14610845578063cc55ae69146106db578063ddc0f312146105a3578063e219fc75146102ba578063e985e9c5146102645763edb6770f1461017f57600080fd5b3461025f5760208060031936011261025f576004356000818152600260205260409020546101bc906001600160a01b0316151561275a565b61275a565b600052600f8152604060002060405190818382549182815201908192600052846000209060005b868282106102425786866101f9828803836126e5565b604051928392818401908285525180915260408401929160005b82811061022257505050500390f35b83516001600160a01b031685528695509381019392810192600101610213565b83546001600160a01b0316855290930192600192830192016101e3565b600080fd5b3461025f57604036600319011261025f5761027d6125b2565b6102856125c8565b9060018060a01b03809116600052600560205260406000209116600052602052602060ff604060002054166040519015158152f35b604036600319011261025f576004356024908135916102d7612d81565b6102e082612a5e565b6001600160a01b0390339082160361054c57600a5434036104fb57610306841515612a84565b82600052602091600c83526040600020600481019060ff1991828154169055866003820155600260018201916001600160601b0360a01b92338482541617905501308282541617905560095480156104b7576000190160095561036886612b53565b336000526012855261037e866040600020612b76565b6103888633612e93565b85600052600d8552604060002093604051916103a383612691565b33835286830130815260408401918a83526060850193428552608086019860028a52805490600160401b8210156104a2576001820180825582101561048d57918091600498979695949360005260058d600020910201965116828754161786556001860192511690825416179055516002830155516003820155019251916004831015610479575060ff908354169116179055610441823033612c70565b60405192835242908301527fd6088ca62b31f4b677670aa9482babf70665e6c8a746e78e6bfda34689ae90d960403393a36001600755005b634e487b7160e01b60009081526021600452fd5b89634e487b7160e01b60005260326004526000fd5b89634e487b7160e01b60005260416004526000fd5b60405162461bcd60e51b815260048101879052601b818601527f436f756e7465723a2064656372656d656e74206f766572666c6f7700000000006044820152606490fd5b60405162461bcd60e51b8152602060048201528083018390527f5072696365206d75737420626520657175616c20746f206c697374696e6720706044820152637269636560e01b6064820152608490fd5b60405162461bcd60e51b815260206004820152602a818401527f4f6e6c79206974656d206f776e65722063616e20706572666f726d20746869736044820152691037b832b930ba34b7b760b11b6064820152608490fd5b3461025f5760208060031936011261025f576105bd6125b2565b6008546001600160a01b03918216916000919060015b828111156106a157506105fe6105e8846128ba565b936105f660405195866126e5565b8085526128ba565b8386019490601f190136863760009160015b8481111561065b57878688604051928392818401908285525180915260408401929160005b82811061064457505050500390f35b835185528695509381019392810192600101610635565b80600052600e885282826040600020541614610680575b61067b90612b99565b610610565b92610699818561069361067b948a61299c565b52612b99565b939050610672565b80600052600e8652848260406000205416146106c6575b6106c190612b99565b6105d3565b926106d36106c191612b99565b9390506106b8565b3461025f5760208060031936011261025f57600435600081815260026020526040902054610713906001600160a01b0316151561275a565b600052600d8152604060002090815461072b816128ba565b9061073960405192836126e5565b808252600093845282842083830194855b8382106107e05760408051878152865181890181905289928201908960005b8281106107765784840385f35b909192855160018060a01b0380825116835284820151168483015260408101516040830152606080820151908301526080809101519060048210156107ca578201529482019460a001929190600101610769565b634e487b7160e01b600052602160045260246000fd5b6040516107ec81612691565b83546001600160a01b03908116825260018501541687820152600284015460408201526003840154606082015260048085015460ff16908110156107ca576001928289926080600595015281520193019101909161074a565b3461025f5760208060031936011261025f576004356000606060405161086a816126ad565b8281528285820152816040820152015261089c6101b782600052600260205260018060a01b0360406000205416151590565b600052600e8152604060002090604051906108b6826126ad565b82546001600160a01b039081168352600184015482840190815290936109229160ff60036108e6600285016127d7565b936040880194855201541693606086019415158552604051968796828852511690860152516040850152516080606085015260a0840190612572565b9051151560808301520390f35b3461025f57602036600319011261025f57600435600081815260026020526040902054610966906001600160a01b03161515612a12565b60005260066020526109a161097e60406000206127d7565b600060405161098c816126c9565b52604051918291602083526020830190612572565b0390f35b3461025f5760208060031936011261025f576001600160a01b0390816109c96125b2565b1660005260118152604060002090604051808383829554938481520190600052836000209260005b85828210610aa257505050610a08925003836126e5565b610a1282516128fd565b9260005b8351811015610a945780610a2c6001928661299c565b51600052600c8452604060002060ff600460405192610a4a84612691565b80548452868682015416888501528660028201541660408501526003810154606085015201541615156080820152610a82828861299c565b52610a8d818761299c565b5001610a16565b604051806109a187826125de565b85548452600195860195889550930192016109f1565b602036600319011261025f57610acc612d81565b6004356000908152600c6020526040902060038101546001909101546001600160a01b031634829003610f82576001600160a01b03610b0c600435612a5e565b163003610f2a57600435600052600c60205260ff60046040600020015416610ee557803314610e9657600435600052600c6020526004604060002060028101336001600160601b0360a01b82541617905501600160ff1982541617905560016009540160095560005b601090815480821015610e8e57610b8b8261294d565b60043591549060031b1c14610ba557506001915001610b75565b60001991818301918211610e5957610bcf610bc2610be89361294d565b90549060031b1c9161294d565b90919082549060031b91821b91600019901b1916179055565b81548015610e78570190610c0f610bfe8361294d565b8154906000199060031b1b19169055565b555b80600052601260205260406000209060005b825480821015610e6f57610c378285612984565b60043591549060031b1c14610c4f5750600101610c23565b919290916000198101908111610e5957610c8692610bcf610c73610c819385612984565b90549060031b1c9184612984565b612e76565b336000526011602052610c9f6004356040600020612b76565b600435600052600f602052610cb8336040600020612ad0565b600435600052600d602052604060002060405190610cd582612691565b82825233602083015283604083015242606083015260016080830152805490600160401b821015610e435760018201808255821015610e2d576080916004916000526005602060002091020160018060a01b038451166001600160601b0360a01b8254161781556001810160018060a01b036020860151166001600160601b0360a01b82541617905560408401516002820155606084015160038201550191015160048110156107ca5760ff80198354169116179055610d986004353330612c70565b600080808060018060a01b03600b5416600a5490828215610e24575bf115610e0f5760003415610e1b575b600080808093853491f115610e0f5760405191825242602083015233917fa831d161ab34fd077c450edfeeac91cd8cc4e1d8a3b07930cf05bf9c0a23d83e604060043592a46001600755005b6040513d6000823e3d90fd5b506108fc610dc3565b506108fc610db4565b634e487b7160e01b600052603260045260246000fd5b634e487b7160e01b600052604160045260246000fd5b634e487b7160e01b600052601160045260246000fd5b50509050610c86565b634e487b7160e01b600052603160045260246000fd5b505050610c11565b60405162461bcd60e51b815260206004820152602160248201527f53656c6c65722063616e6e6f7420627579207468656972206f776e20746f6b656044820152603760f91b6064820152608490fd5b60405162461bcd60e51b815260206004820152601960248201527f54686973206974656d20697320616c726561647920736f6c64000000000000006044820152606490fd5b60405162461bcd60e51b815260206004820152602a60248201527f4d61726b6574706c616365206d75737420626520746865206f776e6572206f66604482015269103a3432903a37b5b2b760b11b6064820152608490fd5b608460405162461bcd60e51b815260206004820152604060248201527f506c65617365207375626d6974207468652061736b696e67207072696365206960448201527f6e206f7264657220746f20636f6d706c657465207468652070757263686173656064820152fd5b3461025f57608036600319011261025f576110056125b2565b61100d6125c8565b6064359167ffffffffffffffff831161025f573660238401121561025f5761104261104c933690602481600401359101612723565b9160443591612b0b565b005b602036600319011261025f57600b546001600160a01b0316338190036110da57330361107c57600435600a55005b60405162461bcd60e51b815260206004820152603060248201527f4f6e6c79206d61726b6574706c616365206f776e65722063616e20757064617460448201526f32903634b9ba34b73390383934b1b29760811b6064820152608490fd5b60405162461bcd60e51b815260206004820152603a60248201527f6f6e6c79206f776e6572206f6620746865206d61726b6574706c61636520636160448201527f6e206368616e676520746865206c697374696e672070726963650000000000006064820152608490fd5b3461025f57604036600319011261025f5761115e6125b2565b602435908115159081830361025f576001600160a01b0316913383146111db576111ad9033600052600560205260406000208460005260205260406000209060ff801983541691151516179055565b6040519081527f17307eab39ab6107e8899845ad3d59bd9653f200f220920489ca2b5937696c3160203392a3005b60405162461bcd60e51b815260206004820152601960248201527f4552433732313a20617070726f766520746f2063616c6c6572000000000000006044820152606490fd5b3461025f57600036600319011261025f576040516000600182600154926112468461279d565b92838352602094856001821691826000146112e3575050600114611286575b50611272925003836126e5565b6109a1604051928284938452830190612572565b84915060016000527fb10e2d527612073b26eecdfd717e6a320cf44b4afac2b0732d9fcbe2b7fa0cf6906000915b8583106112cb575050611272935082010185611265565b805483890185015287945086939092019181016112b4565b60ff19168582015261127295151560051b85010192508791506112659050565b3461025f57602036600319011261025f57602060043561133b6101b782600052600260205260018060a01b0360406000205416151590565b6000818152600e835260409020546001600160a01b039081169161135e90612a5e565b1614604051908152f35b604036600319011261025f5760043567ffffffffffffffff811161025f573660238201121561025f576113a5903690602481600401359101612723565b6113ad612d81565b6113ba6024351515612a84565b600a543403611b1f57600160085401806008553315611adb576000818152600260205260409020546113f8906001600160a01b031615155b15612dd7565b60008181526002602052604090205461141b906001600160a01b031615156113f2565b3360005260036020526040600020600181540190558060005260026020526040600020336001600160601b0360a01b825416179055803360007fddf252ad1be2c89b69c2b068fc378daa952ba7f163c4a11628f55a4df523b3ef8180a46000818152600260205260409020546001600160a01b031615611a7f5780600052600660205260406000209180519267ffffffffffffffff8411610e43576114c0815461279d565b601f8111611a3b575b50602093601f81116001146119d45780919293946000916119c9575b508160011b916000199060031b1c19161790555b7ff8e1a15aba9398e019f0b49df1a4fde98ee17ae345cb5f6b5e2c27f5033e8ce76020604051848152a160405161152f816126ad565b3381526020810190428252604081018381526001606083015284600052600e60205260406000209260018060a01b038351166001600160601b0360a01b8554161784555160018401555180519067ffffffffffffffff8211610e4357611598600285015461279d565b601f8111611982575b50602090601f831160011461190a5792826003936060936115f397966000926118ff575b50508160011b9160001990861b1c19161760028501555b0151151591019060ff801983541691151516179055565b817f6832c4a8240aec284b577356b6cecff5af48c14e65c3cfe48759bfde75f9b14461162a60405193604085526040850190612572565b924260208201528033940390a380600052600f60205261164e336040600020612ad0565b80600052600d60205260406000206040519061166982612691565b600082523360208301526000604083015242606083015260006080830152805490600160401b821015610e435760018201808255821015610e2d576080916004916000526005602060002091020160018060a01b038451166001600160601b0360a01b8254161781556001810160018060a01b036020860151166001600160601b0360a01b82541617905560408401516002820155606084015160038201550191015160048110156107ca5760ff80198354169116179055602435156118ba576001600160a01b0361173a82612a5e565b163303611865576020906117e560405161175381612691565b8281526004848201338152604083013081526060840190602435825260808501926000845287600052600c8952604060002095518655600186019060018060a01b039051166001600160601b0360a01b825416179055600285019060018060a01b039051166001600160601b0360a01b82541617905551600384015551151591019060ff801983541691151516179055565b6117ee81612b53565b3360005260128252611804816040600020612b76565b61180e8133612e93565b611819813033612c70565b807fb640004f1d14576d0c209e240cad0410e0d8c0c33a09375861fbadae2588a98d60806040513381523086820152602435604082015260006060820152a26001600755604051908152f35b60405162461bcd60e51b815260206004820152602760248201527f4f6e6c7920746f6b656e206f776e65722063616e20637265617465206d61726b6044820152666574206974656d60c81b6064820152608490fd5b60405162461bcd60e51b815260206004820152601c60248201527f5072696365206d757374206265206174206c65617374203120776569000000006044820152606490fd5b0151905089806115c5565b906002850160005260206000209160005b601f198516811061196a5750836060936115f3979693600193600397601f19811610611952575b505050811b0160028501556115dc565b015160001983881b60f8161c19169055898080611942565b9192602060018192868501518155019401920161191b565b600285016000526020600020601f840160051c8101602085106119c2575b601f830160051c820181106119b65750506115a1565b600081556001016119a0565b50806119a0565b9050830151856114e5565b81600052602060002060005b601f1983168110611a23575060019293949582601f19811610611a0a575b5050811b0190556114f9565b85015160001960f88460031b161c1916905585806119fe565b848701518255602096870196600190920191016119e0565b816000526020600020601f860160051c810160208710611a78575b601f830160051c82018110611a6c5750506114c9565b60008155600101611a56565b5080611a56565b60405162461bcd60e51b815260206004820152602e60248201527f45524337323155524953746f726167653a2055524920736574206f66206e6f6e60448201526d32bc34b9ba32b73a103a37b5b2b760911b6064820152608490fd5b606460405162461bcd60e51b815260206004820152602060248201527f4552433732313a206d696e7420746f20746865207a65726f20616464726573736044820152fd5b60405162461bcd60e51b81526020600482015260166024820152754d75737420706179206c697374696e6720707269636560501b6044820152606490fd5b3461025f57602036600319011261025f576001600160a01b03611b7e6125b2565b168015611b9d5760005260036020526020604060002054604051908152f35b60405162461bcd60e51b815260206004820152602960248201527f4552433732313a2061646472657373207a65726f206973206e6f7420612076616044820152683634b21037bbb732b960b91b6064820152608490fd5b3461025f57602036600319011261025f576020611c12600435612a5e565b6040516001600160a01b039091168152f35b3461025f5760208060031936011261025f576001600160a01b039081611c486125b2565b1660005260128152604060002090604051808383829554938481520190600052836000209260005b85828210611d1357505050611c87925003836126e5565b611c9182516128fd565b9260005b8351811015610a945780611cab6001928661299c565b51600052600c8452604060002060ff600460405192611cc984612691565b80548452868682015416888501528660028201541660408501526003810154606085015201541615156080820152611d01828861299c565b52611d0c818761299c565b5001611c95565b8554845260019586019588955093019201611c70565b3461025f57600036600319011261025f57336000526020601281526040600020604051808284829454938481520190600052846000209260005b86828210611e175784611d78818603826126e5565b611d8281516128fd565b9160005b8251811015611e095780611d9c6001928561299c565b51600052600c8352604060002060ff600460405192611dba84612691565b80548452858060a01b038087830154168886015260028201541660408501526003810154606085015201541615156080820152611df7828761299c565b52611e02818661299c565b5001611d86565b604051806109a186826125de565b8554845260019586019587955093019201611d63565b3461025f5761104c611e3e3661265c565b9060405192611e4c846126c9565b60008452612b0b565b3461025f5761104c611e663661265c565b91611e79611e748433612ba8565b6129b0565b612c70565b3461025f57602036600319011261025f57600435611e9a6128d2565b50600081815260026020526040902054611ebe906001600160a01b0316151561275a565b600080601054905b818110611fd5575b5050611ed982612a5e565b6001600160a01b0391908115611fc9575b5015611f845760a091600052600c60205260ff6004604060002060405193611f1185612691565b8154855280600183015416602086015260028201541660408501526003810154606085015201541615156080820152611f8260405180926080809180518452602081015160018060a01b03809116602086015260408201511660408501526060810151606085015201511515910152565bf35b60405162461bcd60e51b815260206004820152601760248201527f546f6b656e206973206e6f742061636365737369626c650000000000000000006044820152606490fd5b82163314905083611eea565b83611fdf8261294d565b90549060031b1c14611ff357600101611ec6565b50505060018280611ece565b3461025f57602036600319011261025f57600435600081815260026020526040902054612036906001600160a01b0316151561275a565b600052600d6020526020604060002054604051908152f35b3461025f57600036600319011261025f57336000526020601181526040600020604051808284829454938481520190600052846000209260005b8682821061212e578461209d818603826126e5565b6120a781516128fd565b9160005b8251811015611e0957806120c16001928561299c565b51600052600c8352604060002060ff6004604051926120df84612691565b80548452858060a01b03808783015416888601526002820154166040850152600381015460608501520154161515608082015261211c828761299c565b52612127818661299c565b50016120ab565b8554845260019586019587955093019201612088565b3461025f57600036600319011261025f576020600a54604051908152f35b3461025f57602036600319011261025f57600435600081815260026020526040902054612199906001600160a01b0316151561275a565b600052600f6020526020604060002054604051908152f35b3461025f57600036600319011261025f576010546121ce816128fd565b9060005b8181106121e757604051806109a185826125de565b806121f360019261294d565b9054600391821b1c60005260ff6004602092600c84526040600020906040519461221c86612691565b82548652878060a01b0390818985015416908701526002830154166040860152810154606085015201541615156080820152612258828661299c565b52612263818561299c565b50016121d2565b3461025f57604036600319011261025f576122836125b2565b602435906001600160a01b03808061229a85612a5e565b1692169180831461239557803314908115612370575b501561230557600083815260046020526040902080546001600160a01b031916831790556122dd83612a5e565b167f8c5be1e5ebec7d5bd14f71427d1e84f3dd0314c0f7b2291e5b200ac8c7c3b925600080a4005b60405162461bcd60e51b815260206004820152603d60248201527f4552433732313a20617070726f76652063616c6c6572206973206e6f7420746f60448201527f6b656e206f776e6572206f7220617070726f76656420666f7220616c6c0000006064820152608490fd5b9050600052600560205260406000203360005260205260ff60406000205416846122b0565b60405162461bcd60e51b815260206004820152602160248201527f4552433732313a20617070726f76616c20746f2063757272656e74206f776e656044820152603960f91b6064820152608490fd5b3461025f57602036600319011261025f576020611c1260043561287c565b3461025f57600036600319011261025f576040516000805490826124258361279d565b91828252602093600190856001821691826000146112e35750506001146124535750611272925003836126e5565b6000808052859250907f290decd9548b62a8d60345a988386fc84ba6bc95484008f6362f93160ef3e5635b858310612495575050611272935082010185611265565b8054838901850152879450869390920191810161247e565b3461025f57602036600319011261025f576020611c126004356124e86101b782600052600260205260018060a01b0360406000205416151590565b612a5e565b3461025f57602036600319011261025f576004359063ffffffff60e01b821680920361025f57602091632483248360e11b811490811561252f575b5015158152f35b6380ac58cd60e01b811491508115612561575b8115612550575b5083612528565b6301ffc9a760e01b14905083612549565b635b5e139f60e01b81149150612542565b919082519283825260005b84811061259e575050826000602080949584010152601f8019910116010190565b60208183018101518483018201520161257d565b600435906001600160a01b038216820361025f57565b602435906001600160a01b038216820361025f57565b602090602060408183019282815285518094520193019160005b828110612606575050505090565b909192938260a08261265060019489516080809180518452602081015160018060a01b03809116602086015260408201511660408501526060810151606085015201511515910152565b019501939291016125f8565b606090600319011261025f576001600160a01b0390600435828116810361025f5791602435908116810361025f579060443590565b60a0810190811067ffffffffffffffff821117610e4357604052565b6080810190811067ffffffffffffffff821117610e4357604052565b6020810190811067ffffffffffffffff821117610e4357604052565b90601f8019910116810190811067ffffffffffffffff821117610e4357604052565b67ffffffffffffffff8111610e4357601f01601f191660200190565b92919261272f82612707565b9161273d60405193846126e5565b82948184528183011161025f578281602093846000960137010152565b1561276157565b60405162461bcd60e51b8152602060048201526014602482015273151bdad95b88191bd95cc81b9bdd08195e1a5cdd60621b6044820152606490fd5b90600182811c921680156127cd575b60208310146127b757565b634e487b7160e01b600052602260045260246000fd5b91607f16916127ac565b906040519182600082546127ea8161279d565b9081845260209460019160018116908160001461285a575060011461281b575b505050612819925003836126e5565b565b600090815285812095935091905b818310612842575050612819935082010138808061280a565b85548884018501529485019487945091830191612829565b9250505061281994925060ff191682840152151560051b82010138808061280a565b60008181526002602052604090205461289f906001600160a01b03161515612a12565b6000908152600460205260409020546001600160a01b031690565b67ffffffffffffffff8111610e435760051b60200190565b604051906128df82612691565b60006080838281528260208201528260408201528260608201520152565b90612907826128ba565b61291460405191826126e5565b8281528092612925601f19916128ba565b019060005b82811061293657505050565b6020906129416128d2565b8282850101520161292a565b601054811015610e2d5760106000527f1b6847dc741a1b0cd08d278845f9d819d87b734759afb55fe2de5cb82a9ae6720190600090565b8054821015610e2d5760005260206000200190600090565b8051821015610e2d5760209160051b010190565b156129b757565b60405162461bcd60e51b815260206004820152602d60248201527f4552433732313a2063616c6c6572206973206e6f7420746f6b656e206f776e6560448201526c1c881bdc88185c1c1c9bdd9959609a1b6064820152608490fd5b15612a1957565b60405162461bcd60e51b815260206004820152601860248201527f4552433732313a20696e76616c696420746f6b656e20494400000000000000006044820152606490fd5b6000908152600260205260409020546001600160a01b0316612a81811515612a12565b90565b15612a8b57565b60405162461bcd60e51b815260206004820152601c60248201527f5072696365206d7573742062652067726561746572207468616e2030000000006044820152606490fd5b8054600160401b811015610e4357612aed91600182018155612984565b60018060a09493941b038084549260031b9316831b921b1916179055565b90612b2f939291612b1f611e748433612ba8565b612b2a838383612c70565b612f32565b15612b3657565b60405162461bcd60e51b815280612b4f60048201612e23565b0390fd5b60105490600160401b821015610e4357610bcf826001612819940160105561294d565b90815491600160401b831015610e435782610bcf91600161281995018155612984565b6000198114610e595760010190565b906001600160a01b038080612bbc84612a5e565b16931691838314938415612bef575b508315612bd9575b50505090565b612be59192935061287c565b1614388080612bd3565b909350600052600560205260406000208260005260205260ff604060002054169238612bcb565b15612c1d57565b60405162461bcd60e51b815260206004820152602560248201527f4552433732313a207472616e736665722066726f6d20696e636f72726563742060448201526437bbb732b960d91b6064820152608490fd5b90612c9891612c7e84612a5e565b6001600160a01b0393918416928492909183168414612c16565b16918215612d305781612cb591612cae86612a5e565b1614612c16565b7fddf252ad1be2c89b69c2b068fc378daa952ba7f163c4a11628f55a4df523b3ef60008481526004602052604081206001600160601b0360a01b9081815416905583825260036020526040822060001981540190558482526040822060018154019055858252600260205284604083209182541617905580a4565b60405162461bcd60e51b8152602060048201526024808201527f4552433732313a207472616e7366657220746f20746865207a65726f206164646044820152637265737360e01b6064820152608490fd5b600260075414612d92576002600755565b60405162461bcd60e51b815260206004820152601f60248201527f5265656e7472616e637947756172643a207265656e7472616e742063616c6c006044820152606490fd5b15612dde57565b60405162461bcd60e51b815260206004820152601c60248201527f4552433732313a20746f6b656e20616c7265616479206d696e746564000000006044820152606490fd5b60809060208152603260208201527f4552433732313a207472616e7366657220746f206e6f6e20455243373231526560408201527131b2b4bb32b91034b6b83632b6b2b73a32b960711b60608201520190565b80548015610e78576000190190612e90610bfe8383612984565b55565b6001600160a01b031660009081526011602081905260408220919290835b835480821015612f2a578390612ec78387612984565b929054600393841b1c14612edf575050600101612eb1565b94959194909350600019810192908311612f1757505091610bcf610c8192612f0b869561281997612984565b9054911b1c9184612984565b634e487b7160e01b825260045260249150fd5b505050505050565b9293919290803b1561304b57612f869460018060a01b039460405192839187630a85bd0160e11b9687855233600486015216602484015260448301526080606483015281806020998a956084830190612572565b03916000988991165af1849181613007575b50612ff6575050503d600014612fee573d612fb281612707565b90612fc060405192836126e5565b81528091833d92013e5b80519182612feb5760405162461bcd60e51b815280612b4f60048201612e23565b01fd5b506060612fca565b6001600160e01b0319161492509050565b9091508581813d8311613044575b61301f81836126e5565b8101031261304057516001600160e01b031981168103613040579038612f98565b8480fd5b503d613015565b505091505060019056fea264697066735822122071164113462bef2c4e236e1467c8298b5efd3c383b092af6c777ec41eaab349464736f6c63430008180033",
  "linkReferences": {},
  "deployedLinkReferences": {}
}