{
  "_format": "hh-sol-artifact-1",
  "contractName": "NFTMarketplace",
  "sourceName": "contracts/NFTMarketplace.sol",
  "abi": [
    {
      "inputs": [],
      "stateMutability": "nonpayable",
      "type": "constructor"
    },
    {
      "anonymous": false,
      "inputs": [
        {
          "indexed": true,
          "internalType": "address",
          "name": "owner",
          "type": "address"
        },
        {
          "indexed": true,
          "internalType": "address",
          "name": "approved",
          "type": "address"
        },
        {
          "indexed": true,
          "internalType": "uint256",
          "name": "tokenId",
          "type": "uint256"
        }
      ],
      "name": "Approval",
      "type": "event"
    },
    {
      "anonymous": false,
      "inputs": [
        {
          "indexed": true,
          "internalType": "address",
          "name": "owner",
          "type": "address"
        },
        {
          "indexed": true,
          "internalType": "address",
          "name": "operator",
          "type": "address"
        },
        {
          "indexed": false,
          "internalType": "bool",
          "name": "approved",
          "type": "bool"
        }
      ],
      "name": "ApprovalForAll",
      "type": "event"
    },
    {
      "anonymous": false,
      "inputs": [
        {
          "indexed": false,
          "internalType": "uint256",
          "name": "_fromTokenId",
          "type": "uint256"
        },
        {
          "indexed": false,
          "internalType": "uint256",
          "name": "_toTokenId",
          "type": "uint256"
        }
      ],
      "name": "BatchMetadataUpdate",
      "type": "event"
    },
    {
      "anonymous": false,
      "inputs": [
        {
          "indexed": true,
          "internalType": "uint256",
          "name": "tokenId",
          "type": "uint256"
        },
        {
          "indexed": false,
          "internalType": "address",
          "name": "seller",
          "type": "address"
        },
        {
          "indexed": false,
          "internalType": "address",
          "name": "owner",
          "type": "address"
        },
        {
          "indexed": false,
          "internalType": "uint256",
          "name": "price",
          "type": "uint256"
        },
        {
          "indexed": false,
          "internalType": "bool",
          "name": "sold",
          "type": "bool"
        }
      ],
      "name": "MarketItemCreated",
      "type": "event"
    },
    {
      "anonymous": false,
      "inputs": [
        {
          "indexed": false,
          "internalType": "uint256",
          "name": "_tokenId",
          "type": "uint256"
        }
      ],
      "name": "MetadataUpdate",
      "type": "event"
    },
    {
      "anonymous": false,
      "inputs": [
        {
          "indexed": true,
          "internalType": "uint256",
          "name": "tokenId",
          "type": "uint256"
        },
        {
          "indexed": true,
          "internalType": "address",
          "name": "creator",
          "type": "address"
        },
        {
          "indexed": false,
          "internalType": "string",
          "name": "metadataURI",
          "type": "string"
        },
        {
          "indexed": false,
          "internalType": "uint256",
          "name": "timestamp",
          "type": "uint256"
        }
      ],
      "name": "ProvenanceRecorded",
      "type": "event"
    },
    {
      "anonymous": false,
      "inputs": [
        {
          "indexed": true,
          "internalType": "uint256",
          "name": "tokenId",
          "type": "uint256"
        },
        {
          "indexed": true,
          "internalType": "address",
          "name": "seller",
          "type": "address"
        },
        {
          "indexed": false,
          "internalType": "uint256",
          "name": "price",
          "type": "uint256"
        },
        {
          "indexed": false,
          "internalType": "uint256",
          "name": "timestamp",
          "type": "uint256"
        }
      ],
      "name": "TokenResold",
      "type": "event"
    },
    {
      "anonymous": false,
      "inputs": [
        {
          "indexed": true,
          "internalType": "uint256",
          "name": "tokenId",
          "type": "uint256"
        },
        {
          "indexed": true,
          "internalType": "address",
          "name": "from",
          "type": "address"
        },
        {
          "indexed": true,
          "internalType": "address",
          "name": "to",
          "type": "address"
        },
        {
          "indexed": false,
          "internalType": "uint256",
          "name": "price",
          "type": "uint256"
        },
        {
          "indexed": false,
          "internalType": "uint256",
          "name": "timestamp",
          "type": "uint256"
        }
      ],
      "name": "TokenSold",
      "type": "event"
    },
    {
      "anonymous": false,
      "inputs": [
        {
          "indexed": true,
          "internalType": "address",
          "name": "from",
          "type": "address"
        },
        {
          "indexed": true,
          "internalType": "address",
          "name": "to",
          "type": "address"
        },
        {
          "indexed": true,
          "internalType": "uint256",
          "name": "tokenId",
          "type": "uint256"
        }
      ],
      "name": "Transfer",
      "type": "event"
    },
    {
      "inputs": [
        {
          "internalType": "address",
          "name": "to",
          "type": "address"
        },
        {
          "internalType": "uint256",
          "name": "tokenId",
          "type": "uint256"
        }
      ],
      "name": "approve",
      "outputs": [],
      "stateMutability": "nonpayable",
      "type": "function"
    },
    {
      "inputs": [
        {
          "internalType": "address",
          "name": "owner",
          "type": "address"
        }
      ],
      "name": "balanceOf",
      "outputs": [
        {
          "internalType": "uint256",
          "name": "",
          "type": "uint256"
        }
      ],
      "stateMutability": "view",
      "type": "function"
    },
    {
      "inputs": [
        {
          "internalType": "uint256",
          "name": "tokenId",
          "type": "uint256"
        }
      ],
      "name": "createMarketSale",
      "outputs": [],
      "stateMutability": "payable",
      "type": "function"
    },
    {
      "inputs": [
        {
          "internalType": "string",
          "name": "tokenURI",
          "type": "string"
        },
        {
          "internalType": "uint256",
          "name": "price",
          "type": "uint256"
        }
      ],
      "name": "createToken",
      "outputs": [
        {
          "internalType": "uint256",
          "name": "",
          "type": "uint256"
        }
      ],
      "stateMutability": "payable",
      "type": "function"
    },
    {
      "inputs": [],
      "name": "fetchItemsListed",
      "outputs": [
        {
          "components": [
            {
              "internalType": "uint256",
              "name": "tokenId",
              "type": "uint256"
            },
            {
              "internalType": "address payable",
              "name": "seller",
              "type": "address"
            },
            {
              "internalType": "address payable",
              "name": "owner",
              "type": "address"
            },
            {
              "internalType": "uint256",
              "name": "price",
              "type": "uint256"
            },
            {
              "internalType": "bool",
              "name": "sold",
              "type": "bool"
            }
          ],
          "internalType": "struct NFTMarketplace.MarketItem[]",
          "name": "",
          "type": "tuple[]"
        }
      ],
      "stateMutability": "view",
      "type": "function"
    },
    {
      "inputs": [],
      "name": "fetchMarketItems",
      "outputs": [
        {
          "components": [
            {
              "internalType": "uint256",
              "name": "tokenId",
              "type": "uint256"
            },
            {
              "internalType": "address payable",
              "name": "seller",
              "type": "address"
            },
            {
              "internalType": "address payable",
              "name": "owner",
              "type": "address"
            },
            {
              "internalType": "uint256",
              "name": "price",
              "type": "uint256"
            },
            {
              "internalType": "bool",
              "name": "sold",
              "type": "bool"
            }
          ],
          "internalType": "struct NFTMarketplace.MarketItem[]",
          "name": "",
          "type": "tuple[]"
        }
      ],
      "stateMutability": "view",
      "type": "function"
    },
    {
      "inputs": [],
      "name": "fetchMyNFTs",
      "outputs": [
        {
          "components": [
            {
              "internalType": "uint256",
              "name": "tokenId",
              "type": "uint256"
            },
            {
              "internalType": "address payable",
              "name": "seller",
              "type": "address"
            },
            {
              "internalType": "address payable",
              "name": "owner",
              "type": "address"
            },
            {
              "internalType": "uint256",
              "name": "price",
              "type": "uint256"
            },
            {
              "internalType": "bool",
              "name": "sold",
              "type": "bool"
            }
          ],
          "internalType": "struct NFTMarketplace.MarketItem[]",
          "name": "",
          "type": "tuple[]"
        }
      ],
      "stateMutability": "view",
      "type": "function"
    },
    {
      "inputs": [
        {
          "internalType": "uint256",
          "name": "tokenId",
          "type": "uint256"
        }
      ],
      "name": "getApproved",
      "outputs": [
        {
          "internalType": "address",
          "name": "",
          "type": "address"
        }
      ],
      "stateMutability": "view",
      "type": "function"
    },
    {
      "inputs": [
        {
          "internalType": "uint256",
          "name": "tokenId",
          "type": "uint256"
        }
      ],
      "name": "getCurrentTokenOwner",
      "outputs": [
        {
          "internalType": "address",
          "name": "",
          "type": "address"
        }
      ],
      "stateMutability": "view",
      "type": "function"
    },
    {
      "inputs": [],
      "name": "getListingPrice",
      "outputs": [
        {
          "internalType": "uint256",
          "name": "",
          "type": "uint256"
        }
      ],
      "stateMutability": "view",
      "type": "function"
    },
    {
      "inputs": [
        {
          "internalType": "uint256",
          "name": "tokenId",
          "type": "uint256"
        }
      ],
      "name": "getTokenOwnerCount",
      "outputs": [
        {
          "internalType": "uint256",
          "name": "",
          "type": "uint256"
        }
      ],
      "stateMutability": "view",
      "type": "function"
    },
    {
      "inputs": [
        {
          "internalType": "uint256",
          "name": "tokenId",
          "type": "uint256"
        }
      ],
      "name": "getTokenOwnershipHistory",
      "outputs": [
        {
          "internalType": "address[]",
          "name": "",
          "type": "address[]"
        }
      ],
      "stateMutability": "view",
      "type": "function"
    },
    {
      "inputs": [
        {
          "internalType": "uint256",
          "name": "tokenId",
          "type": "uint256"
        }
      ],
      "name": "getTokenProvenance",
      "outputs": [
        {
          "components": [
            {
              "internalType": "address",
              "name": "creator",
              "type": "address"
            },
            {
              "internalType": "uint256",
              "name": "creationTime",
              "type": "uint256"
            },
            {
              "internalType": "string",
              "name": "metadataURI",
              "type": "string"
            },
            {
              "internalType": "bool",
              "name": "verified",
              "type": "bool"
            }
          ],
          "internalType": "struct NFTMarketplace.Provenance",
          "name": "",
          "type": "tuple"
        }
      ],
      "stateMutability": "view",
      "type": "function"
    },
    {
      "inputs": [
        {
          "internalType": "uint256",
          "name": "tokenId",
          "type": "uint256"
        }
      ],
      "name": "getTokenTransactionCount",
      "outputs": [
        {
          "internalType": "uint256",
          "name": "",
          "type": "uint256"
        }
      ],
      "stateMutability": "view",
      "type": "function"
    },
    {
      "inputs": [
        {
          "internalType": "uint256",
          "name": "tokenId",
          "type": "uint256"
        }
      ],
      "name": "getTokenTransactionHistory",
      "outputs": [
        {
          "components": [
            {
              "internalType": "address",
              "name": "from",
              "type": "address"
            },
            {
              "internalType": "address",
              "name": "to",
              "type": "address"
            },
            {
              "internalType": "uint256",
              "name": "price",
              "type": "uint256"
            },
            {
              "internalType": "uint256",
              "name": "timestamp",
              "type": "uint256"
            },
            {
              "internalType": "enum NFTMarketplace.TransactionType",
              "name": "transactionType",
              "type": "uint8"
            }
          ],
          "internalType": "struct NFTMarketplace.TransactionHistory[]",
          "name": "",
          "type": "tuple[]"
        }
      ],
      "stateMutability": "view",
      "type": "function"
    },
    {
      "inputs": [
        {
          "internalType": "address",
          "name": "creator",
          "type": "address"
        }
      ],
      "name": "getTokensCreatedBy",
      "outputs": [
        {
          "internalType": "uint256[]",
          "name": "",
          "type": "uint256[]"
        }
      ],
      "stateMutability": "view",
      "type": "function"
    },
    {
      "inputs": [
        {
          "internalType": "address",
          "name": "owner",
          "type": "address"
        },
        {
          "internalType": "address",
          "name": "operator",
          "type": "address"
        }
      ],
      "name": "isApprovedForAll",
      "outputs": [
        {
          "internalType": "bool",
          "name": "",
          "type": "bool"
        }
      ],
      "stateMutability": "view",
      "type": "function"
    },
    {
      "inputs": [
        {
          "internalType": "uint256",
          "name": "tokenId",
          "type": "uint256"
        }
      ],
      "name": "isOriginalToken",
      "outputs": [
        {
          "internalType": "bool",
          "name": "",
          "type": "bool"
        }
      ],
      "stateMutability": "view",
      "type": "function"
    },
    {
      "inputs": [],
      "name": "name",
      "outputs": [
        {
          "internalType": "string",
          "name": "",
          "type": "string"
        }
      ],
      "stateMutability": "view",
      "type": "function"
    },
    {
      "inputs": [
        {
          "internalType": "uint256",
          "name": "tokenId",
          "type": "uint256"
        }
      ],
      "name": "ownerOf",
      "outputs": [
        {
          "internalType": "address",
          "name": "",
          "type": "address"
        }
      ],
      "stateMutability": "view",
      "type": "function"
    },
    {
      "inputs": [
        {
          "internalType": "uint256",
          "name": "tokenId",
          "type": "uint256"
        },
        {
          "internalType": "uint256",
          "name": "price",
          "type": "uint256"
        }
      ],
      "name": "resellToken",
      "outputs": [],
      "stateMutability": "payable",
      "type": "function"
    },
    {
      "inputs": [
        {
          "internalType": "address",
          "name": "from",
          "type": "address"
        },
        {
          "internalType": "address",
          "name": "to",
          "type": "address"
        },
        {
          "internalType": "uint256",
          "name": "tokenId",
          "type": "uint256"
        }
      ],
      "name": "safeTransferFrom",
      "outputs": [],
      "stateMutability": "nonpayable",
      "type": "function"
    },
    {
      "inputs": [
        {
          "internalType": "address",
          "name": "from",
          "type": "address"
        },
        {
          "internalType": "address",
          "name": "to",
          "type": "address"
        },
        {
          "internalType": "uint256",
          "name": "tokenId",
          "type": "uint256"
        },
        {
          "internalType": "bytes",
          "name": "data",
          "type": "bytes"
        }
      ],
      "name": "safeTransferFrom",
      "outputs": [],
      "stateMutability": "nonpayable",
      "type": "function"
    },
    {
      "inputs": [
        {
          "internalType": "address",
          "name": "operator",
          "type": "address"
        },
        {
          "internalType": "bool",
          "name": "approved",
          "type": "bool"
        }
      ],
      "name": "setApprovalForAll",
      "outputs": [],
      "stateMutability": "nonpayable",
      "type": "function"
    },
    {
      "inputs": [
        {
          "internalType": "bytes4",
          "name": "interfaceId",
          "type": "bytes4"
        }
      ],
      "name": "supportsInterface",
      "outputs": [
        {
          "internalType": "bool",
          "name": "",
          "type": "bool"
        }
      ],
      "stateMutability": "view",
      "type": "function"
    },
    {
      "inputs": [],
      "name": "symbol",
      "outputs": [
        {
          "internalType": "string",
          "name": "",
          "type": "string"
        }
      ],
      "stateMutability": "view",
      "type": "function"
    },
    {
      "inputs": [
        {
          "internalType": "uint256",
          "name": "tokenId",
          "type": "uint256"
        }
      ],
      "name": "tokenURI",
      "outputs": [
        {
          "internalType": "string",
          "name": "",
          "type": "string"
        }
      ],
      "stateMutability": "view",
      "type": "function"
    },
    {
      "inputs": [
        {
          "internalType": "address",
          "name": "from",
          "type": "address"
        },
        {
          "internalType": "address",
          "name": "to",
          "type": "address"
        },
        {
          "internalType": "uint256",
          "name": "tokenId",
          "type": "uint256"
        }
      ],
      "name": "transferFrom",
      "outputs": [],
      "stateMutability": "nonpayable",
      "type": "function"
    },
    {
      "inputs": [
        {
          "internalType": "uint256",
          "name": "_listingPrice",
          "type": "uint256"
        }
      ],
      "name": "updateListingPrice",
      "outputs": [],
      "stateMutability": "payable",
      "type": "function"
    }
  ],
  "bytecode": "0x60803462000334576001600160401b0390604090808201838111828210176200031e578252601081526020926f4d657461766572736520546f6b656e7360801b848301528251838101818110838211176200031e57845260048152631351551560e21b858201528251908282116200031e5760008054926001958685811c9516801562000313575b89861014620002ff578190601f95868111620002ac575b508990868311600114620002485784926200023c575b5050600019600383901b1c191690861b1781555b8151938411620002285784548581811c911680156200021d575b888210146200020957838111620001c1575b50869284116001146200015b578394959650926200014f575b5050600019600383901b1c191690821b1781555b60075566038d7ea4c68000600a55600b80546001600160a01b0319163317905551612c6e90816200033a8239f35b0151905038806200010d565b9190601f1984169685845280842093905b888210620001a957505083859697106200018f575b505050811b01815562000121565b015160001960f88460031b161c1916905538808062000181565b8087859682949686015181550195019301906200016c565b8582528782208480870160051c8201928a8810620001ff575b0160051c019086905b828110620001f3575050620000f4565b838155018690620001e3565b92508192620001da565b634e487b7160e01b82526022600452602482fd5b90607f1690620000e2565b634e487b7160e01b81526041600452602490fd5b015190503880620000b4565b8480528a85208994509190601f198416865b8d8282106200029557505084116200027b575b505050811b018155620000c8565b015160001960f88460031b161c191690553880806200026d565b8385015186558c979095019493840193016200025a565b9091508380528984208680850160051c8201928c8610620002f5575b918a91869594930160051c01915b828110620002e65750506200009e565b8681558594508a9101620002d6565b92508192620002c8565b634e487b7160e01b83526022600452602483fd5b94607f169462000087565b634e487b7160e01b600052604160045260246000fd5b600080fdfe608080604052600436101561001357600080fd5b60003560e01c90816301ffc9a7146120dd5750806306566f421461209d57806306fdde0314611ff2578063081812fc14611fd4578063095ea7b314611e5a5780630f08efe014611da1578063121490a614611d5257806312e8558514611d34578063202e374014611c3e578063213cc53014611bef57806323b872dd14611bc657806342842e0e14611b9e57806345f8fa8014611a9a5780636352211e14611a6a57806370a08231146119d357806372b3b620146111de578063821af93c1461117957806395d89b4114611096578063a22cb46514610fbb578063ae677aa314610ec4578063b88d4fde14610e62578063be9af53614610984578063c87b56dd1461090e578063cb301f7f14610824578063cc55ae69146106ba578063ddc0f31214610582578063e219fc7514610299578063e985e9c5146102435763edb6770f1461015e57600080fd5b3461023e5760208060031936011261023e5760043560008181526002602052604090205461019b906001600160a01b03161515612343565b612343565b600052600f8152604060002060405190818382549182815201908192600052846000209060005b868282106102215786866101d8828803836122ce565b604051928392818401908285525180915260408401929160005b82811061020157505050500390f35b83516001600160a01b0316855286955093810193928101926001016101f2565b83546001600160a01b0316855290930192600192830192016101c2565b600080fd5b3461023e57604036600319011261023e5761025c6121a2565b6102646121b8565b9060018060a01b03809116600052600560205260406000209116600052602052602060ff604060002054166040519015158152f35b604036600319011261023e576004356024908135916102b6612964565b6102bf82612641565b6001600160a01b0390339082160361052b57600a5434036104da576102e5841515612667565b82600052602091600c83526040600020600481019060ff1991828154169055866003820155600260018201916001600160601b0360a01b9233848254161790550130828254161790556009548015610496576000190160095561034786612736565b336000526012855261035d866040600020612759565b6103678633612a76565b85600052600d8552604060002093604051916103828361227a565b33835286830130815260408401918a83526060850193428552608086019860028a52805490600160401b821015610481576001820180825582101561046c57918091600498979695949360005260058d600020910201965116828754161786556001860192511690825416179055516002830155516003820155019251916004831015610458575060ff908354169116179055610420823033612853565b60405192835242908301527fd6088ca62b31f4b677670aa9482babf70665e6c8a746e78e6bfda34689ae90d960403393a36001600755005b634e487b7160e01b60009081526021600452fd5b89634e487b7160e01b60005260326004526000fd5b89634e487b7160e01b60005260416004526000fd5b60405162461bcd60e51b815260048101879052601b818601527f436f756e7465723a2064656372656d656e74206f766572666c6f7700000000006044820152606490fd5b60405162461bcd60e51b8152602060048201528083018390527f5072696365206d75737420626520657175616c20746f206c697374696e6720706044820152637269636560e01b6064820152608490fd5b60405162461bcd60e51b815260206004820152602a818401527f4f6e6c79206974656d206f776e65722063616e20706572666f726d20746869736044820152691037b832b930ba34b7b760b11b6064820152608490fd5b3461023e5760208060031936011261023e5761059c6121a2565b6008546001600160a01b03918216916000919060015b8281111561068057506105dd6105c7846124a3565b936105d560405195866122ce565b8085526124a3565b8386019490601f190136863760009160015b8481111561063a57878688604051928392818401908285525180915260408401929160005b82811061062357505050500390f35b835185528695509381019392810192600101610614565b80600052600e88528282604060002054161461065f575b61065a9061277c565b6105ef565b92610678818561067261065a948a61257f565b5261277c565b939050610651565b80600052600e8652848260406000205416146106a5575b6106a09061277c565b6105b2565b926106b26106a09161277c565b939050610697565b3461023e5760208060031936011261023e576004356000818152600260205260409020546106f2906001600160a01b03161515612343565b600052600d8152604060002090815461070a816124a3565b9061071860405192836122ce565b808252600093845282842083830194855b8382106107bf5760408051878152865181890181905289928201908960005b8281106107555784840385f35b909192855160018060a01b0380825116835284820151168483015260408101516040830152606080820151908301526080809101519060048210156107a9578201529482019460a001929190600101610748565b634e487b7160e01b600052602160045260246000fd5b6040516107cb8161227a565b83546001600160a01b03908116825260018501541687820152600284015460408201526003840154606082015260048085015460ff16908110156107a95760019282899260806005950152815201930191019091610729565b3461023e5760208060031936011261023e576004356000606060405161084981612296565b8281528285820152816040820152015261087b61019682600052600260205260018060a01b0360406000205416151590565b600052600e81526040600020906040519061089582612296565b82546001600160a01b039081168352600184015482840190815290936109019160ff60036108c5600285016123c0565b936040880194855201541693606086019415158552604051968796828852511690860152516040850152516080606085015260a0840190612162565b9051151560808301520390f35b3461023e57602036600319011261023e57600435600081815260026020526040902054610945906001600160a01b031615156125f5565b600052600660205261098061095d60406000206123c0565b600060405161096b816122b2565b52604051918291602083526020830190612162565b0390f35b602036600319011261023e57610998612964565b6004356000908152600c6020526040902060038101546001909101546001600160a01b031634829003610df8576001600160a01b036109d8600435612641565b163003610da057600435600052600c60205260ff60046040600020015416610d5b57600435600052600c6020526004604060002060028101336001600160601b0360a01b82541617905501600160ff1982541617905560016009540160095560005b601090815480821015610d5357610a5082612530565b60043591549060031b1c14610a6a57506001915001610a3a565b60001991818301918211610d1e57610a94610a87610aad93612530565b90549060031b1c91612530565b90919082549060031b91821b91600019901b1916179055565b81548015610d3d570190610ad4610ac383612530565b8154906000199060031b1b19169055565b555b80600052601260205260406000209060005b825480821015610d3457610afc8285612567565b60043591549060031b1c14610b145750600101610ae8565b919290916000198101908111610d1e57610b4b92610a94610b38610b469385612567565b90549060031b1c9184612567565b612a59565b336000526011602052610b646004356040600020612759565b600435600052600f602052610b7d3360406000206126b3565b600435600052600d602052604060002060405190610b9a8261227a565b82825233602083015283604083015242606083015260016080830152805490600160401b821015610d085760018201808255821015610cf2576080916004916000526005602060002091020160018060a01b038451166001600160601b0360a01b8254161781556001810160018060a01b036020860151166001600160601b0360a01b82541617905560408401516002820155606084015160038201550191015160048110156107a95760ff80198354169116179055610c5d6004353330612853565b600080808060018060a01b03600b5416600a5490828215610ce9575bf115610cd45760003415610ce0575b600080808093853491f115610cd45760405191825242602083015233917fa831d161ab34fd077c450edfeeac91cd8cc4e1d8a3b07930cf05bf9c0a23d83e604060043592a46001600755005b6040513d6000823e3d90fd5b506108fc610c88565b506108fc610c79565b634e487b7160e01b600052603260045260246000fd5b634e487b7160e01b600052604160045260246000fd5b634e487b7160e01b600052601160045260246000fd5b50509050610b4b565b634e487b7160e01b600052603160045260246000fd5b505050610ad6565b60405162461bcd60e51b815260206004820152601960248201527f54686973206974656d20697320616c726561647920736f6c64000000000000006044820152606490fd5b60405162461bcd60e51b815260206004820152602a60248201527f4d61726b6574706c616365206d75737420626520746865206f776e6572206f66604482015269103a3432903a37b5b2b760b11b6064820152608490fd5b608460405162461bcd60e51b815260206004820152604060248201527f506c65617365207375626d6974207468652061736b696e67207072696365206960448201527f6e206f7264657220746f20636f6d706c657465207468652070757263686173656064820152fd5b3461023e57608036600319011261023e57610e7b6121a2565b610e836121b8565b6064359167ffffffffffffffff831161023e573660238401121561023e57610eb8610ec293369060248160040135910161230c565b91604435916126ee565b005b602036600319011261023e57600b546001600160a01b031633819003610f50573303610ef257600435600a55005b60405162461bcd60e51b815260206004820152603060248201527f4f6e6c79206d61726b6574706c616365206f776e65722063616e20757064617460448201526f32903634b9ba34b73390383934b1b29760811b6064820152608490fd5b60405162461bcd60e51b815260206004820152603a60248201527f6f6e6c79206f776e6572206f6620746865206d61726b6574706c61636520636160448201527f6e206368616e676520746865206c697374696e672070726963650000000000006064820152608490fd5b3461023e57604036600319011261023e57610fd46121a2565b602435908115159081830361023e576001600160a01b031691338314611051576110239033600052600560205260406000208460005260205260406000209060ff801983541691151516179055565b6040519081527f17307eab39ab6107e8899845ad3d59bd9653f200f220920489ca2b5937696c3160203392a3005b60405162461bcd60e51b815260206004820152601960248201527f4552433732313a20617070726f766520746f2063616c6c6572000000000000006044820152606490fd5b3461023e57600036600319011261023e576040516000600182600154926110bc84612386565b92838352602094856001821691826000146111595750506001146110fc575b506110e8925003836122ce565b610980604051928284938452830190612162565b84915060016000527fb10e2d527612073b26eecdfd717e6a320cf44b4afac2b0732d9fcbe2b7fa0cf6906000915b8583106111415750506110e89350820101856110db565b8054838901850152879450869390920191810161112a565b60ff1916858201526110e895151560051b85010192508791506110db9050565b3461023e57602036600319011261023e5760206004356111b161019682600052600260205260018060a01b0360406000205416151590565b6000818152600e835260409020546001600160a01b03908116916111d490612641565b1614604051908152f35b604036600319011261023e5760043567ffffffffffffffff811161023e573660238201121561023e5761121b90369060248160040135910161230c565b611223612964565b6112306024351515612667565b600a543403611995576001600854018060085533156119515760008181526002602052604090205461126e906001600160a01b031615155b156129ba565b600081815260026020526040902054611291906001600160a01b03161515611268565b3360005260036020526040600020600181540190558060005260026020526040600020336001600160601b0360a01b825416179055803360007fddf252ad1be2c89b69c2b068fc378daa952ba7f163c4a11628f55a4df523b3ef8180a46000818152600260205260409020546001600160a01b0316156118f55780600052600660205260406000209180519267ffffffffffffffff8411610d08576113368154612386565b601f81116118b1575b50602093601f811160011461184a57809192939460009161183f575b508160011b916000199060031b1c19161790555b7ff8e1a15aba9398e019f0b49df1a4fde98ee17ae345cb5f6b5e2c27f5033e8ce76020604051848152a16040516113a581612296565b3381526020810190428252604081018381526001606083015284600052600e60205260406000209260018060a01b038351166001600160601b0360a01b8554161784555160018401555180519067ffffffffffffffff8211610d085761140e6002850154612386565b601f81116117f8575b50602090601f83116001146117805792826003936060936114699796600092611775575b50508160011b9160001990861b1c19161760028501555b0151151591019060ff801983541691151516179055565b817f6832c4a8240aec284b577356b6cecff5af48c14e65c3cfe48759bfde75f9b1446114a060405193604085526040850190612162565b924260208201528033940390a380600052600f6020526114c43360406000206126b3565b80600052600d6020526040600020604051906114df8261227a565b600082523360208301526000604083015242606083015260006080830152805490600160401b821015610d085760018201808255821015610cf2576080916004916000526005602060002091020160018060a01b038451166001600160601b0360a01b8254161781556001810160018060a01b036020860151166001600160601b0360a01b82541617905560408401516002820155606084015160038201550191015160048110156107a95760ff8019835416911617905560243515611730576001600160a01b036115b082612641565b1633036116db5760209061165b6040516115c98161227a565b8281526004848201338152604083013081526060840190602435825260808501926000845287600052600c8952604060002095518655600186019060018060a01b039051166001600160601b0360a01b825416179055600285019060018060a01b039051166001600160601b0360a01b82541617905551600384015551151591019060ff801983541691151516179055565b61166481612736565b336000526012825261167a816040600020612759565b6116848133612a76565b61168f813033612853565b807fb640004f1d14576d0c209e240cad0410e0d8c0c33a09375861fbadae2588a98d60806040513381523086820152602435604082015260006060820152a26001600755604051908152f35b60405162461bcd60e51b815260206004820152602760248201527f4f6e6c7920746f6b656e206f776e65722063616e20637265617465206d61726b6044820152666574206974656d60c81b6064820152608490fd5b60405162461bcd60e51b815260206004820152601c60248201527f5072696365206d757374206265206174206c65617374203120776569000000006044820152606490fd5b01519050898061143b565b906002850160005260206000209160005b601f19851681106117e0575083606093611469979693600193600397601f198116106117c8575b505050811b016002850155611452565b015160001983881b60f8161c191690558980806117b8565b91926020600181928685015181550194019201611791565b600285016000526020600020601f840160051c810160208510611838575b601f830160051c8201811061182c575050611417565b60008155600101611816565b5080611816565b90508301518561135b565b81600052602060002060005b601f1983168110611899575060019293949582601f19811610611880575b5050811b01905561136f565b85015160001960f88460031b161c191690558580611874565b84870151825560209687019660019092019101611856565b816000526020600020601f860160051c8101602087106118ee575b601f830160051c820181106118e257505061133f565b600081556001016118cc565b50806118cc565b60405162461bcd60e51b815260206004820152602e60248201527f45524337323155524953746f726167653a2055524920736574206f66206e6f6e60448201526d32bc34b9ba32b73a103a37b5b2b760911b6064820152608490fd5b606460405162461bcd60e51b815260206004820152602060248201527f4552433732313a206d696e7420746f20746865207a65726f20616464726573736044820152fd5b60405162461bcd60e51b81526020600482015260166024820152754d75737420706179206c697374696e6720707269636560501b6044820152606490fd5b3461023e57602036600319011261023e576001600160a01b036119f46121a2565b168015611a135760005260036020526020604060002054604051908152f35b60405162461bcd60e51b815260206004820152602960248201527f4552433732313a2061646472657373207a65726f206973206e6f7420612076616044820152683634b21037bbb732b960b91b6064820152608490fd5b3461023e57602036600319011261023e576020611a88600435612641565b6040516001600160a01b039091168152f35b3461023e57600036600319011261023e57336000526020601281526040600020604051808284829454938481520190600052846000209260005b86828210611b885784611ae9818603826122ce565b611af381516124bb565b9160005b8251811015611b7a5780611b0d6001928561257f565b51600052600c8352604060002060ff600460405192611b2b8461227a565b80548452858060a01b038087830154168886015260028201541660408501526003810154606085015201541615156080820152611b68828761257f565b52611b73818661257f565b5001611af7565b6040518061098086826121ce565b8554845260019586019587955093019201611ad4565b3461023e57610ec2611baf36612245565b9060405192611bbd846122b2565b600084526126ee565b3461023e57610ec2611bd736612245565b91611bea611be5843361278b565b612593565b612853565b3461023e57602036600319011261023e57600435600081815260026020526040902054611c26906001600160a01b03161515612343565b600052600d6020526020604060002054604051908152f35b3461023e57600036600319011261023e57336000526020601181526040600020604051808284829454938481520190600052846000209260005b86828210611d1e5784611c8d818603826122ce565b611c9781516124bb565b9160005b8251811015611b7a5780611cb16001928561257f565b51600052600c8352604060002060ff600460405192611ccf8461227a565b80548452858060a01b038087830154168886015260028201541660408501526003810154606085015201541615156080820152611d0c828761257f565b52611d17818661257f565b5001611c9b565b8554845260019586019587955093019201611c78565b3461023e57600036600319011261023e576020600a54604051908152f35b3461023e57602036600319011261023e57600435600081815260026020526040902054611d89906001600160a01b03161515612343565b600052600f6020526020604060002054604051908152f35b3461023e57600036600319011261023e57601054611dbe816124bb565b9060005b818110611dd7576040518061098085826121ce565b80611de3600192612530565b9054600391821b1c60005260ff6004602092600c845260406000209060405194611e0c8661227a565b82548652878060a01b0390818985015416908701526002830154166040860152810154606085015201541615156080820152611e48828661257f565b52611e53818561257f565b5001611dc2565b3461023e57604036600319011261023e57611e736121a2565b602435906001600160a01b038080611e8a85612641565b16921691808314611f8557803314908115611f60575b5015611ef557600083815260046020526040902080546001600160a01b03191683179055611ecd83612641565b167f8c5be1e5ebec7d5bd14f71427d1e84f3dd0314c0f7b2291e5b200ac8c7c3b925600080a4005b60405162461bcd60e51b815260206004820152603d60248201527f4552433732313a20617070726f76652063616c6c6572206973206e6f7420746f60448201527f6b656e206f776e6572206f7220617070726f76656420666f7220616c6c0000006064820152608490fd5b9050600052600560205260406000203360005260205260ff6040600020541684611ea0565b60405162461bcd60e51b815260206004820152602160248201527f4552433732313a20617070726f76616c20746f2063757272656e74206f776e656044820152603960f91b6064820152608490fd5b3461023e57602036600319011261023e576020611a88600435612465565b3461023e57600036600319011261023e5760405160008054908261201583612386565b918282526020936001908560018216918260001461115957505060011461204357506110e8925003836122ce565b6000808052859250907f290decd9548b62a8d60345a988386fc84ba6bc95484008f6362f93160ef3e5635b8583106120855750506110e89350820101856110db565b8054838901850152879450869390920191810161206e565b3461023e57602036600319011261023e576020611a886004356120d861019682600052600260205260018060a01b0360406000205416151590565b612641565b3461023e57602036600319011261023e576004359063ffffffff60e01b821680920361023e57602091632483248360e11b811490811561211f575b5015158152f35b6380ac58cd60e01b811491508115612151575b8115612140575b5083612118565b6301ffc9a760e01b14905083612139565b635b5e139f60e01b81149150612132565b919082519283825260005b84811061218e575050826000602080949584010152601f8019910116010190565b60208183018101518483018201520161216d565b600435906001600160a01b038216820361023e57565b602435906001600160a01b038216820361023e57565b60208082019080835283518092528060408094019401926000905b8382106121f857505050505090565b845180518752808401516001600160a01b03908116888601528183015116878301526060808201519088015260809081015115159087015260a090950194938201936001909101906121e9565b606090600319011261023e576001600160a01b0390600435828116810361023e5791602435908116810361023e579060443590565b60a0810190811067ffffffffffffffff821117610d0857604052565b6080810190811067ffffffffffffffff821117610d0857604052565b6020810190811067ffffffffffffffff821117610d0857604052565b90601f8019910116810190811067ffffffffffffffff821117610d0857604052565b67ffffffffffffffff8111610d0857601f01601f191660200190565b929192612318826122f0565b9161232660405193846122ce565b82948184528183011161023e578281602093846000960137010152565b1561234a57565b60405162461bcd60e51b8152602060048201526014602482015273151bdad95b88191bd95cc81b9bdd08195e1a5cdd60621b6044820152606490fd5b90600182811c921680156123b6575b60208310146123a057565b634e487b7160e01b600052602260045260246000fd5b91607f1691612395565b906040519182600082546123d381612386565b908184526020946001916001811690816000146124435750600114612404575b505050612402925003836122ce565b565b600090815285812095935091905b81831061242b57505061240293508201013880806123f3565b85548884018501529485019487945091830191612412565b9250505061240294925060ff191682840152151560051b8201013880806123f3565b600081815260026020526040902054612488906001600160a01b031615156125f5565b6000908152600460205260409020546001600160a01b031690565b67ffffffffffffffff8111610d085760051b60200190565b906124c5826124a3565b6040906124d560405191826122ce565b83815280936124e6601f19916124a3565b019160005b8381106124f85750505050565b60209082516125068161227a565b600081528260008183015260008583015260006060830152600060808301528286010152016124eb565b601054811015610cf25760106000527f1b6847dc741a1b0cd08d278845f9d819d87b734759afb55fe2de5cb82a9ae6720190600090565b8054821015610cf25760005260206000200190600090565b8051821015610cf25760209160051b010190565b1561259a57565b60405162461bcd60e51b815260206004820152602d60248201527f4552433732313a2063616c6c6572206973206e6f7420746f6b656e206f776e6560448201526c1c881bdc88185c1c1c9bdd9959609a1b6064820152608490fd5b156125fc57565b60405162461bcd60e51b815260206004820152601860248201527f4552433732313a20696e76616c696420746f6b656e20494400000000000000006044820152606490fd5b6000908152600260205260409020546001600160a01b03166126648115156125f5565b90565b1561266e57565b60405162461bcd60e51b815260206004820152601c60248201527f5072696365206d7573742062652067726561746572207468616e2030000000006044820152606490fd5b8054600160401b811015610d08576126d091600182018155612567565b60018060a09493941b038084549260031b9316831b921b1916179055565b90612712939291612702611be5843361278b565b61270d838383612853565b612b15565b1561271957565b60405162461bcd60e51b81528061273260048201612a06565b0390fd5b60105490600160401b821015610d0857610a948260016124029401601055612530565b90815491600160401b831015610d085782610a9491600161240295018155612567565b6000198114610d1e5760010190565b906001600160a01b03808061279f84612641565b169316918383149384156127d2575b5083156127bc575b50505090565b6127c891929350612465565b16143880806127b6565b909350600052600560205260406000208260005260205260ff6040600020541692386127ae565b1561280057565b60405162461bcd60e51b815260206004820152602560248201527f4552433732313a207472616e736665722066726f6d20696e636f72726563742060448201526437bbb732b960d91b6064820152608490fd5b9061287b9161286184612641565b6001600160a01b03939184169284929091831684146127f9565b1691821561291357816128989161289186612641565b16146127f9565b7fddf252ad1be2c89b69c2b068fc378daa952ba7f163c4a11628f55a4df523b3ef60008481526004602052604081206001600160601b0360a01b9081815416905583825260036020526040822060001981540190558482526040822060018154019055858252600260205284604083209182541617905580a4565b60405162461bcd60e51b8152602060048201526024808201527f4552433732313a207472616e7366657220746f20746865207a65726f206164646044820152637265737360e01b6064820152608490fd5b600260075414612975576002600755565b60405162461bcd60e51b815260206004820152601f60248201527f5265656e7472616e637947756172643a207265656e7472616e742063616c6c006044820152606490fd5b156129c157565b60405162461bcd60e51b815260206004820152601c60248201527f4552433732313a20746f6b656e20616c7265616479206d696e746564000000006044820152606490fd5b60809060208152603260208201527f4552433732313a207472616e7366657220746f206e6f6e20455243373231526560408201527131b2b4bb32b91034b6b83632b6b2b73a32b960711b60608201520190565b80548015610d3d576000190190612a73610ac38383612567565b55565b6001600160a01b031660009081526011602081905260408220919290835b835480821015612b0d578390612aaa8387612567565b929054600393841b1c14612ac2575050600101612a94565b94959194909350600019810192908311612afa57505091610a94610b4692612aee869561240297612567565b9054911b1c9184612567565b634e487b7160e01b825260045260249150fd5b505050505050565b9293919290803b15612c2e57612b699460018060a01b039460405192839187630a85bd0160e11b9687855233600486015216602484015260448301526080606483015281806020998a956084830190612162565b03916000988991165af1849181612bea575b50612bd9575050503d600014612bd1573d612b95816122f0565b90612ba360405192836122ce565b81528091833d92013e5b80519182612bce5760405162461bcd60e51b81528061273260048201612a06565b01fd5b506060612bad565b6001600160e01b0319161492509050565b9091508581813d8311612c27575b612c0281836122ce565b81010312612c2357516001600160e01b031981168103612c23579038612b7b565b8480fd5b503d612bf8565b505091505060019056fea2646970667358221220f1373c0633f03fea7f3b7fc6ea9d474ca4076fbe93683be0008971f188b1e66064736f6c63430008180033",
  "linkReferences": {},
  "deployedLinkReferences": {}
}